{
	"fundme.sol": {
		"FundMe": {
			"abi": [
				{
					"inputs": [
						{
							"internalType": "uint256",
							"name": "_lockTime",
							"type": "uint256"
						}
					],
					"stateMutability": "nonpayable",
					"type": "constructor"
				},
				{
					"inputs": [],
					"name": "fund",
					"outputs": [],
					"stateMutability": "payable",
					"type": "function"
				},
				{
					"inputs": [
						{
							"internalType": "address",
							"name": "",
							"type": "address"
						}
					],
					"name": "fundersToAccount",
					"outputs": [
						{
							"internalType": "uint256",
							"name": "",
							"type": "uint256"
						}
					],
					"stateMutability": "view",
					"type": "function"
				},
				{
					"inputs": [],
					"name": "getChainlinkDataFeedLatestAnswer",
					"outputs": [
						{
							"internalType": "int256",
							"name": "",
							"type": "int256"
						}
					],
					"stateMutability": "view",
					"type": "function"
				},
				{
					"inputs": [],
					"name": "getFund",
					"outputs": [],
					"stateMutability": "nonpayable",
					"type": "function"
				},
				{
					"inputs": [],
					"name": "refund",
					"outputs": [],
					"stateMutability": "nonpayable",
					"type": "function"
				},
				{
					"inputs": [
						{
							"internalType": "address",
							"name": "newOwner",
							"type": "address"
						}
					],
					"name": "transferOwnership",
					"outputs": [],
					"stateMutability": "nonpayable",
					"type": "function"
				}
			],
			"devdoc": {
				"kind": "dev",
				"methods": {},
				"version": 1
			},
			"evm": {
				"assembly": "    /* \"fundme.sol\":382:3321  contract FundMe {... */\n  mstore(0x40, 0x80)\n    /* \"fundme.sol\":489:501  100 * 10**18 */\n  0x056bc75e2d63100000\n    /* \"fundme.sol\":465:501  uint256 MINIMUM_VALUE = 100 * 10**18 */\n  0x01\n  sstore\n    /* \"fundme.sol\":693:955  constructor(uint256 _lockTime) {... */\n  callvalue\n  dup1\n  iszero\n  tag_1\n  jumpi\n  revert(0x00, 0x00)\ntag_1:\n  pop\n  mload(0x40)\n  sub(codesize, bytecodeSize)\n  dup1\n  bytecodeSize\n  dup4\n  codecopy\n  dup2\n  dup2\n  add\n  0x40\n  mstore\n  dup2\n  add\n  swap1\n  tag_2\n  swap2\n  swap1\n  tag_3\n  jump\t// in\ntag_2:\n    /* \"fundme.sol\":796:838  0x694AA1769357215DE4FAC081bf1f309aDC325306 */\n  0x694aa1769357215de4fac081bf1f309adc325306\n    /* \"fundme.sol\":763:771  dataFeed */\n  0x02\n  0x00\n    /* \"fundme.sol\":763:839  dataFeed = AggregatorV3Interface(0x694AA1769357215DE4FAC081bf1f309aDC325306) */\n  0x0100\n  exp\n  dup2\n  sload\n  dup2\n  0xffffffffffffffffffffffffffffffffffffffff\n  mul\n  not\n  and\n  swap1\n  dup4\n  0xffffffffffffffffffffffffffffffffffffffff\n  and\n  mul\n  or\n  swap1\n  sstore\n  pop\n    /* \"fundme.sol\":858:868  msg.sender */\n  caller\n    /* \"fundme.sol\":850:855  owner */\n  0x03\n  0x00\n    /* \"fundme.sol\":850:868  owner = msg.sender */\n  0x0100\n  exp\n  dup2\n  sload\n  dup2\n  0xffffffffffffffffffffffffffffffffffffffff\n  mul\n  not\n  and\n  swap1\n  dup4\n  0xffffffffffffffffffffffffffffffffffffffff\n  and\n  mul\n  or\n  swap1\n  sstore\n  pop\n    /* \"fundme.sol\":901:916  block.timestamp */\n  timestamp\n    /* \"fundme.sol\":879:898  deploymentTimestamp */\n  0x04\n    /* \"fundme.sol\":879:916  deploymentTimestamp = block.timestamp */\n  dup2\n  swap1\n  sstore\n  pop\n    /* \"fundme.sol\":938:947  _lockTime */\n  dup1\n    /* \"fundme.sol\":927:935  lockTime */\n  0x05\n    /* \"fundme.sol\":927:947  lockTime = _lockTime */\n  dup2\n  swap1\n  sstore\n  pop\n    /* \"fundme.sol\":693:955  constructor(uint256 _lockTime) {... */\n  pop\n    /* \"fundme.sol\":382:3321  contract FundMe {... */\n  jump(tag_6)\n    /* \"#utility.yul\":88:205   */\ntag_8:\n    /* \"#utility.yul\":197:198   */\n  0x00\n    /* \"#utility.yul\":194:195   */\n  0x00\n    /* \"#utility.yul\":187:199   */\n  revert\n    /* \"#utility.yul\":334:411   */\ntag_10:\n    /* \"#utility.yul\":371:378   */\n  0x00\n    /* \"#utility.yul\":400:405   */\n  dup2\n    /* \"#utility.yul\":389:405   */\n  swap1\n  pop\n    /* \"#utility.yul\":334:411   */\n  swap2\n  swap1\n  pop\n  jump\t// out\n    /* \"#utility.yul\":417:539   */\ntag_11:\n    /* \"#utility.yul\":490:514   */\n  tag_19\n    /* \"#utility.yul\":508:513   */\n  dup2\n    /* \"#utility.yul\":490:514   */\n  tag_10\n  jump\t// in\ntag_19:\n    /* \"#utility.yul\":483:488   */\n  dup2\n    /* \"#utility.yul\":480:515   */\n  eq\n    /* \"#utility.yul\":470:533   */\n  tag_20\n  jumpi\n    /* \"#utility.yul\":529:530   */\n  0x00\n    /* \"#utility.yul\":526:527   */\n  0x00\n    /* \"#utility.yul\":519:531   */\n  revert\n    /* \"#utility.yul\":470:533   */\ntag_20:\n    /* \"#utility.yul\":417:539   */\n  pop\n  jump\t// out\n    /* \"#utility.yul\":545:688   */\ntag_12:\n    /* \"#utility.yul\":602:607   */\n  0x00\n    /* \"#utility.yul\":633:639   */\n  dup2\n    /* \"#utility.yul\":627:640   */\n  mload\n    /* \"#utility.yul\":618:640   */\n  swap1\n  pop\n    /* \"#utility.yul\":649:682   */\n  tag_22\n    /* \"#utility.yul\":676:681   */\n  dup2\n    /* \"#utility.yul\":649:682   */\n  tag_11\n  jump\t// in\ntag_22:\n    /* \"#utility.yul\":545:688   */\n  swap3\n  swap2\n  pop\n  pop\n  jump\t// out\n    /* \"#utility.yul\":694:1045   */\ntag_3:\n    /* \"#utility.yul\":764:770   */\n  0x00\n    /* \"#utility.yul\":813:815   */\n  0x20\n    /* \"#utility.yul\":801:810   */\n  dup3\n    /* \"#utility.yul\":792:799   */\n  dup5\n    /* \"#utility.yul\":788:811   */\n  sub\n    /* \"#utility.yul\":784:816   */\n  slt\n    /* \"#utility.yul\":781:900   */\n  iszero\n  tag_24\n  jumpi\n    /* \"#utility.yul\":819:898   */\n  tag_25\n  tag_8\n  jump\t// in\ntag_25:\n    /* \"#utility.yul\":781:900   */\ntag_24:\n    /* \"#utility.yul\":939:940   */\n  0x00\n    /* \"#utility.yul\":964:1028   */\n  tag_26\n    /* \"#utility.yul\":1020:1027   */\n  dup5\n    /* \"#utility.yul\":1011:1017   */\n  dup3\n    /* \"#utility.yul\":1000:1009   */\n  dup6\n    /* \"#utility.yul\":996:1018   */\n  add\n    /* \"#utility.yul\":964:1028   */\n  tag_12\n  jump\t// in\ntag_26:\n    /* \"#utility.yul\":954:1028   */\n  swap2\n  pop\n    /* \"#utility.yul\":910:1038   */\n  pop\n    /* \"#utility.yul\":694:1045   */\n  swap3\n  swap2\n  pop\n  pop\n  jump\t// out\n    /* \"fundme.sol\":382:3321  contract FundMe {... */\ntag_6:\n  dataSize(sub_0)\n  dup1\n  dataOffset(sub_0)\n  0x00\n  codecopy\n  0x00\n  return\nstop\n\nsub_0: assembly {\n        /* \"fundme.sol\":382:3321  contract FundMe {... */\n      mstore(0x40, 0x80)\n      jumpi(tag_1, lt(calldatasize, 0x04))\n      shr(0xe0, calldataload(0x00))\n      dup1\n      0x590e1ae3\n      eq\n      tag_2\n      jumpi\n      dup1\n      0x8edd6eb6\n      eq\n      tag_3\n      jumpi\n      dup1\n      0xb60d4288\n      eq\n      tag_4\n      jumpi\n      dup1\n      0xbea4dfb5\n      eq\n      tag_5\n      jumpi\n      dup1\n      0xc6da75a6\n      eq\n      tag_6\n      jumpi\n      dup1\n      0xf2fde38b\n      eq\n      tag_7\n      jumpi\n    tag_1:\n      revert(0x00, 0x00)\n        /* \"fundme.sol\":2633:3043  function refund() external windowClosed{... */\n    tag_2:\n      callvalue\n      dup1\n      iszero\n      tag_8\n      jumpi\n      revert(0x00, 0x00)\n    tag_8:\n      pop\n      tag_9\n      tag_10\n      jump\t// in\n    tag_9:\n      stop\n        /* \"fundme.sol\":1938:2625  function getFund() external windowClosed onlyOwner{... */\n    tag_3:\n      callvalue\n      dup1\n      iszero\n      tag_11\n      jumpi\n      revert(0x00, 0x00)\n    tag_11:\n      pop\n      tag_12\n      tag_13\n      jump\t// in\n    tag_12:\n      stop\n        /* \"fundme.sol\":963:1247  function fund() external payable {... */\n    tag_4:\n      tag_14\n      tag_15\n      jump\t// in\n    tag_14:\n      stop\n        /* \"fundme.sol\":1255:1612  function getChainlinkDataFeedLatestAnswer() public view returns (int) {... */\n    tag_5:\n      callvalue\n      dup1\n      iszero\n      tag_16\n      jumpi\n      revert(0x00, 0x00)\n    tag_16:\n      pop\n      tag_17\n      tag_18\n      jump\t// in\n    tag_17:\n      mload(0x40)\n      tag_19\n      swap2\n      swap1\n      tag_20\n      jump\t// in\n    tag_19:\n      mload(0x40)\n      dup1\n      swap2\n      sub\n      swap1\n      return\n        /* \"fundme.sol\":405:456  mapping(address => uint256) public fundersToAccount */\n    tag_6:\n      callvalue\n      dup1\n      iszero\n      tag_21\n      jumpi\n      revert(0x00, 0x00)\n    tag_21:\n      pop\n      tag_22\n      0x04\n      dup1\n      calldatasize\n      sub\n      dup2\n      add\n      swap1\n      tag_23\n      swap2\n      swap1\n      tag_24\n      jump\t// in\n    tag_23:\n      tag_25\n      jump\t// in\n    tag_22:\n      mload(0x40)\n      tag_26\n      swap2\n      swap1\n      tag_27\n      jump\t// in\n    tag_26:\n      mload(0x40)\n      dup1\n      swap2\n      sub\n      swap1\n      return\n        /* \"fundme.sol\":1834:1930  function transferOwnership(address newOwner) public onlyOwner{... */\n    tag_7:\n      callvalue\n      dup1\n      iszero\n      tag_28\n      jumpi\n      revert(0x00, 0x00)\n    tag_28:\n      pop\n      tag_29\n      0x04\n      dup1\n      calldatasize\n      sub\n      dup2\n      add\n      swap1\n      tag_30\n      swap2\n      swap1\n      tag_24\n      jump\t// in\n    tag_30:\n      tag_31\n      jump\t// in\n    tag_29:\n      stop\n        /* \"fundme.sol\":2633:3043  function refund() external windowClosed{... */\n    tag_10:\n        /* \"fundme.sol\":3135:3143  lockTime */\n      sload(0x05)\n        /* \"fundme.sol\":3113:3132  deploymentTimestamp */\n      sload(0x04)\n        /* \"fundme.sol\":3113:3143  deploymentTimestamp + lockTime */\n      tag_33\n      swap2\n      swap1\n      tag_34\n      jump\t// in\n    tag_33:\n        /* \"fundme.sol\":3094:3109  block.timestamp */\n      timestamp\n        /* \"fundme.sol\":3094:3143  block.timestamp >= deploymentTimestamp + lockTime */\n      lt\n      iszero\n        /* \"fundme.sol\":3086:3177  require(block.timestamp >= deploymentTimestamp + lockTime, \"The lock period has not ended\") */\n      tag_35\n      jumpi\n      mload(0x40)\n      0x08c379a000000000000000000000000000000000000000000000000000000000\n      dup2\n      mstore\n      0x04\n      add\n      tag_36\n      swap1\n      tag_37\n      jump\t// in\n    tag_36:\n      mload(0x40)\n      dup1\n      swap2\n      sub\n      swap1\n      revert\n    tag_35:\n        /* \"fundme.sol\":542:555  1000 * 10**18 */\n      0x3635c9adc5dea00000\n        /* \"fundme.sol\":2691:2729  convertEthToUsd(address(this).balance) */\n      tag_39\n        /* \"fundme.sol\":2707:2728  address(this).balance */\n      selfbalance\n        /* \"fundme.sol\":2691:2706  convertEthToUsd */\n      tag_40\n        /* \"fundme.sol\":2691:2729  convertEthToUsd(address(this).balance) */\n      jump\t// in\n    tag_39:\n        /* \"fundme.sol\":2691:2738  convertEthToUsd(address(this).balance) < TARGET */\n      lt\n        /* \"fundme.sol\":2683:2761  require(convertEthToUsd(address(this).balance) < TARGET, \"Target has reached\") */\n      tag_41\n      jumpi\n      mload(0x40)\n      0x08c379a000000000000000000000000000000000000000000000000000000000\n      dup2\n      mstore\n      0x04\n      add\n      tag_42\n      swap1\n      tag_43\n      jump\t// in\n    tag_42:\n      mload(0x40)\n      dup1\n      swap2\n      sub\n      swap1\n      revert\n    tag_41:\n        /* \"fundme.sol\":2812:2813  0 */\n      0x00\n        /* \"fundme.sol\":2780:2796  fundersToAccount */\n      0x00\n        /* \"fundme.sol\":2780:2808  fundersToAccount[msg.sender] */\n      0x00\n        /* \"fundme.sol\":2797:2807  msg.sender */\n      caller\n        /* \"fundme.sol\":2780:2808  fundersToAccount[msg.sender] */\n      0xffffffffffffffffffffffffffffffffffffffff\n      and\n      0xffffffffffffffffffffffffffffffffffffffff\n      and\n      dup2\n      mstore\n      0x20\n      add\n      swap1\n      dup2\n      mstore\n      0x20\n      add\n      0x00\n      keccak256\n      sload\n        /* \"fundme.sol\":2780:2813  fundersToAccount[msg.sender] != 0 */\n      sub\n        /* \"fundme.sol\":2772:2836  require(fundersToAccount[msg.sender] != 0, \"You are not funder\") */\n      tag_44\n      jumpi\n      mload(0x40)\n      0x08c379a000000000000000000000000000000000000000000000000000000000\n      dup2\n      mstore\n      0x04\n      add\n      tag_45\n      swap1\n      tag_46\n      jump\t// in\n    tag_45:\n      mload(0x40)\n      dup1\n      swap2\n      sub\n      swap1\n      revert\n    tag_44:\n        /* \"fundme.sol\":2847:2859  bool success */\n      0x00\n        /* \"fundme.sol\":2891:2901  msg.sender */\n      caller\n        /* \"fundme.sol\":2883:2907  payable(msg.sender).call */\n      0xffffffffffffffffffffffffffffffffffffffff\n      and\n        /* \"fundme.sol\":2915:2936  address(this).balance */\n      selfbalance\n        /* \"fundme.sol\":2883:2941  payable(msg.sender).call{value: address(this).balance}(\"\") */\n      mload(0x40)\n      tag_47\n      swap1\n      tag_48\n      jump\t// in\n    tag_47:\n      0x00\n      mload(0x40)\n      dup1\n      dup4\n      sub\n      dup2\n      dup6\n      dup8\n      gas\n      call\n      swap3\n      pop\n      pop\n      pop\n      returndatasize\n      dup1\n      0x00\n      dup2\n      eq\n      tag_51\n      jumpi\n      mload(0x40)\n      swap2\n      pop\n      and(add(returndatasize, 0x3f), not(0x1f))\n      dup3\n      add\n      0x40\n      mstore\n      returndatasize\n      dup3\n      mstore\n      returndatasize\n      0x00\n      0x20\n      dup5\n      add\n      returndatacopy\n      jump(tag_50)\n    tag_51:\n      0x60\n      swap2\n      pop\n    tag_50:\n      pop\n        /* \"fundme.sol\":2870:2941  (success,) = payable(msg.sender).call{value: address(this).balance}(\"\") */\n      pop\n      dup1\n      swap2\n      pop\n      pop\n        /* \"fundme.sol\":2960:2967  success */\n      dup1\n        /* \"fundme.sol\":2952:2990  require(success, \"transfer tx failed\") */\n      tag_52\n      jumpi\n      mload(0x40)\n      0x08c379a000000000000000000000000000000000000000000000000000000000\n      dup2\n      mstore\n      0x04\n      add\n      tag_53\n      swap1\n      tag_54\n      jump\t// in\n    tag_53:\n      mload(0x40)\n      dup1\n      swap2\n      sub\n      swap1\n      revert\n    tag_52:\n        /* \"fundme.sol\":3032:3033  0 */\n      0x00\n        /* \"fundme.sol\":3001:3017  fundersToAccount */\n      0x00\n        /* \"fundme.sol\":3001:3029  fundersToAccount[msg.sender] */\n      0x00\n        /* \"fundme.sol\":3018:3028  msg.sender */\n      caller\n        /* \"fundme.sol\":3001:3029  fundersToAccount[msg.sender] */\n      0xffffffffffffffffffffffffffffffffffffffff\n      and\n      0xffffffffffffffffffffffffffffffffffffffff\n      and\n      dup2\n      mstore\n      0x20\n      add\n      swap1\n      dup2\n      mstore\n      0x20\n      add\n      0x00\n      keccak256\n        /* \"fundme.sol\":3001:3033  fundersToAccount[msg.sender] = 0 */\n      dup2\n      swap1\n      sstore\n      pop\n        /* \"fundme.sol\":2672:3043  {... */\n      pop\n        /* \"fundme.sol\":2633:3043  function refund() external windowClosed{... */\n      jump\t// out\n        /* \"fundme.sol\":1938:2625  function getFund() external windowClosed onlyOwner{... */\n    tag_13:\n        /* \"fundme.sol\":3135:3143  lockTime */\n      sload(0x05)\n        /* \"fundme.sol\":3113:3132  deploymentTimestamp */\n      sload(0x04)\n        /* \"fundme.sol\":3113:3143  deploymentTimestamp + lockTime */\n      tag_56\n      swap2\n      swap1\n      tag_34\n      jump\t// in\n    tag_56:\n        /* \"fundme.sol\":3094:3109  block.timestamp */\n      timestamp\n        /* \"fundme.sol\":3094:3143  block.timestamp >= deploymentTimestamp + lockTime */\n      lt\n      iszero\n        /* \"fundme.sol\":3086:3177  require(block.timestamp >= deploymentTimestamp + lockTime, \"The lock period has not ended\") */\n      tag_57\n      jumpi\n      mload(0x40)\n      0x08c379a000000000000000000000000000000000000000000000000000000000\n      dup2\n      mstore\n      0x04\n      add\n      tag_58\n      swap1\n      tag_37\n      jump\t// in\n    tag_58:\n      mload(0x40)\n      dup1\n      swap2\n      sub\n      swap1\n      revert\n    tag_57:\n        /* \"fundme.sol\":3261:3266  owner */\n      0x03\n      0x00\n      swap1\n      sload\n      swap1\n      0x0100\n      exp\n      swap1\n      div\n      0xffffffffffffffffffffffffffffffffffffffff\n      and\n        /* \"fundme.sol\":3247:3266  msg.sender == owner */\n      0xffffffffffffffffffffffffffffffffffffffff\n      and\n        /* \"fundme.sol\":3247:3257  msg.sender */\n      caller\n        /* \"fundme.sol\":3247:3266  msg.sender == owner */\n      0xffffffffffffffffffffffffffffffffffffffff\n      and\n      eq\n        /* \"fundme.sol\":3239:3292  require(msg.sender == owner, \"You are not the owner\") */\n      tag_60\n      jumpi\n      mload(0x40)\n      0x08c379a000000000000000000000000000000000000000000000000000000000\n      dup2\n      mstore\n      0x04\n      add\n      tag_61\n      swap1\n      tag_62\n      jump\t// in\n    tag_61:\n      mload(0x40)\n      dup1\n      swap2\n      sub\n      swap1\n      revert\n    tag_60:\n        /* \"fundme.sol\":542:555  1000 * 10**18 */\n      0x3635c9adc5dea00000\n        /* \"fundme.sol\":2007:2045  convertEthToUsd(address(this).balance) */\n      tag_64\n        /* \"fundme.sol\":2023:2044  address(this).balance */\n      selfbalance\n        /* \"fundme.sol\":2007:2022  convertEthToUsd */\n      tag_40\n        /* \"fundme.sol\":2007:2045  convertEthToUsd(address(this).balance) */\n      jump\t// in\n    tag_64:\n        /* \"fundme.sol\":2007:2055  convertEthToUsd(address(this).balance) >= TARGET */\n      lt\n      iszero\n        /* \"fundme.sol\":1999:2081  require(convertEthToUsd(address(this).balance) >= TARGET, \"Target is not reached\") */\n      tag_65\n      jumpi\n      mload(0x40)\n      0x08c379a000000000000000000000000000000000000000000000000000000000\n      dup2\n      mstore\n      0x04\n      add\n      tag_66\n      swap1\n      tag_67\n      jump\t// in\n    tag_66:\n      mload(0x40)\n      dup1\n      swap2\n      sub\n      swap1\n      revert\n    tag_65:\n        /* \"fundme.sol\":2474:2486  bool success */\n      0x00\n        /* \"fundme.sol\":2518:2528  msg.sender */\n      caller\n        /* \"fundme.sol\":2510:2534  payable(msg.sender).call */\n      0xffffffffffffffffffffffffffffffffffffffff\n      and\n        /* \"fundme.sol\":2542:2563  address(this).balance */\n      selfbalance\n        /* \"fundme.sol\":2510:2568  payable(msg.sender).call{value: address(this).balance}(\"\") */\n      mload(0x40)\n      tag_68\n      swap1\n      tag_48\n      jump\t// in\n    tag_68:\n      0x00\n      mload(0x40)\n      dup1\n      dup4\n      sub\n      dup2\n      dup6\n      dup8\n      gas\n      call\n      swap3\n      pop\n      pop\n      pop\n      returndatasize\n      dup1\n      0x00\n      dup2\n      eq\n      tag_71\n      jumpi\n      mload(0x40)\n      swap2\n      pop\n      and(add(returndatasize, 0x3f), not(0x1f))\n      dup3\n      add\n      0x40\n      mstore\n      returndatasize\n      dup3\n      mstore\n      returndatasize\n      0x00\n      0x20\n      dup5\n      add\n      returndatacopy\n      jump(tag_70)\n    tag_71:\n      0x60\n      swap2\n      pop\n    tag_70:\n      pop\n        /* \"fundme.sol\":2497:2568  (success,) = payable(msg.sender).call{value: address(this).balance}(\"\") */\n      pop\n      dup1\n      swap2\n      pop\n      pop\n        /* \"fundme.sol\":2587:2594  success */\n      dup1\n        /* \"fundme.sol\":2579:2617  require(success, \"transfer tx failed\") */\n      tag_72\n      jumpi\n      mload(0x40)\n      0x08c379a000000000000000000000000000000000000000000000000000000000\n      dup2\n      mstore\n      0x04\n      add\n      tag_73\n      swap1\n      tag_54\n      jump\t// in\n    tag_73:\n      mload(0x40)\n      dup1\n      swap2\n      sub\n      swap1\n      revert\n    tag_72:\n        /* \"fundme.sol\":1988:2625  {... */\n      pop\n        /* \"fundme.sol\":1938:2625  function getFund() external windowClosed onlyOwner{... */\n      jump\t// out\n        /* \"fundme.sol\":963:1247  function fund() external payable {... */\n    tag_15:\n        /* \"fundme.sol\":1045:1058  MINIMUM_VALUE */\n      sload(0x01)\n        /* \"fundme.sol\":1015:1041  convertEthToUsd(msg.value) */\n      tag_75\n        /* \"fundme.sol\":1031:1040  msg.value */\n      callvalue\n        /* \"fundme.sol\":1015:1030  convertEthToUsd */\n      tag_40\n        /* \"fundme.sol\":1015:1041  convertEthToUsd(msg.value) */\n      jump\t// in\n    tag_75:\n        /* \"fundme.sol\":1015:1058  convertEthToUsd(msg.value) >= MINIMUM_VALUE */\n      lt\n      iszero\n        /* \"fundme.sol\":1007:1089  require(convertEthToUsd(msg.value) >= MINIMUM_VALUE, \"YOU SHOULD FUND MORE ETH!!\") */\n      tag_76\n      jumpi\n      mload(0x40)\n      0x08c379a000000000000000000000000000000000000000000000000000000000\n      dup2\n      mstore\n      0x04\n      add\n      tag_77\n      swap1\n      tag_78\n      jump\t// in\n    tag_77:\n      mload(0x40)\n      dup1\n      swap2\n      sub\n      swap1\n      revert\n    tag_76:\n        /* \"fundme.sol\":1131:1140  msg.value */\n      callvalue\n        /* \"fundme.sol\":1100:1116  fundersToAccount */\n      0x00\n        /* \"fundme.sol\":1100:1128  fundersToAccount[msg.sender] */\n      0x00\n        /* \"fundme.sol\":1117:1127  msg.sender */\n      caller\n        /* \"fundme.sol\":1100:1128  fundersToAccount[msg.sender] */\n      0xffffffffffffffffffffffffffffffffffffffff\n      and\n      0xffffffffffffffffffffffffffffffffffffffff\n      and\n      dup2\n      mstore\n      0x20\n      add\n      swap1\n      dup2\n      mstore\n      0x20\n      add\n      0x00\n      keccak256\n        /* \"fundme.sol\":1100:1140  fundersToAccount[msg.sender] = msg.value */\n      dup2\n      swap1\n      sstore\n      pop\n        /* \"fundme.sol\":1199:1207  lockTime */\n      sload(0x05)\n        /* \"fundme.sol\":1177:1196  deploymentTimestamp */\n      sload(0x04)\n        /* \"fundme.sol\":1177:1207  deploymentTimestamp + lockTime */\n      tag_79\n      swap2\n      swap1\n      tag_34\n      jump\t// in\n    tag_79:\n        /* \"fundme.sol\":1159:1174  block.timestamp */\n      timestamp\n        /* \"fundme.sol\":1159:1207  block.timestamp < deploymentTimestamp + lockTime */\n      lt\n        /* \"fundme.sol\":1151:1237  require(block.timestamp < deploymentTimestamp + lockTime, \"The lock period has ended\") */\n      tag_80\n      jumpi\n      mload(0x40)\n      0x08c379a000000000000000000000000000000000000000000000000000000000\n      dup2\n      mstore\n      0x04\n      add\n      tag_81\n      swap1\n      tag_82\n      jump\t// in\n    tag_81:\n      mload(0x40)\n      dup1\n      swap2\n      sub\n      swap1\n      revert\n    tag_80:\n        /* \"fundme.sol\":963:1247  function fund() external payable {... */\n      jump\t// out\n        /* \"fundme.sol\":1255:1612  function getChainlinkDataFeedLatestAnswer() public view returns (int) {... */\n    tag_18:\n        /* \"fundme.sol\":1320:1323  int */\n      0x00\n        /* \"fundme.sol\":1414:1427  int256 answer */\n      0x00\n        /* \"fundme.sol\":1554:1562  dataFeed */\n      0x02\n      0x00\n      swap1\n      sload\n      swap1\n      0x0100\n      exp\n      swap1\n      div\n      0xffffffffffffffffffffffffffffffffffffffff\n      and\n        /* \"fundme.sol\":1554:1578  dataFeed.latestRoundData */\n      0xffffffffffffffffffffffffffffffffffffffff\n      and\n      0xfeaf968c\n        /* \"fundme.sol\":1554:1580  dataFeed.latestRoundData() */\n      mload(0x40)\n      dup2\n      0xffffffff\n      and\n      0xe0\n      shl\n      dup2\n      mstore\n      0x04\n      add\n      0xa0\n      mload(0x40)\n      dup1\n      dup4\n      sub\n      dup2\n      dup7\n      gas\n      staticcall\n      iszero\n      dup1\n      iszero\n      tag_85\n      jumpi\n      returndatacopy(0x00, 0x00, returndatasize)\n      revert(0x00, returndatasize)\n    tag_85:\n      pop\n      pop\n      pop\n      pop\n      mload(0x40)\n      returndatasize\n      not(0x1f)\n      0x1f\n      dup3\n      add\n      and\n      dup3\n      add\n      dup1\n      0x40\n      mstore\n      pop\n      dup2\n      add\n      swap1\n      tag_86\n      swap2\n      swap1\n      tag_87\n      jump\t// in\n    tag_86:\n        /* \"fundme.sol\":1364:1580  (... */\n      pop\n      pop\n      pop\n      swap2\n      pop\n      pop\n        /* \"fundme.sol\":1598:1604  answer */\n      dup1\n        /* \"fundme.sol\":1591:1604  return answer */\n      swap2\n      pop\n      pop\n        /* \"fundme.sol\":1255:1612  function getChainlinkDataFeedLatestAnswer() public view returns (int) {... */\n      swap1\n      jump\t// out\n        /* \"fundme.sol\":405:456  mapping(address => uint256) public fundersToAccount */\n    tag_25:\n      mstore(0x20, 0x00)\n      dup1\n      0x00\n      mstore\n      keccak256(0x00, 0x40)\n      0x00\n      swap2\n      pop\n      swap1\n      pop\n      sload\n      dup2\n      jump\t// out\n        /* \"fundme.sol\":1834:1930  function transferOwnership(address newOwner) public onlyOwner{... */\n    tag_31:\n        /* \"fundme.sol\":3261:3266  owner */\n      0x03\n      0x00\n      swap1\n      sload\n      swap1\n      0x0100\n      exp\n      swap1\n      div\n      0xffffffffffffffffffffffffffffffffffffffff\n      and\n        /* \"fundme.sol\":3247:3266  msg.sender == owner */\n      0xffffffffffffffffffffffffffffffffffffffff\n      and\n        /* \"fundme.sol\":3247:3257  msg.sender */\n      caller\n        /* \"fundme.sol\":3247:3266  msg.sender == owner */\n      0xffffffffffffffffffffffffffffffffffffffff\n      and\n      eq\n        /* \"fundme.sol\":3239:3292  require(msg.sender == owner, \"You are not the owner\") */\n      tag_89\n      jumpi\n      mload(0x40)\n      0x08c379a000000000000000000000000000000000000000000000000000000000\n      dup2\n      mstore\n      0x04\n      add\n      tag_90\n      swap1\n      tag_62\n      jump\t// in\n    tag_90:\n      mload(0x40)\n      dup1\n      swap2\n      sub\n      swap1\n      revert\n    tag_89:\n        /* \"fundme.sol\":1914:1922  newOwner */\n      dup1\n        /* \"fundme.sol\":1906:1911  owner */\n      0x03\n      0x00\n        /* \"fundme.sol\":1906:1922  owner = newOwner */\n      0x0100\n      exp\n      dup2\n      sload\n      dup2\n      0xffffffffffffffffffffffffffffffffffffffff\n      mul\n      not\n      and\n      swap1\n      dup4\n      0xffffffffffffffffffffffffffffffffffffffff\n      and\n      mul\n      or\n      swap1\n      sstore\n      pop\n        /* \"fundme.sol\":1834:1930  function transferOwnership(address newOwner) public onlyOwner{... */\n      pop\n      jump\t// out\n        /* \"fundme.sol\":1620:1826  function convertEthToUsd(uint256 ethAmount) internal view returns (uint256){... */\n    tag_40:\n        /* \"fundme.sol\":1687:1694  uint256 */\n      0x00\n        /* \"fundme.sol\":1706:1722  uint256 ethPrice */\n      0x00\n        /* \"fundme.sol\":1733:1767  getChainlinkDataFeedLatestAnswer() */\n      tag_93\n        /* \"fundme.sol\":1733:1765  getChainlinkDataFeedLatestAnswer */\n      tag_18\n        /* \"fundme.sol\":1733:1767  getChainlinkDataFeedLatestAnswer() */\n      jump\t// in\n    tag_93:\n        /* \"fundme.sol\":1706:1768  uint256 ethPrice = uint256(getChainlinkDataFeedLatestAnswer()) */\n      swap1\n      pop\n        /* \"fundme.sol\":1812:1817  10**8 */\n      0x05f5e100\n        /* \"fundme.sol\":1798:1807  ethAmount */\n      dup4\n        /* \"fundme.sol\":1787:1795  ethPrice */\n      dup3\n        /* \"fundme.sol\":1787:1807  ethPrice * ethAmount */\n      tag_94\n      swap2\n      swap1\n      tag_95\n      jump\t// in\n    tag_94:\n        /* \"fundme.sol\":1786:1818  (ethPrice * ethAmount) / (10**8) */\n      tag_96\n      swap2\n      swap1\n      tag_97\n      jump\t// in\n    tag_96:\n        /* \"fundme.sol\":1779:1818  return (ethPrice * ethAmount) / (10**8) */\n      swap2\n      pop\n      pop\n        /* \"fundme.sol\":1620:1826  function convertEthToUsd(uint256 ethAmount) internal view returns (uint256){... */\n      swap2\n      swap1\n      pop\n      jump\t// out\n        /* \"#utility.yul\":7:83   */\n    tag_98:\n        /* \"#utility.yul\":43:50   */\n      0x00\n        /* \"#utility.yul\":72:77   */\n      dup2\n        /* \"#utility.yul\":61:77   */\n      swap1\n      pop\n        /* \"#utility.yul\":7:83   */\n      swap2\n      swap1\n      pop\n      jump\t// out\n        /* \"#utility.yul\":89:204   */\n    tag_99:\n        /* \"#utility.yul\":174:197   */\n      tag_141\n        /* \"#utility.yul\":191:196   */\n      dup2\n        /* \"#utility.yul\":174:197   */\n      tag_98\n      jump\t// in\n    tag_141:\n        /* \"#utility.yul\":169:172   */\n      dup3\n        /* \"#utility.yul\":162:198   */\n      mstore\n        /* \"#utility.yul\":89:204   */\n      pop\n      pop\n      jump\t// out\n        /* \"#utility.yul\":210:428   */\n    tag_20:\n        /* \"#utility.yul\":301:305   */\n      0x00\n        /* \"#utility.yul\":339:341   */\n      0x20\n        /* \"#utility.yul\":328:337   */\n      dup3\n        /* \"#utility.yul\":324:342   */\n      add\n        /* \"#utility.yul\":316:342   */\n      swap1\n      pop\n        /* \"#utility.yul\":352:421   */\n      tag_143\n        /* \"#utility.yul\":418:419   */\n      0x00\n        /* \"#utility.yul\":407:416   */\n      dup4\n        /* \"#utility.yul\":403:420   */\n      add\n        /* \"#utility.yul\":394:400   */\n      dup5\n        /* \"#utility.yul\":352:421   */\n      tag_99\n      jump\t// in\n    tag_143:\n        /* \"#utility.yul\":210:428   */\n      swap3\n      swap2\n      pop\n      pop\n      jump\t// out\n        /* \"#utility.yul\":515:632   */\n    tag_101:\n        /* \"#utility.yul\":624:625   */\n      0x00\n        /* \"#utility.yul\":621:622   */\n      0x00\n        /* \"#utility.yul\":614:626   */\n      revert\n        /* \"#utility.yul\":761:887   */\n    tag_103:\n        /* \"#utility.yul\":798:805   */\n      0x00\n        /* \"#utility.yul\":838:880   */\n      0xffffffffffffffffffffffffffffffffffffffff\n        /* \"#utility.yul\":831:836   */\n      dup3\n        /* \"#utility.yul\":827:881   */\n      and\n        /* \"#utility.yul\":816:881   */\n      swap1\n      pop\n        /* \"#utility.yul\":761:887   */\n      swap2\n      swap1\n      pop\n      jump\t// out\n        /* \"#utility.yul\":893:989   */\n    tag_104:\n        /* \"#utility.yul\":930:937   */\n      0x00\n        /* \"#utility.yul\":959:983   */\n      tag_149\n        /* \"#utility.yul\":977:982   */\n      dup3\n        /* \"#utility.yul\":959:983   */\n      tag_103\n      jump\t// in\n    tag_149:\n        /* \"#utility.yul\":948:983   */\n      swap1\n      pop\n        /* \"#utility.yul\":893:989   */\n      swap2\n      swap1\n      pop\n      jump\t// out\n        /* \"#utility.yul\":995:1117   */\n    tag_105:\n        /* \"#utility.yul\":1068:1092   */\n      tag_151\n        /* \"#utility.yul\":1086:1091   */\n      dup2\n        /* \"#utility.yul\":1068:1092   */\n      tag_104\n      jump\t// in\n    tag_151:\n        /* \"#utility.yul\":1061:1066   */\n      dup2\n        /* \"#utility.yul\":1058:1093   */\n      eq\n        /* \"#utility.yul\":1048:1111   */\n      tag_152\n      jumpi\n        /* \"#utility.yul\":1107:1108   */\n      0x00\n        /* \"#utility.yul\":1104:1105   */\n      0x00\n        /* \"#utility.yul\":1097:1109   */\n      revert\n        /* \"#utility.yul\":1048:1111   */\n    tag_152:\n        /* \"#utility.yul\":995:1117   */\n      pop\n      jump\t// out\n        /* \"#utility.yul\":1123:1262   */\n    tag_106:\n        /* \"#utility.yul\":1169:1174   */\n      0x00\n        /* \"#utility.yul\":1207:1213   */\n      dup2\n        /* \"#utility.yul\":1194:1214   */\n      calldataload\n        /* \"#utility.yul\":1185:1214   */\n      swap1\n      pop\n        /* \"#utility.yul\":1223:1256   */\n      tag_154\n        /* \"#utility.yul\":1250:1255   */\n      dup2\n        /* \"#utility.yul\":1223:1256   */\n      tag_105\n      jump\t// in\n    tag_154:\n        /* \"#utility.yul\":1123:1262   */\n      swap3\n      swap2\n      pop\n      pop\n      jump\t// out\n        /* \"#utility.yul\":1268:1597   */\n    tag_24:\n        /* \"#utility.yul\":1327:1333   */\n      0x00\n        /* \"#utility.yul\":1376:1378   */\n      0x20\n        /* \"#utility.yul\":1364:1373   */\n      dup3\n        /* \"#utility.yul\":1355:1362   */\n      dup5\n        /* \"#utility.yul\":1351:1374   */\n      sub\n        /* \"#utility.yul\":1347:1379   */\n      slt\n        /* \"#utility.yul\":1344:1463   */\n      iszero\n      tag_156\n      jumpi\n        /* \"#utility.yul\":1382:1461   */\n      tag_157\n      tag_101\n      jump\t// in\n    tag_157:\n        /* \"#utility.yul\":1344:1463   */\n    tag_156:\n        /* \"#utility.yul\":1502:1503   */\n      0x00\n        /* \"#utility.yul\":1527:1580   */\n      tag_158\n        /* \"#utility.yul\":1572:1579   */\n      dup5\n        /* \"#utility.yul\":1563:1569   */\n      dup3\n        /* \"#utility.yul\":1552:1561   */\n      dup6\n        /* \"#utility.yul\":1548:1570   */\n      add\n        /* \"#utility.yul\":1527:1580   */\n      tag_106\n      jump\t// in\n    tag_158:\n        /* \"#utility.yul\":1517:1580   */\n      swap2\n      pop\n        /* \"#utility.yul\":1473:1590   */\n      pop\n        /* \"#utility.yul\":1268:1597   */\n      swap3\n      swap2\n      pop\n      pop\n      jump\t// out\n        /* \"#utility.yul\":1603:1680   */\n    tag_107:\n        /* \"#utility.yul\":1640:1647   */\n      0x00\n        /* \"#utility.yul\":1669:1674   */\n      dup2\n        /* \"#utility.yul\":1658:1674   */\n      swap1\n      pop\n        /* \"#utility.yul\":1603:1680   */\n      swap2\n      swap1\n      pop\n      jump\t// out\n        /* \"#utility.yul\":1686:1804   */\n    tag_108:\n        /* \"#utility.yul\":1773:1797   */\n      tag_161\n        /* \"#utility.yul\":1791:1796   */\n      dup2\n        /* \"#utility.yul\":1773:1797   */\n      tag_107\n      jump\t// in\n    tag_161:\n        /* \"#utility.yul\":1768:1771   */\n      dup3\n        /* \"#utility.yul\":1761:1798   */\n      mstore\n        /* \"#utility.yul\":1686:1804   */\n      pop\n      pop\n      jump\t// out\n        /* \"#utility.yul\":1810:2032   */\n    tag_27:\n        /* \"#utility.yul\":1903:1907   */\n      0x00\n        /* \"#utility.yul\":1941:1943   */\n      0x20\n        /* \"#utility.yul\":1930:1939   */\n      dup3\n        /* \"#utility.yul\":1926:1944   */\n      add\n        /* \"#utility.yul\":1918:1944   */\n      swap1\n      pop\n        /* \"#utility.yul\":1954:2025   */\n      tag_163\n        /* \"#utility.yul\":2022:2023   */\n      0x00\n        /* \"#utility.yul\":2011:2020   */\n      dup4\n        /* \"#utility.yul\":2007:2024   */\n      add\n        /* \"#utility.yul\":1998:2004   */\n      dup5\n        /* \"#utility.yul\":1954:2025   */\n      tag_108\n      jump\t// in\n    tag_163:\n        /* \"#utility.yul\":1810:2032   */\n      swap3\n      swap2\n      pop\n      pop\n      jump\t// out\n        /* \"#utility.yul\":2038:2218   */\n    tag_109:\n        /* \"#utility.yul\":2086:2163   */\n      0x4e487b7100000000000000000000000000000000000000000000000000000000\n        /* \"#utility.yul\":2083:2084   */\n      0x00\n        /* \"#utility.yul\":2076:2164   */\n      mstore\n        /* \"#utility.yul\":2183:2187   */\n      0x11\n        /* \"#utility.yul\":2180:2181   */\n      0x04\n        /* \"#utility.yul\":2173:2188   */\n      mstore\n        /* \"#utility.yul\":2207:2211   */\n      0x24\n        /* \"#utility.yul\":2204:2205   */\n      0x00\n        /* \"#utility.yul\":2197:2212   */\n      revert\n        /* \"#utility.yul\":2224:2415   */\n    tag_34:\n        /* \"#utility.yul\":2264:2267   */\n      0x00\n        /* \"#utility.yul\":2283:2303   */\n      tag_166\n        /* \"#utility.yul\":2301:2302   */\n      dup3\n        /* \"#utility.yul\":2283:2303   */\n      tag_107\n      jump\t// in\n    tag_166:\n        /* \"#utility.yul\":2278:2303   */\n      swap2\n      pop\n        /* \"#utility.yul\":2317:2337   */\n      tag_167\n        /* \"#utility.yul\":2335:2336   */\n      dup4\n        /* \"#utility.yul\":2317:2337   */\n      tag_107\n      jump\t// in\n    tag_167:\n        /* \"#utility.yul\":2312:2337   */\n      swap3\n      pop\n        /* \"#utility.yul\":2360:2361   */\n      dup3\n        /* \"#utility.yul\":2357:2358   */\n      dup3\n        /* \"#utility.yul\":2353:2362   */\n      add\n        /* \"#utility.yul\":2346:2362   */\n      swap1\n      pop\n        /* \"#utility.yul\":2381:2384   */\n      dup1\n        /* \"#utility.yul\":2378:2379   */\n      dup3\n        /* \"#utility.yul\":2375:2385   */\n      gt\n        /* \"#utility.yul\":2372:2408   */\n      iszero\n      tag_168\n      jumpi\n        /* \"#utility.yul\":2388:2406   */\n      tag_169\n      tag_109\n      jump\t// in\n    tag_169:\n        /* \"#utility.yul\":2372:2408   */\n    tag_168:\n        /* \"#utility.yul\":2224:2415   */\n      swap3\n      swap2\n      pop\n      pop\n      jump\t// out\n        /* \"#utility.yul\":2421:2590   */\n    tag_110:\n        /* \"#utility.yul\":2505:2516   */\n      0x00\n        /* \"#utility.yul\":2539:2545   */\n      dup3\n        /* \"#utility.yul\":2534:2537   */\n      dup3\n        /* \"#utility.yul\":2527:2546   */\n      mstore\n        /* \"#utility.yul\":2579:2583   */\n      0x20\n        /* \"#utility.yul\":2574:2577   */\n      dup3\n        /* \"#utility.yul\":2570:2584   */\n      add\n        /* \"#utility.yul\":2555:2584   */\n      swap1\n      pop\n        /* \"#utility.yul\":2421:2590   */\n      swap3\n      swap2\n      pop\n      pop\n      jump\t// out\n        /* \"#utility.yul\":2596:2775   */\n    tag_111:\n        /* \"#utility.yul\":2736:2767   */\n      0x546865206c6f636b20706572696f6420686173206e6f7420656e646564000000\n        /* \"#utility.yul\":2732:2733   */\n      0x00\n        /* \"#utility.yul\":2724:2730   */\n      dup3\n        /* \"#utility.yul\":2720:2734   */\n      add\n        /* \"#utility.yul\":2713:2768   */\n      mstore\n        /* \"#utility.yul\":2596:2775   */\n      pop\n      jump\t// out\n        /* \"#utility.yul\":2781:3147   */\n    tag_112:\n        /* \"#utility.yul\":2923:2926   */\n      0x00\n        /* \"#utility.yul\":2944:3011   */\n      tag_173\n        /* \"#utility.yul\":3008:3010   */\n      0x1d\n        /* \"#utility.yul\":3003:3006   */\n      dup4\n        /* \"#utility.yul\":2944:3011   */\n      tag_110\n      jump\t// in\n    tag_173:\n        /* \"#utility.yul\":2937:3011   */\n      swap2\n      pop\n        /* \"#utility.yul\":3020:3113   */\n      tag_174\n        /* \"#utility.yul\":3109:3112   */\n      dup3\n        /* \"#utility.yul\":3020:3113   */\n      tag_111\n      jump\t// in\n    tag_174:\n        /* \"#utility.yul\":3138:3140   */\n      0x20\n        /* \"#utility.yul\":3133:3136   */\n      dup3\n        /* \"#utility.yul\":3129:3141   */\n      add\n        /* \"#utility.yul\":3122:3141   */\n      swap1\n      pop\n        /* \"#utility.yul\":2781:3147   */\n      swap2\n      swap1\n      pop\n      jump\t// out\n        /* \"#utility.yul\":3153:3572   */\n    tag_37:\n        /* \"#utility.yul\":3319:3323   */\n      0x00\n        /* \"#utility.yul\":3357:3359   */\n      0x20\n        /* \"#utility.yul\":3346:3355   */\n      dup3\n        /* \"#utility.yul\":3342:3360   */\n      add\n        /* \"#utility.yul\":3334:3360   */\n      swap1\n      pop\n        /* \"#utility.yul\":3406:3415   */\n      dup2\n        /* \"#utility.yul\":3400:3404   */\n      dup2\n        /* \"#utility.yul\":3396:3416   */\n      sub\n        /* \"#utility.yul\":3392:3393   */\n      0x00\n        /* \"#utility.yul\":3381:3390   */\n      dup4\n        /* \"#utility.yul\":3377:3394   */\n      add\n        /* \"#utility.yul\":3370:3417   */\n      mstore\n        /* \"#utility.yul\":3434:3565   */\n      tag_176\n        /* \"#utility.yul\":3560:3564   */\n      dup2\n        /* \"#utility.yul\":3434:3565   */\n      tag_112\n      jump\t// in\n    tag_176:\n        /* \"#utility.yul\":3426:3565   */\n      swap1\n      pop\n        /* \"#utility.yul\":3153:3572   */\n      swap2\n      swap1\n      pop\n      jump\t// out\n        /* \"#utility.yul\":3578:3746   */\n    tag_113:\n        /* \"#utility.yul\":3718:3738   */\n      0x5461726765742068617320726561636865640000000000000000000000000000\n        /* \"#utility.yul\":3714:3715   */\n      0x00\n        /* \"#utility.yul\":3706:3712   */\n      dup3\n        /* \"#utility.yul\":3702:3716   */\n      add\n        /* \"#utility.yul\":3695:3739   */\n      mstore\n        /* \"#utility.yul\":3578:3746   */\n      pop\n      jump\t// out\n        /* \"#utility.yul\":3752:4118   */\n    tag_114:\n        /* \"#utility.yul\":3894:3897   */\n      0x00\n        /* \"#utility.yul\":3915:3982   */\n      tag_179\n        /* \"#utility.yul\":3979:3981   */\n      0x12\n        /* \"#utility.yul\":3974:3977   */\n      dup4\n        /* \"#utility.yul\":3915:3982   */\n      tag_110\n      jump\t// in\n    tag_179:\n        /* \"#utility.yul\":3908:3982   */\n      swap2\n      pop\n        /* \"#utility.yul\":3991:4084   */\n      tag_180\n        /* \"#utility.yul\":4080:4083   */\n      dup3\n        /* \"#utility.yul\":3991:4084   */\n      tag_113\n      jump\t// in\n    tag_180:\n        /* \"#utility.yul\":4109:4111   */\n      0x20\n        /* \"#utility.yul\":4104:4107   */\n      dup3\n        /* \"#utility.yul\":4100:4112   */\n      add\n        /* \"#utility.yul\":4093:4112   */\n      swap1\n      pop\n        /* \"#utility.yul\":3752:4118   */\n      swap2\n      swap1\n      pop\n      jump\t// out\n        /* \"#utility.yul\":4124:4543   */\n    tag_43:\n        /* \"#utility.yul\":4290:4294   */\n      0x00\n        /* \"#utility.yul\":4328:4330   */\n      0x20\n        /* \"#utility.yul\":4317:4326   */\n      dup3\n        /* \"#utility.yul\":4313:4331   */\n      add\n        /* \"#utility.yul\":4305:4331   */\n      swap1\n      pop\n        /* \"#utility.yul\":4377:4386   */\n      dup2\n        /* \"#utility.yul\":4371:4375   */\n      dup2\n        /* \"#utility.yul\":4367:4387   */\n      sub\n        /* \"#utility.yul\":4363:4364   */\n      0x00\n        /* \"#utility.yul\":4352:4361   */\n      dup4\n        /* \"#utility.yul\":4348:4365   */\n      add\n        /* \"#utility.yul\":4341:4388   */\n      mstore\n        /* \"#utility.yul\":4405:4536   */\n      tag_182\n        /* \"#utility.yul\":4531:4535   */\n      dup2\n        /* \"#utility.yul\":4405:4536   */\n      tag_114\n      jump\t// in\n    tag_182:\n        /* \"#utility.yul\":4397:4536   */\n      swap1\n      pop\n        /* \"#utility.yul\":4124:4543   */\n      swap2\n      swap1\n      pop\n      jump\t// out\n        /* \"#utility.yul\":4549:4717   */\n    tag_115:\n        /* \"#utility.yul\":4689:4709   */\n      0x596f7520617265206e6f742066756e6465720000000000000000000000000000\n        /* \"#utility.yul\":4685:4686   */\n      0x00\n        /* \"#utility.yul\":4677:4683   */\n      dup3\n        /* \"#utility.yul\":4673:4687   */\n      add\n        /* \"#utility.yul\":4666:4710   */\n      mstore\n        /* \"#utility.yul\":4549:4717   */\n      pop\n      jump\t// out\n        /* \"#utility.yul\":4723:5089   */\n    tag_116:\n        /* \"#utility.yul\":4865:4868   */\n      0x00\n        /* \"#utility.yul\":4886:4953   */\n      tag_185\n        /* \"#utility.yul\":4950:4952   */\n      0x12\n        /* \"#utility.yul\":4945:4948   */\n      dup4\n        /* \"#utility.yul\":4886:4953   */\n      tag_110\n      jump\t// in\n    tag_185:\n        /* \"#utility.yul\":4879:4953   */\n      swap2\n      pop\n        /* \"#utility.yul\":4962:5055   */\n      tag_186\n        /* \"#utility.yul\":5051:5054   */\n      dup3\n        /* \"#utility.yul\":4962:5055   */\n      tag_115\n      jump\t// in\n    tag_186:\n        /* \"#utility.yul\":5080:5082   */\n      0x20\n        /* \"#utility.yul\":5075:5078   */\n      dup3\n        /* \"#utility.yul\":5071:5083   */\n      add\n        /* \"#utility.yul\":5064:5083   */\n      swap1\n      pop\n        /* \"#utility.yul\":4723:5089   */\n      swap2\n      swap1\n      pop\n      jump\t// out\n        /* \"#utility.yul\":5095:5514   */\n    tag_46:\n        /* \"#utility.yul\":5261:5265   */\n      0x00\n        /* \"#utility.yul\":5299:5301   */\n      0x20\n        /* \"#utility.yul\":5288:5297   */\n      dup3\n        /* \"#utility.yul\":5284:5302   */\n      add\n        /* \"#utility.yul\":5276:5302   */\n      swap1\n      pop\n        /* \"#utility.yul\":5348:5357   */\n      dup2\n        /* \"#utility.yul\":5342:5346   */\n      dup2\n        /* \"#utility.yul\":5338:5358   */\n      sub\n        /* \"#utility.yul\":5334:5335   */\n      0x00\n        /* \"#utility.yul\":5323:5332   */\n      dup4\n        /* \"#utility.yul\":5319:5336   */\n      add\n        /* \"#utility.yul\":5312:5359   */\n      mstore\n        /* \"#utility.yul\":5376:5507   */\n      tag_188\n        /* \"#utility.yul\":5502:5506   */\n      dup2\n        /* \"#utility.yul\":5376:5507   */\n      tag_116\n      jump\t// in\n    tag_188:\n        /* \"#utility.yul\":5368:5507   */\n      swap1\n      pop\n        /* \"#utility.yul\":5095:5514   */\n      swap2\n      swap1\n      pop\n      jump\t// out\n        /* \"#utility.yul\":5520:5667   */\n    tag_117:\n        /* \"#utility.yul\":5621:5632   */\n      0x00\n        /* \"#utility.yul\":5658:5661   */\n      dup2\n        /* \"#utility.yul\":5643:5661   */\n      swap1\n      pop\n        /* \"#utility.yul\":5520:5667   */\n      swap3\n      swap2\n      pop\n      pop\n      jump\t// out\n        /* \"#utility.yul\":5673:5787   */\n    tag_118:\n      pop\n      jump\t// out\n        /* \"#utility.yul\":5793:6191   */\n    tag_119:\n        /* \"#utility.yul\":5952:5955   */\n      0x00\n        /* \"#utility.yul\":5973:6056   */\n      tag_192\n        /* \"#utility.yul\":6054:6055   */\n      0x00\n        /* \"#utility.yul\":6049:6052   */\n      dup4\n        /* \"#utility.yul\":5973:6056   */\n      tag_117\n      jump\t// in\n    tag_192:\n        /* \"#utility.yul\":5966:6056   */\n      swap2\n      pop\n        /* \"#utility.yul\":6065:6158   */\n      tag_193\n        /* \"#utility.yul\":6154:6157   */\n      dup3\n        /* \"#utility.yul\":6065:6158   */\n      tag_118\n      jump\t// in\n    tag_193:\n        /* \"#utility.yul\":6183:6184   */\n      0x00\n        /* \"#utility.yul\":6178:6181   */\n      dup3\n        /* \"#utility.yul\":6174:6185   */\n      add\n        /* \"#utility.yul\":6167:6185   */\n      swap1\n      pop\n        /* \"#utility.yul\":5793:6191   */\n      swap2\n      swap1\n      pop\n      jump\t// out\n        /* \"#utility.yul\":6197:6576   */\n    tag_48:\n        /* \"#utility.yul\":6381:6384   */\n      0x00\n        /* \"#utility.yul\":6403:6550   */\n      tag_195\n        /* \"#utility.yul\":6546:6549   */\n      dup3\n        /* \"#utility.yul\":6403:6550   */\n      tag_119\n      jump\t// in\n    tag_195:\n        /* \"#utility.yul\":6396:6550   */\n      swap2\n      pop\n        /* \"#utility.yul\":6567:6570   */\n      dup2\n        /* \"#utility.yul\":6560:6570   */\n      swap1\n      pop\n        /* \"#utility.yul\":6197:6576   */\n      swap2\n      swap1\n      pop\n      jump\t// out\n        /* \"#utility.yul\":6582:6750   */\n    tag_120:\n        /* \"#utility.yul\":6722:6742   */\n      0x7472616e73666572207478206661696c65640000000000000000000000000000\n        /* \"#utility.yul\":6718:6719   */\n      0x00\n        /* \"#utility.yul\":6710:6716   */\n      dup3\n        /* \"#utility.yul\":6706:6720   */\n      add\n        /* \"#utility.yul\":6699:6743   */\n      mstore\n        /* \"#utility.yul\":6582:6750   */\n      pop\n      jump\t// out\n        /* \"#utility.yul\":6756:7122   */\n    tag_121:\n        /* \"#utility.yul\":6898:6901   */\n      0x00\n        /* \"#utility.yul\":6919:6986   */\n      tag_198\n        /* \"#utility.yul\":6983:6985   */\n      0x12\n        /* \"#utility.yul\":6978:6981   */\n      dup4\n        /* \"#utility.yul\":6919:6986   */\n      tag_110\n      jump\t// in\n    tag_198:\n        /* \"#utility.yul\":6912:6986   */\n      swap2\n      pop\n        /* \"#utility.yul\":6995:7088   */\n      tag_199\n        /* \"#utility.yul\":7084:7087   */\n      dup3\n        /* \"#utility.yul\":6995:7088   */\n      tag_120\n      jump\t// in\n    tag_199:\n        /* \"#utility.yul\":7113:7115   */\n      0x20\n        /* \"#utility.yul\":7108:7111   */\n      dup3\n        /* \"#utility.yul\":7104:7116   */\n      add\n        /* \"#utility.yul\":7097:7116   */\n      swap1\n      pop\n        /* \"#utility.yul\":6756:7122   */\n      swap2\n      swap1\n      pop\n      jump\t// out\n        /* \"#utility.yul\":7128:7547   */\n    tag_54:\n        /* \"#utility.yul\":7294:7298   */\n      0x00\n        /* \"#utility.yul\":7332:7334   */\n      0x20\n        /* \"#utility.yul\":7321:7330   */\n      dup3\n        /* \"#utility.yul\":7317:7335   */\n      add\n        /* \"#utility.yul\":7309:7335   */\n      swap1\n      pop\n        /* \"#utility.yul\":7381:7390   */\n      dup2\n        /* \"#utility.yul\":7375:7379   */\n      dup2\n        /* \"#utility.yul\":7371:7391   */\n      sub\n        /* \"#utility.yul\":7367:7368   */\n      0x00\n        /* \"#utility.yul\":7356:7365   */\n      dup4\n        /* \"#utility.yul\":7352:7369   */\n      add\n        /* \"#utility.yul\":7345:7392   */\n      mstore\n        /* \"#utility.yul\":7409:7540   */\n      tag_201\n        /* \"#utility.yul\":7535:7539   */\n      dup2\n        /* \"#utility.yul\":7409:7540   */\n      tag_121\n      jump\t// in\n    tag_201:\n        /* \"#utility.yul\":7401:7540   */\n      swap1\n      pop\n        /* \"#utility.yul\":7128:7547   */\n      swap2\n      swap1\n      pop\n      jump\t// out\n        /* \"#utility.yul\":7553:7724   */\n    tag_122:\n        /* \"#utility.yul\":7693:7716   */\n      0x596f7520617265206e6f7420746865206f776e65720000000000000000000000\n        /* \"#utility.yul\":7689:7690   */\n      0x00\n        /* \"#utility.yul\":7681:7687   */\n      dup3\n        /* \"#utility.yul\":7677:7691   */\n      add\n        /* \"#utility.yul\":7670:7717   */\n      mstore\n        /* \"#utility.yul\":7553:7724   */\n      pop\n      jump\t// out\n        /* \"#utility.yul\":7730:8096   */\n    tag_123:\n        /* \"#utility.yul\":7872:7875   */\n      0x00\n        /* \"#utility.yul\":7893:7960   */\n      tag_204\n        /* \"#utility.yul\":7957:7959   */\n      0x15\n        /* \"#utility.yul\":7952:7955   */\n      dup4\n        /* \"#utility.yul\":7893:7960   */\n      tag_110\n      jump\t// in\n    tag_204:\n        /* \"#utility.yul\":7886:7960   */\n      swap2\n      pop\n        /* \"#utility.yul\":7969:8062   */\n      tag_205\n        /* \"#utility.yul\":8058:8061   */\n      dup3\n        /* \"#utility.yul\":7969:8062   */\n      tag_122\n      jump\t// in\n    tag_205:\n        /* \"#utility.yul\":8087:8089   */\n      0x20\n        /* \"#utility.yul\":8082:8085   */\n      dup3\n        /* \"#utility.yul\":8078:8090   */\n      add\n        /* \"#utility.yul\":8071:8090   */\n      swap1\n      pop\n        /* \"#utility.yul\":7730:8096   */\n      swap2\n      swap1\n      pop\n      jump\t// out\n        /* \"#utility.yul\":8102:8521   */\n    tag_62:\n        /* \"#utility.yul\":8268:8272   */\n      0x00\n        /* \"#utility.yul\":8306:8308   */\n      0x20\n        /* \"#utility.yul\":8295:8304   */\n      dup3\n        /* \"#utility.yul\":8291:8309   */\n      add\n        /* \"#utility.yul\":8283:8309   */\n      swap1\n      pop\n        /* \"#utility.yul\":8355:8364   */\n      dup2\n        /* \"#utility.yul\":8349:8353   */\n      dup2\n        /* \"#utility.yul\":8345:8365   */\n      sub\n        /* \"#utility.yul\":8341:8342   */\n      0x00\n        /* \"#utility.yul\":8330:8339   */\n      dup4\n        /* \"#utility.yul\":8326:8343   */\n      add\n        /* \"#utility.yul\":8319:8366   */\n      mstore\n        /* \"#utility.yul\":8383:8514   */\n      tag_207\n        /* \"#utility.yul\":8509:8513   */\n      dup2\n        /* \"#utility.yul\":8383:8514   */\n      tag_123\n      jump\t// in\n    tag_207:\n        /* \"#utility.yul\":8375:8514   */\n      swap1\n      pop\n        /* \"#utility.yul\":8102:8521   */\n      swap2\n      swap1\n      pop\n      jump\t// out\n        /* \"#utility.yul\":8527:8698   */\n    tag_124:\n        /* \"#utility.yul\":8667:8690   */\n      0x546172676574206973206e6f7420726561636865640000000000000000000000\n        /* \"#utility.yul\":8663:8664   */\n      0x00\n        /* \"#utility.yul\":8655:8661   */\n      dup3\n        /* \"#utility.yul\":8651:8665   */\n      add\n        /* \"#utility.yul\":8644:8691   */\n      mstore\n        /* \"#utility.yul\":8527:8698   */\n      pop\n      jump\t// out\n        /* \"#utility.yul\":8704:9070   */\n    tag_125:\n        /* \"#utility.yul\":8846:8849   */\n      0x00\n        /* \"#utility.yul\":8867:8934   */\n      tag_210\n        /* \"#utility.yul\":8931:8933   */\n      0x15\n        /* \"#utility.yul\":8926:8929   */\n      dup4\n        /* \"#utility.yul\":8867:8934   */\n      tag_110\n      jump\t// in\n    tag_210:\n        /* \"#utility.yul\":8860:8934   */\n      swap2\n      pop\n        /* \"#utility.yul\":8943:9036   */\n      tag_211\n        /* \"#utility.yul\":9032:9035   */\n      dup3\n        /* \"#utility.yul\":8943:9036   */\n      tag_124\n      jump\t// in\n    tag_211:\n        /* \"#utility.yul\":9061:9063   */\n      0x20\n        /* \"#utility.yul\":9056:9059   */\n      dup3\n        /* \"#utility.yul\":9052:9064   */\n      add\n        /* \"#utility.yul\":9045:9064   */\n      swap1\n      pop\n        /* \"#utility.yul\":8704:9070   */\n      swap2\n      swap1\n      pop\n      jump\t// out\n        /* \"#utility.yul\":9076:9495   */\n    tag_67:\n        /* \"#utility.yul\":9242:9246   */\n      0x00\n        /* \"#utility.yul\":9280:9282   */\n      0x20\n        /* \"#utility.yul\":9269:9278   */\n      dup3\n        /* \"#utility.yul\":9265:9283   */\n      add\n        /* \"#utility.yul\":9257:9283   */\n      swap1\n      pop\n        /* \"#utility.yul\":9329:9338   */\n      dup2\n        /* \"#utility.yul\":9323:9327   */\n      dup2\n        /* \"#utility.yul\":9319:9339   */\n      sub\n        /* \"#utility.yul\":9315:9316   */\n      0x00\n        /* \"#utility.yul\":9304:9313   */\n      dup4\n        /* \"#utility.yul\":9300:9317   */\n      add\n        /* \"#utility.yul\":9293:9340   */\n      mstore\n        /* \"#utility.yul\":9357:9488   */\n      tag_213\n        /* \"#utility.yul\":9483:9487   */\n      dup2\n        /* \"#utility.yul\":9357:9488   */\n      tag_125\n      jump\t// in\n    tag_213:\n        /* \"#utility.yul\":9349:9488   */\n      swap1\n      pop\n        /* \"#utility.yul\":9076:9495   */\n      swap2\n      swap1\n      pop\n      jump\t// out\n        /* \"#utility.yul\":9501:9677   */\n    tag_126:\n        /* \"#utility.yul\":9641:9669   */\n      0x594f552053484f554c442046554e44204d4f5245204554482121000000000000\n        /* \"#utility.yul\":9637:9638   */\n      0x00\n        /* \"#utility.yul\":9629:9635   */\n      dup3\n        /* \"#utility.yul\":9625:9639   */\n      add\n        /* \"#utility.yul\":9618:9670   */\n      mstore\n        /* \"#utility.yul\":9501:9677   */\n      pop\n      jump\t// out\n        /* \"#utility.yul\":9683:10049   */\n    tag_127:\n        /* \"#utility.yul\":9825:9828   */\n      0x00\n        /* \"#utility.yul\":9846:9913   */\n      tag_216\n        /* \"#utility.yul\":9910:9912   */\n      0x1a\n        /* \"#utility.yul\":9905:9908   */\n      dup4\n        /* \"#utility.yul\":9846:9913   */\n      tag_110\n      jump\t// in\n    tag_216:\n        /* \"#utility.yul\":9839:9913   */\n      swap2\n      pop\n        /* \"#utility.yul\":9922:10015   */\n      tag_217\n        /* \"#utility.yul\":10011:10014   */\n      dup3\n        /* \"#utility.yul\":9922:10015   */\n      tag_126\n      jump\t// in\n    tag_217:\n        /* \"#utility.yul\":10040:10042   */\n      0x20\n        /* \"#utility.yul\":10035:10038   */\n      dup3\n        /* \"#utility.yul\":10031:10043   */\n      add\n        /* \"#utility.yul\":10024:10043   */\n      swap1\n      pop\n        /* \"#utility.yul\":9683:10049   */\n      swap2\n      swap1\n      pop\n      jump\t// out\n        /* \"#utility.yul\":10055:10474   */\n    tag_78:\n        /* \"#utility.yul\":10221:10225   */\n      0x00\n        /* \"#utility.yul\":10259:10261   */\n      0x20\n        /* \"#utility.yul\":10248:10257   */\n      dup3\n        /* \"#utility.yul\":10244:10262   */\n      add\n        /* \"#utility.yul\":10236:10262   */\n      swap1\n      pop\n        /* \"#utility.yul\":10308:10317   */\n      dup2\n        /* \"#utility.yul\":10302:10306   */\n      dup2\n        /* \"#utility.yul\":10298:10318   */\n      sub\n        /* \"#utility.yul\":10294:10295   */\n      0x00\n        /* \"#utility.yul\":10283:10292   */\n      dup4\n        /* \"#utility.yul\":10279:10296   */\n      add\n        /* \"#utility.yul\":10272:10319   */\n      mstore\n        /* \"#utility.yul\":10336:10467   */\n      tag_219\n        /* \"#utility.yul\":10462:10466   */\n      dup2\n        /* \"#utility.yul\":10336:10467   */\n      tag_127\n      jump\t// in\n    tag_219:\n        /* \"#utility.yul\":10328:10467   */\n      swap1\n      pop\n        /* \"#utility.yul\":10055:10474   */\n      swap2\n      swap1\n      pop\n      jump\t// out\n        /* \"#utility.yul\":10480:10655   */\n    tag_128:\n        /* \"#utility.yul\":10620:10647   */\n      0x546865206c6f636b20706572696f642068617320656e64656400000000000000\n        /* \"#utility.yul\":10616:10617   */\n      0x00\n        /* \"#utility.yul\":10608:10614   */\n      dup3\n        /* \"#utility.yul\":10604:10618   */\n      add\n        /* \"#utility.yul\":10597:10648   */\n      mstore\n        /* \"#utility.yul\":10480:10655   */\n      pop\n      jump\t// out\n        /* \"#utility.yul\":10661:11027   */\n    tag_129:\n        /* \"#utility.yul\":10803:10806   */\n      0x00\n        /* \"#utility.yul\":10824:10891   */\n      tag_222\n        /* \"#utility.yul\":10888:10890   */\n      0x19\n        /* \"#utility.yul\":10883:10886   */\n      dup4\n        /* \"#utility.yul\":10824:10891   */\n      tag_110\n      jump\t// in\n    tag_222:\n        /* \"#utility.yul\":10817:10891   */\n      swap2\n      pop\n        /* \"#utility.yul\":10900:10993   */\n      tag_223\n        /* \"#utility.yul\":10989:10992   */\n      dup3\n        /* \"#utility.yul\":10900:10993   */\n      tag_128\n      jump\t// in\n    tag_223:\n        /* \"#utility.yul\":11018:11020   */\n      0x20\n        /* \"#utility.yul\":11013:11016   */\n      dup3\n        /* \"#utility.yul\":11009:11021   */\n      add\n        /* \"#utility.yul\":11002:11021   */\n      swap1\n      pop\n        /* \"#utility.yul\":10661:11027   */\n      swap2\n      swap1\n      pop\n      jump\t// out\n        /* \"#utility.yul\":11033:11452   */\n    tag_82:\n        /* \"#utility.yul\":11199:11203   */\n      0x00\n        /* \"#utility.yul\":11237:11239   */\n      0x20\n        /* \"#utility.yul\":11226:11235   */\n      dup3\n        /* \"#utility.yul\":11222:11240   */\n      add\n        /* \"#utility.yul\":11214:11240   */\n      swap1\n      pop\n        /* \"#utility.yul\":11286:11295   */\n      dup2\n        /* \"#utility.yul\":11280:11284   */\n      dup2\n        /* \"#utility.yul\":11276:11296   */\n      sub\n        /* \"#utility.yul\":11272:11273   */\n      0x00\n        /* \"#utility.yul\":11261:11270   */\n      dup4\n        /* \"#utility.yul\":11257:11274   */\n      add\n        /* \"#utility.yul\":11250:11297   */\n      mstore\n        /* \"#utility.yul\":11314:11445   */\n      tag_225\n        /* \"#utility.yul\":11440:11444   */\n      dup2\n        /* \"#utility.yul\":11314:11445   */\n      tag_129\n      jump\t// in\n    tag_225:\n        /* \"#utility.yul\":11306:11445   */\n      swap1\n      pop\n        /* \"#utility.yul\":11033:11452   */\n      swap2\n      swap1\n      pop\n      jump\t// out\n        /* \"#utility.yul\":11458:11563   */\n    tag_130:\n        /* \"#utility.yul\":11494:11501   */\n      0x00\n        /* \"#utility.yul\":11534:11556   */\n      0xffffffffffffffffffff\n        /* \"#utility.yul\":11527:11532   */\n      dup3\n        /* \"#utility.yul\":11523:11557   */\n      and\n        /* \"#utility.yul\":11512:11557   */\n      swap1\n      pop\n        /* \"#utility.yul\":11458:11563   */\n      swap2\n      swap1\n      pop\n      jump\t// out\n        /* \"#utility.yul\":11569:11689   */\n    tag_131:\n        /* \"#utility.yul\":11641:11664   */\n      tag_228\n        /* \"#utility.yul\":11658:11663   */\n      dup2\n        /* \"#utility.yul\":11641:11664   */\n      tag_130\n      jump\t// in\n    tag_228:\n        /* \"#utility.yul\":11634:11639   */\n      dup2\n        /* \"#utility.yul\":11631:11665   */\n      eq\n        /* \"#utility.yul\":11621:11683   */\n      tag_229\n      jumpi\n        /* \"#utility.yul\":11679:11680   */\n      0x00\n        /* \"#utility.yul\":11676:11677   */\n      0x00\n        /* \"#utility.yul\":11669:11681   */\n      revert\n        /* \"#utility.yul\":11621:11683   */\n    tag_229:\n        /* \"#utility.yul\":11569:11689   */\n      pop\n      jump\t// out\n        /* \"#utility.yul\":11695:11836   */\n    tag_132:\n        /* \"#utility.yul\":11751:11756   */\n      0x00\n        /* \"#utility.yul\":11782:11788   */\n      dup2\n        /* \"#utility.yul\":11776:11789   */\n      mload\n        /* \"#utility.yul\":11767:11789   */\n      swap1\n      pop\n        /* \"#utility.yul\":11798:11830   */\n      tag_231\n        /* \"#utility.yul\":11824:11829   */\n      dup2\n        /* \"#utility.yul\":11798:11830   */\n      tag_131\n      jump\t// in\n    tag_231:\n        /* \"#utility.yul\":11695:11836   */\n      swap3\n      swap2\n      pop\n      pop\n      jump\t// out\n        /* \"#utility.yul\":11842:11962   */\n    tag_133:\n        /* \"#utility.yul\":11914:11937   */\n      tag_233\n        /* \"#utility.yul\":11931:11936   */\n      dup2\n        /* \"#utility.yul\":11914:11937   */\n      tag_98\n      jump\t// in\n    tag_233:\n        /* \"#utility.yul\":11907:11912   */\n      dup2\n        /* \"#utility.yul\":11904:11938   */\n      eq\n        /* \"#utility.yul\":11894:11956   */\n      tag_234\n      jumpi\n        /* \"#utility.yul\":11952:11953   */\n      0x00\n        /* \"#utility.yul\":11949:11950   */\n      0x00\n        /* \"#utility.yul\":11942:11954   */\n      revert\n        /* \"#utility.yul\":11894:11956   */\n    tag_234:\n        /* \"#utility.yul\":11842:11962   */\n      pop\n      jump\t// out\n        /* \"#utility.yul\":11968:12109   */\n    tag_134:\n        /* \"#utility.yul\":12024:12029   */\n      0x00\n        /* \"#utility.yul\":12055:12061   */\n      dup2\n        /* \"#utility.yul\":12049:12062   */\n      mload\n        /* \"#utility.yul\":12040:12062   */\n      swap1\n      pop\n        /* \"#utility.yul\":12071:12103   */\n      tag_236\n        /* \"#utility.yul\":12097:12102   */\n      dup2\n        /* \"#utility.yul\":12071:12103   */\n      tag_133\n      jump\t// in\n    tag_236:\n        /* \"#utility.yul\":11968:12109   */\n      swap3\n      swap2\n      pop\n      pop\n      jump\t// out\n        /* \"#utility.yul\":12115:12237   */\n    tag_135:\n        /* \"#utility.yul\":12188:12212   */\n      tag_238\n        /* \"#utility.yul\":12206:12211   */\n      dup2\n        /* \"#utility.yul\":12188:12212   */\n      tag_107\n      jump\t// in\n    tag_238:\n        /* \"#utility.yul\":12181:12186   */\n      dup2\n        /* \"#utility.yul\":12178:12213   */\n      eq\n        /* \"#utility.yul\":12168:12231   */\n      tag_239\n      jumpi\n        /* \"#utility.yul\":12227:12228   */\n      0x00\n        /* \"#utility.yul\":12224:12225   */\n      0x00\n        /* \"#utility.yul\":12217:12229   */\n      revert\n        /* \"#utility.yul\":12168:12231   */\n    tag_239:\n        /* \"#utility.yul\":12115:12237   */\n      pop\n      jump\t// out\n        /* \"#utility.yul\":12243:12386   */\n    tag_136:\n        /* \"#utility.yul\":12300:12305   */\n      0x00\n        /* \"#utility.yul\":12331:12337   */\n      dup2\n        /* \"#utility.yul\":12325:12338   */\n      mload\n        /* \"#utility.yul\":12316:12338   */\n      swap1\n      pop\n        /* \"#utility.yul\":12347:12380   */\n      tag_241\n        /* \"#utility.yul\":12374:12379   */\n      dup2\n        /* \"#utility.yul\":12347:12380   */\n      tag_135\n      jump\t// in\n    tag_241:\n        /* \"#utility.yul\":12243:12386   */\n      swap3\n      swap2\n      pop\n      pop\n      jump\t// out\n        /* \"#utility.yul\":12392:13363   */\n    tag_87:\n        /* \"#utility.yul\":12495:12501   */\n      0x00\n        /* \"#utility.yul\":12503:12509   */\n      0x00\n        /* \"#utility.yul\":12511:12517   */\n      0x00\n        /* \"#utility.yul\":12519:12525   */\n      0x00\n        /* \"#utility.yul\":12527:12533   */\n      0x00\n        /* \"#utility.yul\":12576:12579   */\n      0xa0\n        /* \"#utility.yul\":12564:12573   */\n      dup7\n        /* \"#utility.yul\":12555:12562   */\n      dup9\n        /* \"#utility.yul\":12551:12574   */\n      sub\n        /* \"#utility.yul\":12547:12580   */\n      slt\n        /* \"#utility.yul\":12544:12664   */\n      iszero\n      tag_243\n      jumpi\n        /* \"#utility.yul\":12583:12662   */\n      tag_244\n      tag_101\n      jump\t// in\n    tag_244:\n        /* \"#utility.yul\":12544:12664   */\n    tag_243:\n        /* \"#utility.yul\":12703:12704   */\n      0x00\n        /* \"#utility.yul\":12728:12791   */\n      tag_245\n        /* \"#utility.yul\":12783:12790   */\n      dup9\n        /* \"#utility.yul\":12774:12780   */\n      dup3\n        /* \"#utility.yul\":12763:12772   */\n      dup10\n        /* \"#utility.yul\":12759:12781   */\n      add\n        /* \"#utility.yul\":12728:12791   */\n      tag_132\n      jump\t// in\n    tag_245:\n        /* \"#utility.yul\":12718:12791   */\n      swap6\n      pop\n        /* \"#utility.yul\":12674:12801   */\n      pop\n        /* \"#utility.yul\":12840:12842   */\n      0x20\n        /* \"#utility.yul\":12866:12929   */\n      tag_246\n        /* \"#utility.yul\":12921:12928   */\n      dup9\n        /* \"#utility.yul\":12912:12918   */\n      dup3\n        /* \"#utility.yul\":12901:12910   */\n      dup10\n        /* \"#utility.yul\":12897:12919   */\n      add\n        /* \"#utility.yul\":12866:12929   */\n      tag_134\n      jump\t// in\n    tag_246:\n        /* \"#utility.yul\":12856:12929   */\n      swap5\n      pop\n        /* \"#utility.yul\":12811:12939   */\n      pop\n        /* \"#utility.yul\":12978:12980   */\n      0x40\n        /* \"#utility.yul\":13004:13068   */\n      tag_247\n        /* \"#utility.yul\":13060:13067   */\n      dup9\n        /* \"#utility.yul\":13051:13057   */\n      dup3\n        /* \"#utility.yul\":13040:13049   */\n      dup10\n        /* \"#utility.yul\":13036:13058   */\n      add\n        /* \"#utility.yul\":13004:13068   */\n      tag_136\n      jump\t// in\n    tag_247:\n        /* \"#utility.yul\":12994:13068   */\n      swap4\n      pop\n        /* \"#utility.yul\":12949:13078   */\n      pop\n        /* \"#utility.yul\":13117:13119   */\n      0x60\n        /* \"#utility.yul\":13143:13207   */\n      tag_248\n        /* \"#utility.yul\":13199:13206   */\n      dup9\n        /* \"#utility.yul\":13190:13196   */\n      dup3\n        /* \"#utility.yul\":13179:13188   */\n      dup10\n        /* \"#utility.yul\":13175:13197   */\n      add\n        /* \"#utility.yul\":13143:13207   */\n      tag_136\n      jump\t// in\n    tag_248:\n        /* \"#utility.yul\":13133:13207   */\n      swap3\n      pop\n        /* \"#utility.yul\":13088:13217   */\n      pop\n        /* \"#utility.yul\":13256:13259   */\n      0x80\n        /* \"#utility.yul\":13283:13346   */\n      tag_249\n        /* \"#utility.yul\":13338:13345   */\n      dup9\n        /* \"#utility.yul\":13329:13335   */\n      dup3\n        /* \"#utility.yul\":13318:13327   */\n      dup10\n        /* \"#utility.yul\":13314:13336   */\n      add\n        /* \"#utility.yul\":13283:13346   */\n      tag_132\n      jump\t// in\n    tag_249:\n        /* \"#utility.yul\":13273:13346   */\n      swap2\n      pop\n        /* \"#utility.yul\":13227:13356   */\n      pop\n        /* \"#utility.yul\":12392:13363   */\n      swap3\n      swap6\n      pop\n      swap3\n      swap6\n      swap1\n      swap4\n      pop\n      jump\t// out\n        /* \"#utility.yul\":13369:13779   */\n    tag_95:\n        /* \"#utility.yul\":13409:13416   */\n      0x00\n        /* \"#utility.yul\":13432:13452   */\n      tag_251\n        /* \"#utility.yul\":13450:13451   */\n      dup3\n        /* \"#utility.yul\":13432:13452   */\n      tag_107\n      jump\t// in\n    tag_251:\n        /* \"#utility.yul\":13427:13452   */\n      swap2\n      pop\n        /* \"#utility.yul\":13466:13486   */\n      tag_252\n        /* \"#utility.yul\":13484:13485   */\n      dup4\n        /* \"#utility.yul\":13466:13486   */\n      tag_107\n      jump\t// in\n    tag_252:\n        /* \"#utility.yul\":13461:13486   */\n      swap3\n      pop\n        /* \"#utility.yul\":13521:13522   */\n      dup3\n        /* \"#utility.yul\":13518:13519   */\n      dup3\n        /* \"#utility.yul\":13514:13523   */\n      mul\n        /* \"#utility.yul\":13543:13573   */\n      tag_253\n        /* \"#utility.yul\":13561:13572   */\n      dup2\n        /* \"#utility.yul\":13543:13573   */\n      tag_107\n      jump\t// in\n    tag_253:\n        /* \"#utility.yul\":13532:13573   */\n      swap2\n      pop\n        /* \"#utility.yul\":13722:13723   */\n      dup3\n        /* \"#utility.yul\":13713:13720   */\n      dup3\n        /* \"#utility.yul\":13709:13724   */\n      div\n        /* \"#utility.yul\":13706:13707   */\n      dup5\n        /* \"#utility.yul\":13703:13725   */\n      eq\n        /* \"#utility.yul\":13683:13684   */\n      dup4\n        /* \"#utility.yul\":13676:13685   */\n      iszero\n        /* \"#utility.yul\":13656:13739   */\n      or\n        /* \"#utility.yul\":13633:13772   */\n      tag_254\n      jumpi\n        /* \"#utility.yul\":13752:13770   */\n      tag_255\n      tag_109\n      jump\t// in\n    tag_255:\n        /* \"#utility.yul\":13633:13772   */\n    tag_254:\n        /* \"#utility.yul\":13417:13779   */\n      pop\n        /* \"#utility.yul\":13369:13779   */\n      swap3\n      swap2\n      pop\n      pop\n      jump\t// out\n        /* \"#utility.yul\":13785:13965   */\n    tag_137:\n        /* \"#utility.yul\":13833:13910   */\n      0x4e487b7100000000000000000000000000000000000000000000000000000000\n        /* \"#utility.yul\":13830:13831   */\n      0x00\n        /* \"#utility.yul\":13823:13911   */\n      mstore\n        /* \"#utility.yul\":13930:13934   */\n      0x12\n        /* \"#utility.yul\":13927:13928   */\n      0x04\n        /* \"#utility.yul\":13920:13935   */\n      mstore\n        /* \"#utility.yul\":13954:13958   */\n      0x24\n        /* \"#utility.yul\":13951:13952   */\n      0x00\n        /* \"#utility.yul\":13944:13959   */\n      revert\n        /* \"#utility.yul\":13971:14156   */\n    tag_97:\n        /* \"#utility.yul\":14011:14012   */\n      0x00\n        /* \"#utility.yul\":14028:14048   */\n      tag_258\n        /* \"#utility.yul\":14046:14047   */\n      dup3\n        /* \"#utility.yul\":14028:14048   */\n      tag_107\n      jump\t// in\n    tag_258:\n        /* \"#utility.yul\":14023:14048   */\n      swap2\n      pop\n        /* \"#utility.yul\":14062:14082   */\n      tag_259\n        /* \"#utility.yul\":14080:14081   */\n      dup4\n        /* \"#utility.yul\":14062:14082   */\n      tag_107\n      jump\t// in\n    tag_259:\n        /* \"#utility.yul\":14057:14082   */\n      swap3\n      pop\n        /* \"#utility.yul\":14101:14102   */\n      dup3\n        /* \"#utility.yul\":14091:14126   */\n      tag_260\n      jumpi\n        /* \"#utility.yul\":14106:14124   */\n      tag_261\n      tag_137\n      jump\t// in\n    tag_261:\n        /* \"#utility.yul\":14091:14126   */\n    tag_260:\n        /* \"#utility.yul\":14148:14149   */\n      dup3\n        /* \"#utility.yul\":14145:14146   */\n      dup3\n        /* \"#utility.yul\":14141:14150   */\n      div\n        /* \"#utility.yul\":14136:14150   */\n      swap1\n      pop\n        /* \"#utility.yul\":13971:14156   */\n      swap3\n      swap2\n      pop\n      pop\n      jump\t// out\n\n    auxdata: 0xa2646970667358221220ddba3aef61086dd027e6e77b97b84141bfe4e370e202cc6a49a9ed71817f861b64736f6c634300081e0033\n}\n",
				"bytecode": {
					"linkReferences": {},
					"object": "608060405268056bc75e2d6310000060015534801561001c575f5ffd5b50604051610fb1380380610fb1833981810160405281019061003e919061011d565b73694aa1769357215de4fac081bf1f309adc32530660025f6101000a81548173ffffffffffffffffffffffffffffffffffffffff021916908373ffffffffffffffffffffffffffffffffffffffff1602179055503360035f6101000a81548173ffffffffffffffffffffffffffffffffffffffff021916908373ffffffffffffffffffffffffffffffffffffffff160217905550426004819055508060058190555050610148565b5f5ffd5b5f819050919050565b6100fc816100ea565b8114610106575f5ffd5b50565b5f81519050610117816100f3565b92915050565b5f60208284031215610132576101316100e6565b5b5f61013f84828501610109565b91505092915050565b610e5c806101555f395ff3fe608060405260043610610054575f3560e01c8063590e1ae3146100585780638edd6eb61461006e578063b60d428814610084578063bea4dfb51461008e578063c6da75a6146100b8578063f2fde38b146100f4575b5f5ffd5b348015610063575f5ffd5b5061006c61011c565b005b348015610079575f5ffd5b5061008261032d565b005b61008c61050f565b005b348015610099575f5ffd5b506100a26105f0565b6040516100af91906107ba565b60405180910390f35b3480156100c3575f5ffd5b506100de60048036038101906100d99190610831565b61068d565b6040516100eb9190610874565b60405180910390f35b3480156100ff575f5ffd5b5061011a60048036038101906101159190610831565b6106a1565b005b60055460045461012c91906108ba565b42101561016e576040517f08c379a000000000000000000000000000000000000000000000000000000000815260040161016590610947565b60405180910390fd5b683635c9adc5dea0000061018147610773565b106101c1576040517f08c379a00000000000000000000000000000000000000000000000000000000081526004016101b8906109af565b60405180910390fd5b5f5f5f3373ffffffffffffffffffffffffffffffffffffffff1673ffffffffffffffffffffffffffffffffffffffff1681526020019081526020015f20540361023f576040517f08c379a000000000000000000000000000000000000000000000000000000000815260040161023690610a17565b60405180910390fd5b5f3373ffffffffffffffffffffffffffffffffffffffff164760405161026490610a62565b5f6040518083038185875af1925050503d805f811461029e576040519150601f19603f3d011682016040523d82523d5f602084013e6102a3565b606091505b505080915050806102e9576040517f08c379a00000000000000000000000000000000000000000000000000000000081526004016102e090610ac0565b60405180910390fd5b5f5f5f3373ffffffffffffffffffffffffffffffffffffffff1673ffffffffffffffffffffffffffffffffffffffff1681526020019081526020015f208190555050565b60055460045461033d91906108ba565b42101561037f576040517f08c379a000000000000000000000000000000000000000000000000000000000815260040161037690610947565b60405180910390fd5b60035f9054906101000a900473ffffffffffffffffffffffffffffffffffffffff1673ffffffffffffffffffffffffffffffffffffffff163373ffffffffffffffffffffffffffffffffffffffff161461040e576040517f08c379a000000000000000000000000000000000000000000000000000000000815260040161040590610b28565b60405180910390fd5b683635c9adc5dea0000061042147610773565b1015610462576040517f08c379a000000000000000000000000000000000000000000000000000000000815260040161045990610b90565b60405180910390fd5b5f3373ffffffffffffffffffffffffffffffffffffffff164760405161048790610a62565b5f6040518083038185875af1925050503d805f81146104c1576040519150601f19603f3d011682016040523d82523d5f602084013e6104c6565b606091505b5050809150508061050c576040517f08c379a000000000000000000000000000000000000000000000000000000000815260040161050390610ac0565b60405180910390fd5b50565b60015461051b34610773565b101561055c576040517f08c379a000000000000000000000000000000000000000000000000000000000815260040161055390610bf8565b60405180910390fd5b345f5f3373ffffffffffffffffffffffffffffffffffffffff1673ffffffffffffffffffffffffffffffffffffffff1681526020019081526020015f20819055506005546004546105ad91906108ba565b42106105ee576040517f08c379a00000000000000000000000000000000000000000000000000000000081526004016105e590610c60565b60405180910390fd5b565b5f5f60025f9054906101000a900473ffffffffffffffffffffffffffffffffffffffff1673ffffffffffffffffffffffffffffffffffffffff1663feaf968c6040518163ffffffff1660e01b815260040160a060405180830381865afa15801561065c573d5f5f3e3d5ffd5b505050506040513d601f19601f820116820180604052508101906106809190610d11565b5050509150508091505090565b5f602052805f5260405f205f915090505481565b60035f9054906101000a900473ffffffffffffffffffffffffffffffffffffffff1673ffffffffffffffffffffffffffffffffffffffff163373ffffffffffffffffffffffffffffffffffffffff1614610730576040517f08c379a000000000000000000000000000000000000000000000000000000000815260040161072790610b28565b60405180910390fd5b8060035f6101000a81548173ffffffffffffffffffffffffffffffffffffffff021916908373ffffffffffffffffffffffffffffffffffffffff16021790555050565b5f5f61077d6105f0565b90506305f5e10083826107909190610d88565b61079a9190610df6565b915050919050565b5f819050919050565b6107b4816107a2565b82525050565b5f6020820190506107cd5f8301846107ab565b92915050565b5f5ffd5b5f73ffffffffffffffffffffffffffffffffffffffff82169050919050565b5f610800826107d7565b9050919050565b610810816107f6565b811461081a575f5ffd5b50565b5f8135905061082b81610807565b92915050565b5f60208284031215610846576108456107d3565b5b5f6108538482850161081d565b91505092915050565b5f819050919050565b61086e8161085c565b82525050565b5f6020820190506108875f830184610865565b92915050565b7f4e487b71000000000000000000000000000000000000000000000000000000005f52601160045260245ffd5b5f6108c48261085c565b91506108cf8361085c565b92508282019050808211156108e7576108e661088d565b5b92915050565b5f82825260208201905092915050565b7f546865206c6f636b20706572696f6420686173206e6f7420656e6465640000005f82015250565b5f610931601d836108ed565b915061093c826108fd565b602082019050919050565b5f6020820190508181035f83015261095e81610925565b9050919050565b7f54617267657420686173207265616368656400000000000000000000000000005f82015250565b5f6109996012836108ed565b91506109a482610965565b602082019050919050565b5f6020820190508181035f8301526109c68161098d565b9050919050565b7f596f7520617265206e6f742066756e64657200000000000000000000000000005f82015250565b5f610a016012836108ed565b9150610a0c826109cd565b602082019050919050565b5f6020820190508181035f830152610a2e816109f5565b9050919050565b5f81905092915050565b50565b5f610a4d5f83610a35565b9150610a5882610a3f565b5f82019050919050565b5f610a6c82610a42565b9150819050919050565b7f7472616e73666572207478206661696c656400000000000000000000000000005f82015250565b5f610aaa6012836108ed565b9150610ab582610a76565b602082019050919050565b5f6020820190508181035f830152610ad781610a9e565b9050919050565b7f596f7520617265206e6f7420746865206f776e657200000000000000000000005f82015250565b5f610b126015836108ed565b9150610b1d82610ade565b602082019050919050565b5f6020820190508181035f830152610b3f81610b06565b9050919050565b7f546172676574206973206e6f74207265616368656400000000000000000000005f82015250565b5f610b7a6015836108ed565b9150610b8582610b46565b602082019050919050565b5f6020820190508181035f830152610ba781610b6e565b9050919050565b7f594f552053484f554c442046554e44204d4f52452045544821210000000000005f82015250565b5f610be2601a836108ed565b9150610bed82610bae565b602082019050919050565b5f6020820190508181035f830152610c0f81610bd6565b9050919050565b7f546865206c6f636b20706572696f642068617320656e646564000000000000005f82015250565b5f610c4a6019836108ed565b9150610c5582610c16565b602082019050919050565b5f6020820190508181035f830152610c7781610c3e565b9050919050565b5f69ffffffffffffffffffff82169050919050565b610c9c81610c7e565b8114610ca6575f5ffd5b50565b5f81519050610cb781610c93565b92915050565b610cc6816107a2565b8114610cd0575f5ffd5b50565b5f81519050610ce181610cbd565b92915050565b610cf08161085c565b8114610cfa575f5ffd5b50565b5f81519050610d0b81610ce7565b92915050565b5f5f5f5f5f60a08688031215610d2a57610d296107d3565b5b5f610d3788828901610ca9565b9550506020610d4888828901610cd3565b9450506040610d5988828901610cfd565b9350506060610d6a88828901610cfd565b9250506080610d7b88828901610ca9565b9150509295509295909350565b5f610d928261085c565b9150610d9d8361085c565b9250828202610dab8161085c565b91508282048414831517610dc257610dc161088d565b5b5092915050565b7f4e487b71000000000000000000000000000000000000000000000000000000005f52601260045260245ffd5b5f610e008261085c565b9150610e0b8361085c565b925082610e1b57610e1a610dc9565b5b82820490509291505056fea2646970667358221220ddba3aef61086dd027e6e77b97b84141bfe4e370e202cc6a49a9ed71817f861b64736f6c634300081e0033",
					"opcodes": "PUSH1 0x80 PUSH1 0x40 MSTORE PUSH9 0x56BC75E2D63100000 PUSH1 0x1 SSTORE CALLVALUE DUP1 ISZERO PUSH2 0x1C JUMPI PUSH0 PUSH0 REVERT JUMPDEST POP PUSH1 0x40 MLOAD PUSH2 0xFB1 CODESIZE SUB DUP1 PUSH2 0xFB1 DUP4 CODECOPY DUP2 DUP2 ADD PUSH1 0x40 MSTORE DUP2 ADD SWAP1 PUSH2 0x3E SWAP2 SWAP1 PUSH2 0x11D JUMP JUMPDEST PUSH20 0x694AA1769357215DE4FAC081BF1F309ADC325306 PUSH1 0x2 PUSH0 PUSH2 0x100 EXP DUP2 SLOAD DUP2 PUSH20 0xFFFFFFFFFFFFFFFFFFFFFFFFFFFFFFFFFFFFFFFF MUL NOT AND SWAP1 DUP4 PUSH20 0xFFFFFFFFFFFFFFFFFFFFFFFFFFFFFFFFFFFFFFFF AND MUL OR SWAP1 SSTORE POP CALLER PUSH1 0x3 PUSH0 PUSH2 0x100 EXP DUP2 SLOAD DUP2 PUSH20 0xFFFFFFFFFFFFFFFFFFFFFFFFFFFFFFFFFFFFFFFF MUL NOT AND SWAP1 DUP4 PUSH20 0xFFFFFFFFFFFFFFFFFFFFFFFFFFFFFFFFFFFFFFFF AND MUL OR SWAP1 SSTORE POP TIMESTAMP PUSH1 0x4 DUP2 SWAP1 SSTORE POP DUP1 PUSH1 0x5 DUP2 SWAP1 SSTORE POP POP PUSH2 0x148 JUMP JUMPDEST PUSH0 PUSH0 REVERT JUMPDEST PUSH0 DUP2 SWAP1 POP SWAP2 SWAP1 POP JUMP JUMPDEST PUSH2 0xFC DUP2 PUSH2 0xEA JUMP JUMPDEST DUP2 EQ PUSH2 0x106 JUMPI PUSH0 PUSH0 REVERT JUMPDEST POP JUMP JUMPDEST PUSH0 DUP2 MLOAD SWAP1 POP PUSH2 0x117 DUP2 PUSH2 0xF3 JUMP JUMPDEST SWAP3 SWAP2 POP POP JUMP JUMPDEST PUSH0 PUSH1 0x20 DUP3 DUP5 SUB SLT ISZERO PUSH2 0x132 JUMPI PUSH2 0x131 PUSH2 0xE6 JUMP JUMPDEST JUMPDEST PUSH0 PUSH2 0x13F DUP5 DUP3 DUP6 ADD PUSH2 0x109 JUMP JUMPDEST SWAP2 POP POP SWAP3 SWAP2 POP POP JUMP JUMPDEST PUSH2 0xE5C DUP1 PUSH2 0x155 PUSH0 CODECOPY PUSH0 RETURN INVALID PUSH1 0x80 PUSH1 0x40 MSTORE PUSH1 0x4 CALLDATASIZE LT PUSH2 0x54 JUMPI PUSH0 CALLDATALOAD PUSH1 0xE0 SHR DUP1 PUSH4 0x590E1AE3 EQ PUSH2 0x58 JUMPI DUP1 PUSH4 0x8EDD6EB6 EQ PUSH2 0x6E JUMPI DUP1 PUSH4 0xB60D4288 EQ PUSH2 0x84 JUMPI DUP1 PUSH4 0xBEA4DFB5 EQ PUSH2 0x8E JUMPI DUP1 PUSH4 0xC6DA75A6 EQ PUSH2 0xB8 JUMPI DUP1 PUSH4 0xF2FDE38B EQ PUSH2 0xF4 JUMPI JUMPDEST PUSH0 PUSH0 REVERT JUMPDEST CALLVALUE DUP1 ISZERO PUSH2 0x63 JUMPI PUSH0 PUSH0 REVERT JUMPDEST POP PUSH2 0x6C PUSH2 0x11C JUMP JUMPDEST STOP JUMPDEST CALLVALUE DUP1 ISZERO PUSH2 0x79 JUMPI PUSH0 PUSH0 REVERT JUMPDEST POP PUSH2 0x82 PUSH2 0x32D JUMP JUMPDEST STOP JUMPDEST PUSH2 0x8C PUSH2 0x50F JUMP JUMPDEST STOP JUMPDEST CALLVALUE DUP1 ISZERO PUSH2 0x99 JUMPI PUSH0 PUSH0 REVERT JUMPDEST POP PUSH2 0xA2 PUSH2 0x5F0 JUMP JUMPDEST PUSH1 0x40 MLOAD PUSH2 0xAF SWAP2 SWAP1 PUSH2 0x7BA JUMP JUMPDEST PUSH1 0x40 MLOAD DUP1 SWAP2 SUB SWAP1 RETURN JUMPDEST CALLVALUE DUP1 ISZERO PUSH2 0xC3 JUMPI PUSH0 PUSH0 REVERT JUMPDEST POP PUSH2 0xDE PUSH1 0x4 DUP1 CALLDATASIZE SUB DUP2 ADD SWAP1 PUSH2 0xD9 SWAP2 SWAP1 PUSH2 0x831 JUMP JUMPDEST PUSH2 0x68D JUMP JUMPDEST PUSH1 0x40 MLOAD PUSH2 0xEB SWAP2 SWAP1 PUSH2 0x874 JUMP JUMPDEST PUSH1 0x40 MLOAD DUP1 SWAP2 SUB SWAP1 RETURN JUMPDEST CALLVALUE DUP1 ISZERO PUSH2 0xFF JUMPI PUSH0 PUSH0 REVERT JUMPDEST POP PUSH2 0x11A PUSH1 0x4 DUP1 CALLDATASIZE SUB DUP2 ADD SWAP1 PUSH2 0x115 SWAP2 SWAP1 PUSH2 0x831 JUMP JUMPDEST PUSH2 0x6A1 JUMP JUMPDEST STOP JUMPDEST PUSH1 0x5 SLOAD PUSH1 0x4 SLOAD PUSH2 0x12C SWAP2 SWAP1 PUSH2 0x8BA JUMP JUMPDEST TIMESTAMP LT ISZERO PUSH2 0x16E JUMPI PUSH1 0x40 MLOAD PUSH32 0x8C379A000000000000000000000000000000000000000000000000000000000 DUP2 MSTORE PUSH1 0x4 ADD PUSH2 0x165 SWAP1 PUSH2 0x947 JUMP JUMPDEST PUSH1 0x40 MLOAD DUP1 SWAP2 SUB SWAP1 REVERT JUMPDEST PUSH9 0x3635C9ADC5DEA00000 PUSH2 0x181 SELFBALANCE PUSH2 0x773 JUMP JUMPDEST LT PUSH2 0x1C1 JUMPI PUSH1 0x40 MLOAD PUSH32 0x8C379A000000000000000000000000000000000000000000000000000000000 DUP2 MSTORE PUSH1 0x4 ADD PUSH2 0x1B8 SWAP1 PUSH2 0x9AF JUMP JUMPDEST PUSH1 0x40 MLOAD DUP1 SWAP2 SUB SWAP1 REVERT JUMPDEST PUSH0 PUSH0 PUSH0 CALLER PUSH20 0xFFFFFFFFFFFFFFFFFFFFFFFFFFFFFFFFFFFFFFFF AND PUSH20 0xFFFFFFFFFFFFFFFFFFFFFFFFFFFFFFFFFFFFFFFF AND DUP2 MSTORE PUSH1 0x20 ADD SWAP1 DUP2 MSTORE PUSH1 0x20 ADD PUSH0 KECCAK256 SLOAD SUB PUSH2 0x23F JUMPI PUSH1 0x40 MLOAD PUSH32 0x8C379A000000000000000000000000000000000000000000000000000000000 DUP2 MSTORE PUSH1 0x4 ADD PUSH2 0x236 SWAP1 PUSH2 0xA17 JUMP JUMPDEST PUSH1 0x40 MLOAD DUP1 SWAP2 SUB SWAP1 REVERT JUMPDEST PUSH0 CALLER PUSH20 0xFFFFFFFFFFFFFFFFFFFFFFFFFFFFFFFFFFFFFFFF AND SELFBALANCE PUSH1 0x40 MLOAD PUSH2 0x264 SWAP1 PUSH2 0xA62 JUMP JUMPDEST PUSH0 PUSH1 0x40 MLOAD DUP1 DUP4 SUB DUP2 DUP6 DUP8 GAS CALL SWAP3 POP POP POP RETURNDATASIZE DUP1 PUSH0 DUP2 EQ PUSH2 0x29E JUMPI PUSH1 0x40 MLOAD SWAP2 POP PUSH1 0x1F NOT PUSH1 0x3F RETURNDATASIZE ADD AND DUP3 ADD PUSH1 0x40 MSTORE RETURNDATASIZE DUP3 MSTORE RETURNDATASIZE PUSH0 PUSH1 0x20 DUP5 ADD RETURNDATACOPY PUSH2 0x2A3 JUMP JUMPDEST PUSH1 0x60 SWAP2 POP JUMPDEST POP POP DUP1 SWAP2 POP POP DUP1 PUSH2 0x2E9 JUMPI PUSH1 0x40 MLOAD PUSH32 0x8C379A000000000000000000000000000000000000000000000000000000000 DUP2 MSTORE PUSH1 0x4 ADD PUSH2 0x2E0 SWAP1 PUSH2 0xAC0 JUMP JUMPDEST PUSH1 0x40 MLOAD DUP1 SWAP2 SUB SWAP1 REVERT JUMPDEST PUSH0 PUSH0 PUSH0 CALLER PUSH20 0xFFFFFFFFFFFFFFFFFFFFFFFFFFFFFFFFFFFFFFFF AND PUSH20 0xFFFFFFFFFFFFFFFFFFFFFFFFFFFFFFFFFFFFFFFF AND DUP2 MSTORE PUSH1 0x20 ADD SWAP1 DUP2 MSTORE PUSH1 0x20 ADD PUSH0 KECCAK256 DUP2 SWAP1 SSTORE POP POP JUMP JUMPDEST PUSH1 0x5 SLOAD PUSH1 0x4 SLOAD PUSH2 0x33D SWAP2 SWAP1 PUSH2 0x8BA JUMP JUMPDEST TIMESTAMP LT ISZERO PUSH2 0x37F JUMPI PUSH1 0x40 MLOAD PUSH32 0x8C379A000000000000000000000000000000000000000000000000000000000 DUP2 MSTORE PUSH1 0x4 ADD PUSH2 0x376 SWAP1 PUSH2 0x947 JUMP JUMPDEST PUSH1 0x40 MLOAD DUP1 SWAP2 SUB SWAP1 REVERT JUMPDEST PUSH1 0x3 PUSH0 SWAP1 SLOAD SWAP1 PUSH2 0x100 EXP SWAP1 DIV PUSH20 0xFFFFFFFFFFFFFFFFFFFFFFFFFFFFFFFFFFFFFFFF AND PUSH20 0xFFFFFFFFFFFFFFFFFFFFFFFFFFFFFFFFFFFFFFFF AND CALLER PUSH20 0xFFFFFFFFFFFFFFFFFFFFFFFFFFFFFFFFFFFFFFFF AND EQ PUSH2 0x40E JUMPI PUSH1 0x40 MLOAD PUSH32 0x8C379A000000000000000000000000000000000000000000000000000000000 DUP2 MSTORE PUSH1 0x4 ADD PUSH2 0x405 SWAP1 PUSH2 0xB28 JUMP JUMPDEST PUSH1 0x40 MLOAD DUP1 SWAP2 SUB SWAP1 REVERT JUMPDEST PUSH9 0x3635C9ADC5DEA00000 PUSH2 0x421 SELFBALANCE PUSH2 0x773 JUMP JUMPDEST LT ISZERO PUSH2 0x462 JUMPI PUSH1 0x40 MLOAD PUSH32 0x8C379A000000000000000000000000000000000000000000000000000000000 DUP2 MSTORE PUSH1 0x4 ADD PUSH2 0x459 SWAP1 PUSH2 0xB90 JUMP JUMPDEST PUSH1 0x40 MLOAD DUP1 SWAP2 SUB SWAP1 REVERT JUMPDEST PUSH0 CALLER PUSH20 0xFFFFFFFFFFFFFFFFFFFFFFFFFFFFFFFFFFFFFFFF AND SELFBALANCE PUSH1 0x40 MLOAD PUSH2 0x487 SWAP1 PUSH2 0xA62 JUMP JUMPDEST PUSH0 PUSH1 0x40 MLOAD DUP1 DUP4 SUB DUP2 DUP6 DUP8 GAS CALL SWAP3 POP POP POP RETURNDATASIZE DUP1 PUSH0 DUP2 EQ PUSH2 0x4C1 JUMPI PUSH1 0x40 MLOAD SWAP2 POP PUSH1 0x1F NOT PUSH1 0x3F RETURNDATASIZE ADD AND DUP3 ADD PUSH1 0x40 MSTORE RETURNDATASIZE DUP3 MSTORE RETURNDATASIZE PUSH0 PUSH1 0x20 DUP5 ADD RETURNDATACOPY PUSH2 0x4C6 JUMP JUMPDEST PUSH1 0x60 SWAP2 POP JUMPDEST POP POP DUP1 SWAP2 POP POP DUP1 PUSH2 0x50C JUMPI PUSH1 0x40 MLOAD PUSH32 0x8C379A000000000000000000000000000000000000000000000000000000000 DUP2 MSTORE PUSH1 0x4 ADD PUSH2 0x503 SWAP1 PUSH2 0xAC0 JUMP JUMPDEST PUSH1 0x40 MLOAD DUP1 SWAP2 SUB SWAP1 REVERT JUMPDEST POP JUMP JUMPDEST PUSH1 0x1 SLOAD PUSH2 0x51B CALLVALUE PUSH2 0x773 JUMP JUMPDEST LT ISZERO PUSH2 0x55C JUMPI PUSH1 0x40 MLOAD PUSH32 0x8C379A000000000000000000000000000000000000000000000000000000000 DUP2 MSTORE PUSH1 0x4 ADD PUSH2 0x553 SWAP1 PUSH2 0xBF8 JUMP JUMPDEST PUSH1 0x40 MLOAD DUP1 SWAP2 SUB SWAP1 REVERT JUMPDEST CALLVALUE PUSH0 PUSH0 CALLER PUSH20 0xFFFFFFFFFFFFFFFFFFFFFFFFFFFFFFFFFFFFFFFF AND PUSH20 0xFFFFFFFFFFFFFFFFFFFFFFFFFFFFFFFFFFFFFFFF AND DUP2 MSTORE PUSH1 0x20 ADD SWAP1 DUP2 MSTORE PUSH1 0x20 ADD PUSH0 KECCAK256 DUP2 SWAP1 SSTORE POP PUSH1 0x5 SLOAD PUSH1 0x4 SLOAD PUSH2 0x5AD SWAP2 SWAP1 PUSH2 0x8BA JUMP JUMPDEST TIMESTAMP LT PUSH2 0x5EE JUMPI PUSH1 0x40 MLOAD PUSH32 0x8C379A000000000000000000000000000000000000000000000000000000000 DUP2 MSTORE PUSH1 0x4 ADD PUSH2 0x5E5 SWAP1 PUSH2 0xC60 JUMP JUMPDEST PUSH1 0x40 MLOAD DUP1 SWAP2 SUB SWAP1 REVERT JUMPDEST JUMP JUMPDEST PUSH0 PUSH0 PUSH1 0x2 PUSH0 SWAP1 SLOAD SWAP1 PUSH2 0x100 EXP SWAP1 DIV PUSH20 0xFFFFFFFFFFFFFFFFFFFFFFFFFFFFFFFFFFFFFFFF AND PUSH20 0xFFFFFFFFFFFFFFFFFFFFFFFFFFFFFFFFFFFFFFFF AND PUSH4 0xFEAF968C PUSH1 0x40 MLOAD DUP2 PUSH4 0xFFFFFFFF AND PUSH1 0xE0 SHL DUP2 MSTORE PUSH1 0x4 ADD PUSH1 0xA0 PUSH1 0x40 MLOAD DUP1 DUP4 SUB DUP2 DUP7 GAS STATICCALL ISZERO DUP1 ISZERO PUSH2 0x65C JUMPI RETURNDATASIZE PUSH0 PUSH0 RETURNDATACOPY RETURNDATASIZE PUSH0 REVERT JUMPDEST POP POP POP POP PUSH1 0x40 MLOAD RETURNDATASIZE PUSH1 0x1F NOT PUSH1 0x1F DUP3 ADD AND DUP3 ADD DUP1 PUSH1 0x40 MSTORE POP DUP2 ADD SWAP1 PUSH2 0x680 SWAP2 SWAP1 PUSH2 0xD11 JUMP JUMPDEST POP POP POP SWAP2 POP POP DUP1 SWAP2 POP POP SWAP1 JUMP JUMPDEST PUSH0 PUSH1 0x20 MSTORE DUP1 PUSH0 MSTORE PUSH1 0x40 PUSH0 KECCAK256 PUSH0 SWAP2 POP SWAP1 POP SLOAD DUP2 JUMP JUMPDEST PUSH1 0x3 PUSH0 SWAP1 SLOAD SWAP1 PUSH2 0x100 EXP SWAP1 DIV PUSH20 0xFFFFFFFFFFFFFFFFFFFFFFFFFFFFFFFFFFFFFFFF AND PUSH20 0xFFFFFFFFFFFFFFFFFFFFFFFFFFFFFFFFFFFFFFFF AND CALLER PUSH20 0xFFFFFFFFFFFFFFFFFFFFFFFFFFFFFFFFFFFFFFFF AND EQ PUSH2 0x730 JUMPI PUSH1 0x40 MLOAD PUSH32 0x8C379A000000000000000000000000000000000000000000000000000000000 DUP2 MSTORE PUSH1 0x4 ADD PUSH2 0x727 SWAP1 PUSH2 0xB28 JUMP JUMPDEST PUSH1 0x40 MLOAD DUP1 SWAP2 SUB SWAP1 REVERT JUMPDEST DUP1 PUSH1 0x3 PUSH0 PUSH2 0x100 EXP DUP2 SLOAD DUP2 PUSH20 0xFFFFFFFFFFFFFFFFFFFFFFFFFFFFFFFFFFFFFFFF MUL NOT AND SWAP1 DUP4 PUSH20 0xFFFFFFFFFFFFFFFFFFFFFFFFFFFFFFFFFFFFFFFF AND MUL OR SWAP1 SSTORE POP POP JUMP JUMPDEST PUSH0 PUSH0 PUSH2 0x77D PUSH2 0x5F0 JUMP JUMPDEST SWAP1 POP PUSH4 0x5F5E100 DUP4 DUP3 PUSH2 0x790 SWAP2 SWAP1 PUSH2 0xD88 JUMP JUMPDEST PUSH2 0x79A SWAP2 SWAP1 PUSH2 0xDF6 JUMP JUMPDEST SWAP2 POP POP SWAP2 SWAP1 POP JUMP JUMPDEST PUSH0 DUP2 SWAP1 POP SWAP2 SWAP1 POP JUMP JUMPDEST PUSH2 0x7B4 DUP2 PUSH2 0x7A2 JUMP JUMPDEST DUP3 MSTORE POP POP JUMP JUMPDEST PUSH0 PUSH1 0x20 DUP3 ADD SWAP1 POP PUSH2 0x7CD PUSH0 DUP4 ADD DUP5 PUSH2 0x7AB JUMP JUMPDEST SWAP3 SWAP2 POP POP JUMP JUMPDEST PUSH0 PUSH0 REVERT JUMPDEST PUSH0 PUSH20 0xFFFFFFFFFFFFFFFFFFFFFFFFFFFFFFFFFFFFFFFF DUP3 AND SWAP1 POP SWAP2 SWAP1 POP JUMP JUMPDEST PUSH0 PUSH2 0x800 DUP3 PUSH2 0x7D7 JUMP JUMPDEST SWAP1 POP SWAP2 SWAP1 POP JUMP JUMPDEST PUSH2 0x810 DUP2 PUSH2 0x7F6 JUMP JUMPDEST DUP2 EQ PUSH2 0x81A JUMPI PUSH0 PUSH0 REVERT JUMPDEST POP JUMP JUMPDEST PUSH0 DUP2 CALLDATALOAD SWAP1 POP PUSH2 0x82B DUP2 PUSH2 0x807 JUMP JUMPDEST SWAP3 SWAP2 POP POP JUMP JUMPDEST PUSH0 PUSH1 0x20 DUP3 DUP5 SUB SLT ISZERO PUSH2 0x846 JUMPI PUSH2 0x845 PUSH2 0x7D3 JUMP JUMPDEST JUMPDEST PUSH0 PUSH2 0x853 DUP5 DUP3 DUP6 ADD PUSH2 0x81D JUMP JUMPDEST SWAP2 POP POP SWAP3 SWAP2 POP POP JUMP JUMPDEST PUSH0 DUP2 SWAP1 POP SWAP2 SWAP1 POP JUMP JUMPDEST PUSH2 0x86E DUP2 PUSH2 0x85C JUMP JUMPDEST DUP3 MSTORE POP POP JUMP JUMPDEST PUSH0 PUSH1 0x20 DUP3 ADD SWAP1 POP PUSH2 0x887 PUSH0 DUP4 ADD DUP5 PUSH2 0x865 JUMP JUMPDEST SWAP3 SWAP2 POP POP JUMP JUMPDEST PUSH32 0x4E487B7100000000000000000000000000000000000000000000000000000000 PUSH0 MSTORE PUSH1 0x11 PUSH1 0x4 MSTORE PUSH1 0x24 PUSH0 REVERT JUMPDEST PUSH0 PUSH2 0x8C4 DUP3 PUSH2 0x85C JUMP JUMPDEST SWAP2 POP PUSH2 0x8CF DUP4 PUSH2 0x85C JUMP JUMPDEST SWAP3 POP DUP3 DUP3 ADD SWAP1 POP DUP1 DUP3 GT ISZERO PUSH2 0x8E7 JUMPI PUSH2 0x8E6 PUSH2 0x88D JUMP JUMPDEST JUMPDEST SWAP3 SWAP2 POP POP JUMP JUMPDEST PUSH0 DUP3 DUP3 MSTORE PUSH1 0x20 DUP3 ADD SWAP1 POP SWAP3 SWAP2 POP POP JUMP JUMPDEST PUSH32 0x546865206C6F636B20706572696F6420686173206E6F7420656E646564000000 PUSH0 DUP3 ADD MSTORE POP JUMP JUMPDEST PUSH0 PUSH2 0x931 PUSH1 0x1D DUP4 PUSH2 0x8ED JUMP JUMPDEST SWAP2 POP PUSH2 0x93C DUP3 PUSH2 0x8FD JUMP JUMPDEST PUSH1 0x20 DUP3 ADD SWAP1 POP SWAP2 SWAP1 POP JUMP JUMPDEST PUSH0 PUSH1 0x20 DUP3 ADD SWAP1 POP DUP2 DUP2 SUB PUSH0 DUP4 ADD MSTORE PUSH2 0x95E DUP2 PUSH2 0x925 JUMP JUMPDEST SWAP1 POP SWAP2 SWAP1 POP JUMP JUMPDEST PUSH32 0x5461726765742068617320726561636865640000000000000000000000000000 PUSH0 DUP3 ADD MSTORE POP JUMP JUMPDEST PUSH0 PUSH2 0x999 PUSH1 0x12 DUP4 PUSH2 0x8ED JUMP JUMPDEST SWAP2 POP PUSH2 0x9A4 DUP3 PUSH2 0x965 JUMP JUMPDEST PUSH1 0x20 DUP3 ADD SWAP1 POP SWAP2 SWAP1 POP JUMP JUMPDEST PUSH0 PUSH1 0x20 DUP3 ADD SWAP1 POP DUP2 DUP2 SUB PUSH0 DUP4 ADD MSTORE PUSH2 0x9C6 DUP2 PUSH2 0x98D JUMP JUMPDEST SWAP1 POP SWAP2 SWAP1 POP JUMP JUMPDEST PUSH32 0x596F7520617265206E6F742066756E6465720000000000000000000000000000 PUSH0 DUP3 ADD MSTORE POP JUMP JUMPDEST PUSH0 PUSH2 0xA01 PUSH1 0x12 DUP4 PUSH2 0x8ED JUMP JUMPDEST SWAP2 POP PUSH2 0xA0C DUP3 PUSH2 0x9CD JUMP JUMPDEST PUSH1 0x20 DUP3 ADD SWAP1 POP SWAP2 SWAP1 POP JUMP JUMPDEST PUSH0 PUSH1 0x20 DUP3 ADD SWAP1 POP DUP2 DUP2 SUB PUSH0 DUP4 ADD MSTORE PUSH2 0xA2E DUP2 PUSH2 0x9F5 JUMP JUMPDEST SWAP1 POP SWAP2 SWAP1 POP JUMP JUMPDEST PUSH0 DUP2 SWAP1 POP SWAP3 SWAP2 POP POP JUMP JUMPDEST POP JUMP JUMPDEST PUSH0 PUSH2 0xA4D PUSH0 DUP4 PUSH2 0xA35 JUMP JUMPDEST SWAP2 POP PUSH2 0xA58 DUP3 PUSH2 0xA3F JUMP JUMPDEST PUSH0 DUP3 ADD SWAP1 POP SWAP2 SWAP1 POP JUMP JUMPDEST PUSH0 PUSH2 0xA6C DUP3 PUSH2 0xA42 JUMP JUMPDEST SWAP2 POP DUP2 SWAP1 POP SWAP2 SWAP1 POP JUMP JUMPDEST PUSH32 0x7472616E73666572207478206661696C65640000000000000000000000000000 PUSH0 DUP3 ADD MSTORE POP JUMP JUMPDEST PUSH0 PUSH2 0xAAA PUSH1 0x12 DUP4 PUSH2 0x8ED JUMP JUMPDEST SWAP2 POP PUSH2 0xAB5 DUP3 PUSH2 0xA76 JUMP JUMPDEST PUSH1 0x20 DUP3 ADD SWAP1 POP SWAP2 SWAP1 POP JUMP JUMPDEST PUSH0 PUSH1 0x20 DUP3 ADD SWAP1 POP DUP2 DUP2 SUB PUSH0 DUP4 ADD MSTORE PUSH2 0xAD7 DUP2 PUSH2 0xA9E JUMP JUMPDEST SWAP1 POP SWAP2 SWAP1 POP JUMP JUMPDEST PUSH32 0x596F7520617265206E6F7420746865206F776E65720000000000000000000000 PUSH0 DUP3 ADD MSTORE POP JUMP JUMPDEST PUSH0 PUSH2 0xB12 PUSH1 0x15 DUP4 PUSH2 0x8ED JUMP JUMPDEST SWAP2 POP PUSH2 0xB1D DUP3 PUSH2 0xADE JUMP JUMPDEST PUSH1 0x20 DUP3 ADD SWAP1 POP SWAP2 SWAP1 POP JUMP JUMPDEST PUSH0 PUSH1 0x20 DUP3 ADD SWAP1 POP DUP2 DUP2 SUB PUSH0 DUP4 ADD MSTORE PUSH2 0xB3F DUP2 PUSH2 0xB06 JUMP JUMPDEST SWAP1 POP SWAP2 SWAP1 POP JUMP JUMPDEST PUSH32 0x546172676574206973206E6F7420726561636865640000000000000000000000 PUSH0 DUP3 ADD MSTORE POP JUMP JUMPDEST PUSH0 PUSH2 0xB7A PUSH1 0x15 DUP4 PUSH2 0x8ED JUMP JUMPDEST SWAP2 POP PUSH2 0xB85 DUP3 PUSH2 0xB46 JUMP JUMPDEST PUSH1 0x20 DUP3 ADD SWAP1 POP SWAP2 SWAP1 POP JUMP JUMPDEST PUSH0 PUSH1 0x20 DUP3 ADD SWAP1 POP DUP2 DUP2 SUB PUSH0 DUP4 ADD MSTORE PUSH2 0xBA7 DUP2 PUSH2 0xB6E JUMP JUMPDEST SWAP1 POP SWAP2 SWAP1 POP JUMP JUMPDEST PUSH32 0x594F552053484F554C442046554E44204D4F5245204554482121000000000000 PUSH0 DUP3 ADD MSTORE POP JUMP JUMPDEST PUSH0 PUSH2 0xBE2 PUSH1 0x1A DUP4 PUSH2 0x8ED JUMP JUMPDEST SWAP2 POP PUSH2 0xBED DUP3 PUSH2 0xBAE JUMP JUMPDEST PUSH1 0x20 DUP3 ADD SWAP1 POP SWAP2 SWAP1 POP JUMP JUMPDEST PUSH0 PUSH1 0x20 DUP3 ADD SWAP1 POP DUP2 DUP2 SUB PUSH0 DUP4 ADD MSTORE PUSH2 0xC0F DUP2 PUSH2 0xBD6 JUMP JUMPDEST SWAP1 POP SWAP2 SWAP1 POP JUMP JUMPDEST PUSH32 0x546865206C6F636B20706572696F642068617320656E64656400000000000000 PUSH0 DUP3 ADD MSTORE POP JUMP JUMPDEST PUSH0 PUSH2 0xC4A PUSH1 0x19 DUP4 PUSH2 0x8ED JUMP JUMPDEST SWAP2 POP PUSH2 0xC55 DUP3 PUSH2 0xC16 JUMP JUMPDEST PUSH1 0x20 DUP3 ADD SWAP1 POP SWAP2 SWAP1 POP JUMP JUMPDEST PUSH0 PUSH1 0x20 DUP3 ADD SWAP1 POP DUP2 DUP2 SUB PUSH0 DUP4 ADD MSTORE PUSH2 0xC77 DUP2 PUSH2 0xC3E JUMP JUMPDEST SWAP1 POP SWAP2 SWAP1 POP JUMP JUMPDEST PUSH0 PUSH10 0xFFFFFFFFFFFFFFFFFFFF DUP3 AND SWAP1 POP SWAP2 SWAP1 POP JUMP JUMPDEST PUSH2 0xC9C DUP2 PUSH2 0xC7E JUMP JUMPDEST DUP2 EQ PUSH2 0xCA6 JUMPI PUSH0 PUSH0 REVERT JUMPDEST POP JUMP JUMPDEST PUSH0 DUP2 MLOAD SWAP1 POP PUSH2 0xCB7 DUP2 PUSH2 0xC93 JUMP JUMPDEST SWAP3 SWAP2 POP POP JUMP JUMPDEST PUSH2 0xCC6 DUP2 PUSH2 0x7A2 JUMP JUMPDEST DUP2 EQ PUSH2 0xCD0 JUMPI PUSH0 PUSH0 REVERT JUMPDEST POP JUMP JUMPDEST PUSH0 DUP2 MLOAD SWAP1 POP PUSH2 0xCE1 DUP2 PUSH2 0xCBD JUMP JUMPDEST SWAP3 SWAP2 POP POP JUMP JUMPDEST PUSH2 0xCF0 DUP2 PUSH2 0x85C JUMP JUMPDEST DUP2 EQ PUSH2 0xCFA JUMPI PUSH0 PUSH0 REVERT JUMPDEST POP JUMP JUMPDEST PUSH0 DUP2 MLOAD SWAP1 POP PUSH2 0xD0B DUP2 PUSH2 0xCE7 JUMP JUMPDEST SWAP3 SWAP2 POP POP JUMP JUMPDEST PUSH0 PUSH0 PUSH0 PUSH0 PUSH0 PUSH1 0xA0 DUP7 DUP9 SUB SLT ISZERO PUSH2 0xD2A JUMPI PUSH2 0xD29 PUSH2 0x7D3 JUMP JUMPDEST JUMPDEST PUSH0 PUSH2 0xD37 DUP9 DUP3 DUP10 ADD PUSH2 0xCA9 JUMP JUMPDEST SWAP6 POP POP PUSH1 0x20 PUSH2 0xD48 DUP9 DUP3 DUP10 ADD PUSH2 0xCD3 JUMP JUMPDEST SWAP5 POP POP PUSH1 0x40 PUSH2 0xD59 DUP9 DUP3 DUP10 ADD PUSH2 0xCFD JUMP JUMPDEST SWAP4 POP POP PUSH1 0x60 PUSH2 0xD6A DUP9 DUP3 DUP10 ADD PUSH2 0xCFD JUMP JUMPDEST SWAP3 POP POP PUSH1 0x80 PUSH2 0xD7B DUP9 DUP3 DUP10 ADD PUSH2 0xCA9 JUMP JUMPDEST SWAP2 POP POP SWAP3 SWAP6 POP SWAP3 SWAP6 SWAP1 SWAP4 POP JUMP JUMPDEST PUSH0 PUSH2 0xD92 DUP3 PUSH2 0x85C JUMP JUMPDEST SWAP2 POP PUSH2 0xD9D DUP4 PUSH2 0x85C JUMP JUMPDEST SWAP3 POP DUP3 DUP3 MUL PUSH2 0xDAB DUP2 PUSH2 0x85C JUMP JUMPDEST SWAP2 POP DUP3 DUP3 DIV DUP5 EQ DUP4 ISZERO OR PUSH2 0xDC2 JUMPI PUSH2 0xDC1 PUSH2 0x88D JUMP JUMPDEST JUMPDEST POP SWAP3 SWAP2 POP POP JUMP JUMPDEST PUSH32 0x4E487B7100000000000000000000000000000000000000000000000000000000 PUSH0 MSTORE PUSH1 0x12 PUSH1 0x4 MSTORE PUSH1 0x24 PUSH0 REVERT JUMPDEST PUSH0 PUSH2 0xE00 DUP3 PUSH2 0x85C JUMP JUMPDEST SWAP2 POP PUSH2 0xE0B DUP4 PUSH2 0x85C JUMP JUMPDEST SWAP3 POP DUP3 PUSH2 0xE1B JUMPI PUSH2 0xE1A PUSH2 0xDC9 JUMP JUMPDEST JUMPDEST DUP3 DUP3 DIV SWAP1 POP SWAP3 SWAP2 POP POP JUMP INVALID LOG2 PUSH5 0x6970667358 0x22 SLT KECCAK256 0xDD 0xBA GASPRICE 0xEF PUSH2 0x86D 0xD0 0x27 DUPN 0xE7 PUSH28 0x97B84141BFE4E370E202CC6A49A9ED71817F861B64736F6C63430008 0x1E STOP CALLER "
				},
				"gasEstimates": {
					"creation": {
						"codeDepositCost": "735200",
						"executionCost": "infinite",
						"totalCost": "infinite"
					},
					"external": {
						"fund()": "infinite",
						"fundersToAccount(address)": "2867",
						"getChainlinkDataFeedLatestAnswer()": "infinite",
						"getFund()": "infinite",
						"refund()": "infinite",
						"transferOwnership(address)": "26972"
					},
					"internal": {
						"convertEthToUsd(uint256)": "infinite"
					}
				},
				"methodIdentifiers": {
					"fund()": "b60d4288",
					"fundersToAccount(address)": "c6da75a6",
					"getChainlinkDataFeedLatestAnswer()": "bea4dfb5",
					"getFund()": "8edd6eb6",
					"refund()": "590e1ae3",
					"transferOwnership(address)": "f2fde38b"
				}
			},
			"storageLayout": {
				"storage": [
					{
						"astId": 53,
						"contract": "fundme.sol:FundMe",
						"label": "fundersToAccount",
						"offset": 0,
						"slot": "0",
						"type": "t_mapping(t_address,t_uint256)"
					},
					{
						"astId": 60,
						"contract": "fundme.sol:FundMe",
						"label": "MINIMUM_VALUE",
						"offset": 0,
						"slot": "1",
						"type": "t_uint256"
					},
					{
						"astId": 70,
						"contract": "fundme.sol:FundMe",
						"label": "dataFeed",
						"offset": 0,
						"slot": "2",
						"type": "t_contract(AggregatorV3Interface)45"
					},
					{
						"astId": 72,
						"contract": "fundme.sol:FundMe",
						"label": "owner",
						"offset": 0,
						"slot": "3",
						"type": "t_address"
					},
					{
						"astId": 74,
						"contract": "fundme.sol:FundMe",
						"label": "deploymentTimestamp",
						"offset": 0,
						"slot": "4",
						"type": "t_uint256"
					},
					{
						"astId": 76,
						"contract": "fundme.sol:FundMe",
						"label": "lockTime",
						"offset": 0,
						"slot": "5",
						"type": "t_uint256"
					}
				],
				"types": {
					"t_address": {
						"encoding": "inplace",
						"label": "address",
						"numberOfBytes": "20"
					},
					"t_contract(AggregatorV3Interface)45": {
						"encoding": "inplace",
						"label": "contract AggregatorV3Interface",
						"numberOfBytes": "20"
					},
					"t_mapping(t_address,t_uint256)": {
						"encoding": "mapping",
						"key": "t_address",
						"label": "mapping(address => uint256)",
						"numberOfBytes": "32",
						"value": "t_uint256"
					},
					"t_uint256": {
						"encoding": "inplace",
						"label": "uint256",
						"numberOfBytes": "32"
					}
				}
			},
			"userdoc": {
				"kind": "user",
				"methods": {},
				"version": 1
			}
		}
	}
}