{
	"fundtokenERC20_flattened.sol": {
		"FundMe": {
			"abi": [
				{
					"inputs": [
						{
							"internalType": "uint256",
							"name": "_lockTime",
							"type": "uint256"
						}
					],
					"stateMutability": "nonpayable",
					"type": "constructor"
				},
				{
					"inputs": [],
					"name": "fund",
					"outputs": [],
					"stateMutability": "payable",
					"type": "function"
				},
				{
					"inputs": [
						{
							"internalType": "address",
							"name": "",
							"type": "address"
						}
					],
					"name": "fundersToAccount",
					"outputs": [
						{
							"internalType": "uint256",
							"name": "",
							"type": "uint256"
						}
					],
					"stateMutability": "view",
					"type": "function"
				},
				{
					"inputs": [],
					"name": "getChainlinkDataFeedLatestAnswer",
					"outputs": [
						{
							"internalType": "int256",
							"name": "",
							"type": "int256"
						}
					],
					"stateMutability": "view",
					"type": "function"
				},
				{
					"inputs": [],
					"name": "getFund",
					"outputs": [],
					"stateMutability": "nonpayable",
					"type": "function"
				},
				{
					"inputs": [],
					"name": "getFundSuccess",
					"outputs": [
						{
							"internalType": "bool",
							"name": "",
							"type": "bool"
						}
					],
					"stateMutability": "view",
					"type": "function"
				},
				{
					"inputs": [],
					"name": "refund",
					"outputs": [],
					"stateMutability": "nonpayable",
					"type": "function"
				},
				{
					"inputs": [
						{
							"internalType": "address",
							"name": "_erc20Addr",
							"type": "address"
						}
					],
					"name": "setERC20Addr",
					"outputs": [],
					"stateMutability": "nonpayable",
					"type": "function"
				},
				{
					"inputs": [
						{
							"internalType": "address",
							"name": "funder",
							"type": "address"
						},
						{
							"internalType": "uint256",
							"name": "amountToUpdate",
							"type": "uint256"
						}
					],
					"name": "setFunderToAmount",
					"outputs": [],
					"stateMutability": "nonpayable",
					"type": "function"
				},
				{
					"inputs": [
						{
							"internalType": "address",
							"name": "newOwner",
							"type": "address"
						}
					],
					"name": "transferOwnership",
					"outputs": [],
					"stateMutability": "nonpayable",
					"type": "function"
				}
			],
			"devdoc": {
				"kind": "dev",
				"methods": {},
				"version": 1
			},
			"evm": {
				"assembly": "    /* \"fundtokenERC20_flattened.sol\":22649:25913  contract FundMe {... */\n  mstore(0x40, 0x80)\n    /* \"fundtokenERC20_flattened.sol\":22753:22765  100 * 10**18 */\n  0x056bc75e2d63100000\n    /* \"fundtokenERC20_flattened.sol\":22729:22765  uint256 MINIMUM_VALUE = 100 * 10**18 */\n  0x01\n  sstore\n    /* \"fundtokenERC20_flattened.sol\":22999:23004  false */\n  0x00\n    /* \"fundtokenERC20_flattened.sol\":22970:23004  bool public getFundSuccess = false */\n  0x06\n  exp(0x0100, 0x14)\n  dup2\n  sload\n  dup2\n  0xff\n  mul\n  not\n  and\n  swap1\n  dup4\n  iszero\n  iszero\n  mul\n  or\n  swap1\n  sstore\n  pop\n    /* \"fundtokenERC20_flattened.sol\":23011:23267  constructor(uint256 _lockTime) {... */\n  callvalue\n  dup1\n  iszero\n  tag_1\n  jumpi\n  revert(0x00, 0x00)\ntag_1:\n  pop\n  mload(0x40)\n  sub(codesize, bytecodeSize)\n  dup1\n  bytecodeSize\n  dup4\n  codecopy\n  dup2\n  dup2\n  add\n  0x40\n  mstore\n  dup2\n  add\n  swap1\n  tag_2\n  swap2\n  swap1\n  tag_3\n  jump\t// in\ntag_2:\n    /* \"fundtokenERC20_flattened.sol\":23112:23154  0x694AA1769357215DE4FAC081bf1f309aDC325306 */\n  0x694aa1769357215de4fac081bf1f309adc325306\n    /* \"fundtokenERC20_flattened.sol\":23079:23087  dataFeed */\n  0x02\n  0x00\n    /* \"fundtokenERC20_flattened.sol\":23079:23155  dataFeed = AggregatorV3Interface(0x694AA1769357215DE4FAC081bf1f309aDC325306) */\n  0x0100\n  exp\n  dup2\n  sload\n  dup2\n  0xffffffffffffffffffffffffffffffffffffffff\n  mul\n  not\n  and\n  swap1\n  dup4\n  0xffffffffffffffffffffffffffffffffffffffff\n  and\n  mul\n  or\n  swap1\n  sstore\n  pop\n    /* \"fundtokenERC20_flattened.sol\":23173:23183  msg.sender */\n  caller\n    /* \"fundtokenERC20_flattened.sol\":23165:23170  owner */\n  0x03\n  0x00\n    /* \"fundtokenERC20_flattened.sol\":23165:23183  owner = msg.sender */\n  0x0100\n  exp\n  dup2\n  sload\n  dup2\n  0xffffffffffffffffffffffffffffffffffffffff\n  mul\n  not\n  and\n  swap1\n  dup4\n  0xffffffffffffffffffffffffffffffffffffffff\n  and\n  mul\n  or\n  swap1\n  sstore\n  pop\n    /* \"fundtokenERC20_flattened.sol\":23215:23230  block.timestamp */\n  timestamp\n    /* \"fundtokenERC20_flattened.sol\":23193:23212  deploymentTimestamp */\n  0x04\n    /* \"fundtokenERC20_flattened.sol\":23193:23230  deploymentTimestamp = block.timestamp */\n  dup2\n  swap1\n  sstore\n  pop\n    /* \"fundtokenERC20_flattened.sol\":23251:23260  _lockTime */\n  dup1\n    /* \"fundtokenERC20_flattened.sol\":23240:23248  lockTime */\n  0x05\n    /* \"fundtokenERC20_flattened.sol\":23240:23260  lockTime = _lockTime */\n  dup2\n  swap1\n  sstore\n  pop\n    /* \"fundtokenERC20_flattened.sol\":23011:23267  constructor(uint256 _lockTime) {... */\n  pop\n    /* \"fundtokenERC20_flattened.sol\":22649:25913  contract FundMe {... */\n  jump(tag_6)\n    /* \"#utility.yul\":88:205   */\ntag_8:\n    /* \"#utility.yul\":197:198   */\n  0x00\n    /* \"#utility.yul\":194:195   */\n  0x00\n    /* \"#utility.yul\":187:199   */\n  revert\n    /* \"#utility.yul\":334:411   */\ntag_10:\n    /* \"#utility.yul\":371:378   */\n  0x00\n    /* \"#utility.yul\":400:405   */\n  dup2\n    /* \"#utility.yul\":389:405   */\n  swap1\n  pop\n    /* \"#utility.yul\":334:411   */\n  swap2\n  swap1\n  pop\n  jump\t// out\n    /* \"#utility.yul\":417:539   */\ntag_11:\n    /* \"#utility.yul\":490:514   */\n  tag_19\n    /* \"#utility.yul\":508:513   */\n  dup2\n    /* \"#utility.yul\":490:514   */\n  tag_10\n  jump\t// in\ntag_19:\n    /* \"#utility.yul\":483:488   */\n  dup2\n    /* \"#utility.yul\":480:515   */\n  eq\n    /* \"#utility.yul\":470:533   */\n  tag_20\n  jumpi\n    /* \"#utility.yul\":529:530   */\n  0x00\n    /* \"#utility.yul\":526:527   */\n  0x00\n    /* \"#utility.yul\":519:531   */\n  revert\n    /* \"#utility.yul\":470:533   */\ntag_20:\n    /* \"#utility.yul\":417:539   */\n  pop\n  jump\t// out\n    /* \"#utility.yul\":545:688   */\ntag_12:\n    /* \"#utility.yul\":602:607   */\n  0x00\n    /* \"#utility.yul\":633:639   */\n  dup2\n    /* \"#utility.yul\":627:640   */\n  mload\n    /* \"#utility.yul\":618:640   */\n  swap1\n  pop\n    /* \"#utility.yul\":649:682   */\n  tag_22\n    /* \"#utility.yul\":676:681   */\n  dup2\n    /* \"#utility.yul\":649:682   */\n  tag_11\n  jump\t// in\ntag_22:\n    /* \"#utility.yul\":545:688   */\n  swap3\n  swap2\n  pop\n  pop\n  jump\t// out\n    /* \"#utility.yul\":694:1045   */\ntag_3:\n    /* \"#utility.yul\":764:770   */\n  0x00\n    /* \"#utility.yul\":813:815   */\n  0x20\n    /* \"#utility.yul\":801:810   */\n  dup3\n    /* \"#utility.yul\":792:799   */\n  dup5\n    /* \"#utility.yul\":788:811   */\n  sub\n    /* \"#utility.yul\":784:816   */\n  slt\n    /* \"#utility.yul\":781:900   */\n  iszero\n  tag_24\n  jumpi\n    /* \"#utility.yul\":819:898   */\n  tag_25\n  tag_8\n  jump\t// in\ntag_25:\n    /* \"#utility.yul\":781:900   */\ntag_24:\n    /* \"#utility.yul\":939:940   */\n  0x00\n    /* \"#utility.yul\":964:1028   */\n  tag_26\n    /* \"#utility.yul\":1020:1027   */\n  dup5\n    /* \"#utility.yul\":1011:1017   */\n  dup3\n    /* \"#utility.yul\":1000:1009   */\n  dup6\n    /* \"#utility.yul\":996:1018   */\n  add\n    /* \"#utility.yul\":964:1028   */\n  tag_12\n  jump\t// in\ntag_26:\n    /* \"#utility.yul\":954:1028   */\n  swap2\n  pop\n    /* \"#utility.yul\":910:1038   */\n  pop\n    /* \"#utility.yul\":694:1045   */\n  swap3\n  swap2\n  pop\n  pop\n  jump\t// out\n    /* \"fundtokenERC20_flattened.sol\":22649:25913  contract FundMe {... */\ntag_6:\n  dataSize(sub_0)\n  dup1\n  dataOffset(sub_0)\n  0x00\n  codecopy\n  0x00\n  return\nstop\n\nsub_0: assembly {\n        /* \"fundtokenERC20_flattened.sol\":22649:25913  contract FundMe {... */\n      mstore(0x40, 0x80)\n      jumpi(tag_1, lt(calldatasize, 0x04))\n      shr(0xe0, calldataload(0x00))\n      dup1\n      0xbea4dfb5\n      gt\n      tag_11\n      jumpi\n      dup1\n      0xbea4dfb5\n      eq\n      tag_6\n      jumpi\n      dup1\n      0xc6da75a6\n      eq\n      tag_7\n      jumpi\n      dup1\n      0xd39cf006\n      eq\n      tag_8\n      jumpi\n      dup1\n      0xda4658e0\n      eq\n      tag_9\n      jumpi\n      dup1\n      0xf2fde38b\n      eq\n      tag_10\n      jumpi\n      jump(tag_1)\n    tag_11:\n      dup1\n      0x590e1ae3\n      eq\n      tag_2\n      jumpi\n      dup1\n      0x648c2910\n      eq\n      tag_3\n      jumpi\n      dup1\n      0x8edd6eb6\n      eq\n      tag_4\n      jumpi\n      dup1\n      0xb60d4288\n      eq\n      tag_5\n      jumpi\n    tag_1:\n      revert(0x00, 0x00)\n        /* \"fundtokenERC20_flattened.sol\":24932:25334  function refund() external windowClosed{... */\n    tag_2:\n      callvalue\n      dup1\n      iszero\n      tag_12\n      jumpi\n      revert(0x00, 0x00)\n    tag_12:\n      pop\n      tag_13\n      tag_14\n      jump\t// in\n    tag_13:\n      stop\n        /* \"fundtokenERC20_flattened.sol\":25552:25650  function setERC20Addr(address _erc20Addr) public onlyOwner {... */\n    tag_3:\n      callvalue\n      dup1\n      iszero\n      tag_15\n      jumpi\n      revert(0x00, 0x00)\n    tag_15:\n      pop\n      tag_16\n      0x04\n      dup1\n      calldatasize\n      sub\n      dup2\n      add\n      swap1\n      tag_17\n      swap2\n      swap1\n      tag_18\n      jump\t// in\n    tag_17:\n      tag_19\n      jump\t// in\n    tag_16:\n      stop\n        /* \"fundtokenERC20_flattened.sol\":24219:24926  function getFund() external windowClosed onlyOwner{... */\n    tag_4:\n      callvalue\n      dup1\n      iszero\n      tag_20\n      jumpi\n      revert(0x00, 0x00)\n    tag_20:\n      pop\n      tag_21\n      tag_22\n      jump\t// in\n    tag_21:\n      stop\n        /* \"fundtokenERC20_flattened.sol\":23273:23551  function fund() external payable {... */\n    tag_5:\n      tag_23\n      tag_24\n      jump\t// in\n    tag_23:\n      stop\n        /* \"fundtokenERC20_flattened.sol\":23557:23904  function getChainlinkDataFeedLatestAnswer() public view returns (int) {... */\n    tag_6:\n      callvalue\n      dup1\n      iszero\n      tag_25\n      jumpi\n      revert(0x00, 0x00)\n    tag_25:\n      pop\n      tag_26\n      tag_27\n      jump\t// in\n    tag_26:\n      mload(0x40)\n      tag_28\n      swap2\n      swap1\n      tag_29\n      jump\t// in\n    tag_28:\n      mload(0x40)\n      dup1\n      swap2\n      sub\n      swap1\n      return\n        /* \"fundtokenERC20_flattened.sol\":22671:22722  mapping(address => uint256) public fundersToAccount */\n    tag_7:\n      callvalue\n      dup1\n      iszero\n      tag_30\n      jumpi\n      revert(0x00, 0x00)\n    tag_30:\n      pop\n      tag_31\n      0x04\n      dup1\n      calldatasize\n      sub\n      dup2\n      add\n      swap1\n      tag_32\n      swap2\n      swap1\n      tag_18\n      jump\t// in\n    tag_32:\n      tag_33\n      jump\t// in\n    tag_31:\n      mload(0x40)\n      tag_34\n      swap2\n      swap1\n      tag_35\n      jump\t// in\n    tag_34:\n      mload(0x40)\n      dup1\n      swap2\n      sub\n      swap1\n      return\n        /* \"fundtokenERC20_flattened.sol\":25340:25546  function setFunderToAmount(address funder, uint256 amountToUpdate) external {... */\n    tag_8:\n      callvalue\n      dup1\n      iszero\n      tag_36\n      jumpi\n      revert(0x00, 0x00)\n    tag_36:\n      pop\n      tag_37\n      0x04\n      dup1\n      calldatasize\n      sub\n      dup2\n      add\n      swap1\n      tag_38\n      swap2\n      swap1\n      tag_39\n      jump\t// in\n    tag_38:\n      tag_40\n      jump\t// in\n    tag_37:\n      stop\n        /* \"fundtokenERC20_flattened.sol\":22970:23004  bool public getFundSuccess = false */\n    tag_9:\n      callvalue\n      dup1\n      iszero\n      tag_41\n      jumpi\n      revert(0x00, 0x00)\n    tag_41:\n      pop\n      tag_42\n      tag_43\n      jump\t// in\n    tag_42:\n      mload(0x40)\n      tag_44\n      swap2\n      swap1\n      tag_45\n      jump\t// in\n    tag_44:\n      mload(0x40)\n      dup1\n      swap2\n      sub\n      swap1\n      return\n        /* \"fundtokenERC20_flattened.sol\":24119:24213  function transferOwnership(address newOwner) public onlyOwner{... */\n    tag_10:\n      callvalue\n      dup1\n      iszero\n      tag_46\n      jumpi\n      revert(0x00, 0x00)\n    tag_46:\n      pop\n      tag_47\n      0x04\n      dup1\n      calldatasize\n      sub\n      dup2\n      add\n      swap1\n      tag_48\n      swap2\n      swap1\n      tag_18\n      jump\t// in\n    tag_48:\n      tag_49\n      jump\t// in\n    tag_47:\n      stop\n        /* \"fundtokenERC20_flattened.sol\":24932:25334  function refund() external windowClosed{... */\n    tag_14:\n        /* \"fundtokenERC20_flattened.sol\":25739:25747  lockTime */\n      sload(0x05)\n        /* \"fundtokenERC20_flattened.sol\":25717:25736  deploymentTimestamp */\n      sload(0x04)\n        /* \"fundtokenERC20_flattened.sol\":25717:25747  deploymentTimestamp + lockTime */\n      tag_51\n      swap2\n      swap1\n      tag_52\n      jump\t// in\n    tag_51:\n        /* \"fundtokenERC20_flattened.sol\":25698:25713  block.timestamp */\n      timestamp\n        /* \"fundtokenERC20_flattened.sol\":25698:25747  block.timestamp >= deploymentTimestamp + lockTime */\n      lt\n      iszero\n        /* \"fundtokenERC20_flattened.sol\":25690:25781  require(block.timestamp >= deploymentTimestamp + lockTime, \"The lock period has not ended\") */\n      tag_53\n      jumpi\n      mload(0x40)\n      0x08c379a000000000000000000000000000000000000000000000000000000000\n      dup2\n      mstore\n      0x04\n      add\n      tag_54\n      swap1\n      tag_55\n      jump\t// in\n    tag_54:\n      mload(0x40)\n      dup1\n      swap2\n      sub\n      swap1\n      revert\n    tag_53:\n        /* \"fundtokenERC20_flattened.sol\":22804:22817  1000 * 10**18 */\n      0x3635c9adc5dea00000\n        /* \"fundtokenERC20_flattened.sol\":24989:25027  convertEthToUsd(address(this).balance) */\n      tag_57\n        /* \"fundtokenERC20_flattened.sol\":25005:25026  address(this).balance */\n      selfbalance\n        /* \"fundtokenERC20_flattened.sol\":24989:25004  convertEthToUsd */\n      tag_58\n        /* \"fundtokenERC20_flattened.sol\":24989:25027  convertEthToUsd(address(this).balance) */\n      jump\t// in\n    tag_57:\n        /* \"fundtokenERC20_flattened.sol\":24989:25036  convertEthToUsd(address(this).balance) < TARGET */\n      lt\n        /* \"fundtokenERC20_flattened.sol\":24981:25059  require(convertEthToUsd(address(this).balance) < TARGET, \"Target has reached\") */\n      tag_59\n      jumpi\n      mload(0x40)\n      0x08c379a000000000000000000000000000000000000000000000000000000000\n      dup2\n      mstore\n      0x04\n      add\n      tag_60\n      swap1\n      tag_61\n      jump\t// in\n    tag_60:\n      mload(0x40)\n      dup1\n      swap2\n      sub\n      swap1\n      revert\n    tag_59:\n        /* \"fundtokenERC20_flattened.sol\":25109:25110  0 */\n      0x00\n        /* \"fundtokenERC20_flattened.sol\":25077:25093  fundersToAccount */\n      0x00\n        /* \"fundtokenERC20_flattened.sol\":25077:25105  fundersToAccount[msg.sender] */\n      0x00\n        /* \"fundtokenERC20_flattened.sol\":25094:25104  msg.sender */\n      caller\n        /* \"fundtokenERC20_flattened.sol\":25077:25105  fundersToAccount[msg.sender] */\n      0xffffffffffffffffffffffffffffffffffffffff\n      and\n      0xffffffffffffffffffffffffffffffffffffffff\n      and\n      dup2\n      mstore\n      0x20\n      add\n      swap1\n      dup2\n      mstore\n      0x20\n      add\n      0x00\n      keccak256\n      sload\n        /* \"fundtokenERC20_flattened.sol\":25077:25110  fundersToAccount[msg.sender] != 0 */\n      sub\n        /* \"fundtokenERC20_flattened.sol\":25069:25133  require(fundersToAccount[msg.sender] != 0, \"You are not funder\") */\n      tag_62\n      jumpi\n      mload(0x40)\n      0x08c379a000000000000000000000000000000000000000000000000000000000\n      dup2\n      mstore\n      0x04\n      add\n      tag_63\n      swap1\n      tag_64\n      jump\t// in\n    tag_63:\n      mload(0x40)\n      dup1\n      swap2\n      sub\n      swap1\n      revert\n    tag_62:\n        /* \"fundtokenERC20_flattened.sol\":25143:25155  bool success */\n      0x00\n        /* \"fundtokenERC20_flattened.sol\":25186:25196  msg.sender */\n      caller\n        /* \"fundtokenERC20_flattened.sol\":25178:25202  payable(msg.sender).call */\n      0xffffffffffffffffffffffffffffffffffffffff\n      and\n        /* \"fundtokenERC20_flattened.sol\":25210:25231  address(this).balance */\n      selfbalance\n        /* \"fundtokenERC20_flattened.sol\":25178:25236  payable(msg.sender).call{value: address(this).balance}(\"\") */\n      mload(0x40)\n      tag_65\n      swap1\n      tag_66\n      jump\t// in\n    tag_65:\n      0x00\n      mload(0x40)\n      dup1\n      dup4\n      sub\n      dup2\n      dup6\n      dup8\n      gas\n      call\n      swap3\n      pop\n      pop\n      pop\n      returndatasize\n      dup1\n      0x00\n      dup2\n      eq\n      tag_69\n      jumpi\n      mload(0x40)\n      swap2\n      pop\n      and(add(returndatasize, 0x3f), not(0x1f))\n      dup3\n      add\n      0x40\n      mstore\n      returndatasize\n      dup3\n      mstore\n      returndatasize\n      0x00\n      0x20\n      dup5\n      add\n      returndatacopy\n      jump(tag_68)\n    tag_69:\n      0x60\n      swap2\n      pop\n    tag_68:\n      pop\n        /* \"fundtokenERC20_flattened.sol\":25165:25236  (success,) = payable(msg.sender).call{value: address(this).balance}(\"\") */\n      pop\n      dup1\n      swap2\n      pop\n      pop\n        /* \"fundtokenERC20_flattened.sol\":25254:25261  success */\n      dup1\n        /* \"fundtokenERC20_flattened.sol\":25246:25284  require(success, \"transfer tx failed\") */\n      tag_70\n      jumpi\n      mload(0x40)\n      0x08c379a000000000000000000000000000000000000000000000000000000000\n      dup2\n      mstore\n      0x04\n      add\n      tag_71\n      swap1\n      tag_72\n      jump\t// in\n    tag_71:\n      mload(0x40)\n      dup1\n      swap2\n      sub\n      swap1\n      revert\n    tag_70:\n        /* \"fundtokenERC20_flattened.sol\":25325:25326  0 */\n      0x00\n        /* \"fundtokenERC20_flattened.sol\":25294:25310  fundersToAccount */\n      0x00\n        /* \"fundtokenERC20_flattened.sol\":25294:25322  fundersToAccount[msg.sender] */\n      0x00\n        /* \"fundtokenERC20_flattened.sol\":25311:25321  msg.sender */\n      caller\n        /* \"fundtokenERC20_flattened.sol\":25294:25322  fundersToAccount[msg.sender] */\n      0xffffffffffffffffffffffffffffffffffffffff\n      and\n      0xffffffffffffffffffffffffffffffffffffffff\n      and\n      dup2\n      mstore\n      0x20\n      add\n      swap1\n      dup2\n      mstore\n      0x20\n      add\n      0x00\n      keccak256\n        /* \"fundtokenERC20_flattened.sol\":25294:25326  fundersToAccount[msg.sender] = 0 */\n      dup2\n      swap1\n      sstore\n      pop\n        /* \"fundtokenERC20_flattened.sol\":24971:25334  {... */\n      pop\n        /* \"fundtokenERC20_flattened.sol\":24932:25334  function refund() external windowClosed{... */\n      jump\t// out\n        /* \"fundtokenERC20_flattened.sol\":25552:25650  function setERC20Addr(address _erc20Addr) public onlyOwner {... */\n    tag_19:\n        /* \"fundtokenERC20_flattened.sol\":25859:25864  owner */\n      0x03\n      0x00\n      swap1\n      sload\n      swap1\n      0x0100\n      exp\n      swap1\n      div\n      0xffffffffffffffffffffffffffffffffffffffff\n      and\n        /* \"fundtokenERC20_flattened.sol\":25845:25864  msg.sender == owner */\n      0xffffffffffffffffffffffffffffffffffffffff\n      and\n        /* \"fundtokenERC20_flattened.sol\":25845:25855  msg.sender */\n      caller\n        /* \"fundtokenERC20_flattened.sol\":25845:25864  msg.sender == owner */\n      0xffffffffffffffffffffffffffffffffffffffff\n      and\n      eq\n        /* \"fundtokenERC20_flattened.sol\":25837:25890  require(msg.sender == owner, \"You are not the owner\") */\n      tag_74\n      jumpi\n      mload(0x40)\n      0x08c379a000000000000000000000000000000000000000000000000000000000\n      dup2\n      mstore\n      0x04\n      add\n      tag_75\n      swap1\n      tag_76\n      jump\t// in\n    tag_75:\n      mload(0x40)\n      dup1\n      swap2\n      sub\n      swap1\n      revert\n    tag_74:\n        /* \"fundtokenERC20_flattened.sol\":25633:25643  _erc20Addr */\n      dup1\n        /* \"fundtokenERC20_flattened.sol\":25621:25630  erc20Addr */\n      0x06\n      0x00\n        /* \"fundtokenERC20_flattened.sol\":25621:25643  erc20Addr = _erc20Addr */\n      0x0100\n      exp\n      dup2\n      sload\n      dup2\n      0xffffffffffffffffffffffffffffffffffffffff\n      mul\n      not\n      and\n      swap1\n      dup4\n      0xffffffffffffffffffffffffffffffffffffffff\n      and\n      mul\n      or\n      swap1\n      sstore\n      pop\n        /* \"fundtokenERC20_flattened.sol\":25552:25650  function setERC20Addr(address _erc20Addr) public onlyOwner {... */\n      pop\n      jump\t// out\n        /* \"fundtokenERC20_flattened.sol\":24219:24926  function getFund() external windowClosed onlyOwner{... */\n    tag_22:\n        /* \"fundtokenERC20_flattened.sol\":25739:25747  lockTime */\n      sload(0x05)\n        /* \"fundtokenERC20_flattened.sol\":25717:25736  deploymentTimestamp */\n      sload(0x04)\n        /* \"fundtokenERC20_flattened.sol\":25717:25747  deploymentTimestamp + lockTime */\n      tag_79\n      swap2\n      swap1\n      tag_52\n      jump\t// in\n    tag_79:\n        /* \"fundtokenERC20_flattened.sol\":25698:25713  block.timestamp */\n      timestamp\n        /* \"fundtokenERC20_flattened.sol\":25698:25747  block.timestamp >= deploymentTimestamp + lockTime */\n      lt\n      iszero\n        /* \"fundtokenERC20_flattened.sol\":25690:25781  require(block.timestamp >= deploymentTimestamp + lockTime, \"The lock period has not ended\") */\n      tag_80\n      jumpi\n      mload(0x40)\n      0x08c379a000000000000000000000000000000000000000000000000000000000\n      dup2\n      mstore\n      0x04\n      add\n      tag_81\n      swap1\n      tag_55\n      jump\t// in\n    tag_81:\n      mload(0x40)\n      dup1\n      swap2\n      sub\n      swap1\n      revert\n    tag_80:\n        /* \"fundtokenERC20_flattened.sol\":25859:25864  owner */\n      0x03\n      0x00\n      swap1\n      sload\n      swap1\n      0x0100\n      exp\n      swap1\n      div\n      0xffffffffffffffffffffffffffffffffffffffff\n      and\n        /* \"fundtokenERC20_flattened.sol\":25845:25864  msg.sender == owner */\n      0xffffffffffffffffffffffffffffffffffffffff\n      and\n        /* \"fundtokenERC20_flattened.sol\":25845:25855  msg.sender */\n      caller\n        /* \"fundtokenERC20_flattened.sol\":25845:25864  msg.sender == owner */\n      0xffffffffffffffffffffffffffffffffffffffff\n      and\n      eq\n        /* \"fundtokenERC20_flattened.sol\":25837:25890  require(msg.sender == owner, \"You are not the owner\") */\n      tag_83\n      jumpi\n      mload(0x40)\n      0x08c379a000000000000000000000000000000000000000000000000000000000\n      dup2\n      mstore\n      0x04\n      add\n      tag_84\n      swap1\n      tag_76\n      jump\t// in\n    tag_84:\n      mload(0x40)\n      dup1\n      swap2\n      sub\n      swap1\n      revert\n    tag_83:\n        /* \"fundtokenERC20_flattened.sol\":22804:22817  1000 * 10**18 */\n      0x3635c9adc5dea00000\n        /* \"fundtokenERC20_flattened.sol\":24287:24325  convertEthToUsd(address(this).balance) */\n      tag_86\n        /* \"fundtokenERC20_flattened.sol\":24303:24324  address(this).balance */\n      selfbalance\n        /* \"fundtokenERC20_flattened.sol\":24287:24302  convertEthToUsd */\n      tag_58\n        /* \"fundtokenERC20_flattened.sol\":24287:24325  convertEthToUsd(address(this).balance) */\n      jump\t// in\n    tag_86:\n        /* \"fundtokenERC20_flattened.sol\":24287:24335  convertEthToUsd(address(this).balance) >= TARGET */\n      lt\n      iszero\n        /* \"fundtokenERC20_flattened.sol\":24279:24361  require(convertEthToUsd(address(this).balance) >= TARGET, \"Target is not reached\") */\n      tag_87\n      jumpi\n      mload(0x40)\n      0x08c379a000000000000000000000000000000000000000000000000000000000\n      dup2\n      mstore\n      0x04\n      add\n      tag_88\n      swap1\n      tag_89\n      jump\t// in\n    tag_88:\n      mload(0x40)\n      dup1\n      swap2\n      sub\n      swap1\n      revert\n    tag_87:\n        /* \"fundtokenERC20_flattened.sol\":24747:24759  bool success */\n      0x00\n        /* \"fundtokenERC20_flattened.sol\":24790:24800  msg.sender */\n      caller\n        /* \"fundtokenERC20_flattened.sol\":24782:24806  payable(msg.sender).call */\n      0xffffffffffffffffffffffffffffffffffffffff\n      and\n        /* \"fundtokenERC20_flattened.sol\":24814:24835  address(this).balance */\n      selfbalance\n        /* \"fundtokenERC20_flattened.sol\":24782:24840  payable(msg.sender).call{value: address(this).balance}(\"\") */\n      mload(0x40)\n      tag_90\n      swap1\n      tag_66\n      jump\t// in\n    tag_90:\n      0x00\n      mload(0x40)\n      dup1\n      dup4\n      sub\n      dup2\n      dup6\n      dup8\n      gas\n      call\n      swap3\n      pop\n      pop\n      pop\n      returndatasize\n      dup1\n      0x00\n      dup2\n      eq\n      tag_93\n      jumpi\n      mload(0x40)\n      swap2\n      pop\n      and(add(returndatasize, 0x3f), not(0x1f))\n      dup3\n      add\n      0x40\n      mstore\n      returndatasize\n      dup3\n      mstore\n      returndatasize\n      0x00\n      0x20\n      dup5\n      add\n      returndatacopy\n      jump(tag_92)\n    tag_93:\n      0x60\n      swap2\n      pop\n    tag_92:\n      pop\n        /* \"fundtokenERC20_flattened.sol\":24769:24840  (success,) = payable(msg.sender).call{value: address(this).balance}(\"\") */\n      pop\n      dup1\n      swap2\n      pop\n      pop\n        /* \"fundtokenERC20_flattened.sol\":24858:24865  success */\n      dup1\n        /* \"fundtokenERC20_flattened.sol\":24850:24888  require(success, \"transfer tx failed\") */\n      tag_94\n      jumpi\n      mload(0x40)\n      0x08c379a000000000000000000000000000000000000000000000000000000000\n      dup2\n      mstore\n      0x04\n      add\n      tag_95\n      swap1\n      tag_72\n      jump\t// in\n    tag_95:\n      mload(0x40)\n      dup1\n      swap2\n      sub\n      swap1\n      revert\n    tag_94:\n        /* \"fundtokenERC20_flattened.sol\":24915:24919  true */\n      0x01\n        /* \"fundtokenERC20_flattened.sol\":24898:24912  getFundSuccess */\n      0x06\n      0x14\n        /* \"fundtokenERC20_flattened.sol\":24898:24919  getFundSuccess = true */\n      0x0100\n      exp\n      dup2\n      sload\n      dup2\n      0xff\n      mul\n      not\n      and\n      swap1\n      dup4\n      iszero\n      iszero\n      mul\n      or\n      swap1\n      sstore\n      pop\n        /* \"fundtokenERC20_flattened.sol\":24269:24926  {... */\n      pop\n        /* \"fundtokenERC20_flattened.sol\":24219:24926  function getFund() external windowClosed onlyOwner{... */\n      jump\t// out\n        /* \"fundtokenERC20_flattened.sol\":23273:23551  function fund() external payable {... */\n    tag_24:\n        /* \"fundtokenERC20_flattened.sol\":23354:23367  MINIMUM_VALUE */\n      sload(0x01)\n        /* \"fundtokenERC20_flattened.sol\":23324:23350  convertEthToUsd(msg.value) */\n      tag_97\n        /* \"fundtokenERC20_flattened.sol\":23340:23349  msg.value */\n      callvalue\n        /* \"fundtokenERC20_flattened.sol\":23324:23339  convertEthToUsd */\n      tag_58\n        /* \"fundtokenERC20_flattened.sol\":23324:23350  convertEthToUsd(msg.value) */\n      jump\t// in\n    tag_97:\n        /* \"fundtokenERC20_flattened.sol\":23324:23367  convertEthToUsd(msg.value) >= MINIMUM_VALUE */\n      lt\n      iszero\n        /* \"fundtokenERC20_flattened.sol\":23316:23398  require(convertEthToUsd(msg.value) >= MINIMUM_VALUE, \"YOU SHOULD FUND MORE ETH!!\") */\n      tag_98\n      jumpi\n      mload(0x40)\n      0x08c379a000000000000000000000000000000000000000000000000000000000\n      dup2\n      mstore\n      0x04\n      add\n      tag_99\n      swap1\n      tag_100\n      jump\t// in\n    tag_99:\n      mload(0x40)\n      dup1\n      swap2\n      sub\n      swap1\n      revert\n    tag_98:\n        /* \"fundtokenERC20_flattened.sol\":23456:23464  lockTime */\n      sload(0x05)\n        /* \"fundtokenERC20_flattened.sol\":23434:23453  deploymentTimestamp */\n      sload(0x04)\n        /* \"fundtokenERC20_flattened.sol\":23434:23464  deploymentTimestamp + lockTime */\n      tag_101\n      swap2\n      swap1\n      tag_52\n      jump\t// in\n    tag_101:\n        /* \"fundtokenERC20_flattened.sol\":23416:23431  block.timestamp */\n      timestamp\n        /* \"fundtokenERC20_flattened.sol\":23416:23464  block.timestamp < deploymentTimestamp + lockTime */\n      lt\n        /* \"fundtokenERC20_flattened.sol\":23408:23494  require(block.timestamp < deploymentTimestamp + lockTime, \"The lock period has ended\") */\n      tag_102\n      jumpi\n      mload(0x40)\n      0x08c379a000000000000000000000000000000000000000000000000000000000\n      dup2\n      mstore\n      0x04\n      add\n      tag_103\n      swap1\n      tag_104\n      jump\t// in\n    tag_103:\n      mload(0x40)\n      dup1\n      swap2\n      sub\n      swap1\n      revert\n    tag_102:\n        /* \"fundtokenERC20_flattened.sol\":23535:23544  msg.value */\n      callvalue\n        /* \"fundtokenERC20_flattened.sol\":23504:23520  fundersToAccount */\n      0x00\n        /* \"fundtokenERC20_flattened.sol\":23504:23532  fundersToAccount[msg.sender] */\n      0x00\n        /* \"fundtokenERC20_flattened.sol\":23521:23531  msg.sender */\n      caller\n        /* \"fundtokenERC20_flattened.sol\":23504:23532  fundersToAccount[msg.sender] */\n      0xffffffffffffffffffffffffffffffffffffffff\n      and\n      0xffffffffffffffffffffffffffffffffffffffff\n      and\n      dup2\n      mstore\n      0x20\n      add\n      swap1\n      dup2\n      mstore\n      0x20\n      add\n      0x00\n      keccak256\n        /* \"fundtokenERC20_flattened.sol\":23504:23544  fundersToAccount[msg.sender] = msg.value */\n      dup2\n      swap1\n      sstore\n      pop\n        /* \"fundtokenERC20_flattened.sol\":23273:23551  function fund() external payable {... */\n      jump\t// out\n        /* \"fundtokenERC20_flattened.sol\":23557:23904  function getChainlinkDataFeedLatestAnswer() public view returns (int) {... */\n    tag_27:\n        /* \"fundtokenERC20_flattened.sol\":23622:23625  int */\n      0x00\n        /* \"fundtokenERC20_flattened.sol\":23712:23725  int256 answer */\n      0x00\n        /* \"fundtokenERC20_flattened.sol\":23848:23856  dataFeed */\n      0x02\n      0x00\n      swap1\n      sload\n      swap1\n      0x0100\n      exp\n      swap1\n      div\n      0xffffffffffffffffffffffffffffffffffffffff\n      and\n        /* \"fundtokenERC20_flattened.sol\":23848:23872  dataFeed.latestRoundData */\n      0xffffffffffffffffffffffffffffffffffffffff\n      and\n      0xfeaf968c\n        /* \"fundtokenERC20_flattened.sol\":23848:23874  dataFeed.latestRoundData() */\n      mload(0x40)\n      dup2\n      0xffffffff\n      and\n      0xe0\n      shl\n      dup2\n      mstore\n      0x04\n      add\n      0xa0\n      mload(0x40)\n      dup1\n      dup4\n      sub\n      dup2\n      dup7\n      gas\n      staticcall\n      iszero\n      dup1\n      iszero\n      tag_107\n      jumpi\n      returndatacopy(0x00, 0x00, returndatasize)\n      revert(0x00, returndatasize)\n    tag_107:\n      pop\n      pop\n      pop\n      pop\n      mload(0x40)\n      returndatasize\n      not(0x1f)\n      0x1f\n      dup3\n      add\n      and\n      dup3\n      add\n      dup1\n      0x40\n      mstore\n      pop\n      dup2\n      add\n      swap1\n      tag_108\n      swap2\n      swap1\n      tag_109\n      jump\t// in\n    tag_108:\n        /* \"fundtokenERC20_flattened.sol\":23664:23874  (... */\n      pop\n      pop\n      pop\n      swap2\n      pop\n      pop\n        /* \"fundtokenERC20_flattened.sol\":23891:23897  answer */\n      dup1\n        /* \"fundtokenERC20_flattened.sol\":23884:23897  return answer */\n      swap2\n      pop\n      pop\n        /* \"fundtokenERC20_flattened.sol\":23557:23904  function getChainlinkDataFeedLatestAnswer() public view returns (int) {... */\n      swap1\n      jump\t// out\n        /* \"fundtokenERC20_flattened.sol\":22671:22722  mapping(address => uint256) public fundersToAccount */\n    tag_33:\n      mstore(0x20, 0x00)\n      dup1\n      0x00\n      mstore\n      keccak256(0x00, 0x40)\n      0x00\n      swap2\n      pop\n      swap1\n      pop\n      sload\n      dup2\n      jump\t// out\n        /* \"fundtokenERC20_flattened.sol\":25340:25546  function setFunderToAmount(address funder, uint256 amountToUpdate) external {... */\n    tag_40:\n        /* \"fundtokenERC20_flattened.sol\":25448:25457  erc20Addr */\n      0x06\n      0x00\n      swap1\n      sload\n      swap1\n      0x0100\n      exp\n      swap1\n      div\n      0xffffffffffffffffffffffffffffffffffffffff\n      and\n        /* \"fundtokenERC20_flattened.sol\":25434:25457  msg.sender == erc20Addr */\n      0xffffffffffffffffffffffffffffffffffffffff\n      and\n        /* \"fundtokenERC20_flattened.sol\":25434:25444  msg.sender */\n      caller\n        /* \"fundtokenERC20_flattened.sol\":25434:25457  msg.sender == erc20Addr */\n      0xffffffffffffffffffffffffffffffffffffffff\n      and\n      eq\n        /* \"fundtokenERC20_flattened.sol\":25426:25488  require(msg.sender == erc20Addr, \"You do not have permission\") */\n      tag_111\n      jumpi\n      mload(0x40)\n      0x08c379a000000000000000000000000000000000000000000000000000000000\n      dup2\n      mstore\n      0x04\n      add\n      tag_112\n      swap1\n      tag_113\n      jump\t// in\n    tag_112:\n      mload(0x40)\n      dup1\n      swap2\n      sub\n      swap1\n      revert\n    tag_111:\n        /* \"fundtokenERC20_flattened.sol\":25525:25539  amountToUpdate */\n      dup1\n        /* \"fundtokenERC20_flattened.sol\":25498:25514  fundersToAccount */\n      0x00\n        /* \"fundtokenERC20_flattened.sol\":25498:25522  fundersToAccount[funder] */\n      0x00\n        /* \"fundtokenERC20_flattened.sol\":25515:25521  funder */\n      dup5\n        /* \"fundtokenERC20_flattened.sol\":25498:25522  fundersToAccount[funder] */\n      0xffffffffffffffffffffffffffffffffffffffff\n      and\n      0xffffffffffffffffffffffffffffffffffffffff\n      and\n      dup2\n      mstore\n      0x20\n      add\n      swap1\n      dup2\n      mstore\n      0x20\n      add\n      0x00\n      keccak256\n        /* \"fundtokenERC20_flattened.sol\":25498:25539  fundersToAccount[funder] = amountToUpdate */\n      dup2\n      swap1\n      sstore\n      pop\n        /* \"fundtokenERC20_flattened.sol\":25340:25546  function setFunderToAmount(address funder, uint256 amountToUpdate) external {... */\n      pop\n      pop\n      jump\t// out\n        /* \"fundtokenERC20_flattened.sol\":22970:23004  bool public getFundSuccess = false */\n    tag_43:\n      0x06\n      0x14\n      swap1\n      sload\n      swap1\n      0x0100\n      exp\n      swap1\n      div\n      0xff\n      and\n      dup2\n      jump\t// out\n        /* \"fundtokenERC20_flattened.sol\":24119:24213  function transferOwnership(address newOwner) public onlyOwner{... */\n    tag_49:\n        /* \"fundtokenERC20_flattened.sol\":25859:25864  owner */\n      0x03\n      0x00\n      swap1\n      sload\n      swap1\n      0x0100\n      exp\n      swap1\n      div\n      0xffffffffffffffffffffffffffffffffffffffff\n      and\n        /* \"fundtokenERC20_flattened.sol\":25845:25864  msg.sender == owner */\n      0xffffffffffffffffffffffffffffffffffffffff\n      and\n        /* \"fundtokenERC20_flattened.sol\":25845:25855  msg.sender */\n      caller\n        /* \"fundtokenERC20_flattened.sol\":25845:25864  msg.sender == owner */\n      0xffffffffffffffffffffffffffffffffffffffff\n      and\n      eq\n        /* \"fundtokenERC20_flattened.sol\":25837:25890  require(msg.sender == owner, \"You are not the owner\") */\n      tag_115\n      jumpi\n      mload(0x40)\n      0x08c379a000000000000000000000000000000000000000000000000000000000\n      dup2\n      mstore\n      0x04\n      add\n      tag_116\n      swap1\n      tag_76\n      jump\t// in\n    tag_116:\n      mload(0x40)\n      dup1\n      swap2\n      sub\n      swap1\n      revert\n    tag_115:\n        /* \"fundtokenERC20_flattened.sol\":24198:24206  newOwner */\n      dup1\n        /* \"fundtokenERC20_flattened.sol\":24190:24195  owner */\n      0x03\n      0x00\n        /* \"fundtokenERC20_flattened.sol\":24190:24206  owner = newOwner */\n      0x0100\n      exp\n      dup2\n      sload\n      dup2\n      0xffffffffffffffffffffffffffffffffffffffff\n      mul\n      not\n      and\n      swap1\n      dup4\n      0xffffffffffffffffffffffffffffffffffffffff\n      and\n      mul\n      or\n      swap1\n      sstore\n      pop\n        /* \"fundtokenERC20_flattened.sol\":24119:24213  function transferOwnership(address newOwner) public onlyOwner{... */\n      pop\n      jump\t// out\n        /* \"fundtokenERC20_flattened.sol\":23910:24113  function convertEthToUsd(uint256 ethAmount) internal view returns (uint256){... */\n    tag_58:\n        /* \"fundtokenERC20_flattened.sol\":23977:23984  uint256 */\n      0x00\n        /* \"fundtokenERC20_flattened.sol\":23995:24011  uint256 ethPrice */\n      0x00\n        /* \"fundtokenERC20_flattened.sol\":24022:24056  getChainlinkDataFeedLatestAnswer() */\n      tag_119\n        /* \"fundtokenERC20_flattened.sol\":24022:24054  getChainlinkDataFeedLatestAnswer */\n      tag_27\n        /* \"fundtokenERC20_flattened.sol\":24022:24056  getChainlinkDataFeedLatestAnswer() */\n      jump\t// in\n    tag_119:\n        /* \"fundtokenERC20_flattened.sol\":23995:24057  uint256 ethPrice = uint256(getChainlinkDataFeedLatestAnswer()) */\n      swap1\n      pop\n        /* \"fundtokenERC20_flattened.sol\":24100:24105  10**8 */\n      0x05f5e100\n        /* \"fundtokenERC20_flattened.sol\":24086:24095  ethAmount */\n      dup4\n        /* \"fundtokenERC20_flattened.sol\":24075:24083  ethPrice */\n      dup3\n        /* \"fundtokenERC20_flattened.sol\":24075:24095  ethPrice * ethAmount */\n      tag_120\n      swap2\n      swap1\n      tag_121\n      jump\t// in\n    tag_120:\n        /* \"fundtokenERC20_flattened.sol\":24074:24106  (ethPrice * ethAmount) / (10**8) */\n      tag_122\n      swap2\n      swap1\n      tag_123\n      jump\t// in\n    tag_122:\n        /* \"fundtokenERC20_flattened.sol\":24067:24106  return (ethPrice * ethAmount) / (10**8) */\n      swap2\n      pop\n      pop\n        /* \"fundtokenERC20_flattened.sol\":23910:24113  function convertEthToUsd(uint256 ethAmount) internal view returns (uint256){... */\n      swap2\n      swap1\n      pop\n      jump\t// out\n        /* \"#utility.yul\":88:205   */\n    tag_125:\n        /* \"#utility.yul\":197:198   */\n      0x00\n        /* \"#utility.yul\":194:195   */\n      0x00\n        /* \"#utility.yul\":187:199   */\n      revert\n        /* \"#utility.yul\":334:460   */\n    tag_127:\n        /* \"#utility.yul\":371:378   */\n      0x00\n        /* \"#utility.yul\":411:453   */\n      0xffffffffffffffffffffffffffffffffffffffff\n        /* \"#utility.yul\":404:409   */\n      dup3\n        /* \"#utility.yul\":400:454   */\n      and\n        /* \"#utility.yul\":389:454   */\n      swap1\n      pop\n        /* \"#utility.yul\":334:460   */\n      swap2\n      swap1\n      pop\n      jump\t// out\n        /* \"#utility.yul\":466:562   */\n    tag_128:\n        /* \"#utility.yul\":503:510   */\n      0x00\n        /* \"#utility.yul\":532:556   */\n      tag_175\n        /* \"#utility.yul\":550:555   */\n      dup3\n        /* \"#utility.yul\":532:556   */\n      tag_127\n      jump\t// in\n    tag_175:\n        /* \"#utility.yul\":521:556   */\n      swap1\n      pop\n        /* \"#utility.yul\":466:562   */\n      swap2\n      swap1\n      pop\n      jump\t// out\n        /* \"#utility.yul\":568:690   */\n    tag_129:\n        /* \"#utility.yul\":641:665   */\n      tag_177\n        /* \"#utility.yul\":659:664   */\n      dup2\n        /* \"#utility.yul\":641:665   */\n      tag_128\n      jump\t// in\n    tag_177:\n        /* \"#utility.yul\":634:639   */\n      dup2\n        /* \"#utility.yul\":631:666   */\n      eq\n        /* \"#utility.yul\":621:684   */\n      tag_178\n      jumpi\n        /* \"#utility.yul\":680:681   */\n      0x00\n        /* \"#utility.yul\":677:678   */\n      0x00\n        /* \"#utility.yul\":670:682   */\n      revert\n        /* \"#utility.yul\":621:684   */\n    tag_178:\n        /* \"#utility.yul\":568:690   */\n      pop\n      jump\t// out\n        /* \"#utility.yul\":696:835   */\n    tag_130:\n        /* \"#utility.yul\":742:747   */\n      0x00\n        /* \"#utility.yul\":780:786   */\n      dup2\n        /* \"#utility.yul\":767:787   */\n      calldataload\n        /* \"#utility.yul\":758:787   */\n      swap1\n      pop\n        /* \"#utility.yul\":796:829   */\n      tag_180\n        /* \"#utility.yul\":823:828   */\n      dup2\n        /* \"#utility.yul\":796:829   */\n      tag_129\n      jump\t// in\n    tag_180:\n        /* \"#utility.yul\":696:835   */\n      swap3\n      swap2\n      pop\n      pop\n      jump\t// out\n        /* \"#utility.yul\":841:1170   */\n    tag_18:\n        /* \"#utility.yul\":900:906   */\n      0x00\n        /* \"#utility.yul\":949:951   */\n      0x20\n        /* \"#utility.yul\":937:946   */\n      dup3\n        /* \"#utility.yul\":928:935   */\n      dup5\n        /* \"#utility.yul\":924:947   */\n      sub\n        /* \"#utility.yul\":920:952   */\n      slt\n        /* \"#utility.yul\":917:1036   */\n      iszero\n      tag_182\n      jumpi\n        /* \"#utility.yul\":955:1034   */\n      tag_183\n      tag_125\n      jump\t// in\n    tag_183:\n        /* \"#utility.yul\":917:1036   */\n    tag_182:\n        /* \"#utility.yul\":1075:1076   */\n      0x00\n        /* \"#utility.yul\":1100:1153   */\n      tag_184\n        /* \"#utility.yul\":1145:1152   */\n      dup5\n        /* \"#utility.yul\":1136:1142   */\n      dup3\n        /* \"#utility.yul\":1125:1134   */\n      dup6\n        /* \"#utility.yul\":1121:1143   */\n      add\n        /* \"#utility.yul\":1100:1153   */\n      tag_130\n      jump\t// in\n    tag_184:\n        /* \"#utility.yul\":1090:1153   */\n      swap2\n      pop\n        /* \"#utility.yul\":1046:1163   */\n      pop\n        /* \"#utility.yul\":841:1170   */\n      swap3\n      swap2\n      pop\n      pop\n      jump\t// out\n        /* \"#utility.yul\":1176:1252   */\n    tag_131:\n        /* \"#utility.yul\":1212:1219   */\n      0x00\n        /* \"#utility.yul\":1241:1246   */\n      dup2\n        /* \"#utility.yul\":1230:1246   */\n      swap1\n      pop\n        /* \"#utility.yul\":1176:1252   */\n      swap2\n      swap1\n      pop\n      jump\t// out\n        /* \"#utility.yul\":1258:1373   */\n    tag_132:\n        /* \"#utility.yul\":1343:1366   */\n      tag_187\n        /* \"#utility.yul\":1360:1365   */\n      dup2\n        /* \"#utility.yul\":1343:1366   */\n      tag_131\n      jump\t// in\n    tag_187:\n        /* \"#utility.yul\":1338:1341   */\n      dup3\n        /* \"#utility.yul\":1331:1367   */\n      mstore\n        /* \"#utility.yul\":1258:1373   */\n      pop\n      pop\n      jump\t// out\n        /* \"#utility.yul\":1379:1597   */\n    tag_29:\n        /* \"#utility.yul\":1470:1474   */\n      0x00\n        /* \"#utility.yul\":1508:1510   */\n      0x20\n        /* \"#utility.yul\":1497:1506   */\n      dup3\n        /* \"#utility.yul\":1493:1511   */\n      add\n        /* \"#utility.yul\":1485:1511   */\n      swap1\n      pop\n        /* \"#utility.yul\":1521:1590   */\n      tag_189\n        /* \"#utility.yul\":1587:1588   */\n      0x00\n        /* \"#utility.yul\":1576:1585   */\n      dup4\n        /* \"#utility.yul\":1572:1589   */\n      add\n        /* \"#utility.yul\":1563:1569   */\n      dup5\n        /* \"#utility.yul\":1521:1590   */\n      tag_132\n      jump\t// in\n    tag_189:\n        /* \"#utility.yul\":1379:1597   */\n      swap3\n      swap2\n      pop\n      pop\n      jump\t// out\n        /* \"#utility.yul\":1603:1680   */\n    tag_133:\n        /* \"#utility.yul\":1640:1647   */\n      0x00\n        /* \"#utility.yul\":1669:1674   */\n      dup2\n        /* \"#utility.yul\":1658:1674   */\n      swap1\n      pop\n        /* \"#utility.yul\":1603:1680   */\n      swap2\n      swap1\n      pop\n      jump\t// out\n        /* \"#utility.yul\":1686:1804   */\n    tag_134:\n        /* \"#utility.yul\":1773:1797   */\n      tag_192\n        /* \"#utility.yul\":1791:1796   */\n      dup2\n        /* \"#utility.yul\":1773:1797   */\n      tag_133\n      jump\t// in\n    tag_192:\n        /* \"#utility.yul\":1768:1771   */\n      dup3\n        /* \"#utility.yul\":1761:1798   */\n      mstore\n        /* \"#utility.yul\":1686:1804   */\n      pop\n      pop\n      jump\t// out\n        /* \"#utility.yul\":1810:2032   */\n    tag_35:\n        /* \"#utility.yul\":1903:1907   */\n      0x00\n        /* \"#utility.yul\":1941:1943   */\n      0x20\n        /* \"#utility.yul\":1930:1939   */\n      dup3\n        /* \"#utility.yul\":1926:1944   */\n      add\n        /* \"#utility.yul\":1918:1944   */\n      swap1\n      pop\n        /* \"#utility.yul\":1954:2025   */\n      tag_194\n        /* \"#utility.yul\":2022:2023   */\n      0x00\n        /* \"#utility.yul\":2011:2020   */\n      dup4\n        /* \"#utility.yul\":2007:2024   */\n      add\n        /* \"#utility.yul\":1998:2004   */\n      dup5\n        /* \"#utility.yul\":1954:2025   */\n      tag_134\n      jump\t// in\n    tag_194:\n        /* \"#utility.yul\":1810:2032   */\n      swap3\n      swap2\n      pop\n      pop\n      jump\t// out\n        /* \"#utility.yul\":2038:2160   */\n    tag_135:\n        /* \"#utility.yul\":2111:2135   */\n      tag_196\n        /* \"#utility.yul\":2129:2134   */\n      dup2\n        /* \"#utility.yul\":2111:2135   */\n      tag_133\n      jump\t// in\n    tag_196:\n        /* \"#utility.yul\":2104:2109   */\n      dup2\n        /* \"#utility.yul\":2101:2136   */\n      eq\n        /* \"#utility.yul\":2091:2154   */\n      tag_197\n      jumpi\n        /* \"#utility.yul\":2150:2151   */\n      0x00\n        /* \"#utility.yul\":2147:2148   */\n      0x00\n        /* \"#utility.yul\":2140:2152   */\n      revert\n        /* \"#utility.yul\":2091:2154   */\n    tag_197:\n        /* \"#utility.yul\":2038:2160   */\n      pop\n      jump\t// out\n        /* \"#utility.yul\":2166:2305   */\n    tag_136:\n        /* \"#utility.yul\":2212:2217   */\n      0x00\n        /* \"#utility.yul\":2250:2256   */\n      dup2\n        /* \"#utility.yul\":2237:2257   */\n      calldataload\n        /* \"#utility.yul\":2228:2257   */\n      swap1\n      pop\n        /* \"#utility.yul\":2266:2299   */\n      tag_199\n        /* \"#utility.yul\":2293:2298   */\n      dup2\n        /* \"#utility.yul\":2266:2299   */\n      tag_135\n      jump\t// in\n    tag_199:\n        /* \"#utility.yul\":2166:2305   */\n      swap3\n      swap2\n      pop\n      pop\n      jump\t// out\n        /* \"#utility.yul\":2311:2785   */\n    tag_39:\n        /* \"#utility.yul\":2379:2385   */\n      0x00\n        /* \"#utility.yul\":2387:2393   */\n      0x00\n        /* \"#utility.yul\":2436:2438   */\n      0x40\n        /* \"#utility.yul\":2424:2433   */\n      dup4\n        /* \"#utility.yul\":2415:2422   */\n      dup6\n        /* \"#utility.yul\":2411:2434   */\n      sub\n        /* \"#utility.yul\":2407:2439   */\n      slt\n        /* \"#utility.yul\":2404:2523   */\n      iszero\n      tag_201\n      jumpi\n        /* \"#utility.yul\":2442:2521   */\n      tag_202\n      tag_125\n      jump\t// in\n    tag_202:\n        /* \"#utility.yul\":2404:2523   */\n    tag_201:\n        /* \"#utility.yul\":2562:2563   */\n      0x00\n        /* \"#utility.yul\":2587:2640   */\n      tag_203\n        /* \"#utility.yul\":2632:2639   */\n      dup6\n        /* \"#utility.yul\":2623:2629   */\n      dup3\n        /* \"#utility.yul\":2612:2621   */\n      dup7\n        /* \"#utility.yul\":2608:2630   */\n      add\n        /* \"#utility.yul\":2587:2640   */\n      tag_130\n      jump\t// in\n    tag_203:\n        /* \"#utility.yul\":2577:2640   */\n      swap3\n      pop\n        /* \"#utility.yul\":2533:2650   */\n      pop\n        /* \"#utility.yul\":2689:2691   */\n      0x20\n        /* \"#utility.yul\":2715:2768   */\n      tag_204\n        /* \"#utility.yul\":2760:2767   */\n      dup6\n        /* \"#utility.yul\":2751:2757   */\n      dup3\n        /* \"#utility.yul\":2740:2749   */\n      dup7\n        /* \"#utility.yul\":2736:2758   */\n      add\n        /* \"#utility.yul\":2715:2768   */\n      tag_136\n      jump\t// in\n    tag_204:\n        /* \"#utility.yul\":2705:2768   */\n      swap2\n      pop\n        /* \"#utility.yul\":2660:2778   */\n      pop\n        /* \"#utility.yul\":2311:2785   */\n      swap3\n      pop\n      swap3\n      swap1\n      pop\n      jump\t// out\n        /* \"#utility.yul\":2791:2881   */\n    tag_137:\n        /* \"#utility.yul\":2825:2832   */\n      0x00\n        /* \"#utility.yul\":2868:2873   */\n      dup2\n        /* \"#utility.yul\":2861:2874   */\n      iszero\n        /* \"#utility.yul\":2854:2875   */\n      iszero\n        /* \"#utility.yul\":2843:2875   */\n      swap1\n      pop\n        /* \"#utility.yul\":2791:2881   */\n      swap2\n      swap1\n      pop\n      jump\t// out\n        /* \"#utility.yul\":2887:2996   */\n    tag_138:\n        /* \"#utility.yul\":2968:2989   */\n      tag_207\n        /* \"#utility.yul\":2983:2988   */\n      dup2\n        /* \"#utility.yul\":2968:2989   */\n      tag_137\n      jump\t// in\n    tag_207:\n        /* \"#utility.yul\":2963:2966   */\n      dup3\n        /* \"#utility.yul\":2956:2990   */\n      mstore\n        /* \"#utility.yul\":2887:2996   */\n      pop\n      pop\n      jump\t// out\n        /* \"#utility.yul\":3002:3212   */\n    tag_45:\n        /* \"#utility.yul\":3089:3093   */\n      0x00\n        /* \"#utility.yul\":3127:3129   */\n      0x20\n        /* \"#utility.yul\":3116:3125   */\n      dup3\n        /* \"#utility.yul\":3112:3130   */\n      add\n        /* \"#utility.yul\":3104:3130   */\n      swap1\n      pop\n        /* \"#utility.yul\":3140:3205   */\n      tag_209\n        /* \"#utility.yul\":3202:3203   */\n      0x00\n        /* \"#utility.yul\":3191:3200   */\n      dup4\n        /* \"#utility.yul\":3187:3204   */\n      add\n        /* \"#utility.yul\":3178:3184   */\n      dup5\n        /* \"#utility.yul\":3140:3205   */\n      tag_138\n      jump\t// in\n    tag_209:\n        /* \"#utility.yul\":3002:3212   */\n      swap3\n      swap2\n      pop\n      pop\n      jump\t// out\n        /* \"#utility.yul\":3218:3398   */\n    tag_139:\n        /* \"#utility.yul\":3266:3343   */\n      0x4e487b7100000000000000000000000000000000000000000000000000000000\n        /* \"#utility.yul\":3263:3264   */\n      0x00\n        /* \"#utility.yul\":3256:3344   */\n      mstore\n        /* \"#utility.yul\":3363:3367   */\n      0x11\n        /* \"#utility.yul\":3360:3361   */\n      0x04\n        /* \"#utility.yul\":3353:3368   */\n      mstore\n        /* \"#utility.yul\":3387:3391   */\n      0x24\n        /* \"#utility.yul\":3384:3385   */\n      0x00\n        /* \"#utility.yul\":3377:3392   */\n      revert\n        /* \"#utility.yul\":3404:3595   */\n    tag_52:\n        /* \"#utility.yul\":3444:3447   */\n      0x00\n        /* \"#utility.yul\":3463:3483   */\n      tag_212\n        /* \"#utility.yul\":3481:3482   */\n      dup3\n        /* \"#utility.yul\":3463:3483   */\n      tag_133\n      jump\t// in\n    tag_212:\n        /* \"#utility.yul\":3458:3483   */\n      swap2\n      pop\n        /* \"#utility.yul\":3497:3517   */\n      tag_213\n        /* \"#utility.yul\":3515:3516   */\n      dup4\n        /* \"#utility.yul\":3497:3517   */\n      tag_133\n      jump\t// in\n    tag_213:\n        /* \"#utility.yul\":3492:3517   */\n      swap3\n      pop\n        /* \"#utility.yul\":3540:3541   */\n      dup3\n        /* \"#utility.yul\":3537:3538   */\n      dup3\n        /* \"#utility.yul\":3533:3542   */\n      add\n        /* \"#utility.yul\":3526:3542   */\n      swap1\n      pop\n        /* \"#utility.yul\":3561:3564   */\n      dup1\n        /* \"#utility.yul\":3558:3559   */\n      dup3\n        /* \"#utility.yul\":3555:3565   */\n      gt\n        /* \"#utility.yul\":3552:3588   */\n      iszero\n      tag_214\n      jumpi\n        /* \"#utility.yul\":3568:3586   */\n      tag_215\n      tag_139\n      jump\t// in\n    tag_215:\n        /* \"#utility.yul\":3552:3588   */\n    tag_214:\n        /* \"#utility.yul\":3404:3595   */\n      swap3\n      swap2\n      pop\n      pop\n      jump\t// out\n        /* \"#utility.yul\":3601:3770   */\n    tag_140:\n        /* \"#utility.yul\":3685:3696   */\n      0x00\n        /* \"#utility.yul\":3719:3725   */\n      dup3\n        /* \"#utility.yul\":3714:3717   */\n      dup3\n        /* \"#utility.yul\":3707:3726   */\n      mstore\n        /* \"#utility.yul\":3759:3763   */\n      0x20\n        /* \"#utility.yul\":3754:3757   */\n      dup3\n        /* \"#utility.yul\":3750:3764   */\n      add\n        /* \"#utility.yul\":3735:3764   */\n      swap1\n      pop\n        /* \"#utility.yul\":3601:3770   */\n      swap3\n      swap2\n      pop\n      pop\n      jump\t// out\n        /* \"#utility.yul\":3776:3955   */\n    tag_141:\n        /* \"#utility.yul\":3916:3947   */\n      0x546865206c6f636b20706572696f6420686173206e6f7420656e646564000000\n        /* \"#utility.yul\":3912:3913   */\n      0x00\n        /* \"#utility.yul\":3904:3910   */\n      dup3\n        /* \"#utility.yul\":3900:3914   */\n      add\n        /* \"#utility.yul\":3893:3948   */\n      mstore\n        /* \"#utility.yul\":3776:3955   */\n      pop\n      jump\t// out\n        /* \"#utility.yul\":3961:4327   */\n    tag_142:\n        /* \"#utility.yul\":4103:4106   */\n      0x00\n        /* \"#utility.yul\":4124:4191   */\n      tag_219\n        /* \"#utility.yul\":4188:4190   */\n      0x1d\n        /* \"#utility.yul\":4183:4186   */\n      dup4\n        /* \"#utility.yul\":4124:4191   */\n      tag_140\n      jump\t// in\n    tag_219:\n        /* \"#utility.yul\":4117:4191   */\n      swap2\n      pop\n        /* \"#utility.yul\":4200:4293   */\n      tag_220\n        /* \"#utility.yul\":4289:4292   */\n      dup3\n        /* \"#utility.yul\":4200:4293   */\n      tag_141\n      jump\t// in\n    tag_220:\n        /* \"#utility.yul\":4318:4320   */\n      0x20\n        /* \"#utility.yul\":4313:4316   */\n      dup3\n        /* \"#utility.yul\":4309:4321   */\n      add\n        /* \"#utility.yul\":4302:4321   */\n      swap1\n      pop\n        /* \"#utility.yul\":3961:4327   */\n      swap2\n      swap1\n      pop\n      jump\t// out\n        /* \"#utility.yul\":4333:4752   */\n    tag_55:\n        /* \"#utility.yul\":4499:4503   */\n      0x00\n        /* \"#utility.yul\":4537:4539   */\n      0x20\n        /* \"#utility.yul\":4526:4535   */\n      dup3\n        /* \"#utility.yul\":4522:4540   */\n      add\n        /* \"#utility.yul\":4514:4540   */\n      swap1\n      pop\n        /* \"#utility.yul\":4586:4595   */\n      dup2\n        /* \"#utility.yul\":4580:4584   */\n      dup2\n        /* \"#utility.yul\":4576:4596   */\n      sub\n        /* \"#utility.yul\":4572:4573   */\n      0x00\n        /* \"#utility.yul\":4561:4570   */\n      dup4\n        /* \"#utility.yul\":4557:4574   */\n      add\n        /* \"#utility.yul\":4550:4597   */\n      mstore\n        /* \"#utility.yul\":4614:4745   */\n      tag_222\n        /* \"#utility.yul\":4740:4744   */\n      dup2\n        /* \"#utility.yul\":4614:4745   */\n      tag_142\n      jump\t// in\n    tag_222:\n        /* \"#utility.yul\":4606:4745   */\n      swap1\n      pop\n        /* \"#utility.yul\":4333:4752   */\n      swap2\n      swap1\n      pop\n      jump\t// out\n        /* \"#utility.yul\":4758:4926   */\n    tag_143:\n        /* \"#utility.yul\":4898:4918   */\n      0x5461726765742068617320726561636865640000000000000000000000000000\n        /* \"#utility.yul\":4894:4895   */\n      0x00\n        /* \"#utility.yul\":4886:4892   */\n      dup3\n        /* \"#utility.yul\":4882:4896   */\n      add\n        /* \"#utility.yul\":4875:4919   */\n      mstore\n        /* \"#utility.yul\":4758:4926   */\n      pop\n      jump\t// out\n        /* \"#utility.yul\":4932:5298   */\n    tag_144:\n        /* \"#utility.yul\":5074:5077   */\n      0x00\n        /* \"#utility.yul\":5095:5162   */\n      tag_225\n        /* \"#utility.yul\":5159:5161   */\n      0x12\n        /* \"#utility.yul\":5154:5157   */\n      dup4\n        /* \"#utility.yul\":5095:5162   */\n      tag_140\n      jump\t// in\n    tag_225:\n        /* \"#utility.yul\":5088:5162   */\n      swap2\n      pop\n        /* \"#utility.yul\":5171:5264   */\n      tag_226\n        /* \"#utility.yul\":5260:5263   */\n      dup3\n        /* \"#utility.yul\":5171:5264   */\n      tag_143\n      jump\t// in\n    tag_226:\n        /* \"#utility.yul\":5289:5291   */\n      0x20\n        /* \"#utility.yul\":5284:5287   */\n      dup3\n        /* \"#utility.yul\":5280:5292   */\n      add\n        /* \"#utility.yul\":5273:5292   */\n      swap1\n      pop\n        /* \"#utility.yul\":4932:5298   */\n      swap2\n      swap1\n      pop\n      jump\t// out\n        /* \"#utility.yul\":5304:5723   */\n    tag_61:\n        /* \"#utility.yul\":5470:5474   */\n      0x00\n        /* \"#utility.yul\":5508:5510   */\n      0x20\n        /* \"#utility.yul\":5497:5506   */\n      dup3\n        /* \"#utility.yul\":5493:5511   */\n      add\n        /* \"#utility.yul\":5485:5511   */\n      swap1\n      pop\n        /* \"#utility.yul\":5557:5566   */\n      dup2\n        /* \"#utility.yul\":5551:5555   */\n      dup2\n        /* \"#utility.yul\":5547:5567   */\n      sub\n        /* \"#utility.yul\":5543:5544   */\n      0x00\n        /* \"#utility.yul\":5532:5541   */\n      dup4\n        /* \"#utility.yul\":5528:5545   */\n      add\n        /* \"#utility.yul\":5521:5568   */\n      mstore\n        /* \"#utility.yul\":5585:5716   */\n      tag_228\n        /* \"#utility.yul\":5711:5715   */\n      dup2\n        /* \"#utility.yul\":5585:5716   */\n      tag_144\n      jump\t// in\n    tag_228:\n        /* \"#utility.yul\":5577:5716   */\n      swap1\n      pop\n        /* \"#utility.yul\":5304:5723   */\n      swap2\n      swap1\n      pop\n      jump\t// out\n        /* \"#utility.yul\":5729:5897   */\n    tag_145:\n        /* \"#utility.yul\":5869:5889   */\n      0x596f7520617265206e6f742066756e6465720000000000000000000000000000\n        /* \"#utility.yul\":5865:5866   */\n      0x00\n        /* \"#utility.yul\":5857:5863   */\n      dup3\n        /* \"#utility.yul\":5853:5867   */\n      add\n        /* \"#utility.yul\":5846:5890   */\n      mstore\n        /* \"#utility.yul\":5729:5897   */\n      pop\n      jump\t// out\n        /* \"#utility.yul\":5903:6269   */\n    tag_146:\n        /* \"#utility.yul\":6045:6048   */\n      0x00\n        /* \"#utility.yul\":6066:6133   */\n      tag_231\n        /* \"#utility.yul\":6130:6132   */\n      0x12\n        /* \"#utility.yul\":6125:6128   */\n      dup4\n        /* \"#utility.yul\":6066:6133   */\n      tag_140\n      jump\t// in\n    tag_231:\n        /* \"#utility.yul\":6059:6133   */\n      swap2\n      pop\n        /* \"#utility.yul\":6142:6235   */\n      tag_232\n        /* \"#utility.yul\":6231:6234   */\n      dup3\n        /* \"#utility.yul\":6142:6235   */\n      tag_145\n      jump\t// in\n    tag_232:\n        /* \"#utility.yul\":6260:6262   */\n      0x20\n        /* \"#utility.yul\":6255:6258   */\n      dup3\n        /* \"#utility.yul\":6251:6263   */\n      add\n        /* \"#utility.yul\":6244:6263   */\n      swap1\n      pop\n        /* \"#utility.yul\":5903:6269   */\n      swap2\n      swap1\n      pop\n      jump\t// out\n        /* \"#utility.yul\":6275:6694   */\n    tag_64:\n        /* \"#utility.yul\":6441:6445   */\n      0x00\n        /* \"#utility.yul\":6479:6481   */\n      0x20\n        /* \"#utility.yul\":6468:6477   */\n      dup3\n        /* \"#utility.yul\":6464:6482   */\n      add\n        /* \"#utility.yul\":6456:6482   */\n      swap1\n      pop\n        /* \"#utility.yul\":6528:6537   */\n      dup2\n        /* \"#utility.yul\":6522:6526   */\n      dup2\n        /* \"#utility.yul\":6518:6538   */\n      sub\n        /* \"#utility.yul\":6514:6515   */\n      0x00\n        /* \"#utility.yul\":6503:6512   */\n      dup4\n        /* \"#utility.yul\":6499:6516   */\n      add\n        /* \"#utility.yul\":6492:6539   */\n      mstore\n        /* \"#utility.yul\":6556:6687   */\n      tag_234\n        /* \"#utility.yul\":6682:6686   */\n      dup2\n        /* \"#utility.yul\":6556:6687   */\n      tag_146\n      jump\t// in\n    tag_234:\n        /* \"#utility.yul\":6548:6687   */\n      swap1\n      pop\n        /* \"#utility.yul\":6275:6694   */\n      swap2\n      swap1\n      pop\n      jump\t// out\n        /* \"#utility.yul\":6700:6847   */\n    tag_147:\n        /* \"#utility.yul\":6801:6812   */\n      0x00\n        /* \"#utility.yul\":6838:6841   */\n      dup2\n        /* \"#utility.yul\":6823:6841   */\n      swap1\n      pop\n        /* \"#utility.yul\":6700:6847   */\n      swap3\n      swap2\n      pop\n      pop\n      jump\t// out\n        /* \"#utility.yul\":6853:6967   */\n    tag_148:\n      pop\n      jump\t// out\n        /* \"#utility.yul\":6973:7371   */\n    tag_149:\n        /* \"#utility.yul\":7132:7135   */\n      0x00\n        /* \"#utility.yul\":7153:7236   */\n      tag_238\n        /* \"#utility.yul\":7234:7235   */\n      0x00\n        /* \"#utility.yul\":7229:7232   */\n      dup4\n        /* \"#utility.yul\":7153:7236   */\n      tag_147\n      jump\t// in\n    tag_238:\n        /* \"#utility.yul\":7146:7236   */\n      swap2\n      pop\n        /* \"#utility.yul\":7245:7338   */\n      tag_239\n        /* \"#utility.yul\":7334:7337   */\n      dup3\n        /* \"#utility.yul\":7245:7338   */\n      tag_148\n      jump\t// in\n    tag_239:\n        /* \"#utility.yul\":7363:7364   */\n      0x00\n        /* \"#utility.yul\":7358:7361   */\n      dup3\n        /* \"#utility.yul\":7354:7365   */\n      add\n        /* \"#utility.yul\":7347:7365   */\n      swap1\n      pop\n        /* \"#utility.yul\":6973:7371   */\n      swap2\n      swap1\n      pop\n      jump\t// out\n        /* \"#utility.yul\":7377:7756   */\n    tag_66:\n        /* \"#utility.yul\":7561:7564   */\n      0x00\n        /* \"#utility.yul\":7583:7730   */\n      tag_241\n        /* \"#utility.yul\":7726:7729   */\n      dup3\n        /* \"#utility.yul\":7583:7730   */\n      tag_149\n      jump\t// in\n    tag_241:\n        /* \"#utility.yul\":7576:7730   */\n      swap2\n      pop\n        /* \"#utility.yul\":7747:7750   */\n      dup2\n        /* \"#utility.yul\":7740:7750   */\n      swap1\n      pop\n        /* \"#utility.yul\":7377:7756   */\n      swap2\n      swap1\n      pop\n      jump\t// out\n        /* \"#utility.yul\":7762:7930   */\n    tag_150:\n        /* \"#utility.yul\":7902:7922   */\n      0x7472616e73666572207478206661696c65640000000000000000000000000000\n        /* \"#utility.yul\":7898:7899   */\n      0x00\n        /* \"#utility.yul\":7890:7896   */\n      dup3\n        /* \"#utility.yul\":7886:7900   */\n      add\n        /* \"#utility.yul\":7879:7923   */\n      mstore\n        /* \"#utility.yul\":7762:7930   */\n      pop\n      jump\t// out\n        /* \"#utility.yul\":7936:8302   */\n    tag_151:\n        /* \"#utility.yul\":8078:8081   */\n      0x00\n        /* \"#utility.yul\":8099:8166   */\n      tag_244\n        /* \"#utility.yul\":8163:8165   */\n      0x12\n        /* \"#utility.yul\":8158:8161   */\n      dup4\n        /* \"#utility.yul\":8099:8166   */\n      tag_140\n      jump\t// in\n    tag_244:\n        /* \"#utility.yul\":8092:8166   */\n      swap2\n      pop\n        /* \"#utility.yul\":8175:8268   */\n      tag_245\n        /* \"#utility.yul\":8264:8267   */\n      dup3\n        /* \"#utility.yul\":8175:8268   */\n      tag_150\n      jump\t// in\n    tag_245:\n        /* \"#utility.yul\":8293:8295   */\n      0x20\n        /* \"#utility.yul\":8288:8291   */\n      dup3\n        /* \"#utility.yul\":8284:8296   */\n      add\n        /* \"#utility.yul\":8277:8296   */\n      swap1\n      pop\n        /* \"#utility.yul\":7936:8302   */\n      swap2\n      swap1\n      pop\n      jump\t// out\n        /* \"#utility.yul\":8308:8727   */\n    tag_72:\n        /* \"#utility.yul\":8474:8478   */\n      0x00\n        /* \"#utility.yul\":8512:8514   */\n      0x20\n        /* \"#utility.yul\":8501:8510   */\n      dup3\n        /* \"#utility.yul\":8497:8515   */\n      add\n        /* \"#utility.yul\":8489:8515   */\n      swap1\n      pop\n        /* \"#utility.yul\":8561:8570   */\n      dup2\n        /* \"#utility.yul\":8555:8559   */\n      dup2\n        /* \"#utility.yul\":8551:8571   */\n      sub\n        /* \"#utility.yul\":8547:8548   */\n      0x00\n        /* \"#utility.yul\":8536:8545   */\n      dup4\n        /* \"#utility.yul\":8532:8549   */\n      add\n        /* \"#utility.yul\":8525:8572   */\n      mstore\n        /* \"#utility.yul\":8589:8720   */\n      tag_247\n        /* \"#utility.yul\":8715:8719   */\n      dup2\n        /* \"#utility.yul\":8589:8720   */\n      tag_151\n      jump\t// in\n    tag_247:\n        /* \"#utility.yul\":8581:8720   */\n      swap1\n      pop\n        /* \"#utility.yul\":8308:8727   */\n      swap2\n      swap1\n      pop\n      jump\t// out\n        /* \"#utility.yul\":8733:8904   */\n    tag_152:\n        /* \"#utility.yul\":8873:8896   */\n      0x596f7520617265206e6f7420746865206f776e65720000000000000000000000\n        /* \"#utility.yul\":8869:8870   */\n      0x00\n        /* \"#utility.yul\":8861:8867   */\n      dup3\n        /* \"#utility.yul\":8857:8871   */\n      add\n        /* \"#utility.yul\":8850:8897   */\n      mstore\n        /* \"#utility.yul\":8733:8904   */\n      pop\n      jump\t// out\n        /* \"#utility.yul\":8910:9276   */\n    tag_153:\n        /* \"#utility.yul\":9052:9055   */\n      0x00\n        /* \"#utility.yul\":9073:9140   */\n      tag_250\n        /* \"#utility.yul\":9137:9139   */\n      0x15\n        /* \"#utility.yul\":9132:9135   */\n      dup4\n        /* \"#utility.yul\":9073:9140   */\n      tag_140\n      jump\t// in\n    tag_250:\n        /* \"#utility.yul\":9066:9140   */\n      swap2\n      pop\n        /* \"#utility.yul\":9149:9242   */\n      tag_251\n        /* \"#utility.yul\":9238:9241   */\n      dup3\n        /* \"#utility.yul\":9149:9242   */\n      tag_152\n      jump\t// in\n    tag_251:\n        /* \"#utility.yul\":9267:9269   */\n      0x20\n        /* \"#utility.yul\":9262:9265   */\n      dup3\n        /* \"#utility.yul\":9258:9270   */\n      add\n        /* \"#utility.yul\":9251:9270   */\n      swap1\n      pop\n        /* \"#utility.yul\":8910:9276   */\n      swap2\n      swap1\n      pop\n      jump\t// out\n        /* \"#utility.yul\":9282:9701   */\n    tag_76:\n        /* \"#utility.yul\":9448:9452   */\n      0x00\n        /* \"#utility.yul\":9486:9488   */\n      0x20\n        /* \"#utility.yul\":9475:9484   */\n      dup3\n        /* \"#utility.yul\":9471:9489   */\n      add\n        /* \"#utility.yul\":9463:9489   */\n      swap1\n      pop\n        /* \"#utility.yul\":9535:9544   */\n      dup2\n        /* \"#utility.yul\":9529:9533   */\n      dup2\n        /* \"#utility.yul\":9525:9545   */\n      sub\n        /* \"#utility.yul\":9521:9522   */\n      0x00\n        /* \"#utility.yul\":9510:9519   */\n      dup4\n        /* \"#utility.yul\":9506:9523   */\n      add\n        /* \"#utility.yul\":9499:9546   */\n      mstore\n        /* \"#utility.yul\":9563:9694   */\n      tag_253\n        /* \"#utility.yul\":9689:9693   */\n      dup2\n        /* \"#utility.yul\":9563:9694   */\n      tag_153\n      jump\t// in\n    tag_253:\n        /* \"#utility.yul\":9555:9694   */\n      swap1\n      pop\n        /* \"#utility.yul\":9282:9701   */\n      swap2\n      swap1\n      pop\n      jump\t// out\n        /* \"#utility.yul\":9707:9878   */\n    tag_154:\n        /* \"#utility.yul\":9847:9870   */\n      0x546172676574206973206e6f7420726561636865640000000000000000000000\n        /* \"#utility.yul\":9843:9844   */\n      0x00\n        /* \"#utility.yul\":9835:9841   */\n      dup3\n        /* \"#utility.yul\":9831:9845   */\n      add\n        /* \"#utility.yul\":9824:9871   */\n      mstore\n        /* \"#utility.yul\":9707:9878   */\n      pop\n      jump\t// out\n        /* \"#utility.yul\":9884:10250   */\n    tag_155:\n        /* \"#utility.yul\":10026:10029   */\n      0x00\n        /* \"#utility.yul\":10047:10114   */\n      tag_256\n        /* \"#utility.yul\":10111:10113   */\n      0x15\n        /* \"#utility.yul\":10106:10109   */\n      dup4\n        /* \"#utility.yul\":10047:10114   */\n      tag_140\n      jump\t// in\n    tag_256:\n        /* \"#utility.yul\":10040:10114   */\n      swap2\n      pop\n        /* \"#utility.yul\":10123:10216   */\n      tag_257\n        /* \"#utility.yul\":10212:10215   */\n      dup3\n        /* \"#utility.yul\":10123:10216   */\n      tag_154\n      jump\t// in\n    tag_257:\n        /* \"#utility.yul\":10241:10243   */\n      0x20\n        /* \"#utility.yul\":10236:10239   */\n      dup3\n        /* \"#utility.yul\":10232:10244   */\n      add\n        /* \"#utility.yul\":10225:10244   */\n      swap1\n      pop\n        /* \"#utility.yul\":9884:10250   */\n      swap2\n      swap1\n      pop\n      jump\t// out\n        /* \"#utility.yul\":10256:10675   */\n    tag_89:\n        /* \"#utility.yul\":10422:10426   */\n      0x00\n        /* \"#utility.yul\":10460:10462   */\n      0x20\n        /* \"#utility.yul\":10449:10458   */\n      dup3\n        /* \"#utility.yul\":10445:10463   */\n      add\n        /* \"#utility.yul\":10437:10463   */\n      swap1\n      pop\n        /* \"#utility.yul\":10509:10518   */\n      dup2\n        /* \"#utility.yul\":10503:10507   */\n      dup2\n        /* \"#utility.yul\":10499:10519   */\n      sub\n        /* \"#utility.yul\":10495:10496   */\n      0x00\n        /* \"#utility.yul\":10484:10493   */\n      dup4\n        /* \"#utility.yul\":10480:10497   */\n      add\n        /* \"#utility.yul\":10473:10520   */\n      mstore\n        /* \"#utility.yul\":10537:10668   */\n      tag_259\n        /* \"#utility.yul\":10663:10667   */\n      dup2\n        /* \"#utility.yul\":10537:10668   */\n      tag_155\n      jump\t// in\n    tag_259:\n        /* \"#utility.yul\":10529:10668   */\n      swap1\n      pop\n        /* \"#utility.yul\":10256:10675   */\n      swap2\n      swap1\n      pop\n      jump\t// out\n        /* \"#utility.yul\":10681:10857   */\n    tag_156:\n        /* \"#utility.yul\":10821:10849   */\n      0x594f552053484f554c442046554e44204d4f5245204554482121000000000000\n        /* \"#utility.yul\":10817:10818   */\n      0x00\n        /* \"#utility.yul\":10809:10815   */\n      dup3\n        /* \"#utility.yul\":10805:10819   */\n      add\n        /* \"#utility.yul\":10798:10850   */\n      mstore\n        /* \"#utility.yul\":10681:10857   */\n      pop\n      jump\t// out\n        /* \"#utility.yul\":10863:11229   */\n    tag_157:\n        /* \"#utility.yul\":11005:11008   */\n      0x00\n        /* \"#utility.yul\":11026:11093   */\n      tag_262\n        /* \"#utility.yul\":11090:11092   */\n      0x1a\n        /* \"#utility.yul\":11085:11088   */\n      dup4\n        /* \"#utility.yul\":11026:11093   */\n      tag_140\n      jump\t// in\n    tag_262:\n        /* \"#utility.yul\":11019:11093   */\n      swap2\n      pop\n        /* \"#utility.yul\":11102:11195   */\n      tag_263\n        /* \"#utility.yul\":11191:11194   */\n      dup3\n        /* \"#utility.yul\":11102:11195   */\n      tag_156\n      jump\t// in\n    tag_263:\n        /* \"#utility.yul\":11220:11222   */\n      0x20\n        /* \"#utility.yul\":11215:11218   */\n      dup3\n        /* \"#utility.yul\":11211:11223   */\n      add\n        /* \"#utility.yul\":11204:11223   */\n      swap1\n      pop\n        /* \"#utility.yul\":10863:11229   */\n      swap2\n      swap1\n      pop\n      jump\t// out\n        /* \"#utility.yul\":11235:11654   */\n    tag_100:\n        /* \"#utility.yul\":11401:11405   */\n      0x00\n        /* \"#utility.yul\":11439:11441   */\n      0x20\n        /* \"#utility.yul\":11428:11437   */\n      dup3\n        /* \"#utility.yul\":11424:11442   */\n      add\n        /* \"#utility.yul\":11416:11442   */\n      swap1\n      pop\n        /* \"#utility.yul\":11488:11497   */\n      dup2\n        /* \"#utility.yul\":11482:11486   */\n      dup2\n        /* \"#utility.yul\":11478:11498   */\n      sub\n        /* \"#utility.yul\":11474:11475   */\n      0x00\n        /* \"#utility.yul\":11463:11472   */\n      dup4\n        /* \"#utility.yul\":11459:11476   */\n      add\n        /* \"#utility.yul\":11452:11499   */\n      mstore\n        /* \"#utility.yul\":11516:11647   */\n      tag_265\n        /* \"#utility.yul\":11642:11646   */\n      dup2\n        /* \"#utility.yul\":11516:11647   */\n      tag_157\n      jump\t// in\n    tag_265:\n        /* \"#utility.yul\":11508:11647   */\n      swap1\n      pop\n        /* \"#utility.yul\":11235:11654   */\n      swap2\n      swap1\n      pop\n      jump\t// out\n        /* \"#utility.yul\":11660:11835   */\n    tag_158:\n        /* \"#utility.yul\":11800:11827   */\n      0x546865206c6f636b20706572696f642068617320656e64656400000000000000\n        /* \"#utility.yul\":11796:11797   */\n      0x00\n        /* \"#utility.yul\":11788:11794   */\n      dup3\n        /* \"#utility.yul\":11784:11798   */\n      add\n        /* \"#utility.yul\":11777:11828   */\n      mstore\n        /* \"#utility.yul\":11660:11835   */\n      pop\n      jump\t// out\n        /* \"#utility.yul\":11841:12207   */\n    tag_159:\n        /* \"#utility.yul\":11983:11986   */\n      0x00\n        /* \"#utility.yul\":12004:12071   */\n      tag_268\n        /* \"#utility.yul\":12068:12070   */\n      0x19\n        /* \"#utility.yul\":12063:12066   */\n      dup4\n        /* \"#utility.yul\":12004:12071   */\n      tag_140\n      jump\t// in\n    tag_268:\n        /* \"#utility.yul\":11997:12071   */\n      swap2\n      pop\n        /* \"#utility.yul\":12080:12173   */\n      tag_269\n        /* \"#utility.yul\":12169:12172   */\n      dup3\n        /* \"#utility.yul\":12080:12173   */\n      tag_158\n      jump\t// in\n    tag_269:\n        /* \"#utility.yul\":12198:12200   */\n      0x20\n        /* \"#utility.yul\":12193:12196   */\n      dup3\n        /* \"#utility.yul\":12189:12201   */\n      add\n        /* \"#utility.yul\":12182:12201   */\n      swap1\n      pop\n        /* \"#utility.yul\":11841:12207   */\n      swap2\n      swap1\n      pop\n      jump\t// out\n        /* \"#utility.yul\":12213:12632   */\n    tag_104:\n        /* \"#utility.yul\":12379:12383   */\n      0x00\n        /* \"#utility.yul\":12417:12419   */\n      0x20\n        /* \"#utility.yul\":12406:12415   */\n      dup3\n        /* \"#utility.yul\":12402:12420   */\n      add\n        /* \"#utility.yul\":12394:12420   */\n      swap1\n      pop\n        /* \"#utility.yul\":12466:12475   */\n      dup2\n        /* \"#utility.yul\":12460:12464   */\n      dup2\n        /* \"#utility.yul\":12456:12476   */\n      sub\n        /* \"#utility.yul\":12452:12453   */\n      0x00\n        /* \"#utility.yul\":12441:12450   */\n      dup4\n        /* \"#utility.yul\":12437:12454   */\n      add\n        /* \"#utility.yul\":12430:12477   */\n      mstore\n        /* \"#utility.yul\":12494:12625   */\n      tag_271\n        /* \"#utility.yul\":12620:12624   */\n      dup2\n        /* \"#utility.yul\":12494:12625   */\n      tag_159\n      jump\t// in\n    tag_271:\n        /* \"#utility.yul\":12486:12625   */\n      swap1\n      pop\n        /* \"#utility.yul\":12213:12632   */\n      swap2\n      swap1\n      pop\n      jump\t// out\n        /* \"#utility.yul\":12638:12743   */\n    tag_160:\n        /* \"#utility.yul\":12674:12681   */\n      0x00\n        /* \"#utility.yul\":12714:12736   */\n      0xffffffffffffffffffff\n        /* \"#utility.yul\":12707:12712   */\n      dup3\n        /* \"#utility.yul\":12703:12737   */\n      and\n        /* \"#utility.yul\":12692:12737   */\n      swap1\n      pop\n        /* \"#utility.yul\":12638:12743   */\n      swap2\n      swap1\n      pop\n      jump\t// out\n        /* \"#utility.yul\":12749:12869   */\n    tag_161:\n        /* \"#utility.yul\":12821:12844   */\n      tag_274\n        /* \"#utility.yul\":12838:12843   */\n      dup2\n        /* \"#utility.yul\":12821:12844   */\n      tag_160\n      jump\t// in\n    tag_274:\n        /* \"#utility.yul\":12814:12819   */\n      dup2\n        /* \"#utility.yul\":12811:12845   */\n      eq\n        /* \"#utility.yul\":12801:12863   */\n      tag_275\n      jumpi\n        /* \"#utility.yul\":12859:12860   */\n      0x00\n        /* \"#utility.yul\":12856:12857   */\n      0x00\n        /* \"#utility.yul\":12849:12861   */\n      revert\n        /* \"#utility.yul\":12801:12863   */\n    tag_275:\n        /* \"#utility.yul\":12749:12869   */\n      pop\n      jump\t// out\n        /* \"#utility.yul\":12875:13016   */\n    tag_162:\n        /* \"#utility.yul\":12931:12936   */\n      0x00\n        /* \"#utility.yul\":12962:12968   */\n      dup2\n        /* \"#utility.yul\":12956:12969   */\n      mload\n        /* \"#utility.yul\":12947:12969   */\n      swap1\n      pop\n        /* \"#utility.yul\":12978:13010   */\n      tag_277\n        /* \"#utility.yul\":13004:13009   */\n      dup2\n        /* \"#utility.yul\":12978:13010   */\n      tag_161\n      jump\t// in\n    tag_277:\n        /* \"#utility.yul\":12875:13016   */\n      swap3\n      swap2\n      pop\n      pop\n      jump\t// out\n        /* \"#utility.yul\":13022:13142   */\n    tag_163:\n        /* \"#utility.yul\":13094:13117   */\n      tag_279\n        /* \"#utility.yul\":13111:13116   */\n      dup2\n        /* \"#utility.yul\":13094:13117   */\n      tag_131\n      jump\t// in\n    tag_279:\n        /* \"#utility.yul\":13087:13092   */\n      dup2\n        /* \"#utility.yul\":13084:13118   */\n      eq\n        /* \"#utility.yul\":13074:13136   */\n      tag_280\n      jumpi\n        /* \"#utility.yul\":13132:13133   */\n      0x00\n        /* \"#utility.yul\":13129:13130   */\n      0x00\n        /* \"#utility.yul\":13122:13134   */\n      revert\n        /* \"#utility.yul\":13074:13136   */\n    tag_280:\n        /* \"#utility.yul\":13022:13142   */\n      pop\n      jump\t// out\n        /* \"#utility.yul\":13148:13289   */\n    tag_164:\n        /* \"#utility.yul\":13204:13209   */\n      0x00\n        /* \"#utility.yul\":13235:13241   */\n      dup2\n        /* \"#utility.yul\":13229:13242   */\n      mload\n        /* \"#utility.yul\":13220:13242   */\n      swap1\n      pop\n        /* \"#utility.yul\":13251:13283   */\n      tag_282\n        /* \"#utility.yul\":13277:13282   */\n      dup2\n        /* \"#utility.yul\":13251:13283   */\n      tag_163\n      jump\t// in\n    tag_282:\n        /* \"#utility.yul\":13148:13289   */\n      swap3\n      swap2\n      pop\n      pop\n      jump\t// out\n        /* \"#utility.yul\":13295:13438   */\n    tag_165:\n        /* \"#utility.yul\":13352:13357   */\n      0x00\n        /* \"#utility.yul\":13383:13389   */\n      dup2\n        /* \"#utility.yul\":13377:13390   */\n      mload\n        /* \"#utility.yul\":13368:13390   */\n      swap1\n      pop\n        /* \"#utility.yul\":13399:13432   */\n      tag_284\n        /* \"#utility.yul\":13426:13431   */\n      dup2\n        /* \"#utility.yul\":13399:13432   */\n      tag_135\n      jump\t// in\n    tag_284:\n        /* \"#utility.yul\":13295:13438   */\n      swap3\n      swap2\n      pop\n      pop\n      jump\t// out\n        /* \"#utility.yul\":13444:14415   */\n    tag_109:\n        /* \"#utility.yul\":13547:13553   */\n      0x00\n        /* \"#utility.yul\":13555:13561   */\n      0x00\n        /* \"#utility.yul\":13563:13569   */\n      0x00\n        /* \"#utility.yul\":13571:13577   */\n      0x00\n        /* \"#utility.yul\":13579:13585   */\n      0x00\n        /* \"#utility.yul\":13628:13631   */\n      0xa0\n        /* \"#utility.yul\":13616:13625   */\n      dup7\n        /* \"#utility.yul\":13607:13614   */\n      dup9\n        /* \"#utility.yul\":13603:13626   */\n      sub\n        /* \"#utility.yul\":13599:13632   */\n      slt\n        /* \"#utility.yul\":13596:13716   */\n      iszero\n      tag_286\n      jumpi\n        /* \"#utility.yul\":13635:13714   */\n      tag_287\n      tag_125\n      jump\t// in\n    tag_287:\n        /* \"#utility.yul\":13596:13716   */\n    tag_286:\n        /* \"#utility.yul\":13755:13756   */\n      0x00\n        /* \"#utility.yul\":13780:13843   */\n      tag_288\n        /* \"#utility.yul\":13835:13842   */\n      dup9\n        /* \"#utility.yul\":13826:13832   */\n      dup3\n        /* \"#utility.yul\":13815:13824   */\n      dup10\n        /* \"#utility.yul\":13811:13833   */\n      add\n        /* \"#utility.yul\":13780:13843   */\n      tag_162\n      jump\t// in\n    tag_288:\n        /* \"#utility.yul\":13770:13843   */\n      swap6\n      pop\n        /* \"#utility.yul\":13726:13853   */\n      pop\n        /* \"#utility.yul\":13892:13894   */\n      0x20\n        /* \"#utility.yul\":13918:13981   */\n      tag_289\n        /* \"#utility.yul\":13973:13980   */\n      dup9\n        /* \"#utility.yul\":13964:13970   */\n      dup3\n        /* \"#utility.yul\":13953:13962   */\n      dup10\n        /* \"#utility.yul\":13949:13971   */\n      add\n        /* \"#utility.yul\":13918:13981   */\n      tag_164\n      jump\t// in\n    tag_289:\n        /* \"#utility.yul\":13908:13981   */\n      swap5\n      pop\n        /* \"#utility.yul\":13863:13991   */\n      pop\n        /* \"#utility.yul\":14030:14032   */\n      0x40\n        /* \"#utility.yul\":14056:14120   */\n      tag_290\n        /* \"#utility.yul\":14112:14119   */\n      dup9\n        /* \"#utility.yul\":14103:14109   */\n      dup3\n        /* \"#utility.yul\":14092:14101   */\n      dup10\n        /* \"#utility.yul\":14088:14110   */\n      add\n        /* \"#utility.yul\":14056:14120   */\n      tag_165\n      jump\t// in\n    tag_290:\n        /* \"#utility.yul\":14046:14120   */\n      swap4\n      pop\n        /* \"#utility.yul\":14001:14130   */\n      pop\n        /* \"#utility.yul\":14169:14171   */\n      0x60\n        /* \"#utility.yul\":14195:14259   */\n      tag_291\n        /* \"#utility.yul\":14251:14258   */\n      dup9\n        /* \"#utility.yul\":14242:14248   */\n      dup3\n        /* \"#utility.yul\":14231:14240   */\n      dup10\n        /* \"#utility.yul\":14227:14249   */\n      add\n        /* \"#utility.yul\":14195:14259   */\n      tag_165\n      jump\t// in\n    tag_291:\n        /* \"#utility.yul\":14185:14259   */\n      swap3\n      pop\n        /* \"#utility.yul\":14140:14269   */\n      pop\n        /* \"#utility.yul\":14308:14311   */\n      0x80\n        /* \"#utility.yul\":14335:14398   */\n      tag_292\n        /* \"#utility.yul\":14390:14397   */\n      dup9\n        /* \"#utility.yul\":14381:14387   */\n      dup3\n        /* \"#utility.yul\":14370:14379   */\n      dup10\n        /* \"#utility.yul\":14366:14388   */\n      add\n        /* \"#utility.yul\":14335:14398   */\n      tag_162\n      jump\t// in\n    tag_292:\n        /* \"#utility.yul\":14325:14398   */\n      swap2\n      pop\n        /* \"#utility.yul\":14279:14408   */\n      pop\n        /* \"#utility.yul\":13444:14415   */\n      swap3\n      swap6\n      pop\n      swap3\n      swap6\n      swap1\n      swap4\n      pop\n      jump\t// out\n        /* \"#utility.yul\":14421:14597   */\n    tag_166:\n        /* \"#utility.yul\":14561:14589   */\n      0x596f7520646f206e6f742068617665207065726d697373696f6e000000000000\n        /* \"#utility.yul\":14557:14558   */\n      0x00\n        /* \"#utility.yul\":14549:14555   */\n      dup3\n        /* \"#utility.yul\":14545:14559   */\n      add\n        /* \"#utility.yul\":14538:14590   */\n      mstore\n        /* \"#utility.yul\":14421:14597   */\n      pop\n      jump\t// out\n        /* \"#utility.yul\":14603:14969   */\n    tag_167:\n        /* \"#utility.yul\":14745:14748   */\n      0x00\n        /* \"#utility.yul\":14766:14833   */\n      tag_295\n        /* \"#utility.yul\":14830:14832   */\n      0x1a\n        /* \"#utility.yul\":14825:14828   */\n      dup4\n        /* \"#utility.yul\":14766:14833   */\n      tag_140\n      jump\t// in\n    tag_295:\n        /* \"#utility.yul\":14759:14833   */\n      swap2\n      pop\n        /* \"#utility.yul\":14842:14935   */\n      tag_296\n        /* \"#utility.yul\":14931:14934   */\n      dup3\n        /* \"#utility.yul\":14842:14935   */\n      tag_166\n      jump\t// in\n    tag_296:\n        /* \"#utility.yul\":14960:14962   */\n      0x20\n        /* \"#utility.yul\":14955:14958   */\n      dup3\n        /* \"#utility.yul\":14951:14963   */\n      add\n        /* \"#utility.yul\":14944:14963   */\n      swap1\n      pop\n        /* \"#utility.yul\":14603:14969   */\n      swap2\n      swap1\n      pop\n      jump\t// out\n        /* \"#utility.yul\":14975:15394   */\n    tag_113:\n        /* \"#utility.yul\":15141:15145   */\n      0x00\n        /* \"#utility.yul\":15179:15181   */\n      0x20\n        /* \"#utility.yul\":15168:15177   */\n      dup3\n        /* \"#utility.yul\":15164:15182   */\n      add\n        /* \"#utility.yul\":15156:15182   */\n      swap1\n      pop\n        /* \"#utility.yul\":15228:15237   */\n      dup2\n        /* \"#utility.yul\":15222:15226   */\n      dup2\n        /* \"#utility.yul\":15218:15238   */\n      sub\n        /* \"#utility.yul\":15214:15215   */\n      0x00\n        /* \"#utility.yul\":15203:15212   */\n      dup4\n        /* \"#utility.yul\":15199:15216   */\n      add\n        /* \"#utility.yul\":15192:15239   */\n      mstore\n        /* \"#utility.yul\":15256:15387   */\n      tag_298\n        /* \"#utility.yul\":15382:15386   */\n      dup2\n        /* \"#utility.yul\":15256:15387   */\n      tag_167\n      jump\t// in\n    tag_298:\n        /* \"#utility.yul\":15248:15387   */\n      swap1\n      pop\n        /* \"#utility.yul\":14975:15394   */\n      swap2\n      swap1\n      pop\n      jump\t// out\n        /* \"#utility.yul\":15400:15810   */\n    tag_121:\n        /* \"#utility.yul\":15440:15447   */\n      0x00\n        /* \"#utility.yul\":15463:15483   */\n      tag_300\n        /* \"#utility.yul\":15481:15482   */\n      dup3\n        /* \"#utility.yul\":15463:15483   */\n      tag_133\n      jump\t// in\n    tag_300:\n        /* \"#utility.yul\":15458:15483   */\n      swap2\n      pop\n        /* \"#utility.yul\":15497:15517   */\n      tag_301\n        /* \"#utility.yul\":15515:15516   */\n      dup4\n        /* \"#utility.yul\":15497:15517   */\n      tag_133\n      jump\t// in\n    tag_301:\n        /* \"#utility.yul\":15492:15517   */\n      swap3\n      pop\n        /* \"#utility.yul\":15552:15553   */\n      dup3\n        /* \"#utility.yul\":15549:15550   */\n      dup3\n        /* \"#utility.yul\":15545:15554   */\n      mul\n        /* \"#utility.yul\":15574:15604   */\n      tag_302\n        /* \"#utility.yul\":15592:15603   */\n      dup2\n        /* \"#utility.yul\":15574:15604   */\n      tag_133\n      jump\t// in\n    tag_302:\n        /* \"#utility.yul\":15563:15604   */\n      swap2\n      pop\n        /* \"#utility.yul\":15753:15754   */\n      dup3\n        /* \"#utility.yul\":15744:15751   */\n      dup3\n        /* \"#utility.yul\":15740:15755   */\n      div\n        /* \"#utility.yul\":15737:15738   */\n      dup5\n        /* \"#utility.yul\":15734:15756   */\n      eq\n        /* \"#utility.yul\":15714:15715   */\n      dup4\n        /* \"#utility.yul\":15707:15716   */\n      iszero\n        /* \"#utility.yul\":15687:15770   */\n      or\n        /* \"#utility.yul\":15664:15803   */\n      tag_303\n      jumpi\n        /* \"#utility.yul\":15783:15801   */\n      tag_304\n      tag_139\n      jump\t// in\n    tag_304:\n        /* \"#utility.yul\":15664:15803   */\n    tag_303:\n        /* \"#utility.yul\":15448:15810   */\n      pop\n        /* \"#utility.yul\":15400:15810   */\n      swap3\n      swap2\n      pop\n      pop\n      jump\t// out\n        /* \"#utility.yul\":15816:15996   */\n    tag_168:\n        /* \"#utility.yul\":15864:15941   */\n      0x4e487b7100000000000000000000000000000000000000000000000000000000\n        /* \"#utility.yul\":15861:15862   */\n      0x00\n        /* \"#utility.yul\":15854:15942   */\n      mstore\n        /* \"#utility.yul\":15961:15965   */\n      0x12\n        /* \"#utility.yul\":15958:15959   */\n      0x04\n        /* \"#utility.yul\":15951:15966   */\n      mstore\n        /* \"#utility.yul\":15985:15989   */\n      0x24\n        /* \"#utility.yul\":15982:15983   */\n      0x00\n        /* \"#utility.yul\":15975:15990   */\n      revert\n        /* \"#utility.yul\":16002:16187   */\n    tag_123:\n        /* \"#utility.yul\":16042:16043   */\n      0x00\n        /* \"#utility.yul\":16059:16079   */\n      tag_307\n        /* \"#utility.yul\":16077:16078   */\n      dup3\n        /* \"#utility.yul\":16059:16079   */\n      tag_133\n      jump\t// in\n    tag_307:\n        /* \"#utility.yul\":16054:16079   */\n      swap2\n      pop\n        /* \"#utility.yul\":16093:16113   */\n      tag_308\n        /* \"#utility.yul\":16111:16112   */\n      dup4\n        /* \"#utility.yul\":16093:16113   */\n      tag_133\n      jump\t// in\n    tag_308:\n        /* \"#utility.yul\":16088:16113   */\n      swap3\n      pop\n        /* \"#utility.yul\":16132:16133   */\n      dup3\n        /* \"#utility.yul\":16122:16157   */\n      tag_309\n      jumpi\n        /* \"#utility.yul\":16137:16155   */\n      tag_310\n      tag_168\n      jump\t// in\n    tag_310:\n        /* \"#utility.yul\":16122:16157   */\n    tag_309:\n        /* \"#utility.yul\":16179:16180   */\n      dup3\n        /* \"#utility.yul\":16176:16177   */\n      dup3\n        /* \"#utility.yul\":16172:16181   */\n      div\n        /* \"#utility.yul\":16167:16181   */\n      swap1\n      pop\n        /* \"#utility.yul\":16002:16187   */\n      swap3\n      swap2\n      pop\n      pop\n      jump\t// out\n\n    auxdata: 0xa2646970667358221220903d57a557c74908ff62d3333e6bd5973c233a830ae1ccec3f5d0d4e887de4bc64736f6c634300081e0033\n}\n",
				"bytecode": {
					"linkReferences": {},
					"object": "608060405268056bc75e2d631000006001555f600660146101000a81548160ff021916908315150217905550348015610036575f5ffd5b5060405161133738038061133783398181016040528101906100589190610137565b73694aa1769357215de4fac081bf1f309adc32530660025f6101000a81548173ffffffffffffffffffffffffffffffffffffffff021916908373ffffffffffffffffffffffffffffffffffffffff1602179055503360035f6101000a81548173ffffffffffffffffffffffffffffffffffffffff021916908373ffffffffffffffffffffffffffffffffffffffff160217905550426004819055508060058190555050610162565b5f5ffd5b5f819050919050565b61011681610104565b8114610120575f5ffd5b50565b5f815190506101318161010d565b92915050565b5f6020828403121561014c5761014b610100565b5b5f61015984828501610123565b91505092915050565b6111c88061016f5f395ff3fe608060405260043610610085575f3560e01c8063bea4dfb511610058578063bea4dfb5146100e7578063c6da75a614610111578063d39cf0061461014d578063da4658e014610175578063f2fde38b1461019f57610085565b8063590e1ae314610089578063648c29101461009f5780638edd6eb6146100c7578063b60d4288146100dd575b5f5ffd5b348015610094575f5ffd5b5061009d6101c7565b005b3480156100aa575f5ffd5b506100c560048036038101906100c09190610a7f565b6103d8565b005b3480156100d2575f5ffd5b506100db6104aa565b005b6100e56106a7565b005b3480156100f2575f5ffd5b506100fb610788565b6040516101089190610ac2565b60405180910390f35b34801561011c575f5ffd5b5061013760048036038101906101329190610a7f565b610825565b6040516101449190610af3565b60405180910390f35b348015610158575f5ffd5b50610173600480360381019061016e9190610b36565b610839565b005b348015610180575f5ffd5b5061018961090d565b6040516101969190610b8e565b60405180910390f35b3480156101aa575f5ffd5b506101c560048036038101906101c09190610a7f565b610920565b005b6005546004546101d79190610bd4565b421015610219576040517f08c379a000000000000000000000000000000000000000000000000000000000815260040161021090610c61565b60405180910390fd5b683635c9adc5dea0000061022c476109f2565b1061026c576040517f08c379a000000000000000000000000000000000000000000000000000000000815260040161026390610cc9565b60405180910390fd5b5f5f5f3373ffffffffffffffffffffffffffffffffffffffff1673ffffffffffffffffffffffffffffffffffffffff1681526020019081526020015f2054036102ea576040517f08c379a00000000000000000000000000000000000000000000000000000000081526004016102e190610d31565b60405180910390fd5b5f3373ffffffffffffffffffffffffffffffffffffffff164760405161030f90610d7c565b5f6040518083038185875af1925050503d805f8114610349576040519150601f19603f3d011682016040523d82523d5f602084013e61034e565b606091505b50508091505080610394576040517f08c379a000000000000000000000000000000000000000000000000000000000815260040161038b90610dda565b60405180910390fd5b5f5f5f3373ffffffffffffffffffffffffffffffffffffffff1673ffffffffffffffffffffffffffffffffffffffff1681526020019081526020015f208190555050565b60035f9054906101000a900473ffffffffffffffffffffffffffffffffffffffff1673ffffffffffffffffffffffffffffffffffffffff163373ffffffffffffffffffffffffffffffffffffffff1614610467576040517f08c379a000000000000000000000000000000000000000000000000000000000815260040161045e90610e42565b60405180910390fd5b8060065f6101000a81548173ffffffffffffffffffffffffffffffffffffffff021916908373ffffffffffffffffffffffffffffffffffffffff16021790555050565b6005546004546104ba9190610bd4565b4210156104fc576040517f08c379a00000000000000000000000000000000000000000000000000000000081526004016104f390610c61565b60405180910390fd5b60035f9054906101000a900473ffffffffffffffffffffffffffffffffffffffff1673ffffffffffffffffffffffffffffffffffffffff163373ffffffffffffffffffffffffffffffffffffffff161461058b576040517f08c379a000000000000000000000000000000000000000000000000000000000815260040161058290610e42565b60405180910390fd5b683635c9adc5dea0000061059e476109f2565b10156105df576040517f08c379a00000000000000000000000000000000000000000000000000000000081526004016105d690610eaa565b60405180910390fd5b5f3373ffffffffffffffffffffffffffffffffffffffff164760405161060490610d7c565b5f6040518083038185875af1925050503d805f811461063e576040519150601f19603f3d011682016040523d82523d5f602084013e610643565b606091505b50508091505080610689576040517f08c379a000000000000000000000000000000000000000000000000000000000815260040161068090610dda565b60405180910390fd5b6001600660146101000a81548160ff02191690831515021790555050565b6001546106b3346109f2565b10156106f4576040517f08c379a00000000000000000000000000000000000000000000000000000000081526004016106eb90610f12565b60405180910390fd5b6005546004546107049190610bd4565b4210610745576040517f08c379a000000000000000000000000000000000000000000000000000000000815260040161073c90610f7a565b60405180910390fd5b345f5f3373ffffffffffffffffffffffffffffffffffffffff1673ffffffffffffffffffffffffffffffffffffffff1681526020019081526020015f2081905550565b5f5f60025f9054906101000a900473ffffffffffffffffffffffffffffffffffffffff1673ffffffffffffffffffffffffffffffffffffffff1663feaf968c6040518163ffffffff1660e01b815260040160a060405180830381865afa1580156107f4573d5f5f3e3d5ffd5b505050506040513d601f19601f820116820180604052508101906108189190611015565b5050509150508091505090565b5f602052805f5260405f205f915090505481565b60065f9054906101000a900473ffffffffffffffffffffffffffffffffffffffff1673ffffffffffffffffffffffffffffffffffffffff163373ffffffffffffffffffffffffffffffffffffffff16146108c8576040517f08c379a00000000000000000000000000000000000000000000000000000000081526004016108bf906110d6565b60405180910390fd5b805f5f8473ffffffffffffffffffffffffffffffffffffffff1673ffffffffffffffffffffffffffffffffffffffff1681526020019081526020015f20819055505050565b600660149054906101000a900460ff1681565b60035f9054906101000a900473ffffffffffffffffffffffffffffffffffffffff1673ffffffffffffffffffffffffffffffffffffffff163373ffffffffffffffffffffffffffffffffffffffff16146109af576040517f08c379a00000000000000000000000000000000000000000000000000000000081526004016109a690610e42565b60405180910390fd5b8060035f6101000a81548173ffffffffffffffffffffffffffffffffffffffff021916908373ffffffffffffffffffffffffffffffffffffffff16021790555050565b5f5f6109fc610788565b90506305f5e1008382610a0f91906110f4565b610a199190611162565b915050919050565b5f5ffd5b5f73ffffffffffffffffffffffffffffffffffffffff82169050919050565b5f610a4e82610a25565b9050919050565b610a5e81610a44565b8114610a68575f5ffd5b50565b5f81359050610a7981610a55565b92915050565b5f60208284031215610a9457610a93610a21565b5b5f610aa184828501610a6b565b91505092915050565b5f819050919050565b610abc81610aaa565b82525050565b5f602082019050610ad55f830184610ab3565b92915050565b5f819050919050565b610aed81610adb565b82525050565b5f602082019050610b065f830184610ae4565b92915050565b610b1581610adb565b8114610b1f575f5ffd5b50565b5f81359050610b3081610b0c565b92915050565b5f5f60408385031215610b4c57610b4b610a21565b5b5f610b5985828601610a6b565b9250506020610b6a85828601610b22565b9150509250929050565b5f8115159050919050565b610b8881610b74565b82525050565b5f602082019050610ba15f830184610b7f565b92915050565b7f4e487b71000000000000000000000000000000000000000000000000000000005f52601160045260245ffd5b5f610bde82610adb565b9150610be983610adb565b9250828201905080821115610c0157610c00610ba7565b5b92915050565b5f82825260208201905092915050565b7f546865206c6f636b20706572696f6420686173206e6f7420656e6465640000005f82015250565b5f610c4b601d83610c07565b9150610c5682610c17565b602082019050919050565b5f6020820190508181035f830152610c7881610c3f565b9050919050565b7f54617267657420686173207265616368656400000000000000000000000000005f82015250565b5f610cb3601283610c07565b9150610cbe82610c7f565b602082019050919050565b5f6020820190508181035f830152610ce081610ca7565b9050919050565b7f596f7520617265206e6f742066756e64657200000000000000000000000000005f82015250565b5f610d1b601283610c07565b9150610d2682610ce7565b602082019050919050565b5f6020820190508181035f830152610d4881610d0f565b9050919050565b5f81905092915050565b50565b5f610d675f83610d4f565b9150610d7282610d59565b5f82019050919050565b5f610d8682610d5c565b9150819050919050565b7f7472616e73666572207478206661696c656400000000000000000000000000005f82015250565b5f610dc4601283610c07565b9150610dcf82610d90565b602082019050919050565b5f6020820190508181035f830152610df181610db8565b9050919050565b7f596f7520617265206e6f7420746865206f776e657200000000000000000000005f82015250565b5f610e2c601583610c07565b9150610e3782610df8565b602082019050919050565b5f6020820190508181035f830152610e5981610e20565b9050919050565b7f546172676574206973206e6f74207265616368656400000000000000000000005f82015250565b5f610e94601583610c07565b9150610e9f82610e60565b602082019050919050565b5f6020820190508181035f830152610ec181610e88565b9050919050565b7f594f552053484f554c442046554e44204d4f52452045544821210000000000005f82015250565b5f610efc601a83610c07565b9150610f0782610ec8565b602082019050919050565b5f6020820190508181035f830152610f2981610ef0565b9050919050565b7f546865206c6f636b20706572696f642068617320656e646564000000000000005f82015250565b5f610f64601983610c07565b9150610f6f82610f30565b602082019050919050565b5f6020820190508181035f830152610f9181610f58565b9050919050565b5f69ffffffffffffffffffff82169050919050565b610fb681610f98565b8114610fc0575f5ffd5b50565b5f81519050610fd181610fad565b92915050565b610fe081610aaa565b8114610fea575f5ffd5b50565b5f81519050610ffb81610fd7565b92915050565b5f8151905061100f81610b0c565b92915050565b5f5f5f5f5f60a0868803121561102e5761102d610a21565b5b5f61103b88828901610fc3565b955050602061104c88828901610fed565b945050604061105d88828901611001565b935050606061106e88828901611001565b925050608061107f88828901610fc3565b9150509295509295909350565b7f596f7520646f206e6f742068617665207065726d697373696f6e0000000000005f82015250565b5f6110c0601a83610c07565b91506110cb8261108c565b602082019050919050565b5f6020820190508181035f8301526110ed816110b4565b9050919050565b5f6110fe82610adb565b915061110983610adb565b925082820261111781610adb565b9150828204841483151761112e5761112d610ba7565b5b5092915050565b7f4e487b71000000000000000000000000000000000000000000000000000000005f52601260045260245ffd5b5f61116c82610adb565b915061117783610adb565b92508261118757611186611135565b5b82820490509291505056fea2646970667358221220903d57a557c74908ff62d3333e6bd5973c233a830ae1ccec3f5d0d4e887de4bc64736f6c634300081e0033",
					"opcodes": "PUSH1 0x80 PUSH1 0x40 MSTORE PUSH9 0x56BC75E2D63100000 PUSH1 0x1 SSTORE PUSH0 PUSH1 0x6 PUSH1 0x14 PUSH2 0x100 EXP DUP2 SLOAD DUP2 PUSH1 0xFF MUL NOT AND SWAP1 DUP4 ISZERO ISZERO MUL OR SWAP1 SSTORE POP CALLVALUE DUP1 ISZERO PUSH2 0x36 JUMPI PUSH0 PUSH0 REVERT JUMPDEST POP PUSH1 0x40 MLOAD PUSH2 0x1337 CODESIZE SUB DUP1 PUSH2 0x1337 DUP4 CODECOPY DUP2 DUP2 ADD PUSH1 0x40 MSTORE DUP2 ADD SWAP1 PUSH2 0x58 SWAP2 SWAP1 PUSH2 0x137 JUMP JUMPDEST PUSH20 0x694AA1769357215DE4FAC081BF1F309ADC325306 PUSH1 0x2 PUSH0 PUSH2 0x100 EXP DUP2 SLOAD DUP2 PUSH20 0xFFFFFFFFFFFFFFFFFFFFFFFFFFFFFFFFFFFFFFFF MUL NOT AND SWAP1 DUP4 PUSH20 0xFFFFFFFFFFFFFFFFFFFFFFFFFFFFFFFFFFFFFFFF AND MUL OR SWAP1 SSTORE POP CALLER PUSH1 0x3 PUSH0 PUSH2 0x100 EXP DUP2 SLOAD DUP2 PUSH20 0xFFFFFFFFFFFFFFFFFFFFFFFFFFFFFFFFFFFFFFFF MUL NOT AND SWAP1 DUP4 PUSH20 0xFFFFFFFFFFFFFFFFFFFFFFFFFFFFFFFFFFFFFFFF AND MUL OR SWAP1 SSTORE POP TIMESTAMP PUSH1 0x4 DUP2 SWAP1 SSTORE POP DUP1 PUSH1 0x5 DUP2 SWAP1 SSTORE POP POP PUSH2 0x162 JUMP JUMPDEST PUSH0 PUSH0 REVERT JUMPDEST PUSH0 DUP2 SWAP1 POP SWAP2 SWAP1 POP JUMP JUMPDEST PUSH2 0x116 DUP2 PUSH2 0x104 JUMP JUMPDEST DUP2 EQ PUSH2 0x120 JUMPI PUSH0 PUSH0 REVERT JUMPDEST POP JUMP JUMPDEST PUSH0 DUP2 MLOAD SWAP1 POP PUSH2 0x131 DUP2 PUSH2 0x10D JUMP JUMPDEST SWAP3 SWAP2 POP POP JUMP JUMPDEST PUSH0 PUSH1 0x20 DUP3 DUP5 SUB SLT ISZERO PUSH2 0x14C JUMPI PUSH2 0x14B PUSH2 0x100 JUMP JUMPDEST JUMPDEST PUSH0 PUSH2 0x159 DUP5 DUP3 DUP6 ADD PUSH2 0x123 JUMP JUMPDEST SWAP2 POP POP SWAP3 SWAP2 POP POP JUMP JUMPDEST PUSH2 0x11C8 DUP1 PUSH2 0x16F PUSH0 CODECOPY PUSH0 RETURN INVALID PUSH1 0x80 PUSH1 0x40 MSTORE PUSH1 0x4 CALLDATASIZE LT PUSH2 0x85 JUMPI PUSH0 CALLDATALOAD PUSH1 0xE0 SHR DUP1 PUSH4 0xBEA4DFB5 GT PUSH2 0x58 JUMPI DUP1 PUSH4 0xBEA4DFB5 EQ PUSH2 0xE7 JUMPI DUP1 PUSH4 0xC6DA75A6 EQ PUSH2 0x111 JUMPI DUP1 PUSH4 0xD39CF006 EQ PUSH2 0x14D JUMPI DUP1 PUSH4 0xDA4658E0 EQ PUSH2 0x175 JUMPI DUP1 PUSH4 0xF2FDE38B EQ PUSH2 0x19F JUMPI PUSH2 0x85 JUMP JUMPDEST DUP1 PUSH4 0x590E1AE3 EQ PUSH2 0x89 JUMPI DUP1 PUSH4 0x648C2910 EQ PUSH2 0x9F JUMPI DUP1 PUSH4 0x8EDD6EB6 EQ PUSH2 0xC7 JUMPI DUP1 PUSH4 0xB60D4288 EQ PUSH2 0xDD JUMPI JUMPDEST PUSH0 PUSH0 REVERT JUMPDEST CALLVALUE DUP1 ISZERO PUSH2 0x94 JUMPI PUSH0 PUSH0 REVERT JUMPDEST POP PUSH2 0x9D PUSH2 0x1C7 JUMP JUMPDEST STOP JUMPDEST CALLVALUE DUP1 ISZERO PUSH2 0xAA JUMPI PUSH0 PUSH0 REVERT JUMPDEST POP PUSH2 0xC5 PUSH1 0x4 DUP1 CALLDATASIZE SUB DUP2 ADD SWAP1 PUSH2 0xC0 SWAP2 SWAP1 PUSH2 0xA7F JUMP JUMPDEST PUSH2 0x3D8 JUMP JUMPDEST STOP JUMPDEST CALLVALUE DUP1 ISZERO PUSH2 0xD2 JUMPI PUSH0 PUSH0 REVERT JUMPDEST POP PUSH2 0xDB PUSH2 0x4AA JUMP JUMPDEST STOP JUMPDEST PUSH2 0xE5 PUSH2 0x6A7 JUMP JUMPDEST STOP JUMPDEST CALLVALUE DUP1 ISZERO PUSH2 0xF2 JUMPI PUSH0 PUSH0 REVERT JUMPDEST POP PUSH2 0xFB PUSH2 0x788 JUMP JUMPDEST PUSH1 0x40 MLOAD PUSH2 0x108 SWAP2 SWAP1 PUSH2 0xAC2 JUMP JUMPDEST PUSH1 0x40 MLOAD DUP1 SWAP2 SUB SWAP1 RETURN JUMPDEST CALLVALUE DUP1 ISZERO PUSH2 0x11C JUMPI PUSH0 PUSH0 REVERT JUMPDEST POP PUSH2 0x137 PUSH1 0x4 DUP1 CALLDATASIZE SUB DUP2 ADD SWAP1 PUSH2 0x132 SWAP2 SWAP1 PUSH2 0xA7F JUMP JUMPDEST PUSH2 0x825 JUMP JUMPDEST PUSH1 0x40 MLOAD PUSH2 0x144 SWAP2 SWAP1 PUSH2 0xAF3 JUMP JUMPDEST PUSH1 0x40 MLOAD DUP1 SWAP2 SUB SWAP1 RETURN JUMPDEST CALLVALUE DUP1 ISZERO PUSH2 0x158 JUMPI PUSH0 PUSH0 REVERT JUMPDEST POP PUSH2 0x173 PUSH1 0x4 DUP1 CALLDATASIZE SUB DUP2 ADD SWAP1 PUSH2 0x16E SWAP2 SWAP1 PUSH2 0xB36 JUMP JUMPDEST PUSH2 0x839 JUMP JUMPDEST STOP JUMPDEST CALLVALUE DUP1 ISZERO PUSH2 0x180 JUMPI PUSH0 PUSH0 REVERT JUMPDEST POP PUSH2 0x189 PUSH2 0x90D JUMP JUMPDEST PUSH1 0x40 MLOAD PUSH2 0x196 SWAP2 SWAP1 PUSH2 0xB8E JUMP JUMPDEST PUSH1 0x40 MLOAD DUP1 SWAP2 SUB SWAP1 RETURN JUMPDEST CALLVALUE DUP1 ISZERO PUSH2 0x1AA JUMPI PUSH0 PUSH0 REVERT JUMPDEST POP PUSH2 0x1C5 PUSH1 0x4 DUP1 CALLDATASIZE SUB DUP2 ADD SWAP1 PUSH2 0x1C0 SWAP2 SWAP1 PUSH2 0xA7F JUMP JUMPDEST PUSH2 0x920 JUMP JUMPDEST STOP JUMPDEST PUSH1 0x5 SLOAD PUSH1 0x4 SLOAD PUSH2 0x1D7 SWAP2 SWAP1 PUSH2 0xBD4 JUMP JUMPDEST TIMESTAMP LT ISZERO PUSH2 0x219 JUMPI PUSH1 0x40 MLOAD PUSH32 0x8C379A000000000000000000000000000000000000000000000000000000000 DUP2 MSTORE PUSH1 0x4 ADD PUSH2 0x210 SWAP1 PUSH2 0xC61 JUMP JUMPDEST PUSH1 0x40 MLOAD DUP1 SWAP2 SUB SWAP1 REVERT JUMPDEST PUSH9 0x3635C9ADC5DEA00000 PUSH2 0x22C SELFBALANCE PUSH2 0x9F2 JUMP JUMPDEST LT PUSH2 0x26C JUMPI PUSH1 0x40 MLOAD PUSH32 0x8C379A000000000000000000000000000000000000000000000000000000000 DUP2 MSTORE PUSH1 0x4 ADD PUSH2 0x263 SWAP1 PUSH2 0xCC9 JUMP JUMPDEST PUSH1 0x40 MLOAD DUP1 SWAP2 SUB SWAP1 REVERT JUMPDEST PUSH0 PUSH0 PUSH0 CALLER PUSH20 0xFFFFFFFFFFFFFFFFFFFFFFFFFFFFFFFFFFFFFFFF AND PUSH20 0xFFFFFFFFFFFFFFFFFFFFFFFFFFFFFFFFFFFFFFFF AND DUP2 MSTORE PUSH1 0x20 ADD SWAP1 DUP2 MSTORE PUSH1 0x20 ADD PUSH0 KECCAK256 SLOAD SUB PUSH2 0x2EA JUMPI PUSH1 0x40 MLOAD PUSH32 0x8C379A000000000000000000000000000000000000000000000000000000000 DUP2 MSTORE PUSH1 0x4 ADD PUSH2 0x2E1 SWAP1 PUSH2 0xD31 JUMP JUMPDEST PUSH1 0x40 MLOAD DUP1 SWAP2 SUB SWAP1 REVERT JUMPDEST PUSH0 CALLER PUSH20 0xFFFFFFFFFFFFFFFFFFFFFFFFFFFFFFFFFFFFFFFF AND SELFBALANCE PUSH1 0x40 MLOAD PUSH2 0x30F SWAP1 PUSH2 0xD7C JUMP JUMPDEST PUSH0 PUSH1 0x40 MLOAD DUP1 DUP4 SUB DUP2 DUP6 DUP8 GAS CALL SWAP3 POP POP POP RETURNDATASIZE DUP1 PUSH0 DUP2 EQ PUSH2 0x349 JUMPI PUSH1 0x40 MLOAD SWAP2 POP PUSH1 0x1F NOT PUSH1 0x3F RETURNDATASIZE ADD AND DUP3 ADD PUSH1 0x40 MSTORE RETURNDATASIZE DUP3 MSTORE RETURNDATASIZE PUSH0 PUSH1 0x20 DUP5 ADD RETURNDATACOPY PUSH2 0x34E JUMP JUMPDEST PUSH1 0x60 SWAP2 POP JUMPDEST POP POP DUP1 SWAP2 POP POP DUP1 PUSH2 0x394 JUMPI PUSH1 0x40 MLOAD PUSH32 0x8C379A000000000000000000000000000000000000000000000000000000000 DUP2 MSTORE PUSH1 0x4 ADD PUSH2 0x38B SWAP1 PUSH2 0xDDA JUMP JUMPDEST PUSH1 0x40 MLOAD DUP1 SWAP2 SUB SWAP1 REVERT JUMPDEST PUSH0 PUSH0 PUSH0 CALLER PUSH20 0xFFFFFFFFFFFFFFFFFFFFFFFFFFFFFFFFFFFFFFFF AND PUSH20 0xFFFFFFFFFFFFFFFFFFFFFFFFFFFFFFFFFFFFFFFF AND DUP2 MSTORE PUSH1 0x20 ADD SWAP1 DUP2 MSTORE PUSH1 0x20 ADD PUSH0 KECCAK256 DUP2 SWAP1 SSTORE POP POP JUMP JUMPDEST PUSH1 0x3 PUSH0 SWAP1 SLOAD SWAP1 PUSH2 0x100 EXP SWAP1 DIV PUSH20 0xFFFFFFFFFFFFFFFFFFFFFFFFFFFFFFFFFFFFFFFF AND PUSH20 0xFFFFFFFFFFFFFFFFFFFFFFFFFFFFFFFFFFFFFFFF AND CALLER PUSH20 0xFFFFFFFFFFFFFFFFFFFFFFFFFFFFFFFFFFFFFFFF AND EQ PUSH2 0x467 JUMPI PUSH1 0x40 MLOAD PUSH32 0x8C379A000000000000000000000000000000000000000000000000000000000 DUP2 MSTORE PUSH1 0x4 ADD PUSH2 0x45E SWAP1 PUSH2 0xE42 JUMP JUMPDEST PUSH1 0x40 MLOAD DUP1 SWAP2 SUB SWAP1 REVERT JUMPDEST DUP1 PUSH1 0x6 PUSH0 PUSH2 0x100 EXP DUP2 SLOAD DUP2 PUSH20 0xFFFFFFFFFFFFFFFFFFFFFFFFFFFFFFFFFFFFFFFF MUL NOT AND SWAP1 DUP4 PUSH20 0xFFFFFFFFFFFFFFFFFFFFFFFFFFFFFFFFFFFFFFFF AND MUL OR SWAP1 SSTORE POP POP JUMP JUMPDEST PUSH1 0x5 SLOAD PUSH1 0x4 SLOAD PUSH2 0x4BA SWAP2 SWAP1 PUSH2 0xBD4 JUMP JUMPDEST TIMESTAMP LT ISZERO PUSH2 0x4FC JUMPI PUSH1 0x40 MLOAD PUSH32 0x8C379A000000000000000000000000000000000000000000000000000000000 DUP2 MSTORE PUSH1 0x4 ADD PUSH2 0x4F3 SWAP1 PUSH2 0xC61 JUMP JUMPDEST PUSH1 0x40 MLOAD DUP1 SWAP2 SUB SWAP1 REVERT JUMPDEST PUSH1 0x3 PUSH0 SWAP1 SLOAD SWAP1 PUSH2 0x100 EXP SWAP1 DIV PUSH20 0xFFFFFFFFFFFFFFFFFFFFFFFFFFFFFFFFFFFFFFFF AND PUSH20 0xFFFFFFFFFFFFFFFFFFFFFFFFFFFFFFFFFFFFFFFF AND CALLER PUSH20 0xFFFFFFFFFFFFFFFFFFFFFFFFFFFFFFFFFFFFFFFF AND EQ PUSH2 0x58B JUMPI PUSH1 0x40 MLOAD PUSH32 0x8C379A000000000000000000000000000000000000000000000000000000000 DUP2 MSTORE PUSH1 0x4 ADD PUSH2 0x582 SWAP1 PUSH2 0xE42 JUMP JUMPDEST PUSH1 0x40 MLOAD DUP1 SWAP2 SUB SWAP1 REVERT JUMPDEST PUSH9 0x3635C9ADC5DEA00000 PUSH2 0x59E SELFBALANCE PUSH2 0x9F2 JUMP JUMPDEST LT ISZERO PUSH2 0x5DF JUMPI PUSH1 0x40 MLOAD PUSH32 0x8C379A000000000000000000000000000000000000000000000000000000000 DUP2 MSTORE PUSH1 0x4 ADD PUSH2 0x5D6 SWAP1 PUSH2 0xEAA JUMP JUMPDEST PUSH1 0x40 MLOAD DUP1 SWAP2 SUB SWAP1 REVERT JUMPDEST PUSH0 CALLER PUSH20 0xFFFFFFFFFFFFFFFFFFFFFFFFFFFFFFFFFFFFFFFF AND SELFBALANCE PUSH1 0x40 MLOAD PUSH2 0x604 SWAP1 PUSH2 0xD7C JUMP JUMPDEST PUSH0 PUSH1 0x40 MLOAD DUP1 DUP4 SUB DUP2 DUP6 DUP8 GAS CALL SWAP3 POP POP POP RETURNDATASIZE DUP1 PUSH0 DUP2 EQ PUSH2 0x63E JUMPI PUSH1 0x40 MLOAD SWAP2 POP PUSH1 0x1F NOT PUSH1 0x3F RETURNDATASIZE ADD AND DUP3 ADD PUSH1 0x40 MSTORE RETURNDATASIZE DUP3 MSTORE RETURNDATASIZE PUSH0 PUSH1 0x20 DUP5 ADD RETURNDATACOPY PUSH2 0x643 JUMP JUMPDEST PUSH1 0x60 SWAP2 POP JUMPDEST POP POP DUP1 SWAP2 POP POP DUP1 PUSH2 0x689 JUMPI PUSH1 0x40 MLOAD PUSH32 0x8C379A000000000000000000000000000000000000000000000000000000000 DUP2 MSTORE PUSH1 0x4 ADD PUSH2 0x680 SWAP1 PUSH2 0xDDA JUMP JUMPDEST PUSH1 0x40 MLOAD DUP1 SWAP2 SUB SWAP1 REVERT JUMPDEST PUSH1 0x1 PUSH1 0x6 PUSH1 0x14 PUSH2 0x100 EXP DUP2 SLOAD DUP2 PUSH1 0xFF MUL NOT AND SWAP1 DUP4 ISZERO ISZERO MUL OR SWAP1 SSTORE POP POP JUMP JUMPDEST PUSH1 0x1 SLOAD PUSH2 0x6B3 CALLVALUE PUSH2 0x9F2 JUMP JUMPDEST LT ISZERO PUSH2 0x6F4 JUMPI PUSH1 0x40 MLOAD PUSH32 0x8C379A000000000000000000000000000000000000000000000000000000000 DUP2 MSTORE PUSH1 0x4 ADD PUSH2 0x6EB SWAP1 PUSH2 0xF12 JUMP JUMPDEST PUSH1 0x40 MLOAD DUP1 SWAP2 SUB SWAP1 REVERT JUMPDEST PUSH1 0x5 SLOAD PUSH1 0x4 SLOAD PUSH2 0x704 SWAP2 SWAP1 PUSH2 0xBD4 JUMP JUMPDEST TIMESTAMP LT PUSH2 0x745 JUMPI PUSH1 0x40 MLOAD PUSH32 0x8C379A000000000000000000000000000000000000000000000000000000000 DUP2 MSTORE PUSH1 0x4 ADD PUSH2 0x73C SWAP1 PUSH2 0xF7A JUMP JUMPDEST PUSH1 0x40 MLOAD DUP1 SWAP2 SUB SWAP1 REVERT JUMPDEST CALLVALUE PUSH0 PUSH0 CALLER PUSH20 0xFFFFFFFFFFFFFFFFFFFFFFFFFFFFFFFFFFFFFFFF AND PUSH20 0xFFFFFFFFFFFFFFFFFFFFFFFFFFFFFFFFFFFFFFFF AND DUP2 MSTORE PUSH1 0x20 ADD SWAP1 DUP2 MSTORE PUSH1 0x20 ADD PUSH0 KECCAK256 DUP2 SWAP1 SSTORE POP JUMP JUMPDEST PUSH0 PUSH0 PUSH1 0x2 PUSH0 SWAP1 SLOAD SWAP1 PUSH2 0x100 EXP SWAP1 DIV PUSH20 0xFFFFFFFFFFFFFFFFFFFFFFFFFFFFFFFFFFFFFFFF AND PUSH20 0xFFFFFFFFFFFFFFFFFFFFFFFFFFFFFFFFFFFFFFFF AND PUSH4 0xFEAF968C PUSH1 0x40 MLOAD DUP2 PUSH4 0xFFFFFFFF AND PUSH1 0xE0 SHL DUP2 MSTORE PUSH1 0x4 ADD PUSH1 0xA0 PUSH1 0x40 MLOAD DUP1 DUP4 SUB DUP2 DUP7 GAS STATICCALL ISZERO DUP1 ISZERO PUSH2 0x7F4 JUMPI RETURNDATASIZE PUSH0 PUSH0 RETURNDATACOPY RETURNDATASIZE PUSH0 REVERT JUMPDEST POP POP POP POP PUSH1 0x40 MLOAD RETURNDATASIZE PUSH1 0x1F NOT PUSH1 0x1F DUP3 ADD AND DUP3 ADD DUP1 PUSH1 0x40 MSTORE POP DUP2 ADD SWAP1 PUSH2 0x818 SWAP2 SWAP1 PUSH2 0x1015 JUMP JUMPDEST POP POP POP SWAP2 POP POP DUP1 SWAP2 POP POP SWAP1 JUMP JUMPDEST PUSH0 PUSH1 0x20 MSTORE DUP1 PUSH0 MSTORE PUSH1 0x40 PUSH0 KECCAK256 PUSH0 SWAP2 POP SWAP1 POP SLOAD DUP2 JUMP JUMPDEST PUSH1 0x6 PUSH0 SWAP1 SLOAD SWAP1 PUSH2 0x100 EXP SWAP1 DIV PUSH20 0xFFFFFFFFFFFFFFFFFFFFFFFFFFFFFFFFFFFFFFFF AND PUSH20 0xFFFFFFFFFFFFFFFFFFFFFFFFFFFFFFFFFFFFFFFF AND CALLER PUSH20 0xFFFFFFFFFFFFFFFFFFFFFFFFFFFFFFFFFFFFFFFF AND EQ PUSH2 0x8C8 JUMPI PUSH1 0x40 MLOAD PUSH32 0x8C379A000000000000000000000000000000000000000000000000000000000 DUP2 MSTORE PUSH1 0x4 ADD PUSH2 0x8BF SWAP1 PUSH2 0x10D6 JUMP JUMPDEST PUSH1 0x40 MLOAD DUP1 SWAP2 SUB SWAP1 REVERT JUMPDEST DUP1 PUSH0 PUSH0 DUP5 PUSH20 0xFFFFFFFFFFFFFFFFFFFFFFFFFFFFFFFFFFFFFFFF AND PUSH20 0xFFFFFFFFFFFFFFFFFFFFFFFFFFFFFFFFFFFFFFFF AND DUP2 MSTORE PUSH1 0x20 ADD SWAP1 DUP2 MSTORE PUSH1 0x20 ADD PUSH0 KECCAK256 DUP2 SWAP1 SSTORE POP POP POP JUMP JUMPDEST PUSH1 0x6 PUSH1 0x14 SWAP1 SLOAD SWAP1 PUSH2 0x100 EXP SWAP1 DIV PUSH1 0xFF AND DUP2 JUMP JUMPDEST PUSH1 0x3 PUSH0 SWAP1 SLOAD SWAP1 PUSH2 0x100 EXP SWAP1 DIV PUSH20 0xFFFFFFFFFFFFFFFFFFFFFFFFFFFFFFFFFFFFFFFF AND PUSH20 0xFFFFFFFFFFFFFFFFFFFFFFFFFFFFFFFFFFFFFFFF AND CALLER PUSH20 0xFFFFFFFFFFFFFFFFFFFFFFFFFFFFFFFFFFFFFFFF AND EQ PUSH2 0x9AF JUMPI PUSH1 0x40 MLOAD PUSH32 0x8C379A000000000000000000000000000000000000000000000000000000000 DUP2 MSTORE PUSH1 0x4 ADD PUSH2 0x9A6 SWAP1 PUSH2 0xE42 JUMP JUMPDEST PUSH1 0x40 MLOAD DUP1 SWAP2 SUB SWAP1 REVERT JUMPDEST DUP1 PUSH1 0x3 PUSH0 PUSH2 0x100 EXP DUP2 SLOAD DUP2 PUSH20 0xFFFFFFFFFFFFFFFFFFFFFFFFFFFFFFFFFFFFFFFF MUL NOT AND SWAP1 DUP4 PUSH20 0xFFFFFFFFFFFFFFFFFFFFFFFFFFFFFFFFFFFFFFFF AND MUL OR SWAP1 SSTORE POP POP JUMP JUMPDEST PUSH0 PUSH0 PUSH2 0x9FC PUSH2 0x788 JUMP JUMPDEST SWAP1 POP PUSH4 0x5F5E100 DUP4 DUP3 PUSH2 0xA0F SWAP2 SWAP1 PUSH2 0x10F4 JUMP JUMPDEST PUSH2 0xA19 SWAP2 SWAP1 PUSH2 0x1162 JUMP JUMPDEST SWAP2 POP POP SWAP2 SWAP1 POP JUMP JUMPDEST PUSH0 PUSH0 REVERT JUMPDEST PUSH0 PUSH20 0xFFFFFFFFFFFFFFFFFFFFFFFFFFFFFFFFFFFFFFFF DUP3 AND SWAP1 POP SWAP2 SWAP1 POP JUMP JUMPDEST PUSH0 PUSH2 0xA4E DUP3 PUSH2 0xA25 JUMP JUMPDEST SWAP1 POP SWAP2 SWAP1 POP JUMP JUMPDEST PUSH2 0xA5E DUP2 PUSH2 0xA44 JUMP JUMPDEST DUP2 EQ PUSH2 0xA68 JUMPI PUSH0 PUSH0 REVERT JUMPDEST POP JUMP JUMPDEST PUSH0 DUP2 CALLDATALOAD SWAP1 POP PUSH2 0xA79 DUP2 PUSH2 0xA55 JUMP JUMPDEST SWAP3 SWAP2 POP POP JUMP JUMPDEST PUSH0 PUSH1 0x20 DUP3 DUP5 SUB SLT ISZERO PUSH2 0xA94 JUMPI PUSH2 0xA93 PUSH2 0xA21 JUMP JUMPDEST JUMPDEST PUSH0 PUSH2 0xAA1 DUP5 DUP3 DUP6 ADD PUSH2 0xA6B JUMP JUMPDEST SWAP2 POP POP SWAP3 SWAP2 POP POP JUMP JUMPDEST PUSH0 DUP2 SWAP1 POP SWAP2 SWAP1 POP JUMP JUMPDEST PUSH2 0xABC DUP2 PUSH2 0xAAA JUMP JUMPDEST DUP3 MSTORE POP POP JUMP JUMPDEST PUSH0 PUSH1 0x20 DUP3 ADD SWAP1 POP PUSH2 0xAD5 PUSH0 DUP4 ADD DUP5 PUSH2 0xAB3 JUMP JUMPDEST SWAP3 SWAP2 POP POP JUMP JUMPDEST PUSH0 DUP2 SWAP1 POP SWAP2 SWAP1 POP JUMP JUMPDEST PUSH2 0xAED DUP2 PUSH2 0xADB JUMP JUMPDEST DUP3 MSTORE POP POP JUMP JUMPDEST PUSH0 PUSH1 0x20 DUP3 ADD SWAP1 POP PUSH2 0xB06 PUSH0 DUP4 ADD DUP5 PUSH2 0xAE4 JUMP JUMPDEST SWAP3 SWAP2 POP POP JUMP JUMPDEST PUSH2 0xB15 DUP2 PUSH2 0xADB JUMP JUMPDEST DUP2 EQ PUSH2 0xB1F JUMPI PUSH0 PUSH0 REVERT JUMPDEST POP JUMP JUMPDEST PUSH0 DUP2 CALLDATALOAD SWAP1 POP PUSH2 0xB30 DUP2 PUSH2 0xB0C JUMP JUMPDEST SWAP3 SWAP2 POP POP JUMP JUMPDEST PUSH0 PUSH0 PUSH1 0x40 DUP4 DUP6 SUB SLT ISZERO PUSH2 0xB4C JUMPI PUSH2 0xB4B PUSH2 0xA21 JUMP JUMPDEST JUMPDEST PUSH0 PUSH2 0xB59 DUP6 DUP3 DUP7 ADD PUSH2 0xA6B JUMP JUMPDEST SWAP3 POP POP PUSH1 0x20 PUSH2 0xB6A DUP6 DUP3 DUP7 ADD PUSH2 0xB22 JUMP JUMPDEST SWAP2 POP POP SWAP3 POP SWAP3 SWAP1 POP JUMP JUMPDEST PUSH0 DUP2 ISZERO ISZERO SWAP1 POP SWAP2 SWAP1 POP JUMP JUMPDEST PUSH2 0xB88 DUP2 PUSH2 0xB74 JUMP JUMPDEST DUP3 MSTORE POP POP JUMP JUMPDEST PUSH0 PUSH1 0x20 DUP3 ADD SWAP1 POP PUSH2 0xBA1 PUSH0 DUP4 ADD DUP5 PUSH2 0xB7F JUMP JUMPDEST SWAP3 SWAP2 POP POP JUMP JUMPDEST PUSH32 0x4E487B7100000000000000000000000000000000000000000000000000000000 PUSH0 MSTORE PUSH1 0x11 PUSH1 0x4 MSTORE PUSH1 0x24 PUSH0 REVERT JUMPDEST PUSH0 PUSH2 0xBDE DUP3 PUSH2 0xADB JUMP JUMPDEST SWAP2 POP PUSH2 0xBE9 DUP4 PUSH2 0xADB JUMP JUMPDEST SWAP3 POP DUP3 DUP3 ADD SWAP1 POP DUP1 DUP3 GT ISZERO PUSH2 0xC01 JUMPI PUSH2 0xC00 PUSH2 0xBA7 JUMP JUMPDEST JUMPDEST SWAP3 SWAP2 POP POP JUMP JUMPDEST PUSH0 DUP3 DUP3 MSTORE PUSH1 0x20 DUP3 ADD SWAP1 POP SWAP3 SWAP2 POP POP JUMP JUMPDEST PUSH32 0x546865206C6F636B20706572696F6420686173206E6F7420656E646564000000 PUSH0 DUP3 ADD MSTORE POP JUMP JUMPDEST PUSH0 PUSH2 0xC4B PUSH1 0x1D DUP4 PUSH2 0xC07 JUMP JUMPDEST SWAP2 POP PUSH2 0xC56 DUP3 PUSH2 0xC17 JUMP JUMPDEST PUSH1 0x20 DUP3 ADD SWAP1 POP SWAP2 SWAP1 POP JUMP JUMPDEST PUSH0 PUSH1 0x20 DUP3 ADD SWAP1 POP DUP2 DUP2 SUB PUSH0 DUP4 ADD MSTORE PUSH2 0xC78 DUP2 PUSH2 0xC3F JUMP JUMPDEST SWAP1 POP SWAP2 SWAP1 POP JUMP JUMPDEST PUSH32 0x5461726765742068617320726561636865640000000000000000000000000000 PUSH0 DUP3 ADD MSTORE POP JUMP JUMPDEST PUSH0 PUSH2 0xCB3 PUSH1 0x12 DUP4 PUSH2 0xC07 JUMP JUMPDEST SWAP2 POP PUSH2 0xCBE DUP3 PUSH2 0xC7F JUMP JUMPDEST PUSH1 0x20 DUP3 ADD SWAP1 POP SWAP2 SWAP1 POP JUMP JUMPDEST PUSH0 PUSH1 0x20 DUP3 ADD SWAP1 POP DUP2 DUP2 SUB PUSH0 DUP4 ADD MSTORE PUSH2 0xCE0 DUP2 PUSH2 0xCA7 JUMP JUMPDEST SWAP1 POP SWAP2 SWAP1 POP JUMP JUMPDEST PUSH32 0x596F7520617265206E6F742066756E6465720000000000000000000000000000 PUSH0 DUP3 ADD MSTORE POP JUMP JUMPDEST PUSH0 PUSH2 0xD1B PUSH1 0x12 DUP4 PUSH2 0xC07 JUMP JUMPDEST SWAP2 POP PUSH2 0xD26 DUP3 PUSH2 0xCE7 JUMP JUMPDEST PUSH1 0x20 DUP3 ADD SWAP1 POP SWAP2 SWAP1 POP JUMP JUMPDEST PUSH0 PUSH1 0x20 DUP3 ADD SWAP1 POP DUP2 DUP2 SUB PUSH0 DUP4 ADD MSTORE PUSH2 0xD48 DUP2 PUSH2 0xD0F JUMP JUMPDEST SWAP1 POP SWAP2 SWAP1 POP JUMP JUMPDEST PUSH0 DUP2 SWAP1 POP SWAP3 SWAP2 POP POP JUMP JUMPDEST POP JUMP JUMPDEST PUSH0 PUSH2 0xD67 PUSH0 DUP4 PUSH2 0xD4F JUMP JUMPDEST SWAP2 POP PUSH2 0xD72 DUP3 PUSH2 0xD59 JUMP JUMPDEST PUSH0 DUP3 ADD SWAP1 POP SWAP2 SWAP1 POP JUMP JUMPDEST PUSH0 PUSH2 0xD86 DUP3 PUSH2 0xD5C JUMP JUMPDEST SWAP2 POP DUP2 SWAP1 POP SWAP2 SWAP1 POP JUMP JUMPDEST PUSH32 0x7472616E73666572207478206661696C65640000000000000000000000000000 PUSH0 DUP3 ADD MSTORE POP JUMP JUMPDEST PUSH0 PUSH2 0xDC4 PUSH1 0x12 DUP4 PUSH2 0xC07 JUMP JUMPDEST SWAP2 POP PUSH2 0xDCF DUP3 PUSH2 0xD90 JUMP JUMPDEST PUSH1 0x20 DUP3 ADD SWAP1 POP SWAP2 SWAP1 POP JUMP JUMPDEST PUSH0 PUSH1 0x20 DUP3 ADD SWAP1 POP DUP2 DUP2 SUB PUSH0 DUP4 ADD MSTORE PUSH2 0xDF1 DUP2 PUSH2 0xDB8 JUMP JUMPDEST SWAP1 POP SWAP2 SWAP1 POP JUMP JUMPDEST PUSH32 0x596F7520617265206E6F7420746865206F776E65720000000000000000000000 PUSH0 DUP3 ADD MSTORE POP JUMP JUMPDEST PUSH0 PUSH2 0xE2C PUSH1 0x15 DUP4 PUSH2 0xC07 JUMP JUMPDEST SWAP2 POP PUSH2 0xE37 DUP3 PUSH2 0xDF8 JUMP JUMPDEST PUSH1 0x20 DUP3 ADD SWAP1 POP SWAP2 SWAP1 POP JUMP JUMPDEST PUSH0 PUSH1 0x20 DUP3 ADD SWAP1 POP DUP2 DUP2 SUB PUSH0 DUP4 ADD MSTORE PUSH2 0xE59 DUP2 PUSH2 0xE20 JUMP JUMPDEST SWAP1 POP SWAP2 SWAP1 POP JUMP JUMPDEST PUSH32 0x546172676574206973206E6F7420726561636865640000000000000000000000 PUSH0 DUP3 ADD MSTORE POP JUMP JUMPDEST PUSH0 PUSH2 0xE94 PUSH1 0x15 DUP4 PUSH2 0xC07 JUMP JUMPDEST SWAP2 POP PUSH2 0xE9F DUP3 PUSH2 0xE60 JUMP JUMPDEST PUSH1 0x20 DUP3 ADD SWAP1 POP SWAP2 SWAP1 POP JUMP JUMPDEST PUSH0 PUSH1 0x20 DUP3 ADD SWAP1 POP DUP2 DUP2 SUB PUSH0 DUP4 ADD MSTORE PUSH2 0xEC1 DUP2 PUSH2 0xE88 JUMP JUMPDEST SWAP1 POP SWAP2 SWAP1 POP JUMP JUMPDEST PUSH32 0x594F552053484F554C442046554E44204D4F5245204554482121000000000000 PUSH0 DUP3 ADD MSTORE POP JUMP JUMPDEST PUSH0 PUSH2 0xEFC PUSH1 0x1A DUP4 PUSH2 0xC07 JUMP JUMPDEST SWAP2 POP PUSH2 0xF07 DUP3 PUSH2 0xEC8 JUMP JUMPDEST PUSH1 0x20 DUP3 ADD SWAP1 POP SWAP2 SWAP1 POP JUMP JUMPDEST PUSH0 PUSH1 0x20 DUP3 ADD SWAP1 POP DUP2 DUP2 SUB PUSH0 DUP4 ADD MSTORE PUSH2 0xF29 DUP2 PUSH2 0xEF0 JUMP JUMPDEST SWAP1 POP SWAP2 SWAP1 POP JUMP JUMPDEST PUSH32 0x546865206C6F636B20706572696F642068617320656E64656400000000000000 PUSH0 DUP3 ADD MSTORE POP JUMP JUMPDEST PUSH0 PUSH2 0xF64 PUSH1 0x19 DUP4 PUSH2 0xC07 JUMP JUMPDEST SWAP2 POP PUSH2 0xF6F DUP3 PUSH2 0xF30 JUMP JUMPDEST PUSH1 0x20 DUP3 ADD SWAP1 POP SWAP2 SWAP1 POP JUMP JUMPDEST PUSH0 PUSH1 0x20 DUP3 ADD SWAP1 POP DUP2 DUP2 SUB PUSH0 DUP4 ADD MSTORE PUSH2 0xF91 DUP2 PUSH2 0xF58 JUMP JUMPDEST SWAP1 POP SWAP2 SWAP1 POP JUMP JUMPDEST PUSH0 PUSH10 0xFFFFFFFFFFFFFFFFFFFF DUP3 AND SWAP1 POP SWAP2 SWAP1 POP JUMP JUMPDEST PUSH2 0xFB6 DUP2 PUSH2 0xF98 JUMP JUMPDEST DUP2 EQ PUSH2 0xFC0 JUMPI PUSH0 PUSH0 REVERT JUMPDEST POP JUMP JUMPDEST PUSH0 DUP2 MLOAD SWAP1 POP PUSH2 0xFD1 DUP2 PUSH2 0xFAD JUMP JUMPDEST SWAP3 SWAP2 POP POP JUMP JUMPDEST PUSH2 0xFE0 DUP2 PUSH2 0xAAA JUMP JUMPDEST DUP2 EQ PUSH2 0xFEA JUMPI PUSH0 PUSH0 REVERT JUMPDEST POP JUMP JUMPDEST PUSH0 DUP2 MLOAD SWAP1 POP PUSH2 0xFFB DUP2 PUSH2 0xFD7 JUMP JUMPDEST SWAP3 SWAP2 POP POP JUMP JUMPDEST PUSH0 DUP2 MLOAD SWAP1 POP PUSH2 0x100F DUP2 PUSH2 0xB0C JUMP JUMPDEST SWAP3 SWAP2 POP POP JUMP JUMPDEST PUSH0 PUSH0 PUSH0 PUSH0 PUSH0 PUSH1 0xA0 DUP7 DUP9 SUB SLT ISZERO PUSH2 0x102E JUMPI PUSH2 0x102D PUSH2 0xA21 JUMP JUMPDEST JUMPDEST PUSH0 PUSH2 0x103B DUP9 DUP3 DUP10 ADD PUSH2 0xFC3 JUMP JUMPDEST SWAP6 POP POP PUSH1 0x20 PUSH2 0x104C DUP9 DUP3 DUP10 ADD PUSH2 0xFED JUMP JUMPDEST SWAP5 POP POP PUSH1 0x40 PUSH2 0x105D DUP9 DUP3 DUP10 ADD PUSH2 0x1001 JUMP JUMPDEST SWAP4 POP POP PUSH1 0x60 PUSH2 0x106E DUP9 DUP3 DUP10 ADD PUSH2 0x1001 JUMP JUMPDEST SWAP3 POP POP PUSH1 0x80 PUSH2 0x107F DUP9 DUP3 DUP10 ADD PUSH2 0xFC3 JUMP JUMPDEST SWAP2 POP POP SWAP3 SWAP6 POP SWAP3 SWAP6 SWAP1 SWAP4 POP JUMP JUMPDEST PUSH32 0x596F7520646F206E6F742068617665207065726D697373696F6E000000000000 PUSH0 DUP3 ADD MSTORE POP JUMP JUMPDEST PUSH0 PUSH2 0x10C0 PUSH1 0x1A DUP4 PUSH2 0xC07 JUMP JUMPDEST SWAP2 POP PUSH2 0x10CB DUP3 PUSH2 0x108C JUMP JUMPDEST PUSH1 0x20 DUP3 ADD SWAP1 POP SWAP2 SWAP1 POP JUMP JUMPDEST PUSH0 PUSH1 0x20 DUP3 ADD SWAP1 POP DUP2 DUP2 SUB PUSH0 DUP4 ADD MSTORE PUSH2 0x10ED DUP2 PUSH2 0x10B4 JUMP JUMPDEST SWAP1 POP SWAP2 SWAP1 POP JUMP JUMPDEST PUSH0 PUSH2 0x10FE DUP3 PUSH2 0xADB JUMP JUMPDEST SWAP2 POP PUSH2 0x1109 DUP4 PUSH2 0xADB JUMP JUMPDEST SWAP3 POP DUP3 DUP3 MUL PUSH2 0x1117 DUP2 PUSH2 0xADB JUMP JUMPDEST SWAP2 POP DUP3 DUP3 DIV DUP5 EQ DUP4 ISZERO OR PUSH2 0x112E JUMPI PUSH2 0x112D PUSH2 0xBA7 JUMP JUMPDEST JUMPDEST POP SWAP3 SWAP2 POP POP JUMP JUMPDEST PUSH32 0x4E487B7100000000000000000000000000000000000000000000000000000000 PUSH0 MSTORE PUSH1 0x12 PUSH1 0x4 MSTORE PUSH1 0x24 PUSH0 REVERT JUMPDEST PUSH0 PUSH2 0x116C DUP3 PUSH2 0xADB JUMP JUMPDEST SWAP2 POP PUSH2 0x1177 DUP4 PUSH2 0xADB JUMP JUMPDEST SWAP3 POP DUP3 PUSH2 0x1187 JUMPI PUSH2 0x1186 PUSH2 0x1135 JUMP JUMPDEST JUMPDEST DUP3 DUP3 DIV SWAP1 POP SWAP3 SWAP2 POP POP JUMP INVALID LOG2 PUSH5 0x6970667358 0x22 SLT KECCAK256 SWAP1 RETURNDATASIZE JUMPI 0xA5 JUMPI 0xC7 BLOBHASH ADDMOD SELFDESTRUCT PUSH3 0xD3333E PUSH12 0xD5973C233A830AE1CCEC3F5D 0xD 0x4E DUP9 PUSH30 0xE4BC64736F6C634300081E00330000000000000000000000000000000000 "
				},
				"gasEstimates": {
					"creation": {
						"codeDepositCost": "910400",
						"executionCost": "infinite",
						"totalCost": "infinite"
					},
					"external": {
						"fund()": "infinite",
						"fundersToAccount(address)": "2823",
						"getChainlinkDataFeedLatestAnswer()": "infinite",
						"getFund()": "infinite",
						"getFundSuccess()": "2583",
						"refund()": "infinite",
						"setERC20Addr(address)": "26907",
						"setFunderToAmount(address,uint256)": "25033",
						"transferOwnership(address)": "26972"
					},
					"internal": {
						"convertEthToUsd(uint256)": "infinite"
					}
				},
				"methodIdentifiers": {
					"fund()": "b60d4288",
					"fundersToAccount(address)": "c6da75a6",
					"getChainlinkDataFeedLatestAnswer()": "bea4dfb5",
					"getFund()": "8edd6eb6",
					"getFundSuccess()": "da4658e0",
					"refund()": "590e1ae3",
					"setERC20Addr(address)": "648c2910",
					"setFunderToAmount(address,uint256)": "d39cf006",
					"transferOwnership(address)": "f2fde38b"
				}
			},
			"storageLayout": {
				"storage": [
					{
						"astId": 821,
						"contract": "fundtokenERC20_flattened.sol:FundMe",
						"label": "fundersToAccount",
						"offset": 0,
						"slot": "0",
						"type": "t_mapping(t_address,t_uint256)"
					},
					{
						"astId": 828,
						"contract": "fundtokenERC20_flattened.sol:FundMe",
						"label": "MINIMUM_VALUE",
						"offset": 0,
						"slot": "1",
						"type": "t_uint256"
					},
					{
						"astId": 838,
						"contract": "fundtokenERC20_flattened.sol:FundMe",
						"label": "dataFeed",
						"offset": 0,
						"slot": "2",
						"type": "t_contract(AggregatorV3Interface)816"
					},
					{
						"astId": 840,
						"contract": "fundtokenERC20_flattened.sol:FundMe",
						"label": "owner",
						"offset": 0,
						"slot": "3",
						"type": "t_address"
					},
					{
						"astId": 842,
						"contract": "fundtokenERC20_flattened.sol:FundMe",
						"label": "deploymentTimestamp",
						"offset": 0,
						"slot": "4",
						"type": "t_uint256"
					},
					{
						"astId": 844,
						"contract": "fundtokenERC20_flattened.sol:FundMe",
						"label": "lockTime",
						"offset": 0,
						"slot": "5",
						"type": "t_uint256"
					},
					{
						"astId": 846,
						"contract": "fundtokenERC20_flattened.sol:FundMe",
						"label": "erc20Addr",
						"offset": 0,
						"slot": "6",
						"type": "t_address"
					},
					{
						"astId": 849,
						"contract": "fundtokenERC20_flattened.sol:FundMe",
						"label": "getFundSuccess",
						"offset": 20,
						"slot": "6",
						"type": "t_bool"
					}
				],
				"types": {
					"t_address": {
						"encoding": "inplace",
						"label": "address",
						"numberOfBytes": "20"
					},
					"t_bool": {
						"encoding": "inplace",
						"label": "bool",
						"numberOfBytes": "1"
					},
					"t_contract(AggregatorV3Interface)816": {
						"encoding": "inplace",
						"label": "contract AggregatorV3Interface",
						"numberOfBytes": "20"
					},
					"t_mapping(t_address,t_uint256)": {
						"encoding": "mapping",
						"key": "t_address",
						"label": "mapping(address => uint256)",
						"numberOfBytes": "32",
						"value": "t_uint256"
					},
					"t_uint256": {
						"encoding": "inplace",
						"label": "uint256",
						"numberOfBytes": "32"
					}
				}
			},
			"userdoc": {
				"kind": "user",
				"methods": {},
				"version": 1
			}
		}
	}
}