{
	"FundMe.sol": {
		"FundMe": {
			"abi": [
				{
					"inputs": [
						{
							"internalType": "uint256",
							"name": "_lockTime",
							"type": "uint256"
						}
					],
					"stateMutability": "nonpayable",
					"type": "constructor"
				},
				{
					"inputs": [],
					"name": "fund",
					"outputs": [],
					"stateMutability": "payable",
					"type": "function"
				},
				{
					"inputs": [
						{
							"internalType": "address",
							"name": "",
							"type": "address"
						}
					],
					"name": "fundersToAmount",
					"outputs": [
						{
							"internalType": "uint256",
							"name": "",
							"type": "uint256"
						}
					],
					"stateMutability": "view",
					"type": "function"
				},
				{
					"inputs": [],
					"name": "getChainlinkDataFeedLatestAnswer",
					"outputs": [
						{
							"internalType": "int256",
							"name": "",
							"type": "int256"
						}
					],
					"stateMutability": "view",
					"type": "function"
				},
				{
					"inputs": [],
					"name": "getFund",
					"outputs": [],
					"stateMutability": "nonpayable",
					"type": "function"
				},
				{
					"inputs": [],
					"name": "owner",
					"outputs": [
						{
							"internalType": "address",
							"name": "",
							"type": "address"
						}
					],
					"stateMutability": "view",
					"type": "function"
				},
				{
					"inputs": [],
					"name": "refund",
					"outputs": [],
					"stateMutability": "nonpayable",
					"type": "function"
				},
				{
					"inputs": [
						{
							"internalType": "address",
							"name": "newOwner",
							"type": "address"
						}
					],
					"name": "transferOwnership",
					"outputs": [],
					"stateMutability": "nonpayable",
					"type": "function"
				}
			],
			"devdoc": {
				"kind": "dev",
				"methods": {},
				"version": 1
			},
			"evm": {
				"assembly": "    /* \"FundMe.sol\":390:3341  contract FundMe{... */\n  mstore(0x40, 0x80)\n    /* \"FundMe.sol\":720:991  constructor(uint256 _lockTime){... */\n  callvalue\n  dup1\n  iszero\n  tag_1\n  jumpi\n  revert(0x00, 0x00)\ntag_1:\n  pop\n  mload(0x40)\n  sub(codesize, bytecodeSize)\n  dup1\n  bytecodeSize\n  dup4\n  codecopy\n  dup2\n  dup2\n  add\n  0x40\n  mstore\n  dup2\n  add\n  swap1\n  tag_2\n  swap2\n  swap1\n  tag_3\n  jump\t// in\ntag_2:\n    /* \"FundMe.sol\":822:864  0x694AA1769357215DE4FAC081bf1f309aDC325306 */\n  0x694aa1769357215de4fac081bf1f309adc325306\n    /* \"FundMe.sol\":789:797  dataFeed */\n  0x01\n  0x00\n    /* \"FundMe.sol\":789:865  dataFeed = AggregatorV3Interface(0x694AA1769357215DE4FAC081bf1f309aDC325306) */\n  0x0100\n  exp\n  dup2\n  sload\n  dup2\n  0xffffffffffffffffffffffffffffffffffffffff\n  mul\n  not\n  and\n  swap1\n  dup4\n  0xffffffffffffffffffffffffffffffffffffffff\n  and\n  mul\n  or\n  swap1\n  sstore\n  pop\n    /* \"FundMe.sol\":884:894  msg.sender */\n  caller\n    /* \"FundMe.sol\":876:881  owner */\n  0x02\n  0x00\n    /* \"FundMe.sol\":876:894  owner = msg.sender */\n  0x0100\n  exp\n  dup2\n  sload\n  dup2\n  0xffffffffffffffffffffffffffffffffffffffff\n  mul\n  not\n  and\n  swap1\n  dup4\n  0xffffffffffffffffffffffffffffffffffffffff\n  and\n  mul\n  or\n  swap1\n  sstore\n  pop\n    /* \"FundMe.sol\":927:942  block.timestamp */\n  timestamp\n    /* \"FundMe.sol\":905:924  deploymentTimestamp */\n  0x03\n    /* \"FundMe.sol\":905:942  deploymentTimestamp = block.timestamp */\n  dup2\n  swap1\n  sstore\n  pop\n    /* \"FundMe.sol\":964:973  _lockTime */\n  dup1\n    /* \"FundMe.sol\":953:961  lockTime */\n  0x04\n    /* \"FundMe.sol\":953:973  lockTime = _lockTime */\n  dup2\n  swap1\n  sstore\n  pop\n    /* \"FundMe.sol\":720:991  constructor(uint256 _lockTime){... */\n  pop\n    /* \"FundMe.sol\":390:3341  contract FundMe{... */\n  jump(tag_6)\n    /* \"#utility.yul\":88:205   */\ntag_8:\n    /* \"#utility.yul\":197:198   */\n  0x00\n    /* \"#utility.yul\":194:195   */\n  0x00\n    /* \"#utility.yul\":187:199   */\n  revert\n    /* \"#utility.yul\":334:411   */\ntag_10:\n    /* \"#utility.yul\":371:378   */\n  0x00\n    /* \"#utility.yul\":400:405   */\n  dup2\n    /* \"#utility.yul\":389:405   */\n  swap1\n  pop\n    /* \"#utility.yul\":334:411   */\n  swap2\n  swap1\n  pop\n  jump\t// out\n    /* \"#utility.yul\":417:539   */\ntag_11:\n    /* \"#utility.yul\":490:514   */\n  tag_19\n    /* \"#utility.yul\":508:513   */\n  dup2\n    /* \"#utility.yul\":490:514   */\n  tag_10\n  jump\t// in\ntag_19:\n    /* \"#utility.yul\":483:488   */\n  dup2\n    /* \"#utility.yul\":480:515   */\n  eq\n    /* \"#utility.yul\":470:533   */\n  tag_20\n  jumpi\n    /* \"#utility.yul\":529:530   */\n  0x00\n    /* \"#utility.yul\":526:527   */\n  0x00\n    /* \"#utility.yul\":519:531   */\n  revert\n    /* \"#utility.yul\":470:533   */\ntag_20:\n    /* \"#utility.yul\":417:539   */\n  pop\n  jump\t// out\n    /* \"#utility.yul\":545:688   */\ntag_12:\n    /* \"#utility.yul\":602:607   */\n  0x00\n    /* \"#utility.yul\":633:639   */\n  dup2\n    /* \"#utility.yul\":627:640   */\n  mload\n    /* \"#utility.yul\":618:640   */\n  swap1\n  pop\n    /* \"#utility.yul\":649:682   */\n  tag_22\n    /* \"#utility.yul\":676:681   */\n  dup2\n    /* \"#utility.yul\":649:682   */\n  tag_11\n  jump\t// in\ntag_22:\n    /* \"#utility.yul\":545:688   */\n  swap3\n  swap2\n  pop\n  pop\n  jump\t// out\n    /* \"#utility.yul\":694:1045   */\ntag_3:\n    /* \"#utility.yul\":764:770   */\n  0x00\n    /* \"#utility.yul\":813:815   */\n  0x20\n    /* \"#utility.yul\":801:810   */\n  dup3\n    /* \"#utility.yul\":792:799   */\n  dup5\n    /* \"#utility.yul\":788:811   */\n  sub\n    /* \"#utility.yul\":784:816   */\n  slt\n    /* \"#utility.yul\":781:900   */\n  iszero\n  tag_24\n  jumpi\n    /* \"#utility.yul\":819:898   */\n  tag_25\n  tag_8\n  jump\t// in\ntag_25:\n    /* \"#utility.yul\":781:900   */\ntag_24:\n    /* \"#utility.yul\":939:940   */\n  0x00\n    /* \"#utility.yul\":964:1028   */\n  tag_26\n    /* \"#utility.yul\":1020:1027   */\n  dup5\n    /* \"#utility.yul\":1011:1017   */\n  dup3\n    /* \"#utility.yul\":1000:1009   */\n  dup6\n    /* \"#utility.yul\":996:1018   */\n  add\n    /* \"#utility.yul\":964:1028   */\n  tag_12\n  jump\t// in\ntag_26:\n    /* \"#utility.yul\":954:1028   */\n  swap2\n  pop\n    /* \"#utility.yul\":910:1038   */\n  pop\n    /* \"#utility.yul\":694:1045   */\n  swap3\n  swap2\n  pop\n  pop\n  jump\t// out\n    /* \"FundMe.sol\":390:3341  contract FundMe{... */\ntag_6:\n  dataSize(sub_0)\n  dup1\n  dataOffset(sub_0)\n  0x00\n  codecopy\n  0x00\n  return\nstop\n\nsub_0: assembly {\n        /* \"FundMe.sol\":390:3341  contract FundMe{... */\n      mstore(0x40, 0x80)\n      jumpi(tag_1, lt(calldatasize, 0x04))\n      shr(0xe0, calldataload(0x00))\n      dup1\n      0x9f883a05\n      gt\n      tag_9\n      jumpi\n      dup1\n      0x9f883a05\n      eq\n      tag_5\n      jumpi\n      dup1\n      0xb60d4288\n      eq\n      tag_6\n      jumpi\n      dup1\n      0xbea4dfb5\n      eq\n      tag_7\n      jumpi\n      dup1\n      0xf2fde38b\n      eq\n      tag_8\n      jumpi\n      jump(tag_1)\n    tag_9:\n      dup1\n      0x590e1ae3\n      eq\n      tag_2\n      jumpi\n      dup1\n      0x8da5cb5b\n      eq\n      tag_3\n      jumpi\n      dup1\n      0x8edd6eb6\n      eq\n      tag_4\n      jumpi\n    tag_1:\n      revert(0x00, 0x00)\n        /* \"FundMe.sol\":2645:3060  function refund() external timer{... */\n    tag_2:\n      callvalue\n      dup1\n      iszero\n      tag_10\n      jumpi\n      revert(0x00, 0x00)\n    tag_10:\n      pop\n      tag_11\n      tag_12\n      jump\t// in\n    tag_11:\n      stop\n        /* \"FundMe.sol\":632:652  address public owner */\n    tag_3:\n      callvalue\n      dup1\n      iszero\n      tag_13\n      jumpi\n      revert(0x00, 0x00)\n    tag_13:\n      pop\n      tag_14\n      tag_15\n      jump\t// in\n    tag_14:\n      mload(0x40)\n      tag_16\n      swap2\n      swap1\n      tag_17\n      jump\t// in\n    tag_16:\n      mload(0x40)\n      dup1\n      swap2\n      sub\n      swap1\n      return\n        /* \"FundMe.sol\":1942:2637  function getFund() external onlyOwner timer{... */\n    tag_4:\n      callvalue\n      dup1\n      iszero\n      tag_18\n      jumpi\n      revert(0x00, 0x00)\n    tag_18:\n      pop\n      tag_19\n      tag_20\n      jump\t// in\n    tag_19:\n      stop\n        /* \"FundMe.sol\":412:463  mapping (address => uint256) public fundersToAmount */\n    tag_5:\n      callvalue\n      dup1\n      iszero\n      tag_21\n      jumpi\n      revert(0x00, 0x00)\n    tag_21:\n      pop\n      tag_22\n      0x04\n      dup1\n      calldatasize\n      sub\n      dup2\n      add\n      swap1\n      tag_23\n      swap2\n      swap1\n      tag_24\n      jump\t// in\n    tag_23:\n      tag_25\n      jump\t// in\n    tag_22:\n      mload(0x40)\n      tag_26\n      swap2\n      swap1\n      tag_27\n      jump\t// in\n    tag_26:\n      mload(0x40)\n      dup1\n      swap2\n      sub\n      swap1\n      return\n        /* \"FundMe.sol\":1001:1252  function fund() external payable {... */\n    tag_6:\n      tag_28\n      tag_29\n      jump\t// in\n    tag_28:\n      stop\n        /* \"FundMe.sol\":1260:1617  function getChainlinkDataFeedLatestAnswer() public view returns (int) {... */\n    tag_7:\n      callvalue\n      dup1\n      iszero\n      tag_30\n      jumpi\n      revert(0x00, 0x00)\n    tag_30:\n      pop\n      tag_31\n      tag_32\n      jump\t// in\n    tag_31:\n      mload(0x40)\n      tag_33\n      swap2\n      swap1\n      tag_34\n      jump\t// in\n    tag_33:\n      mload(0x40)\n      dup1\n      swap2\n      sub\n      swap1\n      return\n        /* \"FundMe.sol\":1838:1934  function transferOwnership(address newOwner) public onlyOwner{... */\n    tag_8:\n      callvalue\n      dup1\n      iszero\n      tag_35\n      jumpi\n      revert(0x00, 0x00)\n    tag_35:\n      pop\n      tag_36\n      0x04\n      dup1\n      calldatasize\n      sub\n      dup2\n      add\n      swap1\n      tag_37\n      swap2\n      swap1\n      tag_24\n      jump\t// in\n    tag_37:\n      tag_38\n      jump\t// in\n    tag_36:\n      stop\n        /* \"FundMe.sol\":2645:3060  function refund() external timer{... */\n    tag_12:\n        /* \"FundMe.sol\":3278:3286  lockTime */\n      sload(0x04)\n        /* \"FundMe.sol\":3256:3275  deploymentTimestamp */\n      sload(0x03)\n        /* \"FundMe.sol\":3256:3286  deploymentTimestamp + lockTime */\n      tag_40\n      swap2\n      swap1\n      tag_41\n      jump\t// in\n    tag_40:\n        /* \"FundMe.sol\":3237:3252  block.timestamp */\n      timestamp\n        /* \"FundMe.sol\":3237:3286  block.timestamp >= deploymentTimestamp + lockTime */\n      lt\n      iszero\n        /* \"FundMe.sol\":3229:3304  require(block.timestamp >= deploymentTimestamp + lockTime, \"Wait a minute\") */\n      tag_42\n      jumpi\n      mload(0x40)\n      0x08c379a000000000000000000000000000000000000000000000000000000000\n      dup2\n      mstore\n      0x04\n      add\n      tag_43\n      swap1\n      tag_44\n      jump\t// in\n    tag_43:\n      mload(0x40)\n      dup1\n      swap2\n      sub\n      swap1\n      revert\n    tag_42:\n        /* \"FundMe.sol\":609:623  1000 * 10 ** 8 */\n      0x174876e800\n        /* \"FundMe.sol\":2696:2734  convertEthToUsd(address(this).balance) */\n      tag_46\n        /* \"FundMe.sol\":2712:2733  address(this).balance */\n      selfbalance\n        /* \"FundMe.sol\":2696:2711  convertEthToUsd */\n      tag_47\n        /* \"FundMe.sol\":2696:2734  convertEthToUsd(address(this).balance) */\n      jump\t// in\n    tag_46:\n        /* \"FundMe.sol\":2696:2743  convertEthToUsd(address(this).balance) < TARGET */\n      lt\n        /* \"FundMe.sol\":2688:2765  require(convertEthToUsd(address(this).balance) < TARGET, \"Target is reached\") */\n      tag_48\n      jumpi\n      mload(0x40)\n      0x08c379a000000000000000000000000000000000000000000000000000000000\n      dup2\n      mstore\n      0x04\n      add\n      tag_49\n      swap1\n      tag_50\n      jump\t// in\n    tag_49:\n      mload(0x40)\n      dup1\n      swap2\n      sub\n      swap1\n      revert\n    tag_48:\n        /* \"FundMe.sol\":2815:2816  0 */\n      0x00\n        /* \"FundMe.sol\":2784:2799  fundersToAmount */\n      0x00\n        /* \"FundMe.sol\":2784:2811  fundersToAmount[msg.sender] */\n      0x00\n        /* \"FundMe.sol\":2800:2810  msg.sender */\n      caller\n        /* \"FundMe.sol\":2784:2811  fundersToAmount[msg.sender] */\n      0xffffffffffffffffffffffffffffffffffffffff\n      and\n      0xffffffffffffffffffffffffffffffffffffffff\n      and\n      dup2\n      mstore\n      0x20\n      add\n      swap1\n      dup2\n      mstore\n      0x20\n      add\n      0x00\n      keccak256\n      sload\n        /* \"FundMe.sol\":2784:2816  fundersToAmount[msg.sender] != 0 */\n      sub\n        /* \"FundMe.sol\":2776:2839  require(fundersToAmount[msg.sender] != 0, \"You have not fund.\") */\n      tag_51\n      jumpi\n      mload(0x40)\n      0x08c379a000000000000000000000000000000000000000000000000000000000\n      dup2\n      mstore\n      0x04\n      add\n      tag_52\n      swap1\n      tag_53\n      jump\t// in\n    tag_52:\n      mload(0x40)\n      dup1\n      swap2\n      sub\n      swap1\n      revert\n    tag_51:\n        /* \"FundMe.sol\":2850:2862  bool success */\n      0x00\n        /* \"FundMe.sol\":2895:2905  msg.sender */\n      caller\n        /* \"FundMe.sol\":2887:2911  payable(msg.sender).call */\n      0xffffffffffffffffffffffffffffffffffffffff\n      and\n        /* \"FundMe.sol\":2919:2934  fundersToAmount */\n      0x00\n        /* \"FundMe.sol\":2919:2946  fundersToAmount[msg.sender] */\n      0x00\n        /* \"FundMe.sol\":2935:2945  msg.sender */\n      caller\n        /* \"FundMe.sol\":2919:2946  fundersToAmount[msg.sender] */\n      0xffffffffffffffffffffffffffffffffffffffff\n      and\n      0xffffffffffffffffffffffffffffffffffffffff\n      and\n      dup2\n      mstore\n      0x20\n      add\n      swap1\n      dup2\n      mstore\n      0x20\n      add\n      0x00\n      keccak256\n      sload\n        /* \"FundMe.sol\":2887:2951  payable(msg.sender).call{value: fundersToAmount[msg.sender]}(\"\") */\n      mload(0x40)\n      tag_54\n      swap1\n      tag_55\n      jump\t// in\n    tag_54:\n      0x00\n      mload(0x40)\n      dup1\n      dup4\n      sub\n      dup2\n      dup6\n      dup8\n      gas\n      call\n      swap3\n      pop\n      pop\n      pop\n      returndatasize\n      dup1\n      0x00\n      dup2\n      eq\n      tag_58\n      jumpi\n      mload(0x40)\n      swap2\n      pop\n      and(add(returndatasize, 0x3f), not(0x1f))\n      dup3\n      add\n      0x40\n      mstore\n      returndatasize\n      dup3\n      mstore\n      returndatasize\n      0x00\n      0x20\n      dup5\n      add\n      returndatacopy\n      jump(tag_57)\n    tag_58:\n      0x60\n      swap2\n      pop\n    tag_57:\n      pop\n        /* \"FundMe.sol\":2873:2951  (success, ) = payable(msg.sender).call{value: fundersToAmount[msg.sender]}(\"\") */\n      pop\n      dup1\n      swap2\n      pop\n      pop\n        /* \"FundMe.sol\":2980:2987  success */\n      dup1\n        /* \"FundMe.sol\":2972:3010  require(success, \"transfer tx failed\") */\n      tag_59\n      jumpi\n      mload(0x40)\n      0x08c379a000000000000000000000000000000000000000000000000000000000\n      dup2\n      mstore\n      0x04\n      add\n      tag_60\n      swap1\n      tag_61\n      jump\t// in\n    tag_60:\n      mload(0x40)\n      dup1\n      swap2\n      sub\n      swap1\n      revert\n    tag_59:\n        /* \"FundMe.sol\":3051:3052  0 */\n      0x00\n        /* \"FundMe.sol\":3021:3036  fundersToAmount */\n      0x00\n        /* \"FundMe.sol\":3021:3048  fundersToAmount[msg.sender] */\n      0x00\n        /* \"FundMe.sol\":3037:3047  msg.sender */\n      caller\n        /* \"FundMe.sol\":3021:3048  fundersToAmount[msg.sender] */\n      0xffffffffffffffffffffffffffffffffffffffff\n      and\n      0xffffffffffffffffffffffffffffffffffffffff\n      and\n      dup2\n      mstore\n      0x20\n      add\n      swap1\n      dup2\n      mstore\n      0x20\n      add\n      0x00\n      keccak256\n        /* \"FundMe.sol\":3021:3052  fundersToAmount[msg.sender] = 0 */\n      dup2\n      swap1\n      sstore\n      pop\n        /* \"FundMe.sol\":2677:3060  {... */\n      pop\n        /* \"FundMe.sol\":2645:3060  function refund() external timer{... */\n      jump\t// out\n        /* \"FundMe.sol\":632:652  address public owner */\n    tag_15:\n      0x02\n      0x00\n      swap1\n      sload\n      swap1\n      0x0100\n      exp\n      swap1\n      div\n      0xffffffffffffffffffffffffffffffffffffffff\n      and\n      dup2\n      jump\t// out\n        /* \"FundMe.sol\":1942:2637  function getFund() external onlyOwner timer{... */\n    tag_20:\n        /* \"FundMe.sol\":3122:3127  owner */\n      0x02\n      0x00\n      swap1\n      sload\n      swap1\n      0x0100\n      exp\n      swap1\n      div\n      0xffffffffffffffffffffffffffffffffffffffff\n      and\n        /* \"FundMe.sol\":3108:3127  msg.sender == owner */\n      0xffffffffffffffffffffffffffffffffffffffff\n      and\n        /* \"FundMe.sol\":3108:3118  msg.sender */\n      caller\n        /* \"FundMe.sol\":3108:3127  msg.sender == owner */\n      0xffffffffffffffffffffffffffffffffffffffff\n      and\n      eq\n        /* \"FundMe.sol\":3100:3173  require(msg.sender == owner, \"this function can only be called by owner\") */\n      tag_63\n      jumpi\n      mload(0x40)\n      0x08c379a000000000000000000000000000000000000000000000000000000000\n      dup2\n      mstore\n      0x04\n      add\n      tag_64\n      swap1\n      tag_65\n      jump\t// in\n    tag_64:\n      mload(0x40)\n      dup1\n      swap2\n      sub\n      swap1\n      revert\n    tag_63:\n        /* \"FundMe.sol\":3278:3286  lockTime */\n      sload(0x04)\n        /* \"FundMe.sol\":3256:3275  deploymentTimestamp */\n      sload(0x03)\n        /* \"FundMe.sol\":3256:3286  deploymentTimestamp + lockTime */\n      tag_67\n      swap2\n      swap1\n      tag_41\n      jump\t// in\n    tag_67:\n        /* \"FundMe.sol\":3237:3252  block.timestamp */\n      timestamp\n        /* \"FundMe.sol\":3237:3286  block.timestamp >= deploymentTimestamp + lockTime */\n      lt\n      iszero\n        /* \"FundMe.sol\":3229:3304  require(block.timestamp >= deploymentTimestamp + lockTime, \"Wait a minute\") */\n      tag_68\n      jumpi\n      mload(0x40)\n      0x08c379a000000000000000000000000000000000000000000000000000000000\n      dup2\n      mstore\n      0x04\n      add\n      tag_69\n      swap1\n      tag_44\n      jump\t// in\n    tag_69:\n      mload(0x40)\n      dup1\n      swap2\n      sub\n      swap1\n      revert\n    tag_68:\n        /* \"FundMe.sol\":609:623  1000 * 10 ** 8 */\n      0x174876e800\n        /* \"FundMe.sol\":2004:2042  convertEthToUsd(address(this).balance) */\n      tag_71\n        /* \"FundMe.sol\":2020:2041  address(this).balance */\n      selfbalance\n        /* \"FundMe.sol\":2004:2019  convertEthToUsd */\n      tag_47\n        /* \"FundMe.sol\":2004:2042  convertEthToUsd(address(this).balance) */\n      jump\t// in\n    tag_71:\n        /* \"FundMe.sol\":2004:2052  convertEthToUsd(address(this).balance) >= TARGET */\n      lt\n      iszero\n        /* \"FundMe.sol\":1996:2078  require(convertEthToUsd(address(this).balance) >= TARGET, \"Target is not reached\") */\n      tag_72\n      jumpi\n      mload(0x40)\n      0x08c379a000000000000000000000000000000000000000000000000000000000\n      dup2\n      mstore\n      0x04\n      add\n      tag_73\n      swap1\n      tag_74\n      jump\t// in\n    tag_73:\n      mload(0x40)\n      dup1\n      swap2\n      sub\n      swap1\n      revert\n    tag_72:\n        /* \"FundMe.sol\":2485:2497  bool success */\n      0x00\n        /* \"FundMe.sol\":2530:2540  msg.sender */\n      caller\n        /* \"FundMe.sol\":2522:2546  payable(msg.sender).call */\n      0xffffffffffffffffffffffffffffffffffffffff\n      and\n        /* \"FundMe.sol\":2554:2575  address(this).balance */\n      selfbalance\n        /* \"FundMe.sol\":2522:2580  payable(msg.sender).call{value: address(this).balance}(\"\") */\n      mload(0x40)\n      tag_75\n      swap1\n      tag_55\n      jump\t// in\n    tag_75:\n      0x00\n      mload(0x40)\n      dup1\n      dup4\n      sub\n      dup2\n      dup6\n      dup8\n      gas\n      call\n      swap3\n      pop\n      pop\n      pop\n      returndatasize\n      dup1\n      0x00\n      dup2\n      eq\n      tag_78\n      jumpi\n      mload(0x40)\n      swap2\n      pop\n      and(add(returndatasize, 0x3f), not(0x1f))\n      dup3\n      add\n      0x40\n      mstore\n      returndatasize\n      dup3\n      mstore\n      returndatasize\n      0x00\n      0x20\n      dup5\n      add\n      returndatacopy\n      jump(tag_77)\n    tag_78:\n      0x60\n      swap2\n      pop\n    tag_77:\n      pop\n        /* \"FundMe.sol\":2508:2580  (success, ) = payable(msg.sender).call{value: address(this).balance}(\"\") */\n      pop\n      dup1\n      swap2\n      pop\n      pop\n        /* \"FundMe.sol\":2599:2606  success */\n      dup1\n        /* \"FundMe.sol\":2591:2629  require(success, \"transfer tx failed\") */\n      tag_79\n      jumpi\n      mload(0x40)\n      0x08c379a000000000000000000000000000000000000000000000000000000000\n      dup2\n      mstore\n      0x04\n      add\n      tag_80\n      swap1\n      tag_61\n      jump\t// in\n    tag_80:\n      mload(0x40)\n      dup1\n      swap2\n      sub\n      swap1\n      revert\n    tag_79:\n        /* \"FundMe.sol\":1985:2637  {... */\n      pop\n        /* \"FundMe.sol\":1942:2637  function getFund() external onlyOwner timer{... */\n      jump\t// out\n        /* \"FundMe.sol\":412:463  mapping (address => uint256) public fundersToAmount */\n    tag_25:\n      mstore(0x20, 0x00)\n      dup1\n      0x00\n      mstore\n      keccak256(0x00, 0x40)\n      0x00\n      swap2\n      pop\n      swap1\n      pop\n      sload\n      dup2\n      jump\t// out\n        /* \"FundMe.sol\":1001:1252  function fund() external payable {... */\n    tag_29:\n        /* \"FundMe.sol\":1093:1101  lockTime */\n      sload(0x04)\n        /* \"FundMe.sol\":1071:1090  deploymentTimestamp */\n      sload(0x03)\n        /* \"FundMe.sol\":1071:1101  deploymentTimestamp + lockTime */\n      tag_82\n      swap2\n      swap1\n      tag_41\n      jump\t// in\n    tag_82:\n        /* \"FundMe.sol\":1053:1068  block.timestamp */\n      timestamp\n        /* \"FundMe.sol\":1053:1101  block.timestamp < deploymentTimestamp + lockTime */\n      lt\n        /* \"FundMe.sol\":1045:1113  require(block.timestamp < deploymentTimestamp + lockTime, \"Time up\") */\n      tag_83\n      jumpi\n      mload(0x40)\n      0x08c379a000000000000000000000000000000000000000000000000000000000\n      dup2\n      mstore\n      0x04\n      add\n      tag_84\n      swap1\n      tag_85\n      jump\t// in\n    tag_84:\n      mload(0x40)\n      dup1\n      swap2\n      sub\n      swap1\n      revert\n    tag_83:\n        /* \"FundMe.sol\":506:520  100 * 10 ** 18 */\n      0x056bc75e2d63100000\n        /* \"FundMe.sol\":1132:1158  convertEthToUsd(msg.value) */\n      tag_86\n        /* \"FundMe.sol\":1148:1157  msg.value */\n      callvalue\n        /* \"FundMe.sol\":1132:1147  convertEthToUsd */\n      tag_47\n        /* \"FundMe.sol\":1132:1158  convertEthToUsd(msg.value) */\n      jump\t// in\n    tag_86:\n        /* \"FundMe.sol\":1132:1175  convertEthToUsd(msg.value) >= MINIMUN_VALUE */\n      lt\n      iszero\n        /* \"FundMe.sol\":1124:1193  require(convertEthToUsd(msg.value) >= MINIMUN_VALUE, \"Send more ETH\") */\n      tag_87\n      jumpi\n      mload(0x40)\n      0x08c379a000000000000000000000000000000000000000000000000000000000\n      dup2\n      mstore\n      0x04\n      add\n      tag_88\n      swap1\n      tag_89\n      jump\t// in\n    tag_88:\n      mload(0x40)\n      dup1\n      swap2\n      sub\n      swap1\n      revert\n    tag_87:\n        /* \"FundMe.sol\":1235:1244  msg.value */\n      callvalue\n        /* \"FundMe.sol\":1204:1219  fundersToAmount */\n      0x00\n        /* \"FundMe.sol\":1204:1231  fundersToAmount[msg.sender] */\n      0x00\n        /* \"FundMe.sol\":1220:1230  msg.sender */\n      caller\n        /* \"FundMe.sol\":1204:1231  fundersToAmount[msg.sender] */\n      0xffffffffffffffffffffffffffffffffffffffff\n      and\n      0xffffffffffffffffffffffffffffffffffffffff\n      and\n      dup2\n      mstore\n      0x20\n      add\n      swap1\n      dup2\n      mstore\n      0x20\n      add\n      0x00\n      keccak256\n      0x00\n        /* \"FundMe.sol\":1204:1244  fundersToAmount[msg.sender] += msg.value */\n      dup3\n      dup3\n      sload\n      tag_90\n      swap2\n      swap1\n      tag_41\n      jump\t// in\n    tag_90:\n      swap3\n      pop\n      pop\n      dup2\n      swap1\n      sstore\n      pop\n        /* \"FundMe.sol\":1001:1252  function fund() external payable {... */\n      jump\t// out\n        /* \"FundMe.sol\":1260:1617  function getChainlinkDataFeedLatestAnswer() public view returns (int) {... */\n    tag_32:\n        /* \"FundMe.sol\":1325:1328  int */\n      0x00\n        /* \"FundMe.sol\":1419:1432  int256 answer */\n      0x00\n        /* \"FundMe.sol\":1559:1567  dataFeed */\n      0x01\n      0x00\n      swap1\n      sload\n      swap1\n      0x0100\n      exp\n      swap1\n      div\n      0xffffffffffffffffffffffffffffffffffffffff\n      and\n        /* \"FundMe.sol\":1559:1583  dataFeed.latestRoundData */\n      0xffffffffffffffffffffffffffffffffffffffff\n      and\n      0xfeaf968c\n        /* \"FundMe.sol\":1559:1585  dataFeed.latestRoundData() */\n      mload(0x40)\n      dup2\n      0xffffffff\n      and\n      0xe0\n      shl\n      dup2\n      mstore\n      0x04\n      add\n      0xa0\n      mload(0x40)\n      dup1\n      dup4\n      sub\n      dup2\n      dup7\n      gas\n      staticcall\n      iszero\n      dup1\n      iszero\n      tag_93\n      jumpi\n      returndatacopy(0x00, 0x00, returndatasize)\n      revert(0x00, returndatasize)\n    tag_93:\n      pop\n      pop\n      pop\n      pop\n      mload(0x40)\n      returndatasize\n      not(0x1f)\n      0x1f\n      dup3\n      add\n      and\n      dup3\n      add\n      dup1\n      0x40\n      mstore\n      pop\n      dup2\n      add\n      swap1\n      tag_94\n      swap2\n      swap1\n      tag_95\n      jump\t// in\n    tag_94:\n        /* \"FundMe.sol\":1369:1585  (... */\n      pop\n      pop\n      pop\n      swap2\n      pop\n      pop\n        /* \"FundMe.sol\":1603:1609  answer */\n      dup1\n        /* \"FundMe.sol\":1596:1609  return answer */\n      swap2\n      pop\n      pop\n        /* \"FundMe.sol\":1260:1617  function getChainlinkDataFeedLatestAnswer() public view returns (int) {... */\n      swap1\n      jump\t// out\n        /* \"FundMe.sol\":1838:1934  function transferOwnership(address newOwner) public onlyOwner{... */\n    tag_38:\n        /* \"FundMe.sol\":3122:3127  owner */\n      0x02\n      0x00\n      swap1\n      sload\n      swap1\n      0x0100\n      exp\n      swap1\n      div\n      0xffffffffffffffffffffffffffffffffffffffff\n      and\n        /* \"FundMe.sol\":3108:3127  msg.sender == owner */\n      0xffffffffffffffffffffffffffffffffffffffff\n      and\n        /* \"FundMe.sol\":3108:3118  msg.sender */\n      caller\n        /* \"FundMe.sol\":3108:3127  msg.sender == owner */\n      0xffffffffffffffffffffffffffffffffffffffff\n      and\n      eq\n        /* \"FundMe.sol\":3100:3173  require(msg.sender == owner, \"this function can only be called by owner\") */\n      tag_97\n      jumpi\n      mload(0x40)\n      0x08c379a000000000000000000000000000000000000000000000000000000000\n      dup2\n      mstore\n      0x04\n      add\n      tag_98\n      swap1\n      tag_65\n      jump\t// in\n    tag_98:\n      mload(0x40)\n      dup1\n      swap2\n      sub\n      swap1\n      revert\n    tag_97:\n        /* \"FundMe.sol\":1918:1926  newOwner */\n      dup1\n        /* \"FundMe.sol\":1910:1915  owner */\n      0x02\n      0x00\n        /* \"FundMe.sol\":1910:1926  owner = newOwner */\n      0x0100\n      exp\n      dup2\n      sload\n      dup2\n      0xffffffffffffffffffffffffffffffffffffffff\n      mul\n      not\n      and\n      swap1\n      dup4\n      0xffffffffffffffffffffffffffffffffffffffff\n      and\n      mul\n      or\n      swap1\n      sstore\n      pop\n        /* \"FundMe.sol\":1838:1934  function transferOwnership(address newOwner) public onlyOwner{... */\n      pop\n      jump\t// out\n        /* \"FundMe.sol\":1625:1830  function convertEthToUsd(uint256 ethAmount) view internal returns(uint256){... */\n    tag_47:\n        /* \"FundMe.sol\":1691:1698  uint256 */\n      0x00\n        /* \"FundMe.sol\":1710:1726  uint256 ethPrice */\n      0x00\n        /* \"FundMe.sol\":1737:1771  getChainlinkDataFeedLatestAnswer() */\n      tag_101\n        /* \"FundMe.sol\":1737:1769  getChainlinkDataFeedLatestAnswer */\n      tag_32\n        /* \"FundMe.sol\":1737:1771  getChainlinkDataFeedLatestAnswer() */\n      jump\t// in\n    tag_101:\n        /* \"FundMe.sol\":1710:1772  uint256 ethPrice = uint256(getChainlinkDataFeedLatestAnswer()) */\n      swap1\n      pop\n        /* \"FundMe.sol\":1814:1821  10 ** 8 */\n      0x05f5e100\n        /* \"FundMe.sol\":1802:1810  ethPrice */\n      dup2\n        /* \"FundMe.sol\":1790:1799  ethAmount */\n      dup5\n        /* \"FundMe.sol\":1790:1810  ethAmount * ethPrice */\n      tag_102\n      swap2\n      swap1\n      tag_103\n      jump\t// in\n    tag_102:\n        /* \"FundMe.sol\":1790:1822  ethAmount * ethPrice / (10 ** 8) */\n      tag_104\n      swap2\n      swap1\n      tag_105\n      jump\t// in\n    tag_104:\n        /* \"FundMe.sol\":1783:1822  return ethAmount * ethPrice / (10 ** 8) */\n      swap2\n      pop\n      pop\n        /* \"FundMe.sol\":1625:1830  function convertEthToUsd(uint256 ethAmount) view internal returns(uint256){... */\n      swap2\n      swap1\n      pop\n      jump\t// out\n        /* \"#utility.yul\":7:133   */\n    tag_106:\n        /* \"#utility.yul\":44:51   */\n      0x00\n        /* \"#utility.yul\":84:126   */\n      0xffffffffffffffffffffffffffffffffffffffff\n        /* \"#utility.yul\":77:82   */\n      dup3\n        /* \"#utility.yul\":73:127   */\n      and\n        /* \"#utility.yul\":62:127   */\n      swap1\n      pop\n        /* \"#utility.yul\":7:133   */\n      swap2\n      swap1\n      pop\n      jump\t// out\n        /* \"#utility.yul\":139:235   */\n    tag_107:\n        /* \"#utility.yul\":176:183   */\n      0x00\n        /* \"#utility.yul\":205:229   */\n      tag_150\n        /* \"#utility.yul\":223:228   */\n      dup3\n        /* \"#utility.yul\":205:229   */\n      tag_106\n      jump\t// in\n    tag_150:\n        /* \"#utility.yul\":194:229   */\n      swap1\n      pop\n        /* \"#utility.yul\":139:235   */\n      swap2\n      swap1\n      pop\n      jump\t// out\n        /* \"#utility.yul\":241:359   */\n    tag_108:\n        /* \"#utility.yul\":328:352   */\n      tag_152\n        /* \"#utility.yul\":346:351   */\n      dup2\n        /* \"#utility.yul\":328:352   */\n      tag_107\n      jump\t// in\n    tag_152:\n        /* \"#utility.yul\":323:326   */\n      dup3\n        /* \"#utility.yul\":316:353   */\n      mstore\n        /* \"#utility.yul\":241:359   */\n      pop\n      pop\n      jump\t// out\n        /* \"#utility.yul\":365:587   */\n    tag_17:\n        /* \"#utility.yul\":458:462   */\n      0x00\n        /* \"#utility.yul\":496:498   */\n      0x20\n        /* \"#utility.yul\":485:494   */\n      dup3\n        /* \"#utility.yul\":481:499   */\n      add\n        /* \"#utility.yul\":473:499   */\n      swap1\n      pop\n        /* \"#utility.yul\":509:580   */\n      tag_154\n        /* \"#utility.yul\":577:578   */\n      0x00\n        /* \"#utility.yul\":566:575   */\n      dup4\n        /* \"#utility.yul\":562:579   */\n      add\n        /* \"#utility.yul\":553:559   */\n      dup5\n        /* \"#utility.yul\":509:580   */\n      tag_108\n      jump\t// in\n    tag_154:\n        /* \"#utility.yul\":365:587   */\n      swap3\n      swap2\n      pop\n      pop\n      jump\t// out\n        /* \"#utility.yul\":674:791   */\n    tag_110:\n        /* \"#utility.yul\":783:784   */\n      0x00\n        /* \"#utility.yul\":780:781   */\n      0x00\n        /* \"#utility.yul\":773:785   */\n      revert\n        /* \"#utility.yul\":920:1042   */\n    tag_112:\n        /* \"#utility.yul\":993:1017   */\n      tag_159\n        /* \"#utility.yul\":1011:1016   */\n      dup2\n        /* \"#utility.yul\":993:1017   */\n      tag_107\n      jump\t// in\n    tag_159:\n        /* \"#utility.yul\":986:991   */\n      dup2\n        /* \"#utility.yul\":983:1018   */\n      eq\n        /* \"#utility.yul\":973:1036   */\n      tag_160\n      jumpi\n        /* \"#utility.yul\":1032:1033   */\n      0x00\n        /* \"#utility.yul\":1029:1030   */\n      0x00\n        /* \"#utility.yul\":1022:1034   */\n      revert\n        /* \"#utility.yul\":973:1036   */\n    tag_160:\n        /* \"#utility.yul\":920:1042   */\n      pop\n      jump\t// out\n        /* \"#utility.yul\":1048:1187   */\n    tag_113:\n        /* \"#utility.yul\":1094:1099   */\n      0x00\n        /* \"#utility.yul\":1132:1138   */\n      dup2\n        /* \"#utility.yul\":1119:1139   */\n      calldataload\n        /* \"#utility.yul\":1110:1139   */\n      swap1\n      pop\n        /* \"#utility.yul\":1148:1181   */\n      tag_162\n        /* \"#utility.yul\":1175:1180   */\n      dup2\n        /* \"#utility.yul\":1148:1181   */\n      tag_112\n      jump\t// in\n    tag_162:\n        /* \"#utility.yul\":1048:1187   */\n      swap3\n      swap2\n      pop\n      pop\n      jump\t// out\n        /* \"#utility.yul\":1193:1522   */\n    tag_24:\n        /* \"#utility.yul\":1252:1258   */\n      0x00\n        /* \"#utility.yul\":1301:1303   */\n      0x20\n        /* \"#utility.yul\":1289:1298   */\n      dup3\n        /* \"#utility.yul\":1280:1287   */\n      dup5\n        /* \"#utility.yul\":1276:1299   */\n      sub\n        /* \"#utility.yul\":1272:1304   */\n      slt\n        /* \"#utility.yul\":1269:1388   */\n      iszero\n      tag_164\n      jumpi\n        /* \"#utility.yul\":1307:1386   */\n      tag_165\n      tag_110\n      jump\t// in\n    tag_165:\n        /* \"#utility.yul\":1269:1388   */\n    tag_164:\n        /* \"#utility.yul\":1427:1428   */\n      0x00\n        /* \"#utility.yul\":1452:1505   */\n      tag_166\n        /* \"#utility.yul\":1497:1504   */\n      dup5\n        /* \"#utility.yul\":1488:1494   */\n      dup3\n        /* \"#utility.yul\":1477:1486   */\n      dup6\n        /* \"#utility.yul\":1473:1495   */\n      add\n        /* \"#utility.yul\":1452:1505   */\n      tag_113\n      jump\t// in\n    tag_166:\n        /* \"#utility.yul\":1442:1505   */\n      swap2\n      pop\n        /* \"#utility.yul\":1398:1515   */\n      pop\n        /* \"#utility.yul\":1193:1522   */\n      swap3\n      swap2\n      pop\n      pop\n      jump\t// out\n        /* \"#utility.yul\":1528:1605   */\n    tag_114:\n        /* \"#utility.yul\":1565:1572   */\n      0x00\n        /* \"#utility.yul\":1594:1599   */\n      dup2\n        /* \"#utility.yul\":1583:1599   */\n      swap1\n      pop\n        /* \"#utility.yul\":1528:1605   */\n      swap2\n      swap1\n      pop\n      jump\t// out\n        /* \"#utility.yul\":1611:1729   */\n    tag_115:\n        /* \"#utility.yul\":1698:1722   */\n      tag_169\n        /* \"#utility.yul\":1716:1721   */\n      dup2\n        /* \"#utility.yul\":1698:1722   */\n      tag_114\n      jump\t// in\n    tag_169:\n        /* \"#utility.yul\":1693:1696   */\n      dup3\n        /* \"#utility.yul\":1686:1723   */\n      mstore\n        /* \"#utility.yul\":1611:1729   */\n      pop\n      pop\n      jump\t// out\n        /* \"#utility.yul\":1735:1957   */\n    tag_27:\n        /* \"#utility.yul\":1828:1832   */\n      0x00\n        /* \"#utility.yul\":1866:1868   */\n      0x20\n        /* \"#utility.yul\":1855:1864   */\n      dup3\n        /* \"#utility.yul\":1851:1869   */\n      add\n        /* \"#utility.yul\":1843:1869   */\n      swap1\n      pop\n        /* \"#utility.yul\":1879:1950   */\n      tag_171\n        /* \"#utility.yul\":1947:1948   */\n      0x00\n        /* \"#utility.yul\":1936:1945   */\n      dup4\n        /* \"#utility.yul\":1932:1949   */\n      add\n        /* \"#utility.yul\":1923:1929   */\n      dup5\n        /* \"#utility.yul\":1879:1950   */\n      tag_115\n      jump\t// in\n    tag_171:\n        /* \"#utility.yul\":1735:1957   */\n      swap3\n      swap2\n      pop\n      pop\n      jump\t// out\n        /* \"#utility.yul\":1963:2039   */\n    tag_116:\n        /* \"#utility.yul\":1999:2006   */\n      0x00\n        /* \"#utility.yul\":2028:2033   */\n      dup2\n        /* \"#utility.yul\":2017:2033   */\n      swap1\n      pop\n        /* \"#utility.yul\":1963:2039   */\n      swap2\n      swap1\n      pop\n      jump\t// out\n        /* \"#utility.yul\":2045:2160   */\n    tag_117:\n        /* \"#utility.yul\":2130:2153   */\n      tag_174\n        /* \"#utility.yul\":2147:2152   */\n      dup2\n        /* \"#utility.yul\":2130:2153   */\n      tag_116\n      jump\t// in\n    tag_174:\n        /* \"#utility.yul\":2125:2128   */\n      dup3\n        /* \"#utility.yul\":2118:2154   */\n      mstore\n        /* \"#utility.yul\":2045:2160   */\n      pop\n      pop\n      jump\t// out\n        /* \"#utility.yul\":2166:2384   */\n    tag_34:\n        /* \"#utility.yul\":2257:2261   */\n      0x00\n        /* \"#utility.yul\":2295:2297   */\n      0x20\n        /* \"#utility.yul\":2284:2293   */\n      dup3\n        /* \"#utility.yul\":2280:2298   */\n      add\n        /* \"#utility.yul\":2272:2298   */\n      swap1\n      pop\n        /* \"#utility.yul\":2308:2377   */\n      tag_176\n        /* \"#utility.yul\":2374:2375   */\n      0x00\n        /* \"#utility.yul\":2363:2372   */\n      dup4\n        /* \"#utility.yul\":2359:2376   */\n      add\n        /* \"#utility.yul\":2350:2356   */\n      dup5\n        /* \"#utility.yul\":2308:2377   */\n      tag_117\n      jump\t// in\n    tag_176:\n        /* \"#utility.yul\":2166:2384   */\n      swap3\n      swap2\n      pop\n      pop\n      jump\t// out\n        /* \"#utility.yul\":2390:2570   */\n    tag_118:\n        /* \"#utility.yul\":2438:2515   */\n      0x4e487b7100000000000000000000000000000000000000000000000000000000\n        /* \"#utility.yul\":2435:2436   */\n      0x00\n        /* \"#utility.yul\":2428:2516   */\n      mstore\n        /* \"#utility.yul\":2535:2539   */\n      0x11\n        /* \"#utility.yul\":2532:2533   */\n      0x04\n        /* \"#utility.yul\":2525:2540   */\n      mstore\n        /* \"#utility.yul\":2559:2563   */\n      0x24\n        /* \"#utility.yul\":2556:2557   */\n      0x00\n        /* \"#utility.yul\":2549:2564   */\n      revert\n        /* \"#utility.yul\":2576:2767   */\n    tag_41:\n        /* \"#utility.yul\":2616:2619   */\n      0x00\n        /* \"#utility.yul\":2635:2655   */\n      tag_179\n        /* \"#utility.yul\":2653:2654   */\n      dup3\n        /* \"#utility.yul\":2635:2655   */\n      tag_114\n      jump\t// in\n    tag_179:\n        /* \"#utility.yul\":2630:2655   */\n      swap2\n      pop\n        /* \"#utility.yul\":2669:2689   */\n      tag_180\n        /* \"#utility.yul\":2687:2688   */\n      dup4\n        /* \"#utility.yul\":2669:2689   */\n      tag_114\n      jump\t// in\n    tag_180:\n        /* \"#utility.yul\":2664:2689   */\n      swap3\n      pop\n        /* \"#utility.yul\":2712:2713   */\n      dup3\n        /* \"#utility.yul\":2709:2710   */\n      dup3\n        /* \"#utility.yul\":2705:2714   */\n      add\n        /* \"#utility.yul\":2698:2714   */\n      swap1\n      pop\n        /* \"#utility.yul\":2733:2736   */\n      dup1\n        /* \"#utility.yul\":2730:2731   */\n      dup3\n        /* \"#utility.yul\":2727:2737   */\n      gt\n        /* \"#utility.yul\":2724:2760   */\n      iszero\n      tag_181\n      jumpi\n        /* \"#utility.yul\":2740:2758   */\n      tag_182\n      tag_118\n      jump\t// in\n    tag_182:\n        /* \"#utility.yul\":2724:2760   */\n    tag_181:\n        /* \"#utility.yul\":2576:2767   */\n      swap3\n      swap2\n      pop\n      pop\n      jump\t// out\n        /* \"#utility.yul\":2773:2942   */\n    tag_119:\n        /* \"#utility.yul\":2857:2868   */\n      0x00\n        /* \"#utility.yul\":2891:2897   */\n      dup3\n        /* \"#utility.yul\":2886:2889   */\n      dup3\n        /* \"#utility.yul\":2879:2898   */\n      mstore\n        /* \"#utility.yul\":2931:2935   */\n      0x20\n        /* \"#utility.yul\":2926:2929   */\n      dup3\n        /* \"#utility.yul\":2922:2936   */\n      add\n        /* \"#utility.yul\":2907:2936   */\n      swap1\n      pop\n        /* \"#utility.yul\":2773:2942   */\n      swap3\n      swap2\n      pop\n      pop\n      jump\t// out\n        /* \"#utility.yul\":2948:3111   */\n    tag_120:\n        /* \"#utility.yul\":3088:3103   */\n      0x576169742061206d696e75746500000000000000000000000000000000000000\n        /* \"#utility.yul\":3084:3085   */\n      0x00\n        /* \"#utility.yul\":3076:3082   */\n      dup3\n        /* \"#utility.yul\":3072:3086   */\n      add\n        /* \"#utility.yul\":3065:3104   */\n      mstore\n        /* \"#utility.yul\":2948:3111   */\n      pop\n      jump\t// out\n        /* \"#utility.yul\":3117:3483   */\n    tag_121:\n        /* \"#utility.yul\":3259:3262   */\n      0x00\n        /* \"#utility.yul\":3280:3347   */\n      tag_186\n        /* \"#utility.yul\":3344:3346   */\n      0x0d\n        /* \"#utility.yul\":3339:3342   */\n      dup4\n        /* \"#utility.yul\":3280:3347   */\n      tag_119\n      jump\t// in\n    tag_186:\n        /* \"#utility.yul\":3273:3347   */\n      swap2\n      pop\n        /* \"#utility.yul\":3356:3449   */\n      tag_187\n        /* \"#utility.yul\":3445:3448   */\n      dup3\n        /* \"#utility.yul\":3356:3449   */\n      tag_120\n      jump\t// in\n    tag_187:\n        /* \"#utility.yul\":3474:3476   */\n      0x20\n        /* \"#utility.yul\":3469:3472   */\n      dup3\n        /* \"#utility.yul\":3465:3477   */\n      add\n        /* \"#utility.yul\":3458:3477   */\n      swap1\n      pop\n        /* \"#utility.yul\":3117:3483   */\n      swap2\n      swap1\n      pop\n      jump\t// out\n        /* \"#utility.yul\":3489:3908   */\n    tag_44:\n        /* \"#utility.yul\":3655:3659   */\n      0x00\n        /* \"#utility.yul\":3693:3695   */\n      0x20\n        /* \"#utility.yul\":3682:3691   */\n      dup3\n        /* \"#utility.yul\":3678:3696   */\n      add\n        /* \"#utility.yul\":3670:3696   */\n      swap1\n      pop\n        /* \"#utility.yul\":3742:3751   */\n      dup2\n        /* \"#utility.yul\":3736:3740   */\n      dup2\n        /* \"#utility.yul\":3732:3752   */\n      sub\n        /* \"#utility.yul\":3728:3729   */\n      0x00\n        /* \"#utility.yul\":3717:3726   */\n      dup4\n        /* \"#utility.yul\":3713:3730   */\n      add\n        /* \"#utility.yul\":3706:3753   */\n      mstore\n        /* \"#utility.yul\":3770:3901   */\n      tag_189\n        /* \"#utility.yul\":3896:3900   */\n      dup2\n        /* \"#utility.yul\":3770:3901   */\n      tag_121\n      jump\t// in\n    tag_189:\n        /* \"#utility.yul\":3762:3901   */\n      swap1\n      pop\n        /* \"#utility.yul\":3489:3908   */\n      swap2\n      swap1\n      pop\n      jump\t// out\n        /* \"#utility.yul\":3914:4081   */\n    tag_122:\n        /* \"#utility.yul\":4054:4073   */\n      0x5461726765742069732072656163686564000000000000000000000000000000\n        /* \"#utility.yul\":4050:4051   */\n      0x00\n        /* \"#utility.yul\":4042:4048   */\n      dup3\n        /* \"#utility.yul\":4038:4052   */\n      add\n        /* \"#utility.yul\":4031:4074   */\n      mstore\n        /* \"#utility.yul\":3914:4081   */\n      pop\n      jump\t// out\n        /* \"#utility.yul\":4087:4453   */\n    tag_123:\n        /* \"#utility.yul\":4229:4232   */\n      0x00\n        /* \"#utility.yul\":4250:4317   */\n      tag_192\n        /* \"#utility.yul\":4314:4316   */\n      0x11\n        /* \"#utility.yul\":4309:4312   */\n      dup4\n        /* \"#utility.yul\":4250:4317   */\n      tag_119\n      jump\t// in\n    tag_192:\n        /* \"#utility.yul\":4243:4317   */\n      swap2\n      pop\n        /* \"#utility.yul\":4326:4419   */\n      tag_193\n        /* \"#utility.yul\":4415:4418   */\n      dup3\n        /* \"#utility.yul\":4326:4419   */\n      tag_122\n      jump\t// in\n    tag_193:\n        /* \"#utility.yul\":4444:4446   */\n      0x20\n        /* \"#utility.yul\":4439:4442   */\n      dup3\n        /* \"#utility.yul\":4435:4447   */\n      add\n        /* \"#utility.yul\":4428:4447   */\n      swap1\n      pop\n        /* \"#utility.yul\":4087:4453   */\n      swap2\n      swap1\n      pop\n      jump\t// out\n        /* \"#utility.yul\":4459:4878   */\n    tag_50:\n        /* \"#utility.yul\":4625:4629   */\n      0x00\n        /* \"#utility.yul\":4663:4665   */\n      0x20\n        /* \"#utility.yul\":4652:4661   */\n      dup3\n        /* \"#utility.yul\":4648:4666   */\n      add\n        /* \"#utility.yul\":4640:4666   */\n      swap1\n      pop\n        /* \"#utility.yul\":4712:4721   */\n      dup2\n        /* \"#utility.yul\":4706:4710   */\n      dup2\n        /* \"#utility.yul\":4702:4722   */\n      sub\n        /* \"#utility.yul\":4698:4699   */\n      0x00\n        /* \"#utility.yul\":4687:4696   */\n      dup4\n        /* \"#utility.yul\":4683:4700   */\n      add\n        /* \"#utility.yul\":4676:4723   */\n      mstore\n        /* \"#utility.yul\":4740:4871   */\n      tag_195\n        /* \"#utility.yul\":4866:4870   */\n      dup2\n        /* \"#utility.yul\":4740:4871   */\n      tag_123\n      jump\t// in\n    tag_195:\n        /* \"#utility.yul\":4732:4871   */\n      swap1\n      pop\n        /* \"#utility.yul\":4459:4878   */\n      swap2\n      swap1\n      pop\n      jump\t// out\n        /* \"#utility.yul\":4884:5052   */\n    tag_124:\n        /* \"#utility.yul\":5024:5044   */\n      0x596f752068617665206e6f742066756e642e0000000000000000000000000000\n        /* \"#utility.yul\":5020:5021   */\n      0x00\n        /* \"#utility.yul\":5012:5018   */\n      dup3\n        /* \"#utility.yul\":5008:5022   */\n      add\n        /* \"#utility.yul\":5001:5045   */\n      mstore\n        /* \"#utility.yul\":4884:5052   */\n      pop\n      jump\t// out\n        /* \"#utility.yul\":5058:5424   */\n    tag_125:\n        /* \"#utility.yul\":5200:5203   */\n      0x00\n        /* \"#utility.yul\":5221:5288   */\n      tag_198\n        /* \"#utility.yul\":5285:5287   */\n      0x12\n        /* \"#utility.yul\":5280:5283   */\n      dup4\n        /* \"#utility.yul\":5221:5288   */\n      tag_119\n      jump\t// in\n    tag_198:\n        /* \"#utility.yul\":5214:5288   */\n      swap2\n      pop\n        /* \"#utility.yul\":5297:5390   */\n      tag_199\n        /* \"#utility.yul\":5386:5389   */\n      dup3\n        /* \"#utility.yul\":5297:5390   */\n      tag_124\n      jump\t// in\n    tag_199:\n        /* \"#utility.yul\":5415:5417   */\n      0x20\n        /* \"#utility.yul\":5410:5413   */\n      dup3\n        /* \"#utility.yul\":5406:5418   */\n      add\n        /* \"#utility.yul\":5399:5418   */\n      swap1\n      pop\n        /* \"#utility.yul\":5058:5424   */\n      swap2\n      swap1\n      pop\n      jump\t// out\n        /* \"#utility.yul\":5430:5849   */\n    tag_53:\n        /* \"#utility.yul\":5596:5600   */\n      0x00\n        /* \"#utility.yul\":5634:5636   */\n      0x20\n        /* \"#utility.yul\":5623:5632   */\n      dup3\n        /* \"#utility.yul\":5619:5637   */\n      add\n        /* \"#utility.yul\":5611:5637   */\n      swap1\n      pop\n        /* \"#utility.yul\":5683:5692   */\n      dup2\n        /* \"#utility.yul\":5677:5681   */\n      dup2\n        /* \"#utility.yul\":5673:5693   */\n      sub\n        /* \"#utility.yul\":5669:5670   */\n      0x00\n        /* \"#utility.yul\":5658:5667   */\n      dup4\n        /* \"#utility.yul\":5654:5671   */\n      add\n        /* \"#utility.yul\":5647:5694   */\n      mstore\n        /* \"#utility.yul\":5711:5842   */\n      tag_201\n        /* \"#utility.yul\":5837:5841   */\n      dup2\n        /* \"#utility.yul\":5711:5842   */\n      tag_125\n      jump\t// in\n    tag_201:\n        /* \"#utility.yul\":5703:5842   */\n      swap1\n      pop\n        /* \"#utility.yul\":5430:5849   */\n      swap2\n      swap1\n      pop\n      jump\t// out\n        /* \"#utility.yul\":5855:6002   */\n    tag_126:\n        /* \"#utility.yul\":5956:5967   */\n      0x00\n        /* \"#utility.yul\":5993:5996   */\n      dup2\n        /* \"#utility.yul\":5978:5996   */\n      swap1\n      pop\n        /* \"#utility.yul\":5855:6002   */\n      swap3\n      swap2\n      pop\n      pop\n      jump\t// out\n        /* \"#utility.yul\":6008:6122   */\n    tag_127:\n      pop\n      jump\t// out\n        /* \"#utility.yul\":6128:6526   */\n    tag_128:\n        /* \"#utility.yul\":6287:6290   */\n      0x00\n        /* \"#utility.yul\":6308:6391   */\n      tag_205\n        /* \"#utility.yul\":6389:6390   */\n      0x00\n        /* \"#utility.yul\":6384:6387   */\n      dup4\n        /* \"#utility.yul\":6308:6391   */\n      tag_126\n      jump\t// in\n    tag_205:\n        /* \"#utility.yul\":6301:6391   */\n      swap2\n      pop\n        /* \"#utility.yul\":6400:6493   */\n      tag_206\n        /* \"#utility.yul\":6489:6492   */\n      dup3\n        /* \"#utility.yul\":6400:6493   */\n      tag_127\n      jump\t// in\n    tag_206:\n        /* \"#utility.yul\":6518:6519   */\n      0x00\n        /* \"#utility.yul\":6513:6516   */\n      dup3\n        /* \"#utility.yul\":6509:6520   */\n      add\n        /* \"#utility.yul\":6502:6520   */\n      swap1\n      pop\n        /* \"#utility.yul\":6128:6526   */\n      swap2\n      swap1\n      pop\n      jump\t// out\n        /* \"#utility.yul\":6532:6911   */\n    tag_55:\n        /* \"#utility.yul\":6716:6719   */\n      0x00\n        /* \"#utility.yul\":6738:6885   */\n      tag_208\n        /* \"#utility.yul\":6881:6884   */\n      dup3\n        /* \"#utility.yul\":6738:6885   */\n      tag_128\n      jump\t// in\n    tag_208:\n        /* \"#utility.yul\":6731:6885   */\n      swap2\n      pop\n        /* \"#utility.yul\":6902:6905   */\n      dup2\n        /* \"#utility.yul\":6895:6905   */\n      swap1\n      pop\n        /* \"#utility.yul\":6532:6911   */\n      swap2\n      swap1\n      pop\n      jump\t// out\n        /* \"#utility.yul\":6917:7085   */\n    tag_129:\n        /* \"#utility.yul\":7057:7077   */\n      0x7472616e73666572207478206661696c65640000000000000000000000000000\n        /* \"#utility.yul\":7053:7054   */\n      0x00\n        /* \"#utility.yul\":7045:7051   */\n      dup3\n        /* \"#utility.yul\":7041:7055   */\n      add\n        /* \"#utility.yul\":7034:7078   */\n      mstore\n        /* \"#utility.yul\":6917:7085   */\n      pop\n      jump\t// out\n        /* \"#utility.yul\":7091:7457   */\n    tag_130:\n        /* \"#utility.yul\":7233:7236   */\n      0x00\n        /* \"#utility.yul\":7254:7321   */\n      tag_211\n        /* \"#utility.yul\":7318:7320   */\n      0x12\n        /* \"#utility.yul\":7313:7316   */\n      dup4\n        /* \"#utility.yul\":7254:7321   */\n      tag_119\n      jump\t// in\n    tag_211:\n        /* \"#utility.yul\":7247:7321   */\n      swap2\n      pop\n        /* \"#utility.yul\":7330:7423   */\n      tag_212\n        /* \"#utility.yul\":7419:7422   */\n      dup3\n        /* \"#utility.yul\":7330:7423   */\n      tag_129\n      jump\t// in\n    tag_212:\n        /* \"#utility.yul\":7448:7450   */\n      0x20\n        /* \"#utility.yul\":7443:7446   */\n      dup3\n        /* \"#utility.yul\":7439:7451   */\n      add\n        /* \"#utility.yul\":7432:7451   */\n      swap1\n      pop\n        /* \"#utility.yul\":7091:7457   */\n      swap2\n      swap1\n      pop\n      jump\t// out\n        /* \"#utility.yul\":7463:7882   */\n    tag_61:\n        /* \"#utility.yul\":7629:7633   */\n      0x00\n        /* \"#utility.yul\":7667:7669   */\n      0x20\n        /* \"#utility.yul\":7656:7665   */\n      dup3\n        /* \"#utility.yul\":7652:7670   */\n      add\n        /* \"#utility.yul\":7644:7670   */\n      swap1\n      pop\n        /* \"#utility.yul\":7716:7725   */\n      dup2\n        /* \"#utility.yul\":7710:7714   */\n      dup2\n        /* \"#utility.yul\":7706:7726   */\n      sub\n        /* \"#utility.yul\":7702:7703   */\n      0x00\n        /* \"#utility.yul\":7691:7700   */\n      dup4\n        /* \"#utility.yul\":7687:7704   */\n      add\n        /* \"#utility.yul\":7680:7727   */\n      mstore\n        /* \"#utility.yul\":7744:7875   */\n      tag_214\n        /* \"#utility.yul\":7870:7874   */\n      dup2\n        /* \"#utility.yul\":7744:7875   */\n      tag_130\n      jump\t// in\n    tag_214:\n        /* \"#utility.yul\":7736:7875   */\n      swap1\n      pop\n        /* \"#utility.yul\":7463:7882   */\n      swap2\n      swap1\n      pop\n      jump\t// out\n        /* \"#utility.yul\":7888:8116   */\n    tag_131:\n        /* \"#utility.yul\":8028:8062   */\n      0x746869732066756e6374696f6e2063616e206f6e6c792062652063616c6c6564\n        /* \"#utility.yul\":8024:8025   */\n      0x00\n        /* \"#utility.yul\":8016:8022   */\n      dup3\n        /* \"#utility.yul\":8012:8026   */\n      add\n        /* \"#utility.yul\":8005:8063   */\n      mstore\n        /* \"#utility.yul\":8097:8108   */\n      0x206279206f776e65720000000000000000000000000000000000000000000000\n        /* \"#utility.yul\":8092:8094   */\n      0x20\n        /* \"#utility.yul\":8084:8090   */\n      dup3\n        /* \"#utility.yul\":8080:8095   */\n      add\n        /* \"#utility.yul\":8073:8109   */\n      mstore\n        /* \"#utility.yul\":7888:8116   */\n      pop\n      jump\t// out\n        /* \"#utility.yul\":8122:8488   */\n    tag_132:\n        /* \"#utility.yul\":8264:8267   */\n      0x00\n        /* \"#utility.yul\":8285:8352   */\n      tag_217\n        /* \"#utility.yul\":8349:8351   */\n      0x29\n        /* \"#utility.yul\":8344:8347   */\n      dup4\n        /* \"#utility.yul\":8285:8352   */\n      tag_119\n      jump\t// in\n    tag_217:\n        /* \"#utility.yul\":8278:8352   */\n      swap2\n      pop\n        /* \"#utility.yul\":8361:8454   */\n      tag_218\n        /* \"#utility.yul\":8450:8453   */\n      dup3\n        /* \"#utility.yul\":8361:8454   */\n      tag_131\n      jump\t// in\n    tag_218:\n        /* \"#utility.yul\":8479:8481   */\n      0x40\n        /* \"#utility.yul\":8474:8477   */\n      dup3\n        /* \"#utility.yul\":8470:8482   */\n      add\n        /* \"#utility.yul\":8463:8482   */\n      swap1\n      pop\n        /* \"#utility.yul\":8122:8488   */\n      swap2\n      swap1\n      pop\n      jump\t// out\n        /* \"#utility.yul\":8494:8913   */\n    tag_65:\n        /* \"#utility.yul\":8660:8664   */\n      0x00\n        /* \"#utility.yul\":8698:8700   */\n      0x20\n        /* \"#utility.yul\":8687:8696   */\n      dup3\n        /* \"#utility.yul\":8683:8701   */\n      add\n        /* \"#utility.yul\":8675:8701   */\n      swap1\n      pop\n        /* \"#utility.yul\":8747:8756   */\n      dup2\n        /* \"#utility.yul\":8741:8745   */\n      dup2\n        /* \"#utility.yul\":8737:8757   */\n      sub\n        /* \"#utility.yul\":8733:8734   */\n      0x00\n        /* \"#utility.yul\":8722:8731   */\n      dup4\n        /* \"#utility.yul\":8718:8735   */\n      add\n        /* \"#utility.yul\":8711:8758   */\n      mstore\n        /* \"#utility.yul\":8775:8906   */\n      tag_220\n        /* \"#utility.yul\":8901:8905   */\n      dup2\n        /* \"#utility.yul\":8775:8906   */\n      tag_132\n      jump\t// in\n    tag_220:\n        /* \"#utility.yul\":8767:8906   */\n      swap1\n      pop\n        /* \"#utility.yul\":8494:8913   */\n      swap2\n      swap1\n      pop\n      jump\t// out\n        /* \"#utility.yul\":8919:9090   */\n    tag_133:\n        /* \"#utility.yul\":9059:9082   */\n      0x546172676574206973206e6f7420726561636865640000000000000000000000\n        /* \"#utility.yul\":9055:9056   */\n      0x00\n        /* \"#utility.yul\":9047:9053   */\n      dup3\n        /* \"#utility.yul\":9043:9057   */\n      add\n        /* \"#utility.yul\":9036:9083   */\n      mstore\n        /* \"#utility.yul\":8919:9090   */\n      pop\n      jump\t// out\n        /* \"#utility.yul\":9096:9462   */\n    tag_134:\n        /* \"#utility.yul\":9238:9241   */\n      0x00\n        /* \"#utility.yul\":9259:9326   */\n      tag_223\n        /* \"#utility.yul\":9323:9325   */\n      0x15\n        /* \"#utility.yul\":9318:9321   */\n      dup4\n        /* \"#utility.yul\":9259:9326   */\n      tag_119\n      jump\t// in\n    tag_223:\n        /* \"#utility.yul\":9252:9326   */\n      swap2\n      pop\n        /* \"#utility.yul\":9335:9428   */\n      tag_224\n        /* \"#utility.yul\":9424:9427   */\n      dup3\n        /* \"#utility.yul\":9335:9428   */\n      tag_133\n      jump\t// in\n    tag_224:\n        /* \"#utility.yul\":9453:9455   */\n      0x20\n        /* \"#utility.yul\":9448:9451   */\n      dup3\n        /* \"#utility.yul\":9444:9456   */\n      add\n        /* \"#utility.yul\":9437:9456   */\n      swap1\n      pop\n        /* \"#utility.yul\":9096:9462   */\n      swap2\n      swap1\n      pop\n      jump\t// out\n        /* \"#utility.yul\":9468:9887   */\n    tag_74:\n        /* \"#utility.yul\":9634:9638   */\n      0x00\n        /* \"#utility.yul\":9672:9674   */\n      0x20\n        /* \"#utility.yul\":9661:9670   */\n      dup3\n        /* \"#utility.yul\":9657:9675   */\n      add\n        /* \"#utility.yul\":9649:9675   */\n      swap1\n      pop\n        /* \"#utility.yul\":9721:9730   */\n      dup2\n        /* \"#utility.yul\":9715:9719   */\n      dup2\n        /* \"#utility.yul\":9711:9731   */\n      sub\n        /* \"#utility.yul\":9707:9708   */\n      0x00\n        /* \"#utility.yul\":9696:9705   */\n      dup4\n        /* \"#utility.yul\":9692:9709   */\n      add\n        /* \"#utility.yul\":9685:9732   */\n      mstore\n        /* \"#utility.yul\":9749:9880   */\n      tag_226\n        /* \"#utility.yul\":9875:9879   */\n      dup2\n        /* \"#utility.yul\":9749:9880   */\n      tag_134\n      jump\t// in\n    tag_226:\n        /* \"#utility.yul\":9741:9880   */\n      swap1\n      pop\n        /* \"#utility.yul\":9468:9887   */\n      swap2\n      swap1\n      pop\n      jump\t// out\n        /* \"#utility.yul\":9893:10050   */\n    tag_135:\n        /* \"#utility.yul\":10033:10042   */\n      0x54696d6520757000000000000000000000000000000000000000000000000000\n        /* \"#utility.yul\":10029:10030   */\n      0x00\n        /* \"#utility.yul\":10021:10027   */\n      dup3\n        /* \"#utility.yul\":10017:10031   */\n      add\n        /* \"#utility.yul\":10010:10043   */\n      mstore\n        /* \"#utility.yul\":9893:10050   */\n      pop\n      jump\t// out\n        /* \"#utility.yul\":10056:10421   */\n    tag_136:\n        /* \"#utility.yul\":10198:10201   */\n      0x00\n        /* \"#utility.yul\":10219:10285   */\n      tag_229\n        /* \"#utility.yul\":10283:10284   */\n      0x07\n        /* \"#utility.yul\":10278:10281   */\n      dup4\n        /* \"#utility.yul\":10219:10285   */\n      tag_119\n      jump\t// in\n    tag_229:\n        /* \"#utility.yul\":10212:10285   */\n      swap2\n      pop\n        /* \"#utility.yul\":10294:10387   */\n      tag_230\n        /* \"#utility.yul\":10383:10386   */\n      dup3\n        /* \"#utility.yul\":10294:10387   */\n      tag_135\n      jump\t// in\n    tag_230:\n        /* \"#utility.yul\":10412:10414   */\n      0x20\n        /* \"#utility.yul\":10407:10410   */\n      dup3\n        /* \"#utility.yul\":10403:10415   */\n      add\n        /* \"#utility.yul\":10396:10415   */\n      swap1\n      pop\n        /* \"#utility.yul\":10056:10421   */\n      swap2\n      swap1\n      pop\n      jump\t// out\n        /* \"#utility.yul\":10427:10846   */\n    tag_85:\n        /* \"#utility.yul\":10593:10597   */\n      0x00\n        /* \"#utility.yul\":10631:10633   */\n      0x20\n        /* \"#utility.yul\":10620:10629   */\n      dup3\n        /* \"#utility.yul\":10616:10634   */\n      add\n        /* \"#utility.yul\":10608:10634   */\n      swap1\n      pop\n        /* \"#utility.yul\":10680:10689   */\n      dup2\n        /* \"#utility.yul\":10674:10678   */\n      dup2\n        /* \"#utility.yul\":10670:10690   */\n      sub\n        /* \"#utility.yul\":10666:10667   */\n      0x00\n        /* \"#utility.yul\":10655:10664   */\n      dup4\n        /* \"#utility.yul\":10651:10668   */\n      add\n        /* \"#utility.yul\":10644:10691   */\n      mstore\n        /* \"#utility.yul\":10708:10839   */\n      tag_232\n        /* \"#utility.yul\":10834:10838   */\n      dup2\n        /* \"#utility.yul\":10708:10839   */\n      tag_136\n      jump\t// in\n    tag_232:\n        /* \"#utility.yul\":10700:10839   */\n      swap1\n      pop\n        /* \"#utility.yul\":10427:10846   */\n      swap2\n      swap1\n      pop\n      jump\t// out\n        /* \"#utility.yul\":10852:11015   */\n    tag_137:\n        /* \"#utility.yul\":10992:11007   */\n      0x53656e64206d6f72652045544800000000000000000000000000000000000000\n        /* \"#utility.yul\":10988:10989   */\n      0x00\n        /* \"#utility.yul\":10980:10986   */\n      dup3\n        /* \"#utility.yul\":10976:10990   */\n      add\n        /* \"#utility.yul\":10969:11008   */\n      mstore\n        /* \"#utility.yul\":10852:11015   */\n      pop\n      jump\t// out\n        /* \"#utility.yul\":11021:11387   */\n    tag_138:\n        /* \"#utility.yul\":11163:11166   */\n      0x00\n        /* \"#utility.yul\":11184:11251   */\n      tag_235\n        /* \"#utility.yul\":11248:11250   */\n      0x0d\n        /* \"#utility.yul\":11243:11246   */\n      dup4\n        /* \"#utility.yul\":11184:11251   */\n      tag_119\n      jump\t// in\n    tag_235:\n        /* \"#utility.yul\":11177:11251   */\n      swap2\n      pop\n        /* \"#utility.yul\":11260:11353   */\n      tag_236\n        /* \"#utility.yul\":11349:11352   */\n      dup3\n        /* \"#utility.yul\":11260:11353   */\n      tag_137\n      jump\t// in\n    tag_236:\n        /* \"#utility.yul\":11378:11380   */\n      0x20\n        /* \"#utility.yul\":11373:11376   */\n      dup3\n        /* \"#utility.yul\":11369:11381   */\n      add\n        /* \"#utility.yul\":11362:11381   */\n      swap1\n      pop\n        /* \"#utility.yul\":11021:11387   */\n      swap2\n      swap1\n      pop\n      jump\t// out\n        /* \"#utility.yul\":11393:11812   */\n    tag_89:\n        /* \"#utility.yul\":11559:11563   */\n      0x00\n        /* \"#utility.yul\":11597:11599   */\n      0x20\n        /* \"#utility.yul\":11586:11595   */\n      dup3\n        /* \"#utility.yul\":11582:11600   */\n      add\n        /* \"#utility.yul\":11574:11600   */\n      swap1\n      pop\n        /* \"#utility.yul\":11646:11655   */\n      dup2\n        /* \"#utility.yul\":11640:11644   */\n      dup2\n        /* \"#utility.yul\":11636:11656   */\n      sub\n        /* \"#utility.yul\":11632:11633   */\n      0x00\n        /* \"#utility.yul\":11621:11630   */\n      dup4\n        /* \"#utility.yul\":11617:11634   */\n      add\n        /* \"#utility.yul\":11610:11657   */\n      mstore\n        /* \"#utility.yul\":11674:11805   */\n      tag_238\n        /* \"#utility.yul\":11800:11804   */\n      dup2\n        /* \"#utility.yul\":11674:11805   */\n      tag_138\n      jump\t// in\n    tag_238:\n        /* \"#utility.yul\":11666:11805   */\n      swap1\n      pop\n        /* \"#utility.yul\":11393:11812   */\n      swap2\n      swap1\n      pop\n      jump\t// out\n        /* \"#utility.yul\":11818:11923   */\n    tag_139:\n        /* \"#utility.yul\":11854:11861   */\n      0x00\n        /* \"#utility.yul\":11894:11916   */\n      0xffffffffffffffffffff\n        /* \"#utility.yul\":11887:11892   */\n      dup3\n        /* \"#utility.yul\":11883:11917   */\n      and\n        /* \"#utility.yul\":11872:11917   */\n      swap1\n      pop\n        /* \"#utility.yul\":11818:11923   */\n      swap2\n      swap1\n      pop\n      jump\t// out\n        /* \"#utility.yul\":11929:12049   */\n    tag_140:\n        /* \"#utility.yul\":12001:12024   */\n      tag_241\n        /* \"#utility.yul\":12018:12023   */\n      dup2\n        /* \"#utility.yul\":12001:12024   */\n      tag_139\n      jump\t// in\n    tag_241:\n        /* \"#utility.yul\":11994:11999   */\n      dup2\n        /* \"#utility.yul\":11991:12025   */\n      eq\n        /* \"#utility.yul\":11981:12043   */\n      tag_242\n      jumpi\n        /* \"#utility.yul\":12039:12040   */\n      0x00\n        /* \"#utility.yul\":12036:12037   */\n      0x00\n        /* \"#utility.yul\":12029:12041   */\n      revert\n        /* \"#utility.yul\":11981:12043   */\n    tag_242:\n        /* \"#utility.yul\":11929:12049   */\n      pop\n      jump\t// out\n        /* \"#utility.yul\":12055:12196   */\n    tag_141:\n        /* \"#utility.yul\":12111:12116   */\n      0x00\n        /* \"#utility.yul\":12142:12148   */\n      dup2\n        /* \"#utility.yul\":12136:12149   */\n      mload\n        /* \"#utility.yul\":12127:12149   */\n      swap1\n      pop\n        /* \"#utility.yul\":12158:12190   */\n      tag_244\n        /* \"#utility.yul\":12184:12189   */\n      dup2\n        /* \"#utility.yul\":12158:12190   */\n      tag_140\n      jump\t// in\n    tag_244:\n        /* \"#utility.yul\":12055:12196   */\n      swap3\n      swap2\n      pop\n      pop\n      jump\t// out\n        /* \"#utility.yul\":12202:12322   */\n    tag_142:\n        /* \"#utility.yul\":12274:12297   */\n      tag_246\n        /* \"#utility.yul\":12291:12296   */\n      dup2\n        /* \"#utility.yul\":12274:12297   */\n      tag_116\n      jump\t// in\n    tag_246:\n        /* \"#utility.yul\":12267:12272   */\n      dup2\n        /* \"#utility.yul\":12264:12298   */\n      eq\n        /* \"#utility.yul\":12254:12316   */\n      tag_247\n      jumpi\n        /* \"#utility.yul\":12312:12313   */\n      0x00\n        /* \"#utility.yul\":12309:12310   */\n      0x00\n        /* \"#utility.yul\":12302:12314   */\n      revert\n        /* \"#utility.yul\":12254:12316   */\n    tag_247:\n        /* \"#utility.yul\":12202:12322   */\n      pop\n      jump\t// out\n        /* \"#utility.yul\":12328:12469   */\n    tag_143:\n        /* \"#utility.yul\":12384:12389   */\n      0x00\n        /* \"#utility.yul\":12415:12421   */\n      dup2\n        /* \"#utility.yul\":12409:12422   */\n      mload\n        /* \"#utility.yul\":12400:12422   */\n      swap1\n      pop\n        /* \"#utility.yul\":12431:12463   */\n      tag_249\n        /* \"#utility.yul\":12457:12462   */\n      dup2\n        /* \"#utility.yul\":12431:12463   */\n      tag_142\n      jump\t// in\n    tag_249:\n        /* \"#utility.yul\":12328:12469   */\n      swap3\n      swap2\n      pop\n      pop\n      jump\t// out\n        /* \"#utility.yul\":12475:12597   */\n    tag_144:\n        /* \"#utility.yul\":12548:12572   */\n      tag_251\n        /* \"#utility.yul\":12566:12571   */\n      dup2\n        /* \"#utility.yul\":12548:12572   */\n      tag_114\n      jump\t// in\n    tag_251:\n        /* \"#utility.yul\":12541:12546   */\n      dup2\n        /* \"#utility.yul\":12538:12573   */\n      eq\n        /* \"#utility.yul\":12528:12591   */\n      tag_252\n      jumpi\n        /* \"#utility.yul\":12587:12588   */\n      0x00\n        /* \"#utility.yul\":12584:12585   */\n      0x00\n        /* \"#utility.yul\":12577:12589   */\n      revert\n        /* \"#utility.yul\":12528:12591   */\n    tag_252:\n        /* \"#utility.yul\":12475:12597   */\n      pop\n      jump\t// out\n        /* \"#utility.yul\":12603:12746   */\n    tag_145:\n        /* \"#utility.yul\":12660:12665   */\n      0x00\n        /* \"#utility.yul\":12691:12697   */\n      dup2\n        /* \"#utility.yul\":12685:12698   */\n      mload\n        /* \"#utility.yul\":12676:12698   */\n      swap1\n      pop\n        /* \"#utility.yul\":12707:12740   */\n      tag_254\n        /* \"#utility.yul\":12734:12739   */\n      dup2\n        /* \"#utility.yul\":12707:12740   */\n      tag_144\n      jump\t// in\n    tag_254:\n        /* \"#utility.yul\":12603:12746   */\n      swap3\n      swap2\n      pop\n      pop\n      jump\t// out\n        /* \"#utility.yul\":12752:13723   */\n    tag_95:\n        /* \"#utility.yul\":12855:12861   */\n      0x00\n        /* \"#utility.yul\":12863:12869   */\n      0x00\n        /* \"#utility.yul\":12871:12877   */\n      0x00\n        /* \"#utility.yul\":12879:12885   */\n      0x00\n        /* \"#utility.yul\":12887:12893   */\n      0x00\n        /* \"#utility.yul\":12936:12939   */\n      0xa0\n        /* \"#utility.yul\":12924:12933   */\n      dup7\n        /* \"#utility.yul\":12915:12922   */\n      dup9\n        /* \"#utility.yul\":12911:12934   */\n      sub\n        /* \"#utility.yul\":12907:12940   */\n      slt\n        /* \"#utility.yul\":12904:13024   */\n      iszero\n      tag_256\n      jumpi\n        /* \"#utility.yul\":12943:13022   */\n      tag_257\n      tag_110\n      jump\t// in\n    tag_257:\n        /* \"#utility.yul\":12904:13024   */\n    tag_256:\n        /* \"#utility.yul\":13063:13064   */\n      0x00\n        /* \"#utility.yul\":13088:13151   */\n      tag_258\n        /* \"#utility.yul\":13143:13150   */\n      dup9\n        /* \"#utility.yul\":13134:13140   */\n      dup3\n        /* \"#utility.yul\":13123:13132   */\n      dup10\n        /* \"#utility.yul\":13119:13141   */\n      add\n        /* \"#utility.yul\":13088:13151   */\n      tag_141\n      jump\t// in\n    tag_258:\n        /* \"#utility.yul\":13078:13151   */\n      swap6\n      pop\n        /* \"#utility.yul\":13034:13161   */\n      pop\n        /* \"#utility.yul\":13200:13202   */\n      0x20\n        /* \"#utility.yul\":13226:13289   */\n      tag_259\n        /* \"#utility.yul\":13281:13288   */\n      dup9\n        /* \"#utility.yul\":13272:13278   */\n      dup3\n        /* \"#utility.yul\":13261:13270   */\n      dup10\n        /* \"#utility.yul\":13257:13279   */\n      add\n        /* \"#utility.yul\":13226:13289   */\n      tag_143\n      jump\t// in\n    tag_259:\n        /* \"#utility.yul\":13216:13289   */\n      swap5\n      pop\n        /* \"#utility.yul\":13171:13299   */\n      pop\n        /* \"#utility.yul\":13338:13340   */\n      0x40\n        /* \"#utility.yul\":13364:13428   */\n      tag_260\n        /* \"#utility.yul\":13420:13427   */\n      dup9\n        /* \"#utility.yul\":13411:13417   */\n      dup3\n        /* \"#utility.yul\":13400:13409   */\n      dup10\n        /* \"#utility.yul\":13396:13418   */\n      add\n        /* \"#utility.yul\":13364:13428   */\n      tag_145\n      jump\t// in\n    tag_260:\n        /* \"#utility.yul\":13354:13428   */\n      swap4\n      pop\n        /* \"#utility.yul\":13309:13438   */\n      pop\n        /* \"#utility.yul\":13477:13479   */\n      0x60\n        /* \"#utility.yul\":13503:13567   */\n      tag_261\n        /* \"#utility.yul\":13559:13566   */\n      dup9\n        /* \"#utility.yul\":13550:13556   */\n      dup3\n        /* \"#utility.yul\":13539:13548   */\n      dup10\n        /* \"#utility.yul\":13535:13557   */\n      add\n        /* \"#utility.yul\":13503:13567   */\n      tag_145\n      jump\t// in\n    tag_261:\n        /* \"#utility.yul\":13493:13567   */\n      swap3\n      pop\n        /* \"#utility.yul\":13448:13577   */\n      pop\n        /* \"#utility.yul\":13616:13619   */\n      0x80\n        /* \"#utility.yul\":13643:13706   */\n      tag_262\n        /* \"#utility.yul\":13698:13705   */\n      dup9\n        /* \"#utility.yul\":13689:13695   */\n      dup3\n        /* \"#utility.yul\":13678:13687   */\n      dup10\n        /* \"#utility.yul\":13674:13696   */\n      add\n        /* \"#utility.yul\":13643:13706   */\n      tag_141\n      jump\t// in\n    tag_262:\n        /* \"#utility.yul\":13633:13706   */\n      swap2\n      pop\n        /* \"#utility.yul\":13587:13716   */\n      pop\n        /* \"#utility.yul\":12752:13723   */\n      swap3\n      swap6\n      pop\n      swap3\n      swap6\n      swap1\n      swap4\n      pop\n      jump\t// out\n        /* \"#utility.yul\":13729:14139   */\n    tag_103:\n        /* \"#utility.yul\":13769:13776   */\n      0x00\n        /* \"#utility.yul\":13792:13812   */\n      tag_264\n        /* \"#utility.yul\":13810:13811   */\n      dup3\n        /* \"#utility.yul\":13792:13812   */\n      tag_114\n      jump\t// in\n    tag_264:\n        /* \"#utility.yul\":13787:13812   */\n      swap2\n      pop\n        /* \"#utility.yul\":13826:13846   */\n      tag_265\n        /* \"#utility.yul\":13844:13845   */\n      dup4\n        /* \"#utility.yul\":13826:13846   */\n      tag_114\n      jump\t// in\n    tag_265:\n        /* \"#utility.yul\":13821:13846   */\n      swap3\n      pop\n        /* \"#utility.yul\":13881:13882   */\n      dup3\n        /* \"#utility.yul\":13878:13879   */\n      dup3\n        /* \"#utility.yul\":13874:13883   */\n      mul\n        /* \"#utility.yul\":13903:13933   */\n      tag_266\n        /* \"#utility.yul\":13921:13932   */\n      dup2\n        /* \"#utility.yul\":13903:13933   */\n      tag_114\n      jump\t// in\n    tag_266:\n        /* \"#utility.yul\":13892:13933   */\n      swap2\n      pop\n        /* \"#utility.yul\":14082:14083   */\n      dup3\n        /* \"#utility.yul\":14073:14080   */\n      dup3\n        /* \"#utility.yul\":14069:14084   */\n      div\n        /* \"#utility.yul\":14066:14067   */\n      dup5\n        /* \"#utility.yul\":14063:14085   */\n      eq\n        /* \"#utility.yul\":14043:14044   */\n      dup4\n        /* \"#utility.yul\":14036:14045   */\n      iszero\n        /* \"#utility.yul\":14016:14099   */\n      or\n        /* \"#utility.yul\":13993:14132   */\n      tag_267\n      jumpi\n        /* \"#utility.yul\":14112:14130   */\n      tag_268\n      tag_118\n      jump\t// in\n    tag_268:\n        /* \"#utility.yul\":13993:14132   */\n    tag_267:\n        /* \"#utility.yul\":13777:14139   */\n      pop\n        /* \"#utility.yul\":13729:14139   */\n      swap3\n      swap2\n      pop\n      pop\n      jump\t// out\n        /* \"#utility.yul\":14145:14325   */\n    tag_146:\n        /* \"#utility.yul\":14193:14270   */\n      0x4e487b7100000000000000000000000000000000000000000000000000000000\n        /* \"#utility.yul\":14190:14191   */\n      0x00\n        /* \"#utility.yul\":14183:14271   */\n      mstore\n        /* \"#utility.yul\":14290:14294   */\n      0x12\n        /* \"#utility.yul\":14287:14288   */\n      0x04\n        /* \"#utility.yul\":14280:14295   */\n      mstore\n        /* \"#utility.yul\":14314:14318   */\n      0x24\n        /* \"#utility.yul\":14311:14312   */\n      0x00\n        /* \"#utility.yul\":14304:14319   */\n      revert\n        /* \"#utility.yul\":14331:14516   */\n    tag_105:\n        /* \"#utility.yul\":14371:14372   */\n      0x00\n        /* \"#utility.yul\":14388:14408   */\n      tag_271\n        /* \"#utility.yul\":14406:14407   */\n      dup3\n        /* \"#utility.yul\":14388:14408   */\n      tag_114\n      jump\t// in\n    tag_271:\n        /* \"#utility.yul\":14383:14408   */\n      swap2\n      pop\n        /* \"#utility.yul\":14422:14442   */\n      tag_272\n        /* \"#utility.yul\":14440:14441   */\n      dup4\n        /* \"#utility.yul\":14422:14442   */\n      tag_114\n      jump\t// in\n    tag_272:\n        /* \"#utility.yul\":14417:14442   */\n      swap3\n      pop\n        /* \"#utility.yul\":14461:14462   */\n      dup3\n        /* \"#utility.yul\":14451:14486   */\n      tag_273\n      jumpi\n        /* \"#utility.yul\":14466:14484   */\n      tag_274\n      tag_146\n      jump\t// in\n    tag_274:\n        /* \"#utility.yul\":14451:14486   */\n    tag_273:\n        /* \"#utility.yul\":14508:14509   */\n      dup3\n        /* \"#utility.yul\":14505:14506   */\n      dup3\n        /* \"#utility.yul\":14501:14510   */\n      div\n        /* \"#utility.yul\":14496:14510   */\n      swap1\n      pop\n        /* \"#utility.yul\":14331:14516   */\n      swap3\n      swap2\n      pop\n      pop\n      jump\t// out\n\n    auxdata: 0xa264697066735822122090670d9ebe9af0f6f31a3a684fd7e3c83145efac269ec02e41297e507f3f3d3a64736f6c634300081e0033\n}\n",
				"bytecode": {
					"linkReferences": {},
					"object": "608060405234801561000f575f5ffd5b506040516110a83803806110a883398181016040528101906100319190610110565b73694aa1769357215de4fac081bf1f309adc32530660015f6101000a81548173ffffffffffffffffffffffffffffffffffffffff021916908373ffffffffffffffffffffffffffffffffffffffff1602179055503360025f6101000a81548173ffffffffffffffffffffffffffffffffffffffff021916908373ffffffffffffffffffffffffffffffffffffffff16021790555042600381905550806004819055505061013b565b5f5ffd5b5f819050919050565b6100ef816100dd565b81146100f9575f5ffd5b50565b5f8151905061010a816100e6565b92915050565b5f60208284031215610125576101246100d9565b5b5f610132848285016100fc565b91505092915050565b610f60806101485f395ff3fe60806040526004361061006f575f3560e01c80639f883a051161004d5780639f883a05146100c9578063b60d428814610105578063bea4dfb51461010f578063f2fde38b146101395761006f565b8063590e1ae3146100735780638da5cb5b146100895780638edd6eb6146100b3575b5f5ffd5b34801561007e575f5ffd5b50610087610161565b005b348015610094575f5ffd5b5061009d6103aa565b6040516100aa9190610897565b60405180910390f35b3480156100be575f5ffd5b506100c76103cf565b005b3480156100d4575f5ffd5b506100ef60048036038101906100ea91906108de565b6105ad565b6040516100fc9190610921565b60405180910390f35b61010d6105c1565b005b34801561011a575f5ffd5b506101236106ba565b6040516101309190610952565b60405180910390f35b348015610144575f5ffd5b5061015f600480360381019061015a91906108de565b610757565b005b6004546003546101719190610998565b4210156101b3576040517f08c379a00000000000000000000000000000000000000000000000000000000081526004016101aa90610a25565b60405180910390fd5b64174876e8006101c247610829565b10610202576040517f08c379a00000000000000000000000000000000000000000000000000000000081526004016101f990610a8d565b60405180910390fd5b5f5f5f3373ffffffffffffffffffffffffffffffffffffffff1673ffffffffffffffffffffffffffffffffffffffff1681526020019081526020015f205403610280576040517f08c379a000000000000000000000000000000000000000000000000000000000815260040161027790610af5565b60405180910390fd5b5f3373ffffffffffffffffffffffffffffffffffffffff165f5f3373ffffffffffffffffffffffffffffffffffffffff1673ffffffffffffffffffffffffffffffffffffffff1681526020019081526020015f20546040516102e190610b40565b5f6040518083038185875af1925050503d805f811461031b576040519150601f19603f3d011682016040523d82523d5f602084013e610320565b606091505b50508091505080610366576040517f08c379a000000000000000000000000000000000000000000000000000000000815260040161035d90610b9e565b60405180910390fd5b5f5f5f3373ffffffffffffffffffffffffffffffffffffffff1673ffffffffffffffffffffffffffffffffffffffff1681526020019081526020015f208190555050565b60025f9054906101000a900473ffffffffffffffffffffffffffffffffffffffff1681565b60025f9054906101000a900473ffffffffffffffffffffffffffffffffffffffff1673ffffffffffffffffffffffffffffffffffffffff163373ffffffffffffffffffffffffffffffffffffffff161461045e576040517f08c379a000000000000000000000000000000000000000000000000000000000815260040161045590610c2c565b60405180910390fd5b60045460035461046e9190610998565b4210156104b0576040517f08c379a00000000000000000000000000000000000000000000000000000000081526004016104a790610a25565b60405180910390fd5b64174876e8006104bf47610829565b1015610500576040517f08c379a00000000000000000000000000000000000000000000000000000000081526004016104f790610c94565b60405180910390fd5b5f3373ffffffffffffffffffffffffffffffffffffffff164760405161052590610b40565b5f6040518083038185875af1925050503d805f811461055f576040519150601f19603f3d011682016040523d82523d5f602084013e610564565b606091505b505080915050806105aa576040517f08c379a00000000000000000000000000000000000000000000000000000000081526004016105a190610b9e565b60405180910390fd5b50565b5f602052805f5260405f205f915090505481565b6004546003546105d19190610998565b4210610612576040517f08c379a000000000000000000000000000000000000000000000000000000000815260040161060990610cfc565b60405180910390fd5b68056bc75e2d6310000061062534610829565b1015610666576040517f08c379a000000000000000000000000000000000000000000000000000000000815260040161065d90610d64565b60405180910390fd5b345f5f3373ffffffffffffffffffffffffffffffffffffffff1673ffffffffffffffffffffffffffffffffffffffff1681526020019081526020015f205f8282546106b19190610998565b92505081905550565b5f5f60015f9054906101000a900473ffffffffffffffffffffffffffffffffffffffff1673ffffffffffffffffffffffffffffffffffffffff1663feaf968c6040518163ffffffff1660e01b815260040160a060405180830381865afa158015610726573d5f5f3e3d5ffd5b505050506040513d601f19601f8201168201806040525081019061074a9190610e15565b5050509150508091505090565b60025f9054906101000a900473ffffffffffffffffffffffffffffffffffffffff1673ffffffffffffffffffffffffffffffffffffffff163373ffffffffffffffffffffffffffffffffffffffff16146107e6576040517f08c379a00000000000000000000000000000000000000000000000000000000081526004016107dd90610c2c565b60405180910390fd5b8060025f6101000a81548173ffffffffffffffffffffffffffffffffffffffff021916908373ffffffffffffffffffffffffffffffffffffffff16021790555050565b5f5f6108336106ba565b90506305f5e10081846108469190610e8c565b6108509190610efa565b915050919050565b5f73ffffffffffffffffffffffffffffffffffffffff82169050919050565b5f61088182610858565b9050919050565b61089181610877565b82525050565b5f6020820190506108aa5f830184610888565b92915050565b5f5ffd5b6108bd81610877565b81146108c7575f5ffd5b50565b5f813590506108d8816108b4565b92915050565b5f602082840312156108f3576108f26108b0565b5b5f610900848285016108ca565b91505092915050565b5f819050919050565b61091b81610909565b82525050565b5f6020820190506109345f830184610912565b92915050565b5f819050919050565b61094c8161093a565b82525050565b5f6020820190506109655f830184610943565b92915050565b7f4e487b71000000000000000000000000000000000000000000000000000000005f52601160045260245ffd5b5f6109a282610909565b91506109ad83610909565b92508282019050808211156109c5576109c461096b565b5b92915050565b5f82825260208201905092915050565b7f576169742061206d696e757465000000000000000000000000000000000000005f82015250565b5f610a0f600d836109cb565b9150610a1a826109db565b602082019050919050565b5f6020820190508181035f830152610a3c81610a03565b9050919050565b7f54617267657420697320726561636865640000000000000000000000000000005f82015250565b5f610a776011836109cb565b9150610a8282610a43565b602082019050919050565b5f6020820190508181035f830152610aa481610a6b565b9050919050565b7f596f752068617665206e6f742066756e642e00000000000000000000000000005f82015250565b5f610adf6012836109cb565b9150610aea82610aab565b602082019050919050565b5f6020820190508181035f830152610b0c81610ad3565b9050919050565b5f81905092915050565b50565b5f610b2b5f83610b13565b9150610b3682610b1d565b5f82019050919050565b5f610b4a82610b20565b9150819050919050565b7f7472616e73666572207478206661696c656400000000000000000000000000005f82015250565b5f610b886012836109cb565b9150610b9382610b54565b602082019050919050565b5f6020820190508181035f830152610bb581610b7c565b9050919050565b7f746869732066756e6374696f6e2063616e206f6e6c792062652063616c6c65645f8201527f206279206f776e65720000000000000000000000000000000000000000000000602082015250565b5f610c166029836109cb565b9150610c2182610bbc565b604082019050919050565b5f6020820190508181035f830152610c4381610c0a565b9050919050565b7f546172676574206973206e6f74207265616368656400000000000000000000005f82015250565b5f610c7e6015836109cb565b9150610c8982610c4a565b602082019050919050565b5f6020820190508181035f830152610cab81610c72565b9050919050565b7f54696d65207570000000000000000000000000000000000000000000000000005f82015250565b5f610ce66007836109cb565b9150610cf182610cb2565b602082019050919050565b5f6020820190508181035f830152610d1381610cda565b9050919050565b7f53656e64206d6f726520455448000000000000000000000000000000000000005f82015250565b5f610d4e600d836109cb565b9150610d5982610d1a565b602082019050919050565b5f6020820190508181035f830152610d7b81610d42565b9050919050565b5f69ffffffffffffffffffff82169050919050565b610da081610d82565b8114610daa575f5ffd5b50565b5f81519050610dbb81610d97565b92915050565b610dca8161093a565b8114610dd4575f5ffd5b50565b5f81519050610de581610dc1565b92915050565b610df481610909565b8114610dfe575f5ffd5b50565b5f81519050610e0f81610deb565b92915050565b5f5f5f5f5f60a08688031215610e2e57610e2d6108b0565b5b5f610e3b88828901610dad565b9550506020610e4c88828901610dd7565b9450506040610e5d88828901610e01565b9350506060610e6e88828901610e01565b9250506080610e7f88828901610dad565b9150509295509295909350565b5f610e9682610909565b9150610ea183610909565b9250828202610eaf81610909565b91508282048414831517610ec657610ec561096b565b5b5092915050565b7f4e487b71000000000000000000000000000000000000000000000000000000005f52601260045260245ffd5b5f610f0482610909565b9150610f0f83610909565b925082610f1f57610f1e610ecd565b5b82820490509291505056fea264697066735822122090670d9ebe9af0f6f31a3a684fd7e3c83145efac269ec02e41297e507f3f3d3a64736f6c634300081e0033",
					"opcodes": "PUSH1 0x80 PUSH1 0x40 MSTORE CALLVALUE DUP1 ISZERO PUSH2 0xF JUMPI PUSH0 PUSH0 REVERT JUMPDEST POP PUSH1 0x40 MLOAD PUSH2 0x10A8 CODESIZE SUB DUP1 PUSH2 0x10A8 DUP4 CODECOPY DUP2 DUP2 ADD PUSH1 0x40 MSTORE DUP2 ADD SWAP1 PUSH2 0x31 SWAP2 SWAP1 PUSH2 0x110 JUMP JUMPDEST PUSH20 0x694AA1769357215DE4FAC081BF1F309ADC325306 PUSH1 0x1 PUSH0 PUSH2 0x100 EXP DUP2 SLOAD DUP2 PUSH20 0xFFFFFFFFFFFFFFFFFFFFFFFFFFFFFFFFFFFFFFFF MUL NOT AND SWAP1 DUP4 PUSH20 0xFFFFFFFFFFFFFFFFFFFFFFFFFFFFFFFFFFFFFFFF AND MUL OR SWAP1 SSTORE POP CALLER PUSH1 0x2 PUSH0 PUSH2 0x100 EXP DUP2 SLOAD DUP2 PUSH20 0xFFFFFFFFFFFFFFFFFFFFFFFFFFFFFFFFFFFFFFFF MUL NOT AND SWAP1 DUP4 PUSH20 0xFFFFFFFFFFFFFFFFFFFFFFFFFFFFFFFFFFFFFFFF AND MUL OR SWAP1 SSTORE POP TIMESTAMP PUSH1 0x3 DUP2 SWAP1 SSTORE POP DUP1 PUSH1 0x4 DUP2 SWAP1 SSTORE POP POP PUSH2 0x13B JUMP JUMPDEST PUSH0 PUSH0 REVERT JUMPDEST PUSH0 DUP2 SWAP1 POP SWAP2 SWAP1 POP JUMP JUMPDEST PUSH2 0xEF DUP2 PUSH2 0xDD JUMP JUMPDEST DUP2 EQ PUSH2 0xF9 JUMPI PUSH0 PUSH0 REVERT JUMPDEST POP JUMP JUMPDEST PUSH0 DUP2 MLOAD SWAP1 POP PUSH2 0x10A DUP2 PUSH2 0xE6 JUMP JUMPDEST SWAP3 SWAP2 POP POP JUMP JUMPDEST PUSH0 PUSH1 0x20 DUP3 DUP5 SUB SLT ISZERO PUSH2 0x125 JUMPI PUSH2 0x124 PUSH2 0xD9 JUMP JUMPDEST JUMPDEST PUSH0 PUSH2 0x132 DUP5 DUP3 DUP6 ADD PUSH2 0xFC JUMP JUMPDEST SWAP2 POP POP SWAP3 SWAP2 POP POP JUMP JUMPDEST PUSH2 0xF60 DUP1 PUSH2 0x148 PUSH0 CODECOPY PUSH0 RETURN INVALID PUSH1 0x80 PUSH1 0x40 MSTORE PUSH1 0x4 CALLDATASIZE LT PUSH2 0x6F JUMPI PUSH0 CALLDATALOAD PUSH1 0xE0 SHR DUP1 PUSH4 0x9F883A05 GT PUSH2 0x4D JUMPI DUP1 PUSH4 0x9F883A05 EQ PUSH2 0xC9 JUMPI DUP1 PUSH4 0xB60D4288 EQ PUSH2 0x105 JUMPI DUP1 PUSH4 0xBEA4DFB5 EQ PUSH2 0x10F JUMPI DUP1 PUSH4 0xF2FDE38B EQ PUSH2 0x139 JUMPI PUSH2 0x6F JUMP JUMPDEST DUP1 PUSH4 0x590E1AE3 EQ PUSH2 0x73 JUMPI DUP1 PUSH4 0x8DA5CB5B EQ PUSH2 0x89 JUMPI DUP1 PUSH4 0x8EDD6EB6 EQ PUSH2 0xB3 JUMPI JUMPDEST PUSH0 PUSH0 REVERT JUMPDEST CALLVALUE DUP1 ISZERO PUSH2 0x7E JUMPI PUSH0 PUSH0 REVERT JUMPDEST POP PUSH2 0x87 PUSH2 0x161 JUMP JUMPDEST STOP JUMPDEST CALLVALUE DUP1 ISZERO PUSH2 0x94 JUMPI PUSH0 PUSH0 REVERT JUMPDEST POP PUSH2 0x9D PUSH2 0x3AA JUMP JUMPDEST PUSH1 0x40 MLOAD PUSH2 0xAA SWAP2 SWAP1 PUSH2 0x897 JUMP JUMPDEST PUSH1 0x40 MLOAD DUP1 SWAP2 SUB SWAP1 RETURN JUMPDEST CALLVALUE DUP1 ISZERO PUSH2 0xBE JUMPI PUSH0 PUSH0 REVERT JUMPDEST POP PUSH2 0xC7 PUSH2 0x3CF JUMP JUMPDEST STOP JUMPDEST CALLVALUE DUP1 ISZERO PUSH2 0xD4 JUMPI PUSH0 PUSH0 REVERT JUMPDEST POP PUSH2 0xEF PUSH1 0x4 DUP1 CALLDATASIZE SUB DUP2 ADD SWAP1 PUSH2 0xEA SWAP2 SWAP1 PUSH2 0x8DE JUMP JUMPDEST PUSH2 0x5AD JUMP JUMPDEST PUSH1 0x40 MLOAD PUSH2 0xFC SWAP2 SWAP1 PUSH2 0x921 JUMP JUMPDEST PUSH1 0x40 MLOAD DUP1 SWAP2 SUB SWAP1 RETURN JUMPDEST PUSH2 0x10D PUSH2 0x5C1 JUMP JUMPDEST STOP JUMPDEST CALLVALUE DUP1 ISZERO PUSH2 0x11A JUMPI PUSH0 PUSH0 REVERT JUMPDEST POP PUSH2 0x123 PUSH2 0x6BA JUMP JUMPDEST PUSH1 0x40 MLOAD PUSH2 0x130 SWAP2 SWAP1 PUSH2 0x952 JUMP JUMPDEST PUSH1 0x40 MLOAD DUP1 SWAP2 SUB SWAP1 RETURN JUMPDEST CALLVALUE DUP1 ISZERO PUSH2 0x144 JUMPI PUSH0 PUSH0 REVERT JUMPDEST POP PUSH2 0x15F PUSH1 0x4 DUP1 CALLDATASIZE SUB DUP2 ADD SWAP1 PUSH2 0x15A SWAP2 SWAP1 PUSH2 0x8DE JUMP JUMPDEST PUSH2 0x757 JUMP JUMPDEST STOP JUMPDEST PUSH1 0x4 SLOAD PUSH1 0x3 SLOAD PUSH2 0x171 SWAP2 SWAP1 PUSH2 0x998 JUMP JUMPDEST TIMESTAMP LT ISZERO PUSH2 0x1B3 JUMPI PUSH1 0x40 MLOAD PUSH32 0x8C379A000000000000000000000000000000000000000000000000000000000 DUP2 MSTORE PUSH1 0x4 ADD PUSH2 0x1AA SWAP1 PUSH2 0xA25 JUMP JUMPDEST PUSH1 0x40 MLOAD DUP1 SWAP2 SUB SWAP1 REVERT JUMPDEST PUSH5 0x174876E800 PUSH2 0x1C2 SELFBALANCE PUSH2 0x829 JUMP JUMPDEST LT PUSH2 0x202 JUMPI PUSH1 0x40 MLOAD PUSH32 0x8C379A000000000000000000000000000000000000000000000000000000000 DUP2 MSTORE PUSH1 0x4 ADD PUSH2 0x1F9 SWAP1 PUSH2 0xA8D JUMP JUMPDEST PUSH1 0x40 MLOAD DUP1 SWAP2 SUB SWAP1 REVERT JUMPDEST PUSH0 PUSH0 PUSH0 CALLER PUSH20 0xFFFFFFFFFFFFFFFFFFFFFFFFFFFFFFFFFFFFFFFF AND PUSH20 0xFFFFFFFFFFFFFFFFFFFFFFFFFFFFFFFFFFFFFFFF AND DUP2 MSTORE PUSH1 0x20 ADD SWAP1 DUP2 MSTORE PUSH1 0x20 ADD PUSH0 KECCAK256 SLOAD SUB PUSH2 0x280 JUMPI PUSH1 0x40 MLOAD PUSH32 0x8C379A000000000000000000000000000000000000000000000000000000000 DUP2 MSTORE PUSH1 0x4 ADD PUSH2 0x277 SWAP1 PUSH2 0xAF5 JUMP JUMPDEST PUSH1 0x40 MLOAD DUP1 SWAP2 SUB SWAP1 REVERT JUMPDEST PUSH0 CALLER PUSH20 0xFFFFFFFFFFFFFFFFFFFFFFFFFFFFFFFFFFFFFFFF AND PUSH0 PUSH0 CALLER PUSH20 0xFFFFFFFFFFFFFFFFFFFFFFFFFFFFFFFFFFFFFFFF AND PUSH20 0xFFFFFFFFFFFFFFFFFFFFFFFFFFFFFFFFFFFFFFFF AND DUP2 MSTORE PUSH1 0x20 ADD SWAP1 DUP2 MSTORE PUSH1 0x20 ADD PUSH0 KECCAK256 SLOAD PUSH1 0x40 MLOAD PUSH2 0x2E1 SWAP1 PUSH2 0xB40 JUMP JUMPDEST PUSH0 PUSH1 0x40 MLOAD DUP1 DUP4 SUB DUP2 DUP6 DUP8 GAS CALL SWAP3 POP POP POP RETURNDATASIZE DUP1 PUSH0 DUP2 EQ PUSH2 0x31B JUMPI PUSH1 0x40 MLOAD SWAP2 POP PUSH1 0x1F NOT PUSH1 0x3F RETURNDATASIZE ADD AND DUP3 ADD PUSH1 0x40 MSTORE RETURNDATASIZE DUP3 MSTORE RETURNDATASIZE PUSH0 PUSH1 0x20 DUP5 ADD RETURNDATACOPY PUSH2 0x320 JUMP JUMPDEST PUSH1 0x60 SWAP2 POP JUMPDEST POP POP DUP1 SWAP2 POP POP DUP1 PUSH2 0x366 JUMPI PUSH1 0x40 MLOAD PUSH32 0x8C379A000000000000000000000000000000000000000000000000000000000 DUP2 MSTORE PUSH1 0x4 ADD PUSH2 0x35D SWAP1 PUSH2 0xB9E JUMP JUMPDEST PUSH1 0x40 MLOAD DUP1 SWAP2 SUB SWAP1 REVERT JUMPDEST PUSH0 PUSH0 PUSH0 CALLER PUSH20 0xFFFFFFFFFFFFFFFFFFFFFFFFFFFFFFFFFFFFFFFF AND PUSH20 0xFFFFFFFFFFFFFFFFFFFFFFFFFFFFFFFFFFFFFFFF AND DUP2 MSTORE PUSH1 0x20 ADD SWAP1 DUP2 MSTORE PUSH1 0x20 ADD PUSH0 KECCAK256 DUP2 SWAP1 SSTORE POP POP JUMP JUMPDEST PUSH1 0x2 PUSH0 SWAP1 SLOAD SWAP1 PUSH2 0x100 EXP SWAP1 DIV PUSH20 0xFFFFFFFFFFFFFFFFFFFFFFFFFFFFFFFFFFFFFFFF AND DUP2 JUMP JUMPDEST PUSH1 0x2 PUSH0 SWAP1 SLOAD SWAP1 PUSH2 0x100 EXP SWAP1 DIV PUSH20 0xFFFFFFFFFFFFFFFFFFFFFFFFFFFFFFFFFFFFFFFF AND PUSH20 0xFFFFFFFFFFFFFFFFFFFFFFFFFFFFFFFFFFFFFFFF AND CALLER PUSH20 0xFFFFFFFFFFFFFFFFFFFFFFFFFFFFFFFFFFFFFFFF AND EQ PUSH2 0x45E JUMPI PUSH1 0x40 MLOAD PUSH32 0x8C379A000000000000000000000000000000000000000000000000000000000 DUP2 MSTORE PUSH1 0x4 ADD PUSH2 0x455 SWAP1 PUSH2 0xC2C JUMP JUMPDEST PUSH1 0x40 MLOAD DUP1 SWAP2 SUB SWAP1 REVERT JUMPDEST PUSH1 0x4 SLOAD PUSH1 0x3 SLOAD PUSH2 0x46E SWAP2 SWAP1 PUSH2 0x998 JUMP JUMPDEST TIMESTAMP LT ISZERO PUSH2 0x4B0 JUMPI PUSH1 0x40 MLOAD PUSH32 0x8C379A000000000000000000000000000000000000000000000000000000000 DUP2 MSTORE PUSH1 0x4 ADD PUSH2 0x4A7 SWAP1 PUSH2 0xA25 JUMP JUMPDEST PUSH1 0x40 MLOAD DUP1 SWAP2 SUB SWAP1 REVERT JUMPDEST PUSH5 0x174876E800 PUSH2 0x4BF SELFBALANCE PUSH2 0x829 JUMP JUMPDEST LT ISZERO PUSH2 0x500 JUMPI PUSH1 0x40 MLOAD PUSH32 0x8C379A000000000000000000000000000000000000000000000000000000000 DUP2 MSTORE PUSH1 0x4 ADD PUSH2 0x4F7 SWAP1 PUSH2 0xC94 JUMP JUMPDEST PUSH1 0x40 MLOAD DUP1 SWAP2 SUB SWAP1 REVERT JUMPDEST PUSH0 CALLER PUSH20 0xFFFFFFFFFFFFFFFFFFFFFFFFFFFFFFFFFFFFFFFF AND SELFBALANCE PUSH1 0x40 MLOAD PUSH2 0x525 SWAP1 PUSH2 0xB40 JUMP JUMPDEST PUSH0 PUSH1 0x40 MLOAD DUP1 DUP4 SUB DUP2 DUP6 DUP8 GAS CALL SWAP3 POP POP POP RETURNDATASIZE DUP1 PUSH0 DUP2 EQ PUSH2 0x55F JUMPI PUSH1 0x40 MLOAD SWAP2 POP PUSH1 0x1F NOT PUSH1 0x3F RETURNDATASIZE ADD AND DUP3 ADD PUSH1 0x40 MSTORE RETURNDATASIZE DUP3 MSTORE RETURNDATASIZE PUSH0 PUSH1 0x20 DUP5 ADD RETURNDATACOPY PUSH2 0x564 JUMP JUMPDEST PUSH1 0x60 SWAP2 POP JUMPDEST POP POP DUP1 SWAP2 POP POP DUP1 PUSH2 0x5AA JUMPI PUSH1 0x40 MLOAD PUSH32 0x8C379A000000000000000000000000000000000000000000000000000000000 DUP2 MSTORE PUSH1 0x4 ADD PUSH2 0x5A1 SWAP1 PUSH2 0xB9E JUMP JUMPDEST PUSH1 0x40 MLOAD DUP1 SWAP2 SUB SWAP1 REVERT JUMPDEST POP JUMP JUMPDEST PUSH0 PUSH1 0x20 MSTORE DUP1 PUSH0 MSTORE PUSH1 0x40 PUSH0 KECCAK256 PUSH0 SWAP2 POP SWAP1 POP SLOAD DUP2 JUMP JUMPDEST PUSH1 0x4 SLOAD PUSH1 0x3 SLOAD PUSH2 0x5D1 SWAP2 SWAP1 PUSH2 0x998 JUMP JUMPDEST TIMESTAMP LT PUSH2 0x612 JUMPI PUSH1 0x40 MLOAD PUSH32 0x8C379A000000000000000000000000000000000000000000000000000000000 DUP2 MSTORE PUSH1 0x4 ADD PUSH2 0x609 SWAP1 PUSH2 0xCFC JUMP JUMPDEST PUSH1 0x40 MLOAD DUP1 SWAP2 SUB SWAP1 REVERT JUMPDEST PUSH9 0x56BC75E2D63100000 PUSH2 0x625 CALLVALUE PUSH2 0x829 JUMP JUMPDEST LT ISZERO PUSH2 0x666 JUMPI PUSH1 0x40 MLOAD PUSH32 0x8C379A000000000000000000000000000000000000000000000000000000000 DUP2 MSTORE PUSH1 0x4 ADD PUSH2 0x65D SWAP1 PUSH2 0xD64 JUMP JUMPDEST PUSH1 0x40 MLOAD DUP1 SWAP2 SUB SWAP1 REVERT JUMPDEST CALLVALUE PUSH0 PUSH0 CALLER PUSH20 0xFFFFFFFFFFFFFFFFFFFFFFFFFFFFFFFFFFFFFFFF AND PUSH20 0xFFFFFFFFFFFFFFFFFFFFFFFFFFFFFFFFFFFFFFFF AND DUP2 MSTORE PUSH1 0x20 ADD SWAP1 DUP2 MSTORE PUSH1 0x20 ADD PUSH0 KECCAK256 PUSH0 DUP3 DUP3 SLOAD PUSH2 0x6B1 SWAP2 SWAP1 PUSH2 0x998 JUMP JUMPDEST SWAP3 POP POP DUP2 SWAP1 SSTORE POP JUMP JUMPDEST PUSH0 PUSH0 PUSH1 0x1 PUSH0 SWAP1 SLOAD SWAP1 PUSH2 0x100 EXP SWAP1 DIV PUSH20 0xFFFFFFFFFFFFFFFFFFFFFFFFFFFFFFFFFFFFFFFF AND PUSH20 0xFFFFFFFFFFFFFFFFFFFFFFFFFFFFFFFFFFFFFFFF AND PUSH4 0xFEAF968C PUSH1 0x40 MLOAD DUP2 PUSH4 0xFFFFFFFF AND PUSH1 0xE0 SHL DUP2 MSTORE PUSH1 0x4 ADD PUSH1 0xA0 PUSH1 0x40 MLOAD DUP1 DUP4 SUB DUP2 DUP7 GAS STATICCALL ISZERO DUP1 ISZERO PUSH2 0x726 JUMPI RETURNDATASIZE PUSH0 PUSH0 RETURNDATACOPY RETURNDATASIZE PUSH0 REVERT JUMPDEST POP POP POP POP PUSH1 0x40 MLOAD RETURNDATASIZE PUSH1 0x1F NOT PUSH1 0x1F DUP3 ADD AND DUP3 ADD DUP1 PUSH1 0x40 MSTORE POP DUP2 ADD SWAP1 PUSH2 0x74A SWAP2 SWAP1 PUSH2 0xE15 JUMP JUMPDEST POP POP POP SWAP2 POP POP DUP1 SWAP2 POP POP SWAP1 JUMP JUMPDEST PUSH1 0x2 PUSH0 SWAP1 SLOAD SWAP1 PUSH2 0x100 EXP SWAP1 DIV PUSH20 0xFFFFFFFFFFFFFFFFFFFFFFFFFFFFFFFFFFFFFFFF AND PUSH20 0xFFFFFFFFFFFFFFFFFFFFFFFFFFFFFFFFFFFFFFFF AND CALLER PUSH20 0xFFFFFFFFFFFFFFFFFFFFFFFFFFFFFFFFFFFFFFFF AND EQ PUSH2 0x7E6 JUMPI PUSH1 0x40 MLOAD PUSH32 0x8C379A000000000000000000000000000000000000000000000000000000000 DUP2 MSTORE PUSH1 0x4 ADD PUSH2 0x7DD SWAP1 PUSH2 0xC2C JUMP JUMPDEST PUSH1 0x40 MLOAD DUP1 SWAP2 SUB SWAP1 REVERT JUMPDEST DUP1 PUSH1 0x2 PUSH0 PUSH2 0x100 EXP DUP2 SLOAD DUP2 PUSH20 0xFFFFFFFFFFFFFFFFFFFFFFFFFFFFFFFFFFFFFFFF MUL NOT AND SWAP1 DUP4 PUSH20 0xFFFFFFFFFFFFFFFFFFFFFFFFFFFFFFFFFFFFFFFF AND MUL OR SWAP1 SSTORE POP POP JUMP JUMPDEST PUSH0 PUSH0 PUSH2 0x833 PUSH2 0x6BA JUMP JUMPDEST SWAP1 POP PUSH4 0x5F5E100 DUP2 DUP5 PUSH2 0x846 SWAP2 SWAP1 PUSH2 0xE8C JUMP JUMPDEST PUSH2 0x850 SWAP2 SWAP1 PUSH2 0xEFA JUMP JUMPDEST SWAP2 POP POP SWAP2 SWAP1 POP JUMP JUMPDEST PUSH0 PUSH20 0xFFFFFFFFFFFFFFFFFFFFFFFFFFFFFFFFFFFFFFFF DUP3 AND SWAP1 POP SWAP2 SWAP1 POP JUMP JUMPDEST PUSH0 PUSH2 0x881 DUP3 PUSH2 0x858 JUMP JUMPDEST SWAP1 POP SWAP2 SWAP1 POP JUMP JUMPDEST PUSH2 0x891 DUP2 PUSH2 0x877 JUMP JUMPDEST DUP3 MSTORE POP POP JUMP JUMPDEST PUSH0 PUSH1 0x20 DUP3 ADD SWAP1 POP PUSH2 0x8AA PUSH0 DUP4 ADD DUP5 PUSH2 0x888 JUMP JUMPDEST SWAP3 SWAP2 POP POP JUMP JUMPDEST PUSH0 PUSH0 REVERT JUMPDEST PUSH2 0x8BD DUP2 PUSH2 0x877 JUMP JUMPDEST DUP2 EQ PUSH2 0x8C7 JUMPI PUSH0 PUSH0 REVERT JUMPDEST POP JUMP JUMPDEST PUSH0 DUP2 CALLDATALOAD SWAP1 POP PUSH2 0x8D8 DUP2 PUSH2 0x8B4 JUMP JUMPDEST SWAP3 SWAP2 POP POP JUMP JUMPDEST PUSH0 PUSH1 0x20 DUP3 DUP5 SUB SLT ISZERO PUSH2 0x8F3 JUMPI PUSH2 0x8F2 PUSH2 0x8B0 JUMP JUMPDEST JUMPDEST PUSH0 PUSH2 0x900 DUP5 DUP3 DUP6 ADD PUSH2 0x8CA JUMP JUMPDEST SWAP2 POP POP SWAP3 SWAP2 POP POP JUMP JUMPDEST PUSH0 DUP2 SWAP1 POP SWAP2 SWAP1 POP JUMP JUMPDEST PUSH2 0x91B DUP2 PUSH2 0x909 JUMP JUMPDEST DUP3 MSTORE POP POP JUMP JUMPDEST PUSH0 PUSH1 0x20 DUP3 ADD SWAP1 POP PUSH2 0x934 PUSH0 DUP4 ADD DUP5 PUSH2 0x912 JUMP JUMPDEST SWAP3 SWAP2 POP POP JUMP JUMPDEST PUSH0 DUP2 SWAP1 POP SWAP2 SWAP1 POP JUMP JUMPDEST PUSH2 0x94C DUP2 PUSH2 0x93A JUMP JUMPDEST DUP3 MSTORE POP POP JUMP JUMPDEST PUSH0 PUSH1 0x20 DUP3 ADD SWAP1 POP PUSH2 0x965 PUSH0 DUP4 ADD DUP5 PUSH2 0x943 JUMP JUMPDEST SWAP3 SWAP2 POP POP JUMP JUMPDEST PUSH32 0x4E487B7100000000000000000000000000000000000000000000000000000000 PUSH0 MSTORE PUSH1 0x11 PUSH1 0x4 MSTORE PUSH1 0x24 PUSH0 REVERT JUMPDEST PUSH0 PUSH2 0x9A2 DUP3 PUSH2 0x909 JUMP JUMPDEST SWAP2 POP PUSH2 0x9AD DUP4 PUSH2 0x909 JUMP JUMPDEST SWAP3 POP DUP3 DUP3 ADD SWAP1 POP DUP1 DUP3 GT ISZERO PUSH2 0x9C5 JUMPI PUSH2 0x9C4 PUSH2 0x96B JUMP JUMPDEST JUMPDEST SWAP3 SWAP2 POP POP JUMP JUMPDEST PUSH0 DUP3 DUP3 MSTORE PUSH1 0x20 DUP3 ADD SWAP1 POP SWAP3 SWAP2 POP POP JUMP JUMPDEST PUSH32 0x576169742061206D696E75746500000000000000000000000000000000000000 PUSH0 DUP3 ADD MSTORE POP JUMP JUMPDEST PUSH0 PUSH2 0xA0F PUSH1 0xD DUP4 PUSH2 0x9CB JUMP JUMPDEST SWAP2 POP PUSH2 0xA1A DUP3 PUSH2 0x9DB JUMP JUMPDEST PUSH1 0x20 DUP3 ADD SWAP1 POP SWAP2 SWAP1 POP JUMP JUMPDEST PUSH0 PUSH1 0x20 DUP3 ADD SWAP1 POP DUP2 DUP2 SUB PUSH0 DUP4 ADD MSTORE PUSH2 0xA3C DUP2 PUSH2 0xA03 JUMP JUMPDEST SWAP1 POP SWAP2 SWAP1 POP JUMP JUMPDEST PUSH32 0x5461726765742069732072656163686564000000000000000000000000000000 PUSH0 DUP3 ADD MSTORE POP JUMP JUMPDEST PUSH0 PUSH2 0xA77 PUSH1 0x11 DUP4 PUSH2 0x9CB JUMP JUMPDEST SWAP2 POP PUSH2 0xA82 DUP3 PUSH2 0xA43 JUMP JUMPDEST PUSH1 0x20 DUP3 ADD SWAP1 POP SWAP2 SWAP1 POP JUMP JUMPDEST PUSH0 PUSH1 0x20 DUP3 ADD SWAP1 POP DUP2 DUP2 SUB PUSH0 DUP4 ADD MSTORE PUSH2 0xAA4 DUP2 PUSH2 0xA6B JUMP JUMPDEST SWAP1 POP SWAP2 SWAP1 POP JUMP JUMPDEST PUSH32 0x596F752068617665206E6F742066756E642E0000000000000000000000000000 PUSH0 DUP3 ADD MSTORE POP JUMP JUMPDEST PUSH0 PUSH2 0xADF PUSH1 0x12 DUP4 PUSH2 0x9CB JUMP JUMPDEST SWAP2 POP PUSH2 0xAEA DUP3 PUSH2 0xAAB JUMP JUMPDEST PUSH1 0x20 DUP3 ADD SWAP1 POP SWAP2 SWAP1 POP JUMP JUMPDEST PUSH0 PUSH1 0x20 DUP3 ADD SWAP1 POP DUP2 DUP2 SUB PUSH0 DUP4 ADD MSTORE PUSH2 0xB0C DUP2 PUSH2 0xAD3 JUMP JUMPDEST SWAP1 POP SWAP2 SWAP1 POP JUMP JUMPDEST PUSH0 DUP2 SWAP1 POP SWAP3 SWAP2 POP POP JUMP JUMPDEST POP JUMP JUMPDEST PUSH0 PUSH2 0xB2B PUSH0 DUP4 PUSH2 0xB13 JUMP JUMPDEST SWAP2 POP PUSH2 0xB36 DUP3 PUSH2 0xB1D JUMP JUMPDEST PUSH0 DUP3 ADD SWAP1 POP SWAP2 SWAP1 POP JUMP JUMPDEST PUSH0 PUSH2 0xB4A DUP3 PUSH2 0xB20 JUMP JUMPDEST SWAP2 POP DUP2 SWAP1 POP SWAP2 SWAP1 POP JUMP JUMPDEST PUSH32 0x7472616E73666572207478206661696C65640000000000000000000000000000 PUSH0 DUP3 ADD MSTORE POP JUMP JUMPDEST PUSH0 PUSH2 0xB88 PUSH1 0x12 DUP4 PUSH2 0x9CB JUMP JUMPDEST SWAP2 POP PUSH2 0xB93 DUP3 PUSH2 0xB54 JUMP JUMPDEST PUSH1 0x20 DUP3 ADD SWAP1 POP SWAP2 SWAP1 POP JUMP JUMPDEST PUSH0 PUSH1 0x20 DUP3 ADD SWAP1 POP DUP2 DUP2 SUB PUSH0 DUP4 ADD MSTORE PUSH2 0xBB5 DUP2 PUSH2 0xB7C JUMP JUMPDEST SWAP1 POP SWAP2 SWAP1 POP JUMP JUMPDEST PUSH32 0x746869732066756E6374696F6E2063616E206F6E6C792062652063616C6C6564 PUSH0 DUP3 ADD MSTORE PUSH32 0x206279206F776E65720000000000000000000000000000000000000000000000 PUSH1 0x20 DUP3 ADD MSTORE POP JUMP JUMPDEST PUSH0 PUSH2 0xC16 PUSH1 0x29 DUP4 PUSH2 0x9CB JUMP JUMPDEST SWAP2 POP PUSH2 0xC21 DUP3 PUSH2 0xBBC JUMP JUMPDEST PUSH1 0x40 DUP3 ADD SWAP1 POP SWAP2 SWAP1 POP JUMP JUMPDEST PUSH0 PUSH1 0x20 DUP3 ADD SWAP1 POP DUP2 DUP2 SUB PUSH0 DUP4 ADD MSTORE PUSH2 0xC43 DUP2 PUSH2 0xC0A JUMP JUMPDEST SWAP1 POP SWAP2 SWAP1 POP JUMP JUMPDEST PUSH32 0x546172676574206973206E6F7420726561636865640000000000000000000000 PUSH0 DUP3 ADD MSTORE POP JUMP JUMPDEST PUSH0 PUSH2 0xC7E PUSH1 0x15 DUP4 PUSH2 0x9CB JUMP JUMPDEST SWAP2 POP PUSH2 0xC89 DUP3 PUSH2 0xC4A JUMP JUMPDEST PUSH1 0x20 DUP3 ADD SWAP1 POP SWAP2 SWAP1 POP JUMP JUMPDEST PUSH0 PUSH1 0x20 DUP3 ADD SWAP1 POP DUP2 DUP2 SUB PUSH0 DUP4 ADD MSTORE PUSH2 0xCAB DUP2 PUSH2 0xC72 JUMP JUMPDEST SWAP1 POP SWAP2 SWAP1 POP JUMP JUMPDEST PUSH32 0x54696D6520757000000000000000000000000000000000000000000000000000 PUSH0 DUP3 ADD MSTORE POP JUMP JUMPDEST PUSH0 PUSH2 0xCE6 PUSH1 0x7 DUP4 PUSH2 0x9CB JUMP JUMPDEST SWAP2 POP PUSH2 0xCF1 DUP3 PUSH2 0xCB2 JUMP JUMPDEST PUSH1 0x20 DUP3 ADD SWAP1 POP SWAP2 SWAP1 POP JUMP JUMPDEST PUSH0 PUSH1 0x20 DUP3 ADD SWAP1 POP DUP2 DUP2 SUB PUSH0 DUP4 ADD MSTORE PUSH2 0xD13 DUP2 PUSH2 0xCDA JUMP JUMPDEST SWAP1 POP SWAP2 SWAP1 POP JUMP JUMPDEST PUSH32 0x53656E64206D6F72652045544800000000000000000000000000000000000000 PUSH0 DUP3 ADD MSTORE POP JUMP JUMPDEST PUSH0 PUSH2 0xD4E PUSH1 0xD DUP4 PUSH2 0x9CB JUMP JUMPDEST SWAP2 POP PUSH2 0xD59 DUP3 PUSH2 0xD1A JUMP JUMPDEST PUSH1 0x20 DUP3 ADD SWAP1 POP SWAP2 SWAP1 POP JUMP JUMPDEST PUSH0 PUSH1 0x20 DUP3 ADD SWAP1 POP DUP2 DUP2 SUB PUSH0 DUP4 ADD MSTORE PUSH2 0xD7B DUP2 PUSH2 0xD42 JUMP JUMPDEST SWAP1 POP SWAP2 SWAP1 POP JUMP JUMPDEST PUSH0 PUSH10 0xFFFFFFFFFFFFFFFFFFFF DUP3 AND SWAP1 POP SWAP2 SWAP1 POP JUMP JUMPDEST PUSH2 0xDA0 DUP2 PUSH2 0xD82 JUMP JUMPDEST DUP2 EQ PUSH2 0xDAA JUMPI PUSH0 PUSH0 REVERT JUMPDEST POP JUMP JUMPDEST PUSH0 DUP2 MLOAD SWAP1 POP PUSH2 0xDBB DUP2 PUSH2 0xD97 JUMP JUMPDEST SWAP3 SWAP2 POP POP JUMP JUMPDEST PUSH2 0xDCA DUP2 PUSH2 0x93A JUMP JUMPDEST DUP2 EQ PUSH2 0xDD4 JUMPI PUSH0 PUSH0 REVERT JUMPDEST POP JUMP JUMPDEST PUSH0 DUP2 MLOAD SWAP1 POP PUSH2 0xDE5 DUP2 PUSH2 0xDC1 JUMP JUMPDEST SWAP3 SWAP2 POP POP JUMP JUMPDEST PUSH2 0xDF4 DUP2 PUSH2 0x909 JUMP JUMPDEST DUP2 EQ PUSH2 0xDFE JUMPI PUSH0 PUSH0 REVERT JUMPDEST POP JUMP JUMPDEST PUSH0 DUP2 MLOAD SWAP1 POP PUSH2 0xE0F DUP2 PUSH2 0xDEB JUMP JUMPDEST SWAP3 SWAP2 POP POP JUMP JUMPDEST PUSH0 PUSH0 PUSH0 PUSH0 PUSH0 PUSH1 0xA0 DUP7 DUP9 SUB SLT ISZERO PUSH2 0xE2E JUMPI PUSH2 0xE2D PUSH2 0x8B0 JUMP JUMPDEST JUMPDEST PUSH0 PUSH2 0xE3B DUP9 DUP3 DUP10 ADD PUSH2 0xDAD JUMP JUMPDEST SWAP6 POP POP PUSH1 0x20 PUSH2 0xE4C DUP9 DUP3 DUP10 ADD PUSH2 0xDD7 JUMP JUMPDEST SWAP5 POP POP PUSH1 0x40 PUSH2 0xE5D DUP9 DUP3 DUP10 ADD PUSH2 0xE01 JUMP JUMPDEST SWAP4 POP POP PUSH1 0x60 PUSH2 0xE6E DUP9 DUP3 DUP10 ADD PUSH2 0xE01 JUMP JUMPDEST SWAP3 POP POP PUSH1 0x80 PUSH2 0xE7F DUP9 DUP3 DUP10 ADD PUSH2 0xDAD JUMP JUMPDEST SWAP2 POP POP SWAP3 SWAP6 POP SWAP3 SWAP6 SWAP1 SWAP4 POP JUMP JUMPDEST PUSH0 PUSH2 0xE96 DUP3 PUSH2 0x909 JUMP JUMPDEST SWAP2 POP PUSH2 0xEA1 DUP4 PUSH2 0x909 JUMP JUMPDEST SWAP3 POP DUP3 DUP3 MUL PUSH2 0xEAF DUP2 PUSH2 0x909 JUMP JUMPDEST SWAP2 POP DUP3 DUP3 DIV DUP5 EQ DUP4 ISZERO OR PUSH2 0xEC6 JUMPI PUSH2 0xEC5 PUSH2 0x96B JUMP JUMPDEST JUMPDEST POP SWAP3 SWAP2 POP POP JUMP JUMPDEST PUSH32 0x4E487B7100000000000000000000000000000000000000000000000000000000 PUSH0 MSTORE PUSH1 0x12 PUSH1 0x4 MSTORE PUSH1 0x24 PUSH0 REVERT JUMPDEST PUSH0 PUSH2 0xF04 DUP3 PUSH2 0x909 JUMP JUMPDEST SWAP2 POP PUSH2 0xF0F DUP4 PUSH2 0x909 JUMP JUMPDEST SWAP3 POP DUP3 PUSH2 0xF1F JUMPI PUSH2 0xF1E PUSH2 0xECD JUMP JUMPDEST JUMPDEST DUP3 DUP3 DIV SWAP1 POP SWAP3 SWAP2 POP POP JUMP INVALID LOG2 PUSH5 0x6970667358 0x22 SLT KECCAK256 SWAP1 PUSH8 0xD9EBE9AF0F6F31A GASPRICE PUSH9 0x4FD7E3C83145EFAC26 SWAP15 0xC0 0x2E COINBASE 0x29 PUSH31 0x507F3F3D3A64736F6C634300081E0033000000000000000000000000000000 "
				},
				"gasEstimates": {
					"creation": {
						"codeDepositCost": "787200",
						"executionCost": "infinite",
						"totalCost": "infinite"
					},
					"external": {
						"fund()": "infinite",
						"fundersToAmount(address)": "2801",
						"getChainlinkDataFeedLatestAnswer()": "infinite",
						"getFund()": "infinite",
						"owner()": "2531",
						"refund()": "infinite",
						"transferOwnership(address)": "26950"
					},
					"internal": {
						"convertEthToUsd(uint256)": "infinite"
					}
				},
				"methodIdentifiers": {
					"fund()": "b60d4288",
					"fundersToAmount(address)": "9f883a05",
					"getChainlinkDataFeedLatestAnswer()": "bea4dfb5",
					"getFund()": "8edd6eb6",
					"owner()": "8da5cb5b",
					"refund()": "590e1ae3",
					"transferOwnership(address)": "f2fde38b"
				}
			},
			"storageLayout": {
				"storage": [
					{
						"astId": 53,
						"contract": "FundMe.sol:FundMe",
						"label": "fundersToAmount",
						"offset": 0,
						"slot": "0",
						"type": "t_mapping(t_address,t_uint256)"
					},
					{
						"astId": 63,
						"contract": "FundMe.sol:FundMe",
						"label": "dataFeed",
						"offset": 0,
						"slot": "1",
						"type": "t_contract(AggregatorV3Interface)45"
					},
					{
						"astId": 72,
						"contract": "FundMe.sol:FundMe",
						"label": "owner",
						"offset": 0,
						"slot": "2",
						"type": "t_address"
					},
					{
						"astId": 74,
						"contract": "FundMe.sol:FundMe",
						"label": "deploymentTimestamp",
						"offset": 0,
						"slot": "3",
						"type": "t_uint256"
					},
					{
						"astId": 76,
						"contract": "FundMe.sol:FundMe",
						"label": "lockTime",
						"offset": 0,
						"slot": "4",
						"type": "t_uint256"
					}
				],
				"types": {
					"t_address": {
						"encoding": "inplace",
						"label": "address",
						"numberOfBytes": "20"
					},
					"t_contract(AggregatorV3Interface)45": {
						"encoding": "inplace",
						"label": "contract AggregatorV3Interface",
						"numberOfBytes": "20"
					},
					"t_mapping(t_address,t_uint256)": {
						"encoding": "mapping",
						"key": "t_address",
						"label": "mapping(address => uint256)",
						"numberOfBytes": "32",
						"value": "t_uint256"
					},
					"t_uint256": {
						"encoding": "inplace",
						"label": "uint256",
						"numberOfBytes": "32"
					}
				}
			},
			"userdoc": {
				"kind": "user",
				"methods": {},
				"version": 1
			}
		}
	}
}