{
	"FoundMe.sol": {
		"FundMe": {
			"abi": [
				{
					"inputs": [],
					"stateMutability": "nonpayable",
					"type": "constructor"
				},
				{
					"inputs": [],
					"name": "fund",
					"outputs": [],
					"stateMutability": "payable",
					"type": "function"
				},
				{
					"inputs": [
						{
							"internalType": "address",
							"name": "",
							"type": "address"
						}
					],
					"name": "fundersToAmount",
					"outputs": [
						{
							"internalType": "uint256",
							"name": "",
							"type": "uint256"
						}
					],
					"stateMutability": "view",
					"type": "function"
				},
				{
					"inputs": [],
					"name": "getChainlinkDataFeedLatestAnswer",
					"outputs": [
						{
							"internalType": "int256",
							"name": "",
							"type": "int256"
						}
					],
					"stateMutability": "view",
					"type": "function"
				},
				{
					"inputs": [],
					"name": "getFund",
					"outputs": [],
					"stateMutability": "nonpayable",
					"type": "function"
				},
				{
					"inputs": [],
					"name": "owner",
					"outputs": [
						{
							"internalType": "address",
							"name": "",
							"type": "address"
						}
					],
					"stateMutability": "view",
					"type": "function"
				},
				{
					"inputs": [],
					"name": "refund",
					"outputs": [],
					"stateMutability": "nonpayable",
					"type": "function"
				},
				{
					"inputs": [
						{
							"internalType": "address",
							"name": "newOwner",
							"type": "address"
						}
					],
					"name": "transferOwnership",
					"outputs": [],
					"stateMutability": "nonpayable",
					"type": "function"
				}
			],
			"devdoc": {
				"kind": "dev",
				"methods": {},
				"version": 1
			},
			"evm": {
				"assembly": "    /* \"FoundMe.sol\":389:2910  contract FundMe{... */\n  mstore(0x40, 0x80)\n    /* \"FoundMe.sol\":658:823  constructor(){... */\n  callvalue\n  dup1\n  iszero\n  tag_1\n  jumpi\n  revert(0x00, 0x00)\ntag_1:\n  pop\n    /* \"FoundMe.sol\":743:785  0x694AA1769357215DE4FAC081bf1f309aDC325306 */\n  0x694aa1769357215de4fac081bf1f309adc325306\n    /* \"FoundMe.sol\":710:718  dataFeed */\n  0x01\n  0x00\n    /* \"FoundMe.sol\":710:786  dataFeed = AggregatorV3Interface(0x694AA1769357215DE4FAC081bf1f309aDC325306) */\n  0x0100\n  exp\n  dup2\n  sload\n  dup2\n  0xffffffffffffffffffffffffffffffffffffffff\n  mul\n  not\n  and\n  swap1\n  dup4\n  0xffffffffffffffffffffffffffffffffffffffff\n  and\n  mul\n  or\n  swap1\n  sstore\n  pop\n    /* \"FoundMe.sol\":805:815  msg.sender */\n  caller\n    /* \"FoundMe.sol\":797:802  owner */\n  0x02\n  0x00\n    /* \"FoundMe.sol\":797:815  owner = msg.sender */\n  0x0100\n  exp\n  dup2\n  sload\n  dup2\n  0xffffffffffffffffffffffffffffffffffffffff\n  mul\n  not\n  and\n  swap1\n  dup4\n  0xffffffffffffffffffffffffffffffffffffffff\n  and\n  mul\n  or\n  swap1\n  sstore\n  pop\n    /* \"FoundMe.sol\":389:2910  contract FundMe{... */\n  dataSize(sub_0)\n  dup1\n  dataOffset(sub_0)\n  0x00\n  codecopy\n  0x00\n  return\nstop\n\nsub_0: assembly {\n        /* \"FoundMe.sol\":389:2910  contract FundMe{... */\n      mstore(0x40, 0x80)\n      jumpi(tag_1, lt(calldatasize, 0x04))\n      shr(0xe0, calldataload(0x00))\n      dup1\n      0x9f883a05\n      gt\n      tag_9\n      jumpi\n      dup1\n      0x9f883a05\n      eq\n      tag_5\n      jumpi\n      dup1\n      0xb60d4288\n      eq\n      tag_6\n      jumpi\n      dup1\n      0xbea4dfb5\n      eq\n      tag_7\n      jumpi\n      dup1\n      0xf2fde38b\n      eq\n      tag_8\n      jumpi\n      jump(tag_1)\n    tag_9:\n      dup1\n      0x590e1ae3\n      eq\n      tag_2\n      jumpi\n      dup1\n      0x8da5cb5b\n      eq\n      tag_3\n      jumpi\n      dup1\n      0x8edd6eb6\n      eq\n      tag_4\n      jumpi\n    tag_1:\n      revert(0x00, 0x00)\n        /* \"FoundMe.sol\":2545:2897  function refund() external {... */\n    tag_2:\n      callvalue\n      dup1\n      iszero\n      tag_10\n      jumpi\n      revert(0x00, 0x00)\n    tag_10:\n      pop\n      tag_11\n      tag_12\n      jump\t// in\n    tag_11:\n      stop\n        /* \"FoundMe.sol\":629:649  address public owner */\n    tag_3:\n      callvalue\n      dup1\n      iszero\n      tag_13\n      jumpi\n      revert(0x00, 0x00)\n    tag_13:\n      pop\n      tag_14\n      tag_15\n      jump\t// in\n    tag_14:\n      mload(0x40)\n      tag_16\n      swap2\n      swap1\n      tag_17\n      jump\t// in\n    tag_16:\n      mload(0x40)\n      dup1\n      swap2\n      sub\n      swap1\n      return\n        /* \"FoundMe.sol\":1773:2537  function getFund() external {... */\n    tag_4:\n      callvalue\n      dup1\n      iszero\n      tag_18\n      jumpi\n      revert(0x00, 0x00)\n    tag_18:\n      pop\n      tag_19\n      tag_20\n      jump\t// in\n    tag_19:\n      stop\n        /* \"FoundMe.sol\":411:462  mapping (address => uint256) public fundersToAmount */\n    tag_5:\n      callvalue\n      dup1\n      iszero\n      tag_21\n      jumpi\n      revert(0x00, 0x00)\n    tag_21:\n      pop\n      tag_22\n      0x04\n      dup1\n      calldatasize\n      sub\n      dup2\n      add\n      swap1\n      tag_23\n      swap2\n      swap1\n      tag_24\n      jump\t// in\n    tag_23:\n      tag_25\n      jump\t// in\n    tag_22:\n      mload(0x40)\n      tag_26\n      swap2\n      swap1\n      tag_27\n      jump\t// in\n    tag_26:\n      mload(0x40)\n      dup1\n      swap2\n      sub\n      swap1\n      return\n        /* \"FoundMe.sol\":833:1005  function fund() external payable {... */\n    tag_6:\n      tag_28\n      tag_29\n      jump\t// in\n    tag_28:\n      stop\n        /* \"FoundMe.sol\":1013:1370  function getChainlinkDataFeedLatestAnswer() public view returns (int) {... */\n    tag_7:\n      callvalue\n      dup1\n      iszero\n      tag_30\n      jumpi\n      revert(0x00, 0x00)\n    tag_30:\n      pop\n      tag_31\n      tag_32\n      jump\t// in\n    tag_31:\n      mload(0x40)\n      tag_33\n      swap2\n      swap1\n      tag_34\n      jump\t// in\n    tag_33:\n      mload(0x40)\n      dup1\n      swap2\n      sub\n      swap1\n      return\n        /* \"FoundMe.sol\":1595:1765  function transferOwnership(address newOwner) public{... */\n    tag_8:\n      callvalue\n      dup1\n      iszero\n      tag_35\n      jumpi\n      revert(0x00, 0x00)\n    tag_35:\n      pop\n      tag_36\n      0x04\n      dup1\n      calldatasize\n      sub\n      dup2\n      add\n      swap1\n      tag_37\n      swap2\n      swap1\n      tag_24\n      jump\t// in\n    tag_37:\n      tag_38\n      jump\t// in\n    tag_36:\n      stop\n        /* \"FoundMe.sol\":2545:2897  function refund() external {... */\n    tag_12:\n        /* \"FoundMe.sol\":607:620  100 * 10 ** 8 */\n      0x02540be400\n        /* \"FoundMe.sol\":2591:2629  convertEthToUsd(address(this).balance) */\n      tag_40\n        /* \"FoundMe.sol\":2607:2628  address(this).balance */\n      selfbalance\n        /* \"FoundMe.sol\":2591:2606  convertEthToUsd */\n      tag_41\n        /* \"FoundMe.sol\":2591:2629  convertEthToUsd(address(this).balance) */\n      jump\t// in\n    tag_40:\n        /* \"FoundMe.sol\":2591:2638  convertEthToUsd(address(this).balance) < TARGET */\n      lt\n        /* \"FoundMe.sol\":2583:2660  require(convertEthToUsd(address(this).balance) < TARGET, \"Target is reached\") */\n      tag_42\n      jumpi\n      mload(0x40)\n      0x08c379a000000000000000000000000000000000000000000000000000000000\n      dup2\n      mstore\n      0x04\n      add\n      tag_43\n      swap1\n      tag_44\n      jump\t// in\n    tag_43:\n      mload(0x40)\n      dup1\n      swap2\n      sub\n      swap1\n      revert\n    tag_42:\n        /* \"FoundMe.sol\":2710:2711  0 */\n      0x00\n        /* \"FoundMe.sol\":2679:2694  fundersToAmount */\n      0x00\n        /* \"FoundMe.sol\":2679:2706  fundersToAmount[msg.sender] */\n      0x00\n        /* \"FoundMe.sol\":2695:2705  msg.sender */\n      caller\n        /* \"FoundMe.sol\":2679:2706  fundersToAmount[msg.sender] */\n      0xffffffffffffffffffffffffffffffffffffffff\n      and\n      0xffffffffffffffffffffffffffffffffffffffff\n      and\n      dup2\n      mstore\n      0x20\n      add\n      swap1\n      dup2\n      mstore\n      0x20\n      add\n      0x00\n      keccak256\n      sload\n        /* \"FoundMe.sol\":2679:2711  fundersToAmount[msg.sender] != 0 */\n      sub\n        /* \"FoundMe.sol\":2671:2734  require(fundersToAmount[msg.sender] != 0, \"You have not fund.\") */\n      tag_45\n      jumpi\n      mload(0x40)\n      0x08c379a000000000000000000000000000000000000000000000000000000000\n      dup2\n      mstore\n      0x04\n      add\n      tag_46\n      swap1\n      tag_47\n      jump\t// in\n    tag_46:\n      mload(0x40)\n      dup1\n      swap2\n      sub\n      swap1\n      revert\n    tag_45:\n        /* \"FoundMe.sol\":2745:2757  bool success */\n      0x00\n        /* \"FoundMe.sol\":2790:2800  msg.sender */\n      caller\n        /* \"FoundMe.sol\":2782:2806  payable(msg.sender).call */\n      0xffffffffffffffffffffffffffffffffffffffff\n      and\n        /* \"FoundMe.sol\":2814:2835  address(this).balance */\n      selfbalance\n        /* \"FoundMe.sol\":2782:2840  payable(msg.sender).call{value: address(this).balance}(\"\") */\n      mload(0x40)\n      tag_48\n      swap1\n      tag_49\n      jump\t// in\n    tag_48:\n      0x00\n      mload(0x40)\n      dup1\n      dup4\n      sub\n      dup2\n      dup6\n      dup8\n      gas\n      call\n      swap3\n      pop\n      pop\n      pop\n      returndatasize\n      dup1\n      0x00\n      dup2\n      eq\n      tag_52\n      jumpi\n      mload(0x40)\n      swap2\n      pop\n      and(add(returndatasize, 0x3f), not(0x1f))\n      dup3\n      add\n      0x40\n      mstore\n      returndatasize\n      dup3\n      mstore\n      returndatasize\n      0x00\n      0x20\n      dup5\n      add\n      returndatacopy\n      jump(tag_51)\n    tag_52:\n      0x60\n      swap2\n      pop\n    tag_51:\n      pop\n        /* \"FoundMe.sol\":2768:2840  (success, ) = payable(msg.sender).call{value: address(this).balance}(\"\") */\n      pop\n      dup1\n      swap2\n      pop\n      pop\n        /* \"FoundMe.sol\":2859:2866  success */\n      dup1\n        /* \"FoundMe.sol\":2851:2889  require(success, \"transfer tx failed\") */\n      tag_53\n      jumpi\n      mload(0x40)\n      0x08c379a000000000000000000000000000000000000000000000000000000000\n      dup2\n      mstore\n      0x04\n      add\n      tag_54\n      swap1\n      tag_55\n      jump\t// in\n    tag_54:\n      mload(0x40)\n      dup1\n      swap2\n      sub\n      swap1\n      revert\n    tag_53:\n        /* \"FoundMe.sol\":2572:2897  {... */\n      pop\n        /* \"FoundMe.sol\":2545:2897  function refund() external {... */\n      jump\t// out\n        /* \"FoundMe.sol\":629:649  address public owner */\n    tag_15:\n      0x02\n      0x00\n      swap1\n      sload\n      swap1\n      0x0100\n      exp\n      swap1\n      div\n      0xffffffffffffffffffffffffffffffffffffffff\n      and\n      dup2\n      jump\t// out\n        /* \"FoundMe.sol\":1773:2537  function getFund() external {... */\n    tag_20:\n        /* \"FoundMe.sol\":607:620  100 * 10 ** 8 */\n      0x02540be400\n        /* \"FoundMe.sol\":1820:1858  convertEthToUsd(address(this).balance) */\n      tag_57\n        /* \"FoundMe.sol\":1836:1857  address(this).balance */\n      selfbalance\n        /* \"FoundMe.sol\":1820:1835  convertEthToUsd */\n      tag_41\n        /* \"FoundMe.sol\":1820:1858  convertEthToUsd(address(this).balance) */\n      jump\t// in\n    tag_57:\n        /* \"FoundMe.sol\":1820:1868  convertEthToUsd(address(this).balance) >= TARGET */\n      lt\n      iszero\n        /* \"FoundMe.sol\":1812:1894  require(convertEthToUsd(address(this).balance) >= TARGET, \"Target is not reached\") */\n      tag_58\n      jumpi\n      mload(0x40)\n      0x08c379a000000000000000000000000000000000000000000000000000000000\n      dup2\n      mstore\n      0x04\n      add\n      tag_59\n      swap1\n      tag_60\n      jump\t// in\n    tag_59:\n      mload(0x40)\n      dup1\n      swap2\n      sub\n      swap1\n      revert\n    tag_58:\n        /* \"FoundMe.sol\":1927:1932  owner */\n      0x02\n      0x00\n      swap1\n      sload\n      swap1\n      0x0100\n      exp\n      swap1\n      div\n      0xffffffffffffffffffffffffffffffffffffffff\n      and\n        /* \"FoundMe.sol\":1913:1932  msg.sender == owner */\n      0xffffffffffffffffffffffffffffffffffffffff\n      and\n        /* \"FoundMe.sol\":1913:1923  msg.sender */\n      caller\n        /* \"FoundMe.sol\":1913:1932  msg.sender == owner */\n      0xffffffffffffffffffffffffffffffffffffffff\n      and\n      eq\n        /* \"FoundMe.sol\":1905:1978  require(msg.sender == owner, \"this function can only be called by owner\") */\n      tag_61\n      jumpi\n      mload(0x40)\n      0x08c379a000000000000000000000000000000000000000000000000000000000\n      dup2\n      mstore\n      0x04\n      add\n      tag_62\n      swap1\n      tag_63\n      jump\t// in\n    tag_62:\n      mload(0x40)\n      dup1\n      swap2\n      sub\n      swap1\n      revert\n    tag_61:\n        /* \"FoundMe.sol\":2385:2397  bool success */\n      0x00\n        /* \"FoundMe.sol\":2430:2440  msg.sender */\n      caller\n        /* \"FoundMe.sol\":2422:2446  payable(msg.sender).call */\n      0xffffffffffffffffffffffffffffffffffffffff\n      and\n        /* \"FoundMe.sol\":2454:2475  address(this).balance */\n      selfbalance\n        /* \"FoundMe.sol\":2422:2480  payable(msg.sender).call{value: address(this).balance}(\"\") */\n      mload(0x40)\n      tag_64\n      swap1\n      tag_49\n      jump\t// in\n    tag_64:\n      0x00\n      mload(0x40)\n      dup1\n      dup4\n      sub\n      dup2\n      dup6\n      dup8\n      gas\n      call\n      swap3\n      pop\n      pop\n      pop\n      returndatasize\n      dup1\n      0x00\n      dup2\n      eq\n      tag_67\n      jumpi\n      mload(0x40)\n      swap2\n      pop\n      and(add(returndatasize, 0x3f), not(0x1f))\n      dup3\n      add\n      0x40\n      mstore\n      returndatasize\n      dup3\n      mstore\n      returndatasize\n      0x00\n      0x20\n      dup5\n      add\n      returndatacopy\n      jump(tag_66)\n    tag_67:\n      0x60\n      swap2\n      pop\n    tag_66:\n      pop\n        /* \"FoundMe.sol\":2408:2480  (success, ) = payable(msg.sender).call{value: address(this).balance}(\"\") */\n      pop\n      dup1\n      swap2\n      pop\n      pop\n        /* \"FoundMe.sol\":2499:2506  success */\n      dup1\n        /* \"FoundMe.sol\":2491:2529  require(success, \"transfer tx failed\") */\n      tag_68\n      jumpi\n      mload(0x40)\n      0x08c379a000000000000000000000000000000000000000000000000000000000\n      dup2\n      mstore\n      0x04\n      add\n      tag_69\n      swap1\n      tag_55\n      jump\t// in\n    tag_69:\n      mload(0x40)\n      dup1\n      swap2\n      sub\n      swap1\n      revert\n    tag_68:\n        /* \"FoundMe.sol\":1801:2537  {... */\n      pop\n        /* \"FoundMe.sol\":1773:2537  function getFund() external {... */\n      jump\t// out\n        /* \"FoundMe.sol\":411:462  mapping (address => uint256) public fundersToAmount */\n    tag_25:\n      mstore(0x20, 0x00)\n      dup1\n      0x00\n      mstore\n      keccak256(0x00, 0x40)\n      0x00\n      swap2\n      pop\n      swap1\n      pop\n      sload\n      dup2\n      jump\t// out\n        /* \"FoundMe.sol\":833:1005  function fund() external payable {... */\n    tag_29:\n        /* \"FoundMe.sol\":505:518  10 * 10 ** 18 */\n      0x8ac7230489e80000\n        /* \"FoundMe.sol\":885:911  convertEthToUsd(msg.value) */\n      tag_71\n        /* \"FoundMe.sol\":901:910  msg.value */\n      callvalue\n        /* \"FoundMe.sol\":885:900  convertEthToUsd */\n      tag_41\n        /* \"FoundMe.sol\":885:911  convertEthToUsd(msg.value) */\n      jump\t// in\n    tag_71:\n        /* \"FoundMe.sol\":885:928  convertEthToUsd(msg.value) >= MINIMUN_VALUE */\n      lt\n      iszero\n        /* \"FoundMe.sol\":877:946  require(convertEthToUsd(msg.value) >= MINIMUN_VALUE, \"Send more ETH\") */\n      tag_72\n      jumpi\n      mload(0x40)\n      0x08c379a000000000000000000000000000000000000000000000000000000000\n      dup2\n      mstore\n      0x04\n      add\n      tag_73\n      swap1\n      tag_74\n      jump\t// in\n    tag_73:\n      mload(0x40)\n      dup1\n      swap2\n      sub\n      swap1\n      revert\n    tag_72:\n        /* \"FoundMe.sol\":988:997  msg.value */\n      callvalue\n        /* \"FoundMe.sol\":957:972  fundersToAmount */\n      0x00\n        /* \"FoundMe.sol\":957:984  fundersToAmount[msg.sender] */\n      0x00\n        /* \"FoundMe.sol\":973:983  msg.sender */\n      caller\n        /* \"FoundMe.sol\":957:984  fundersToAmount[msg.sender] */\n      0xffffffffffffffffffffffffffffffffffffffff\n      and\n      0xffffffffffffffffffffffffffffffffffffffff\n      and\n      dup2\n      mstore\n      0x20\n      add\n      swap1\n      dup2\n      mstore\n      0x20\n      add\n      0x00\n      keccak256\n      0x00\n        /* \"FoundMe.sol\":957:997  fundersToAmount[msg.sender] += msg.value */\n      dup3\n      dup3\n      sload\n      tag_75\n      swap2\n      swap1\n      tag_76\n      jump\t// in\n    tag_75:\n      swap3\n      pop\n      pop\n      dup2\n      swap1\n      sstore\n      pop\n        /* \"FoundMe.sol\":833:1005  function fund() external payable {... */\n      jump\t// out\n        /* \"FoundMe.sol\":1013:1370  function getChainlinkDataFeedLatestAnswer() public view returns (int) {... */\n    tag_32:\n        /* \"FoundMe.sol\":1078:1081  int */\n      0x00\n        /* \"FoundMe.sol\":1172:1185  int256 answer */\n      0x00\n        /* \"FoundMe.sol\":1312:1320  dataFeed */\n      0x01\n      0x00\n      swap1\n      sload\n      swap1\n      0x0100\n      exp\n      swap1\n      div\n      0xffffffffffffffffffffffffffffffffffffffff\n      and\n        /* \"FoundMe.sol\":1312:1336  dataFeed.latestRoundData */\n      0xffffffffffffffffffffffffffffffffffffffff\n      and\n      0xfeaf968c\n        /* \"FoundMe.sol\":1312:1338  dataFeed.latestRoundData() */\n      mload(0x40)\n      dup2\n      0xffffffff\n      and\n      0xe0\n      shl\n      dup2\n      mstore\n      0x04\n      add\n      0xa0\n      mload(0x40)\n      dup1\n      dup4\n      sub\n      dup2\n      dup7\n      gas\n      staticcall\n      iszero\n      dup1\n      iszero\n      tag_79\n      jumpi\n      returndatacopy(0x00, 0x00, returndatasize)\n      revert(0x00, returndatasize)\n    tag_79:\n      pop\n      pop\n      pop\n      pop\n      mload(0x40)\n      returndatasize\n      not(0x1f)\n      0x1f\n      dup3\n      add\n      and\n      dup3\n      add\n      dup1\n      0x40\n      mstore\n      pop\n      dup2\n      add\n      swap1\n      tag_80\n      swap2\n      swap1\n      tag_81\n      jump\t// in\n    tag_80:\n        /* \"FoundMe.sol\":1122:1338  (... */\n      pop\n      pop\n      pop\n      swap2\n      pop\n      pop\n        /* \"FoundMe.sol\":1356:1362  answer */\n      dup1\n        /* \"FoundMe.sol\":1349:1362  return answer */\n      swap2\n      pop\n      pop\n        /* \"FoundMe.sol\":1013:1370  function getChainlinkDataFeedLatestAnswer() public view returns (int) {... */\n      swap1\n      jump\t// out\n        /* \"FoundMe.sol\":1595:1765  function transferOwnership(address newOwner) public{... */\n    tag_38:\n        /* \"FoundMe.sol\":1679:1684  owner */\n      0x02\n      0x00\n      swap1\n      sload\n      swap1\n      0x0100\n      exp\n      swap1\n      div\n      0xffffffffffffffffffffffffffffffffffffffff\n      and\n        /* \"FoundMe.sol\":1665:1684  msg.sender == owner */\n      0xffffffffffffffffffffffffffffffffffffffff\n      and\n        /* \"FoundMe.sol\":1665:1675  msg.sender */\n      caller\n        /* \"FoundMe.sol\":1665:1684  msg.sender == owner */\n      0xffffffffffffffffffffffffffffffffffffffff\n      and\n      eq\n        /* \"FoundMe.sol\":1657:1730  require(msg.sender == owner, \"this function can only be called by owner\") */\n      tag_83\n      jumpi\n      mload(0x40)\n      0x08c379a000000000000000000000000000000000000000000000000000000000\n      dup2\n      mstore\n      0x04\n      add\n      tag_84\n      swap1\n      tag_63\n      jump\t// in\n    tag_84:\n      mload(0x40)\n      dup1\n      swap2\n      sub\n      swap1\n      revert\n    tag_83:\n        /* \"FoundMe.sol\":1749:1757  newOwner */\n      dup1\n        /* \"FoundMe.sol\":1741:1746  owner */\n      0x02\n      0x00\n        /* \"FoundMe.sol\":1741:1757  owner = newOwner */\n      0x0100\n      exp\n      dup2\n      sload\n      dup2\n      0xffffffffffffffffffffffffffffffffffffffff\n      mul\n      not\n      and\n      swap1\n      dup4\n      0xffffffffffffffffffffffffffffffffffffffff\n      and\n      mul\n      or\n      swap1\n      sstore\n      pop\n        /* \"FoundMe.sol\":1595:1765  function transferOwnership(address newOwner) public{... */\n      pop\n      jump\t// out\n        /* \"FoundMe.sol\":1378:1583  function convertEthToUsd(uint256 ethAmount) view internal returns(uint256){... */\n    tag_41:\n        /* \"FoundMe.sol\":1444:1451  uint256 */\n      0x00\n        /* \"FoundMe.sol\":1463:1479  uint256 ethPrice */\n      0x00\n        /* \"FoundMe.sol\":1490:1524  getChainlinkDataFeedLatestAnswer() */\n      tag_86\n        /* \"FoundMe.sol\":1490:1522  getChainlinkDataFeedLatestAnswer */\n      tag_32\n        /* \"FoundMe.sol\":1490:1524  getChainlinkDataFeedLatestAnswer() */\n      jump\t// in\n    tag_86:\n        /* \"FoundMe.sol\":1463:1525  uint256 ethPrice = uint256(getChainlinkDataFeedLatestAnswer()) */\n      swap1\n      pop\n        /* \"FoundMe.sol\":1567:1574  10 ** 8 */\n      0x05f5e100\n        /* \"FoundMe.sol\":1555:1563  ethPrice */\n      dup2\n        /* \"FoundMe.sol\":1543:1552  ethAmount */\n      dup5\n        /* \"FoundMe.sol\":1543:1563  ethAmount * ethPrice */\n      tag_87\n      swap2\n      swap1\n      tag_88\n      jump\t// in\n    tag_87:\n        /* \"FoundMe.sol\":1543:1575  ethAmount * ethPrice / (10 ** 8) */\n      tag_89\n      swap2\n      swap1\n      tag_90\n      jump\t// in\n    tag_89:\n        /* \"FoundMe.sol\":1536:1575  return ethAmount * ethPrice / (10 ** 8) */\n      swap2\n      pop\n      pop\n        /* \"FoundMe.sol\":1378:1583  function convertEthToUsd(uint256 ethAmount) view internal returns(uint256){... */\n      swap2\n      swap1\n      pop\n      jump\t// out\n        /* \"#utility.yul\":7:133   */\n    tag_91:\n        /* \"#utility.yul\":44:51   */\n      0x00\n        /* \"#utility.yul\":84:126   */\n      0xffffffffffffffffffffffffffffffffffffffff\n        /* \"#utility.yul\":77:82   */\n      dup3\n        /* \"#utility.yul\":73:127   */\n      and\n        /* \"#utility.yul\":62:127   */\n      swap1\n      pop\n        /* \"#utility.yul\":7:133   */\n      swap2\n      swap1\n      pop\n      jump\t// out\n        /* \"#utility.yul\":139:235   */\n    tag_92:\n        /* \"#utility.yul\":176:183   */\n      0x00\n        /* \"#utility.yul\":205:229   */\n      tag_131\n        /* \"#utility.yul\":223:228   */\n      dup3\n        /* \"#utility.yul\":205:229   */\n      tag_91\n      jump\t// in\n    tag_131:\n        /* \"#utility.yul\":194:229   */\n      swap1\n      pop\n        /* \"#utility.yul\":139:235   */\n      swap2\n      swap1\n      pop\n      jump\t// out\n        /* \"#utility.yul\":241:359   */\n    tag_93:\n        /* \"#utility.yul\":328:352   */\n      tag_133\n        /* \"#utility.yul\":346:351   */\n      dup2\n        /* \"#utility.yul\":328:352   */\n      tag_92\n      jump\t// in\n    tag_133:\n        /* \"#utility.yul\":323:326   */\n      dup3\n        /* \"#utility.yul\":316:353   */\n      mstore\n        /* \"#utility.yul\":241:359   */\n      pop\n      pop\n      jump\t// out\n        /* \"#utility.yul\":365:587   */\n    tag_17:\n        /* \"#utility.yul\":458:462   */\n      0x00\n        /* \"#utility.yul\":496:498   */\n      0x20\n        /* \"#utility.yul\":485:494   */\n      dup3\n        /* \"#utility.yul\":481:499   */\n      add\n        /* \"#utility.yul\":473:499   */\n      swap1\n      pop\n        /* \"#utility.yul\":509:580   */\n      tag_135\n        /* \"#utility.yul\":577:578   */\n      0x00\n        /* \"#utility.yul\":566:575   */\n      dup4\n        /* \"#utility.yul\":562:579   */\n      add\n        /* \"#utility.yul\":553:559   */\n      dup5\n        /* \"#utility.yul\":509:580   */\n      tag_93\n      jump\t// in\n    tag_135:\n        /* \"#utility.yul\":365:587   */\n      swap3\n      swap2\n      pop\n      pop\n      jump\t// out\n        /* \"#utility.yul\":674:791   */\n    tag_95:\n        /* \"#utility.yul\":783:784   */\n      0x00\n        /* \"#utility.yul\":780:781   */\n      0x00\n        /* \"#utility.yul\":773:785   */\n      revert\n        /* \"#utility.yul\":920:1042   */\n    tag_97:\n        /* \"#utility.yul\":993:1017   */\n      tag_140\n        /* \"#utility.yul\":1011:1016   */\n      dup2\n        /* \"#utility.yul\":993:1017   */\n      tag_92\n      jump\t// in\n    tag_140:\n        /* \"#utility.yul\":986:991   */\n      dup2\n        /* \"#utility.yul\":983:1018   */\n      eq\n        /* \"#utility.yul\":973:1036   */\n      tag_141\n      jumpi\n        /* \"#utility.yul\":1032:1033   */\n      0x00\n        /* \"#utility.yul\":1029:1030   */\n      0x00\n        /* \"#utility.yul\":1022:1034   */\n      revert\n        /* \"#utility.yul\":973:1036   */\n    tag_141:\n        /* \"#utility.yul\":920:1042   */\n      pop\n      jump\t// out\n        /* \"#utility.yul\":1048:1187   */\n    tag_98:\n        /* \"#utility.yul\":1094:1099   */\n      0x00\n        /* \"#utility.yul\":1132:1138   */\n      dup2\n        /* \"#utility.yul\":1119:1139   */\n      calldataload\n        /* \"#utility.yul\":1110:1139   */\n      swap1\n      pop\n        /* \"#utility.yul\":1148:1181   */\n      tag_143\n        /* \"#utility.yul\":1175:1180   */\n      dup2\n        /* \"#utility.yul\":1148:1181   */\n      tag_97\n      jump\t// in\n    tag_143:\n        /* \"#utility.yul\":1048:1187   */\n      swap3\n      swap2\n      pop\n      pop\n      jump\t// out\n        /* \"#utility.yul\":1193:1522   */\n    tag_24:\n        /* \"#utility.yul\":1252:1258   */\n      0x00\n        /* \"#utility.yul\":1301:1303   */\n      0x20\n        /* \"#utility.yul\":1289:1298   */\n      dup3\n        /* \"#utility.yul\":1280:1287   */\n      dup5\n        /* \"#utility.yul\":1276:1299   */\n      sub\n        /* \"#utility.yul\":1272:1304   */\n      slt\n        /* \"#utility.yul\":1269:1388   */\n      iszero\n      tag_145\n      jumpi\n        /* \"#utility.yul\":1307:1386   */\n      tag_146\n      tag_95\n      jump\t// in\n    tag_146:\n        /* \"#utility.yul\":1269:1388   */\n    tag_145:\n        /* \"#utility.yul\":1427:1428   */\n      0x00\n        /* \"#utility.yul\":1452:1505   */\n      tag_147\n        /* \"#utility.yul\":1497:1504   */\n      dup5\n        /* \"#utility.yul\":1488:1494   */\n      dup3\n        /* \"#utility.yul\":1477:1486   */\n      dup6\n        /* \"#utility.yul\":1473:1495   */\n      add\n        /* \"#utility.yul\":1452:1505   */\n      tag_98\n      jump\t// in\n    tag_147:\n        /* \"#utility.yul\":1442:1505   */\n      swap2\n      pop\n        /* \"#utility.yul\":1398:1515   */\n      pop\n        /* \"#utility.yul\":1193:1522   */\n      swap3\n      swap2\n      pop\n      pop\n      jump\t// out\n        /* \"#utility.yul\":1528:1605   */\n    tag_99:\n        /* \"#utility.yul\":1565:1572   */\n      0x00\n        /* \"#utility.yul\":1594:1599   */\n      dup2\n        /* \"#utility.yul\":1583:1599   */\n      swap1\n      pop\n        /* \"#utility.yul\":1528:1605   */\n      swap2\n      swap1\n      pop\n      jump\t// out\n        /* \"#utility.yul\":1611:1729   */\n    tag_100:\n        /* \"#utility.yul\":1698:1722   */\n      tag_150\n        /* \"#utility.yul\":1716:1721   */\n      dup2\n        /* \"#utility.yul\":1698:1722   */\n      tag_99\n      jump\t// in\n    tag_150:\n        /* \"#utility.yul\":1693:1696   */\n      dup3\n        /* \"#utility.yul\":1686:1723   */\n      mstore\n        /* \"#utility.yul\":1611:1729   */\n      pop\n      pop\n      jump\t// out\n        /* \"#utility.yul\":1735:1957   */\n    tag_27:\n        /* \"#utility.yul\":1828:1832   */\n      0x00\n        /* \"#utility.yul\":1866:1868   */\n      0x20\n        /* \"#utility.yul\":1855:1864   */\n      dup3\n        /* \"#utility.yul\":1851:1869   */\n      add\n        /* \"#utility.yul\":1843:1869   */\n      swap1\n      pop\n        /* \"#utility.yul\":1879:1950   */\n      tag_152\n        /* \"#utility.yul\":1947:1948   */\n      0x00\n        /* \"#utility.yul\":1936:1945   */\n      dup4\n        /* \"#utility.yul\":1932:1949   */\n      add\n        /* \"#utility.yul\":1923:1929   */\n      dup5\n        /* \"#utility.yul\":1879:1950   */\n      tag_100\n      jump\t// in\n    tag_152:\n        /* \"#utility.yul\":1735:1957   */\n      swap3\n      swap2\n      pop\n      pop\n      jump\t// out\n        /* \"#utility.yul\":1963:2039   */\n    tag_101:\n        /* \"#utility.yul\":1999:2006   */\n      0x00\n        /* \"#utility.yul\":2028:2033   */\n      dup2\n        /* \"#utility.yul\":2017:2033   */\n      swap1\n      pop\n        /* \"#utility.yul\":1963:2039   */\n      swap2\n      swap1\n      pop\n      jump\t// out\n        /* \"#utility.yul\":2045:2160   */\n    tag_102:\n        /* \"#utility.yul\":2130:2153   */\n      tag_155\n        /* \"#utility.yul\":2147:2152   */\n      dup2\n        /* \"#utility.yul\":2130:2153   */\n      tag_101\n      jump\t// in\n    tag_155:\n        /* \"#utility.yul\":2125:2128   */\n      dup3\n        /* \"#utility.yul\":2118:2154   */\n      mstore\n        /* \"#utility.yul\":2045:2160   */\n      pop\n      pop\n      jump\t// out\n        /* \"#utility.yul\":2166:2384   */\n    tag_34:\n        /* \"#utility.yul\":2257:2261   */\n      0x00\n        /* \"#utility.yul\":2295:2297   */\n      0x20\n        /* \"#utility.yul\":2284:2293   */\n      dup3\n        /* \"#utility.yul\":2280:2298   */\n      add\n        /* \"#utility.yul\":2272:2298   */\n      swap1\n      pop\n        /* \"#utility.yul\":2308:2377   */\n      tag_157\n        /* \"#utility.yul\":2374:2375   */\n      0x00\n        /* \"#utility.yul\":2363:2372   */\n      dup4\n        /* \"#utility.yul\":2359:2376   */\n      add\n        /* \"#utility.yul\":2350:2356   */\n      dup5\n        /* \"#utility.yul\":2308:2377   */\n      tag_102\n      jump\t// in\n    tag_157:\n        /* \"#utility.yul\":2166:2384   */\n      swap3\n      swap2\n      pop\n      pop\n      jump\t// out\n        /* \"#utility.yul\":2390:2559   */\n    tag_103:\n        /* \"#utility.yul\":2474:2485   */\n      0x00\n        /* \"#utility.yul\":2508:2514   */\n      dup3\n        /* \"#utility.yul\":2503:2506   */\n      dup3\n        /* \"#utility.yul\":2496:2515   */\n      mstore\n        /* \"#utility.yul\":2548:2552   */\n      0x20\n        /* \"#utility.yul\":2543:2546   */\n      dup3\n        /* \"#utility.yul\":2539:2553   */\n      add\n        /* \"#utility.yul\":2524:2553   */\n      swap1\n      pop\n        /* \"#utility.yul\":2390:2559   */\n      swap3\n      swap2\n      pop\n      pop\n      jump\t// out\n        /* \"#utility.yul\":2565:2732   */\n    tag_104:\n        /* \"#utility.yul\":2705:2724   */\n      0x5461726765742069732072656163686564000000000000000000000000000000\n        /* \"#utility.yul\":2701:2702   */\n      0x00\n        /* \"#utility.yul\":2693:2699   */\n      dup3\n        /* \"#utility.yul\":2689:2703   */\n      add\n        /* \"#utility.yul\":2682:2725   */\n      mstore\n        /* \"#utility.yul\":2565:2732   */\n      pop\n      jump\t// out\n        /* \"#utility.yul\":2738:3104   */\n    tag_105:\n        /* \"#utility.yul\":2880:2883   */\n      0x00\n        /* \"#utility.yul\":2901:2968   */\n      tag_161\n        /* \"#utility.yul\":2965:2967   */\n      0x11\n        /* \"#utility.yul\":2960:2963   */\n      dup4\n        /* \"#utility.yul\":2901:2968   */\n      tag_103\n      jump\t// in\n    tag_161:\n        /* \"#utility.yul\":2894:2968   */\n      swap2\n      pop\n        /* \"#utility.yul\":2977:3070   */\n      tag_162\n        /* \"#utility.yul\":3066:3069   */\n      dup3\n        /* \"#utility.yul\":2977:3070   */\n      tag_104\n      jump\t// in\n    tag_162:\n        /* \"#utility.yul\":3095:3097   */\n      0x20\n        /* \"#utility.yul\":3090:3093   */\n      dup3\n        /* \"#utility.yul\":3086:3098   */\n      add\n        /* \"#utility.yul\":3079:3098   */\n      swap1\n      pop\n        /* \"#utility.yul\":2738:3104   */\n      swap2\n      swap1\n      pop\n      jump\t// out\n        /* \"#utility.yul\":3110:3529   */\n    tag_44:\n        /* \"#utility.yul\":3276:3280   */\n      0x00\n        /* \"#utility.yul\":3314:3316   */\n      0x20\n        /* \"#utility.yul\":3303:3312   */\n      dup3\n        /* \"#utility.yul\":3299:3317   */\n      add\n        /* \"#utility.yul\":3291:3317   */\n      swap1\n      pop\n        /* \"#utility.yul\":3363:3372   */\n      dup2\n        /* \"#utility.yul\":3357:3361   */\n      dup2\n        /* \"#utility.yul\":3353:3373   */\n      sub\n        /* \"#utility.yul\":3349:3350   */\n      0x00\n        /* \"#utility.yul\":3338:3347   */\n      dup4\n        /* \"#utility.yul\":3334:3351   */\n      add\n        /* \"#utility.yul\":3327:3374   */\n      mstore\n        /* \"#utility.yul\":3391:3522   */\n      tag_164\n        /* \"#utility.yul\":3517:3521   */\n      dup2\n        /* \"#utility.yul\":3391:3522   */\n      tag_105\n      jump\t// in\n    tag_164:\n        /* \"#utility.yul\":3383:3522   */\n      swap1\n      pop\n        /* \"#utility.yul\":3110:3529   */\n      swap2\n      swap1\n      pop\n      jump\t// out\n        /* \"#utility.yul\":3535:3703   */\n    tag_106:\n        /* \"#utility.yul\":3675:3695   */\n      0x596f752068617665206e6f742066756e642e0000000000000000000000000000\n        /* \"#utility.yul\":3671:3672   */\n      0x00\n        /* \"#utility.yul\":3663:3669   */\n      dup3\n        /* \"#utility.yul\":3659:3673   */\n      add\n        /* \"#utility.yul\":3652:3696   */\n      mstore\n        /* \"#utility.yul\":3535:3703   */\n      pop\n      jump\t// out\n        /* \"#utility.yul\":3709:4075   */\n    tag_107:\n        /* \"#utility.yul\":3851:3854   */\n      0x00\n        /* \"#utility.yul\":3872:3939   */\n      tag_167\n        /* \"#utility.yul\":3936:3938   */\n      0x12\n        /* \"#utility.yul\":3931:3934   */\n      dup4\n        /* \"#utility.yul\":3872:3939   */\n      tag_103\n      jump\t// in\n    tag_167:\n        /* \"#utility.yul\":3865:3939   */\n      swap2\n      pop\n        /* \"#utility.yul\":3948:4041   */\n      tag_168\n        /* \"#utility.yul\":4037:4040   */\n      dup3\n        /* \"#utility.yul\":3948:4041   */\n      tag_106\n      jump\t// in\n    tag_168:\n        /* \"#utility.yul\":4066:4068   */\n      0x20\n        /* \"#utility.yul\":4061:4064   */\n      dup3\n        /* \"#utility.yul\":4057:4069   */\n      add\n        /* \"#utility.yul\":4050:4069   */\n      swap1\n      pop\n        /* \"#utility.yul\":3709:4075   */\n      swap2\n      swap1\n      pop\n      jump\t// out\n        /* \"#utility.yul\":4081:4500   */\n    tag_47:\n        /* \"#utility.yul\":4247:4251   */\n      0x00\n        /* \"#utility.yul\":4285:4287   */\n      0x20\n        /* \"#utility.yul\":4274:4283   */\n      dup3\n        /* \"#utility.yul\":4270:4288   */\n      add\n        /* \"#utility.yul\":4262:4288   */\n      swap1\n      pop\n        /* \"#utility.yul\":4334:4343   */\n      dup2\n        /* \"#utility.yul\":4328:4332   */\n      dup2\n        /* \"#utility.yul\":4324:4344   */\n      sub\n        /* \"#utility.yul\":4320:4321   */\n      0x00\n        /* \"#utility.yul\":4309:4318   */\n      dup4\n        /* \"#utility.yul\":4305:4322   */\n      add\n        /* \"#utility.yul\":4298:4345   */\n      mstore\n        /* \"#utility.yul\":4362:4493   */\n      tag_170\n        /* \"#utility.yul\":4488:4492   */\n      dup2\n        /* \"#utility.yul\":4362:4493   */\n      tag_107\n      jump\t// in\n    tag_170:\n        /* \"#utility.yul\":4354:4493   */\n      swap1\n      pop\n        /* \"#utility.yul\":4081:4500   */\n      swap2\n      swap1\n      pop\n      jump\t// out\n        /* \"#utility.yul\":4506:4653   */\n    tag_108:\n        /* \"#utility.yul\":4607:4618   */\n      0x00\n        /* \"#utility.yul\":4644:4647   */\n      dup2\n        /* \"#utility.yul\":4629:4647   */\n      swap1\n      pop\n        /* \"#utility.yul\":4506:4653   */\n      swap3\n      swap2\n      pop\n      pop\n      jump\t// out\n        /* \"#utility.yul\":4659:4773   */\n    tag_109:\n      pop\n      jump\t// out\n        /* \"#utility.yul\":4779:5177   */\n    tag_110:\n        /* \"#utility.yul\":4938:4941   */\n      0x00\n        /* \"#utility.yul\":4959:5042   */\n      tag_174\n        /* \"#utility.yul\":5040:5041   */\n      0x00\n        /* \"#utility.yul\":5035:5038   */\n      dup4\n        /* \"#utility.yul\":4959:5042   */\n      tag_108\n      jump\t// in\n    tag_174:\n        /* \"#utility.yul\":4952:5042   */\n      swap2\n      pop\n        /* \"#utility.yul\":5051:5144   */\n      tag_175\n        /* \"#utility.yul\":5140:5143   */\n      dup3\n        /* \"#utility.yul\":5051:5144   */\n      tag_109\n      jump\t// in\n    tag_175:\n        /* \"#utility.yul\":5169:5170   */\n      0x00\n        /* \"#utility.yul\":5164:5167   */\n      dup3\n        /* \"#utility.yul\":5160:5171   */\n      add\n        /* \"#utility.yul\":5153:5171   */\n      swap1\n      pop\n        /* \"#utility.yul\":4779:5177   */\n      swap2\n      swap1\n      pop\n      jump\t// out\n        /* \"#utility.yul\":5183:5562   */\n    tag_49:\n        /* \"#utility.yul\":5367:5370   */\n      0x00\n        /* \"#utility.yul\":5389:5536   */\n      tag_177\n        /* \"#utility.yul\":5532:5535   */\n      dup3\n        /* \"#utility.yul\":5389:5536   */\n      tag_110\n      jump\t// in\n    tag_177:\n        /* \"#utility.yul\":5382:5536   */\n      swap2\n      pop\n        /* \"#utility.yul\":5553:5556   */\n      dup2\n        /* \"#utility.yul\":5546:5556   */\n      swap1\n      pop\n        /* \"#utility.yul\":5183:5562   */\n      swap2\n      swap1\n      pop\n      jump\t// out\n        /* \"#utility.yul\":5568:5736   */\n    tag_111:\n        /* \"#utility.yul\":5708:5728   */\n      0x7472616e73666572207478206661696c65640000000000000000000000000000\n        /* \"#utility.yul\":5704:5705   */\n      0x00\n        /* \"#utility.yul\":5696:5702   */\n      dup3\n        /* \"#utility.yul\":5692:5706   */\n      add\n        /* \"#utility.yul\":5685:5729   */\n      mstore\n        /* \"#utility.yul\":5568:5736   */\n      pop\n      jump\t// out\n        /* \"#utility.yul\":5742:6108   */\n    tag_112:\n        /* \"#utility.yul\":5884:5887   */\n      0x00\n        /* \"#utility.yul\":5905:5972   */\n      tag_180\n        /* \"#utility.yul\":5969:5971   */\n      0x12\n        /* \"#utility.yul\":5964:5967   */\n      dup4\n        /* \"#utility.yul\":5905:5972   */\n      tag_103\n      jump\t// in\n    tag_180:\n        /* \"#utility.yul\":5898:5972   */\n      swap2\n      pop\n        /* \"#utility.yul\":5981:6074   */\n      tag_181\n        /* \"#utility.yul\":6070:6073   */\n      dup3\n        /* \"#utility.yul\":5981:6074   */\n      tag_111\n      jump\t// in\n    tag_181:\n        /* \"#utility.yul\":6099:6101   */\n      0x20\n        /* \"#utility.yul\":6094:6097   */\n      dup3\n        /* \"#utility.yul\":6090:6102   */\n      add\n        /* \"#utility.yul\":6083:6102   */\n      swap1\n      pop\n        /* \"#utility.yul\":5742:6108   */\n      swap2\n      swap1\n      pop\n      jump\t// out\n        /* \"#utility.yul\":6114:6533   */\n    tag_55:\n        /* \"#utility.yul\":6280:6284   */\n      0x00\n        /* \"#utility.yul\":6318:6320   */\n      0x20\n        /* \"#utility.yul\":6307:6316   */\n      dup3\n        /* \"#utility.yul\":6303:6321   */\n      add\n        /* \"#utility.yul\":6295:6321   */\n      swap1\n      pop\n        /* \"#utility.yul\":6367:6376   */\n      dup2\n        /* \"#utility.yul\":6361:6365   */\n      dup2\n        /* \"#utility.yul\":6357:6377   */\n      sub\n        /* \"#utility.yul\":6353:6354   */\n      0x00\n        /* \"#utility.yul\":6342:6351   */\n      dup4\n        /* \"#utility.yul\":6338:6355   */\n      add\n        /* \"#utility.yul\":6331:6378   */\n      mstore\n        /* \"#utility.yul\":6395:6526   */\n      tag_183\n        /* \"#utility.yul\":6521:6525   */\n      dup2\n        /* \"#utility.yul\":6395:6526   */\n      tag_112\n      jump\t// in\n    tag_183:\n        /* \"#utility.yul\":6387:6526   */\n      swap1\n      pop\n        /* \"#utility.yul\":6114:6533   */\n      swap2\n      swap1\n      pop\n      jump\t// out\n        /* \"#utility.yul\":6539:6710   */\n    tag_113:\n        /* \"#utility.yul\":6679:6702   */\n      0x546172676574206973206e6f7420726561636865640000000000000000000000\n        /* \"#utility.yul\":6675:6676   */\n      0x00\n        /* \"#utility.yul\":6667:6673   */\n      dup3\n        /* \"#utility.yul\":6663:6677   */\n      add\n        /* \"#utility.yul\":6656:6703   */\n      mstore\n        /* \"#utility.yul\":6539:6710   */\n      pop\n      jump\t// out\n        /* \"#utility.yul\":6716:7082   */\n    tag_114:\n        /* \"#utility.yul\":6858:6861   */\n      0x00\n        /* \"#utility.yul\":6879:6946   */\n      tag_186\n        /* \"#utility.yul\":6943:6945   */\n      0x15\n        /* \"#utility.yul\":6938:6941   */\n      dup4\n        /* \"#utility.yul\":6879:6946   */\n      tag_103\n      jump\t// in\n    tag_186:\n        /* \"#utility.yul\":6872:6946   */\n      swap2\n      pop\n        /* \"#utility.yul\":6955:7048   */\n      tag_187\n        /* \"#utility.yul\":7044:7047   */\n      dup3\n        /* \"#utility.yul\":6955:7048   */\n      tag_113\n      jump\t// in\n    tag_187:\n        /* \"#utility.yul\":7073:7075   */\n      0x20\n        /* \"#utility.yul\":7068:7071   */\n      dup3\n        /* \"#utility.yul\":7064:7076   */\n      add\n        /* \"#utility.yul\":7057:7076   */\n      swap1\n      pop\n        /* \"#utility.yul\":6716:7082   */\n      swap2\n      swap1\n      pop\n      jump\t// out\n        /* \"#utility.yul\":7088:7507   */\n    tag_60:\n        /* \"#utility.yul\":7254:7258   */\n      0x00\n        /* \"#utility.yul\":7292:7294   */\n      0x20\n        /* \"#utility.yul\":7281:7290   */\n      dup3\n        /* \"#utility.yul\":7277:7295   */\n      add\n        /* \"#utility.yul\":7269:7295   */\n      swap1\n      pop\n        /* \"#utility.yul\":7341:7350   */\n      dup2\n        /* \"#utility.yul\":7335:7339   */\n      dup2\n        /* \"#utility.yul\":7331:7351   */\n      sub\n        /* \"#utility.yul\":7327:7328   */\n      0x00\n        /* \"#utility.yul\":7316:7325   */\n      dup4\n        /* \"#utility.yul\":7312:7329   */\n      add\n        /* \"#utility.yul\":7305:7352   */\n      mstore\n        /* \"#utility.yul\":7369:7500   */\n      tag_189\n        /* \"#utility.yul\":7495:7499   */\n      dup2\n        /* \"#utility.yul\":7369:7500   */\n      tag_114\n      jump\t// in\n    tag_189:\n        /* \"#utility.yul\":7361:7500   */\n      swap1\n      pop\n        /* \"#utility.yul\":7088:7507   */\n      swap2\n      swap1\n      pop\n      jump\t// out\n        /* \"#utility.yul\":7513:7741   */\n    tag_115:\n        /* \"#utility.yul\":7653:7687   */\n      0x746869732066756e6374696f6e2063616e206f6e6c792062652063616c6c6564\n        /* \"#utility.yul\":7649:7650   */\n      0x00\n        /* \"#utility.yul\":7641:7647   */\n      dup3\n        /* \"#utility.yul\":7637:7651   */\n      add\n        /* \"#utility.yul\":7630:7688   */\n      mstore\n        /* \"#utility.yul\":7722:7733   */\n      0x206279206f776e65720000000000000000000000000000000000000000000000\n        /* \"#utility.yul\":7717:7719   */\n      0x20\n        /* \"#utility.yul\":7709:7715   */\n      dup3\n        /* \"#utility.yul\":7705:7720   */\n      add\n        /* \"#utility.yul\":7698:7734   */\n      mstore\n        /* \"#utility.yul\":7513:7741   */\n      pop\n      jump\t// out\n        /* \"#utility.yul\":7747:8113   */\n    tag_116:\n        /* \"#utility.yul\":7889:7892   */\n      0x00\n        /* \"#utility.yul\":7910:7977   */\n      tag_192\n        /* \"#utility.yul\":7974:7976   */\n      0x29\n        /* \"#utility.yul\":7969:7972   */\n      dup4\n        /* \"#utility.yul\":7910:7977   */\n      tag_103\n      jump\t// in\n    tag_192:\n        /* \"#utility.yul\":7903:7977   */\n      swap2\n      pop\n        /* \"#utility.yul\":7986:8079   */\n      tag_193\n        /* \"#utility.yul\":8075:8078   */\n      dup3\n        /* \"#utility.yul\":7986:8079   */\n      tag_115\n      jump\t// in\n    tag_193:\n        /* \"#utility.yul\":8104:8106   */\n      0x40\n        /* \"#utility.yul\":8099:8102   */\n      dup3\n        /* \"#utility.yul\":8095:8107   */\n      add\n        /* \"#utility.yul\":8088:8107   */\n      swap1\n      pop\n        /* \"#utility.yul\":7747:8113   */\n      swap2\n      swap1\n      pop\n      jump\t// out\n        /* \"#utility.yul\":8119:8538   */\n    tag_63:\n        /* \"#utility.yul\":8285:8289   */\n      0x00\n        /* \"#utility.yul\":8323:8325   */\n      0x20\n        /* \"#utility.yul\":8312:8321   */\n      dup3\n        /* \"#utility.yul\":8308:8326   */\n      add\n        /* \"#utility.yul\":8300:8326   */\n      swap1\n      pop\n        /* \"#utility.yul\":8372:8381   */\n      dup2\n        /* \"#utility.yul\":8366:8370   */\n      dup2\n        /* \"#utility.yul\":8362:8382   */\n      sub\n        /* \"#utility.yul\":8358:8359   */\n      0x00\n        /* \"#utility.yul\":8347:8356   */\n      dup4\n        /* \"#utility.yul\":8343:8360   */\n      add\n        /* \"#utility.yul\":8336:8383   */\n      mstore\n        /* \"#utility.yul\":8400:8531   */\n      tag_195\n        /* \"#utility.yul\":8526:8530   */\n      dup2\n        /* \"#utility.yul\":8400:8531   */\n      tag_116\n      jump\t// in\n    tag_195:\n        /* \"#utility.yul\":8392:8531   */\n      swap1\n      pop\n        /* \"#utility.yul\":8119:8538   */\n      swap2\n      swap1\n      pop\n      jump\t// out\n        /* \"#utility.yul\":8544:8707   */\n    tag_117:\n        /* \"#utility.yul\":8684:8699   */\n      0x53656e64206d6f72652045544800000000000000000000000000000000000000\n        /* \"#utility.yul\":8680:8681   */\n      0x00\n        /* \"#utility.yul\":8672:8678   */\n      dup3\n        /* \"#utility.yul\":8668:8682   */\n      add\n        /* \"#utility.yul\":8661:8700   */\n      mstore\n        /* \"#utility.yul\":8544:8707   */\n      pop\n      jump\t// out\n        /* \"#utility.yul\":8713:9079   */\n    tag_118:\n        /* \"#utility.yul\":8855:8858   */\n      0x00\n        /* \"#utility.yul\":8876:8943   */\n      tag_198\n        /* \"#utility.yul\":8940:8942   */\n      0x0d\n        /* \"#utility.yul\":8935:8938   */\n      dup4\n        /* \"#utility.yul\":8876:8943   */\n      tag_103\n      jump\t// in\n    tag_198:\n        /* \"#utility.yul\":8869:8943   */\n      swap2\n      pop\n        /* \"#utility.yul\":8952:9045   */\n      tag_199\n        /* \"#utility.yul\":9041:9044   */\n      dup3\n        /* \"#utility.yul\":8952:9045   */\n      tag_117\n      jump\t// in\n    tag_199:\n        /* \"#utility.yul\":9070:9072   */\n      0x20\n        /* \"#utility.yul\":9065:9068   */\n      dup3\n        /* \"#utility.yul\":9061:9073   */\n      add\n        /* \"#utility.yul\":9054:9073   */\n      swap1\n      pop\n        /* \"#utility.yul\":8713:9079   */\n      swap2\n      swap1\n      pop\n      jump\t// out\n        /* \"#utility.yul\":9085:9504   */\n    tag_74:\n        /* \"#utility.yul\":9251:9255   */\n      0x00\n        /* \"#utility.yul\":9289:9291   */\n      0x20\n        /* \"#utility.yul\":9278:9287   */\n      dup3\n        /* \"#utility.yul\":9274:9292   */\n      add\n        /* \"#utility.yul\":9266:9292   */\n      swap1\n      pop\n        /* \"#utility.yul\":9338:9347   */\n      dup2\n        /* \"#utility.yul\":9332:9336   */\n      dup2\n        /* \"#utility.yul\":9328:9348   */\n      sub\n        /* \"#utility.yul\":9324:9325   */\n      0x00\n        /* \"#utility.yul\":9313:9322   */\n      dup4\n        /* \"#utility.yul\":9309:9326   */\n      add\n        /* \"#utility.yul\":9302:9349   */\n      mstore\n        /* \"#utility.yul\":9366:9497   */\n      tag_201\n        /* \"#utility.yul\":9492:9496   */\n      dup2\n        /* \"#utility.yul\":9366:9497   */\n      tag_118\n      jump\t// in\n    tag_201:\n        /* \"#utility.yul\":9358:9497   */\n      swap1\n      pop\n        /* \"#utility.yul\":9085:9504   */\n      swap2\n      swap1\n      pop\n      jump\t// out\n        /* \"#utility.yul\":9510:9690   */\n    tag_119:\n        /* \"#utility.yul\":9558:9635   */\n      0x4e487b7100000000000000000000000000000000000000000000000000000000\n        /* \"#utility.yul\":9555:9556   */\n      0x00\n        /* \"#utility.yul\":9548:9636   */\n      mstore\n        /* \"#utility.yul\":9655:9659   */\n      0x11\n        /* \"#utility.yul\":9652:9653   */\n      0x04\n        /* \"#utility.yul\":9645:9660   */\n      mstore\n        /* \"#utility.yul\":9679:9683   */\n      0x24\n        /* \"#utility.yul\":9676:9677   */\n      0x00\n        /* \"#utility.yul\":9669:9684   */\n      revert\n        /* \"#utility.yul\":9696:9887   */\n    tag_76:\n        /* \"#utility.yul\":9736:9739   */\n      0x00\n        /* \"#utility.yul\":9755:9775   */\n      tag_204\n        /* \"#utility.yul\":9773:9774   */\n      dup3\n        /* \"#utility.yul\":9755:9775   */\n      tag_99\n      jump\t// in\n    tag_204:\n        /* \"#utility.yul\":9750:9775   */\n      swap2\n      pop\n        /* \"#utility.yul\":9789:9809   */\n      tag_205\n        /* \"#utility.yul\":9807:9808   */\n      dup4\n        /* \"#utility.yul\":9789:9809   */\n      tag_99\n      jump\t// in\n    tag_205:\n        /* \"#utility.yul\":9784:9809   */\n      swap3\n      pop\n        /* \"#utility.yul\":9832:9833   */\n      dup3\n        /* \"#utility.yul\":9829:9830   */\n      dup3\n        /* \"#utility.yul\":9825:9834   */\n      add\n        /* \"#utility.yul\":9818:9834   */\n      swap1\n      pop\n        /* \"#utility.yul\":9853:9856   */\n      dup1\n        /* \"#utility.yul\":9850:9851   */\n      dup3\n        /* \"#utility.yul\":9847:9857   */\n      gt\n        /* \"#utility.yul\":9844:9880   */\n      iszero\n      tag_206\n      jumpi\n        /* \"#utility.yul\":9860:9878   */\n      tag_207\n      tag_119\n      jump\t// in\n    tag_207:\n        /* \"#utility.yul\":9844:9880   */\n    tag_206:\n        /* \"#utility.yul\":9696:9887   */\n      swap3\n      swap2\n      pop\n      pop\n      jump\t// out\n        /* \"#utility.yul\":9893:9998   */\n    tag_120:\n        /* \"#utility.yul\":9929:9936   */\n      0x00\n        /* \"#utility.yul\":9969:9991   */\n      0xffffffffffffffffffff\n        /* \"#utility.yul\":9962:9967   */\n      dup3\n        /* \"#utility.yul\":9958:9992   */\n      and\n        /* \"#utility.yul\":9947:9992   */\n      swap1\n      pop\n        /* \"#utility.yul\":9893:9998   */\n      swap2\n      swap1\n      pop\n      jump\t// out\n        /* \"#utility.yul\":10004:10124   */\n    tag_121:\n        /* \"#utility.yul\":10076:10099   */\n      tag_210\n        /* \"#utility.yul\":10093:10098   */\n      dup2\n        /* \"#utility.yul\":10076:10099   */\n      tag_120\n      jump\t// in\n    tag_210:\n        /* \"#utility.yul\":10069:10074   */\n      dup2\n        /* \"#utility.yul\":10066:10100   */\n      eq\n        /* \"#utility.yul\":10056:10118   */\n      tag_211\n      jumpi\n        /* \"#utility.yul\":10114:10115   */\n      0x00\n        /* \"#utility.yul\":10111:10112   */\n      0x00\n        /* \"#utility.yul\":10104:10116   */\n      revert\n        /* \"#utility.yul\":10056:10118   */\n    tag_211:\n        /* \"#utility.yul\":10004:10124   */\n      pop\n      jump\t// out\n        /* \"#utility.yul\":10130:10271   */\n    tag_122:\n        /* \"#utility.yul\":10186:10191   */\n      0x00\n        /* \"#utility.yul\":10217:10223   */\n      dup2\n        /* \"#utility.yul\":10211:10224   */\n      mload\n        /* \"#utility.yul\":10202:10224   */\n      swap1\n      pop\n        /* \"#utility.yul\":10233:10265   */\n      tag_213\n        /* \"#utility.yul\":10259:10264   */\n      dup2\n        /* \"#utility.yul\":10233:10265   */\n      tag_121\n      jump\t// in\n    tag_213:\n        /* \"#utility.yul\":10130:10271   */\n      swap3\n      swap2\n      pop\n      pop\n      jump\t// out\n        /* \"#utility.yul\":10277:10397   */\n    tag_123:\n        /* \"#utility.yul\":10349:10372   */\n      tag_215\n        /* \"#utility.yul\":10366:10371   */\n      dup2\n        /* \"#utility.yul\":10349:10372   */\n      tag_101\n      jump\t// in\n    tag_215:\n        /* \"#utility.yul\":10342:10347   */\n      dup2\n        /* \"#utility.yul\":10339:10373   */\n      eq\n        /* \"#utility.yul\":10329:10391   */\n      tag_216\n      jumpi\n        /* \"#utility.yul\":10387:10388   */\n      0x00\n        /* \"#utility.yul\":10384:10385   */\n      0x00\n        /* \"#utility.yul\":10377:10389   */\n      revert\n        /* \"#utility.yul\":10329:10391   */\n    tag_216:\n        /* \"#utility.yul\":10277:10397   */\n      pop\n      jump\t// out\n        /* \"#utility.yul\":10403:10544   */\n    tag_124:\n        /* \"#utility.yul\":10459:10464   */\n      0x00\n        /* \"#utility.yul\":10490:10496   */\n      dup2\n        /* \"#utility.yul\":10484:10497   */\n      mload\n        /* \"#utility.yul\":10475:10497   */\n      swap1\n      pop\n        /* \"#utility.yul\":10506:10538   */\n      tag_218\n        /* \"#utility.yul\":10532:10537   */\n      dup2\n        /* \"#utility.yul\":10506:10538   */\n      tag_123\n      jump\t// in\n    tag_218:\n        /* \"#utility.yul\":10403:10544   */\n      swap3\n      swap2\n      pop\n      pop\n      jump\t// out\n        /* \"#utility.yul\":10550:10672   */\n    tag_125:\n        /* \"#utility.yul\":10623:10647   */\n      tag_220\n        /* \"#utility.yul\":10641:10646   */\n      dup2\n        /* \"#utility.yul\":10623:10647   */\n      tag_99\n      jump\t// in\n    tag_220:\n        /* \"#utility.yul\":10616:10621   */\n      dup2\n        /* \"#utility.yul\":10613:10648   */\n      eq\n        /* \"#utility.yul\":10603:10666   */\n      tag_221\n      jumpi\n        /* \"#utility.yul\":10662:10663   */\n      0x00\n        /* \"#utility.yul\":10659:10660   */\n      0x00\n        /* \"#utility.yul\":10652:10664   */\n      revert\n        /* \"#utility.yul\":10603:10666   */\n    tag_221:\n        /* \"#utility.yul\":10550:10672   */\n      pop\n      jump\t// out\n        /* \"#utility.yul\":10678:10821   */\n    tag_126:\n        /* \"#utility.yul\":10735:10740   */\n      0x00\n        /* \"#utility.yul\":10766:10772   */\n      dup2\n        /* \"#utility.yul\":10760:10773   */\n      mload\n        /* \"#utility.yul\":10751:10773   */\n      swap1\n      pop\n        /* \"#utility.yul\":10782:10815   */\n      tag_223\n        /* \"#utility.yul\":10809:10814   */\n      dup2\n        /* \"#utility.yul\":10782:10815   */\n      tag_125\n      jump\t// in\n    tag_223:\n        /* \"#utility.yul\":10678:10821   */\n      swap3\n      swap2\n      pop\n      pop\n      jump\t// out\n        /* \"#utility.yul\":10827:11798   */\n    tag_81:\n        /* \"#utility.yul\":10930:10936   */\n      0x00\n        /* \"#utility.yul\":10938:10944   */\n      0x00\n        /* \"#utility.yul\":10946:10952   */\n      0x00\n        /* \"#utility.yul\":10954:10960   */\n      0x00\n        /* \"#utility.yul\":10962:10968   */\n      0x00\n        /* \"#utility.yul\":11011:11014   */\n      0xa0\n        /* \"#utility.yul\":10999:11008   */\n      dup7\n        /* \"#utility.yul\":10990:10997   */\n      dup9\n        /* \"#utility.yul\":10986:11009   */\n      sub\n        /* \"#utility.yul\":10982:11015   */\n      slt\n        /* \"#utility.yul\":10979:11099   */\n      iszero\n      tag_225\n      jumpi\n        /* \"#utility.yul\":11018:11097   */\n      tag_226\n      tag_95\n      jump\t// in\n    tag_226:\n        /* \"#utility.yul\":10979:11099   */\n    tag_225:\n        /* \"#utility.yul\":11138:11139   */\n      0x00\n        /* \"#utility.yul\":11163:11226   */\n      tag_227\n        /* \"#utility.yul\":11218:11225   */\n      dup9\n        /* \"#utility.yul\":11209:11215   */\n      dup3\n        /* \"#utility.yul\":11198:11207   */\n      dup10\n        /* \"#utility.yul\":11194:11216   */\n      add\n        /* \"#utility.yul\":11163:11226   */\n      tag_122\n      jump\t// in\n    tag_227:\n        /* \"#utility.yul\":11153:11226   */\n      swap6\n      pop\n        /* \"#utility.yul\":11109:11236   */\n      pop\n        /* \"#utility.yul\":11275:11277   */\n      0x20\n        /* \"#utility.yul\":11301:11364   */\n      tag_228\n        /* \"#utility.yul\":11356:11363   */\n      dup9\n        /* \"#utility.yul\":11347:11353   */\n      dup3\n        /* \"#utility.yul\":11336:11345   */\n      dup10\n        /* \"#utility.yul\":11332:11354   */\n      add\n        /* \"#utility.yul\":11301:11364   */\n      tag_124\n      jump\t// in\n    tag_228:\n        /* \"#utility.yul\":11291:11364   */\n      swap5\n      pop\n        /* \"#utility.yul\":11246:11374   */\n      pop\n        /* \"#utility.yul\":11413:11415   */\n      0x40\n        /* \"#utility.yul\":11439:11503   */\n      tag_229\n        /* \"#utility.yul\":11495:11502   */\n      dup9\n        /* \"#utility.yul\":11486:11492   */\n      dup3\n        /* \"#utility.yul\":11475:11484   */\n      dup10\n        /* \"#utility.yul\":11471:11493   */\n      add\n        /* \"#utility.yul\":11439:11503   */\n      tag_126\n      jump\t// in\n    tag_229:\n        /* \"#utility.yul\":11429:11503   */\n      swap4\n      pop\n        /* \"#utility.yul\":11384:11513   */\n      pop\n        /* \"#utility.yul\":11552:11554   */\n      0x60\n        /* \"#utility.yul\":11578:11642   */\n      tag_230\n        /* \"#utility.yul\":11634:11641   */\n      dup9\n        /* \"#utility.yul\":11625:11631   */\n      dup3\n        /* \"#utility.yul\":11614:11623   */\n      dup10\n        /* \"#utility.yul\":11610:11632   */\n      add\n        /* \"#utility.yul\":11578:11642   */\n      tag_126\n      jump\t// in\n    tag_230:\n        /* \"#utility.yul\":11568:11642   */\n      swap3\n      pop\n        /* \"#utility.yul\":11523:11652   */\n      pop\n        /* \"#utility.yul\":11691:11694   */\n      0x80\n        /* \"#utility.yul\":11718:11781   */\n      tag_231\n        /* \"#utility.yul\":11773:11780   */\n      dup9\n        /* \"#utility.yul\":11764:11770   */\n      dup3\n        /* \"#utility.yul\":11753:11762   */\n      dup10\n        /* \"#utility.yul\":11749:11771   */\n      add\n        /* \"#utility.yul\":11718:11781   */\n      tag_122\n      jump\t// in\n    tag_231:\n        /* \"#utility.yul\":11708:11781   */\n      swap2\n      pop\n        /* \"#utility.yul\":11662:11791   */\n      pop\n        /* \"#utility.yul\":10827:11798   */\n      swap3\n      swap6\n      pop\n      swap3\n      swap6\n      swap1\n      swap4\n      pop\n      jump\t// out\n        /* \"#utility.yul\":11804:12214   */\n    tag_88:\n        /* \"#utility.yul\":11844:11851   */\n      0x00\n        /* \"#utility.yul\":11867:11887   */\n      tag_233\n        /* \"#utility.yul\":11885:11886   */\n      dup3\n        /* \"#utility.yul\":11867:11887   */\n      tag_99\n      jump\t// in\n    tag_233:\n        /* \"#utility.yul\":11862:11887   */\n      swap2\n      pop\n        /* \"#utility.yul\":11901:11921   */\n      tag_234\n        /* \"#utility.yul\":11919:11920   */\n      dup4\n        /* \"#utility.yul\":11901:11921   */\n      tag_99\n      jump\t// in\n    tag_234:\n        /* \"#utility.yul\":11896:11921   */\n      swap3\n      pop\n        /* \"#utility.yul\":11956:11957   */\n      dup3\n        /* \"#utility.yul\":11953:11954   */\n      dup3\n        /* \"#utility.yul\":11949:11958   */\n      mul\n        /* \"#utility.yul\":11978:12008   */\n      tag_235\n        /* \"#utility.yul\":11996:12007   */\n      dup2\n        /* \"#utility.yul\":11978:12008   */\n      tag_99\n      jump\t// in\n    tag_235:\n        /* \"#utility.yul\":11967:12008   */\n      swap2\n      pop\n        /* \"#utility.yul\":12157:12158   */\n      dup3\n        /* \"#utility.yul\":12148:12155   */\n      dup3\n        /* \"#utility.yul\":12144:12159   */\n      div\n        /* \"#utility.yul\":12141:12142   */\n      dup5\n        /* \"#utility.yul\":12138:12160   */\n      eq\n        /* \"#utility.yul\":12118:12119   */\n      dup4\n        /* \"#utility.yul\":12111:12120   */\n      iszero\n        /* \"#utility.yul\":12091:12174   */\n      or\n        /* \"#utility.yul\":12068:12207   */\n      tag_236\n      jumpi\n        /* \"#utility.yul\":12187:12205   */\n      tag_237\n      tag_119\n      jump\t// in\n    tag_237:\n        /* \"#utility.yul\":12068:12207   */\n    tag_236:\n        /* \"#utility.yul\":11852:12214   */\n      pop\n        /* \"#utility.yul\":11804:12214   */\n      swap3\n      swap2\n      pop\n      pop\n      jump\t// out\n        /* \"#utility.yul\":12220:12400   */\n    tag_127:\n        /* \"#utility.yul\":12268:12345   */\n      0x4e487b7100000000000000000000000000000000000000000000000000000000\n        /* \"#utility.yul\":12265:12266   */\n      0x00\n        /* \"#utility.yul\":12258:12346   */\n      mstore\n        /* \"#utility.yul\":12365:12369   */\n      0x12\n        /* \"#utility.yul\":12362:12363   */\n      0x04\n        /* \"#utility.yul\":12355:12370   */\n      mstore\n        /* \"#utility.yul\":12389:12393   */\n      0x24\n        /* \"#utility.yul\":12386:12387   */\n      0x00\n        /* \"#utility.yul\":12379:12394   */\n      revert\n        /* \"#utility.yul\":12406:12591   */\n    tag_90:\n        /* \"#utility.yul\":12446:12447   */\n      0x00\n        /* \"#utility.yul\":12463:12483   */\n      tag_240\n        /* \"#utility.yul\":12481:12482   */\n      dup3\n        /* \"#utility.yul\":12463:12483   */\n      tag_99\n      jump\t// in\n    tag_240:\n        /* \"#utility.yul\":12458:12483   */\n      swap2\n      pop\n        /* \"#utility.yul\":12497:12517   */\n      tag_241\n        /* \"#utility.yul\":12515:12516   */\n      dup4\n        /* \"#utility.yul\":12497:12517   */\n      tag_99\n      jump\t// in\n    tag_241:\n        /* \"#utility.yul\":12492:12517   */\n      swap3\n      pop\n        /* \"#utility.yul\":12536:12537   */\n      dup3\n        /* \"#utility.yul\":12526:12561   */\n      tag_242\n      jumpi\n        /* \"#utility.yul\":12541:12559   */\n      tag_243\n      tag_127\n      jump\t// in\n    tag_243:\n        /* \"#utility.yul\":12526:12561   */\n    tag_242:\n        /* \"#utility.yul\":12583:12584   */\n      dup3\n        /* \"#utility.yul\":12580:12581   */\n      dup3\n        /* \"#utility.yul\":12576:12585   */\n      div\n        /* \"#utility.yul\":12571:12585   */\n      swap1\n      pop\n        /* \"#utility.yul\":12406:12591   */\n      swap3\n      swap2\n      pop\n      pop\n      jump\t// out\n\n    auxdata: 0xa2646970667358221220014c8ea73647fd25307089426f31d225469391b2ef736d170f64be1d46f055f764736f6c634300081e0033\n}\n",
				"bytecode": {
					"linkReferences": {},
					"object": "6080604052348015600e575f5ffd5b5073694aa1769357215de4fac081bf1f309adc32530660015f6101000a81548173ffffffffffffffffffffffffffffffffffffffff021916908373ffffffffffffffffffffffffffffffffffffffff1602179055503360025f6101000a81548173ffffffffffffffffffffffffffffffffffffffff021916908373ffffffffffffffffffffffffffffffffffffffff160217905550610d1d806100b05f395ff3fe60806040526004361061006f575f3560e01c80639f883a051161004d5780639f883a05146100c9578063b60d428814610105578063bea4dfb51461010f578063f2fde38b146101395761006f565b8063590e1ae3146100735780638da5cb5b146100895780638edd6eb6146100b3575b5f5ffd5b34801561007e575f5ffd5b50610087610161565b005b348015610094575f5ffd5b5061009d6102db565b6040516100aa9190610724565b60405180910390f35b3480156100be575f5ffd5b506100c7610300565b005b3480156100d4575f5ffd5b506100ef60048036038101906100ea919061076b565b61048c565b6040516100fc91906107ae565b60405180910390f35b61010d6104a0565b005b34801561011a575f5ffd5b50610123610547565b60405161013091906107df565b60405180910390f35b348015610144575f5ffd5b5061015f600480360381019061015a919061076b565b6105e4565b005b6402540be400610170476106b6565b106101b0576040517f08c379a00000000000000000000000000000000000000000000000000000000081526004016101a790610852565b60405180910390fd5b5f5f5f3373ffffffffffffffffffffffffffffffffffffffff1673ffffffffffffffffffffffffffffffffffffffff1681526020019081526020015f20540361022e576040517f08c379a0000000000000000000000000000000000000000000000000000000008152600401610225906108ba565b60405180910390fd5b5f3373ffffffffffffffffffffffffffffffffffffffff164760405161025390610905565b5f6040518083038185875af1925050503d805f811461028d576040519150601f19603f3d011682016040523d82523d5f602084013e610292565b606091505b505080915050806102d8576040517f08c379a00000000000000000000000000000000000000000000000000000000081526004016102cf90610963565b60405180910390fd5b50565b60025f9054906101000a900473ffffffffffffffffffffffffffffffffffffffff1681565b6402540be40061030f476106b6565b1015610350576040517f08c379a0000000000000000000000000000000000000000000000000000000008152600401610347906109cb565b60405180910390fd5b60025f9054906101000a900473ffffffffffffffffffffffffffffffffffffffff1673ffffffffffffffffffffffffffffffffffffffff163373ffffffffffffffffffffffffffffffffffffffff16146103df576040517f08c379a00000000000000000000000000000000000000000000000000000000081526004016103d690610a59565b60405180910390fd5b5f3373ffffffffffffffffffffffffffffffffffffffff164760405161040490610905565b5f6040518083038185875af1925050503d805f811461043e576040519150601f19603f3d011682016040523d82523d5f602084013e610443565b606091505b50508091505080610489576040517f08c379a000000000000000000000000000000000000000000000000000000000815260040161048090610963565b60405180910390fd5b50565b5f602052805f5260405f205f915090505481565b678ac7230489e800006104b2346106b6565b10156104f3576040517f08c379a00000000000000000000000000000000000000000000000000000000081526004016104ea90610ac1565b60405180910390fd5b345f5f3373ffffffffffffffffffffffffffffffffffffffff1673ffffffffffffffffffffffffffffffffffffffff1681526020019081526020015f205f82825461053e9190610b0c565b92505081905550565b5f5f60015f9054906101000a900473ffffffffffffffffffffffffffffffffffffffff1673ffffffffffffffffffffffffffffffffffffffff1663feaf968c6040518163ffffffff1660e01b815260040160a060405180830381865afa1580156105b3573d5f5f3e3d5ffd5b505050506040513d601f19601f820116820180604052508101906105d79190610bd2565b5050509150508091505090565b60025f9054906101000a900473ffffffffffffffffffffffffffffffffffffffff1673ffffffffffffffffffffffffffffffffffffffff163373ffffffffffffffffffffffffffffffffffffffff1614610673576040517f08c379a000000000000000000000000000000000000000000000000000000000815260040161066a90610a59565b60405180910390fd5b8060025f6101000a81548173ffffffffffffffffffffffffffffffffffffffff021916908373ffffffffffffffffffffffffffffffffffffffff16021790555050565b5f5f6106c0610547565b90506305f5e10081846106d39190610c49565b6106dd9190610cb7565b915050919050565b5f73ffffffffffffffffffffffffffffffffffffffff82169050919050565b5f61070e826106e5565b9050919050565b61071e81610704565b82525050565b5f6020820190506107375f830184610715565b92915050565b5f5ffd5b61074a81610704565b8114610754575f5ffd5b50565b5f8135905061076581610741565b92915050565b5f602082840312156107805761077f61073d565b5b5f61078d84828501610757565b91505092915050565b5f819050919050565b6107a881610796565b82525050565b5f6020820190506107c15f83018461079f565b92915050565b5f819050919050565b6107d9816107c7565b82525050565b5f6020820190506107f25f8301846107d0565b92915050565b5f82825260208201905092915050565b7f54617267657420697320726561636865640000000000000000000000000000005f82015250565b5f61083c6011836107f8565b915061084782610808565b602082019050919050565b5f6020820190508181035f83015261086981610830565b9050919050565b7f596f752068617665206e6f742066756e642e00000000000000000000000000005f82015250565b5f6108a46012836107f8565b91506108af82610870565b602082019050919050565b5f6020820190508181035f8301526108d181610898565b9050919050565b5f81905092915050565b50565b5f6108f05f836108d8565b91506108fb826108e2565b5f82019050919050565b5f61090f826108e5565b9150819050919050565b7f7472616e73666572207478206661696c656400000000000000000000000000005f82015250565b5f61094d6012836107f8565b915061095882610919565b602082019050919050565b5f6020820190508181035f83015261097a81610941565b9050919050565b7f546172676574206973206e6f74207265616368656400000000000000000000005f82015250565b5f6109b56015836107f8565b91506109c082610981565b602082019050919050565b5f6020820190508181035f8301526109e2816109a9565b9050919050565b7f746869732066756e6374696f6e2063616e206f6e6c792062652063616c6c65645f8201527f206279206f776e65720000000000000000000000000000000000000000000000602082015250565b5f610a436029836107f8565b9150610a4e826109e9565b604082019050919050565b5f6020820190508181035f830152610a7081610a37565b9050919050565b7f53656e64206d6f726520455448000000000000000000000000000000000000005f82015250565b5f610aab600d836107f8565b9150610ab682610a77565b602082019050919050565b5f6020820190508181035f830152610ad881610a9f565b9050919050565b7f4e487b71000000000000000000000000000000000000000000000000000000005f52601160045260245ffd5b5f610b1682610796565b9150610b2183610796565b9250828201905080821115610b3957610b38610adf565b5b92915050565b5f69ffffffffffffffffffff82169050919050565b610b5d81610b3f565b8114610b67575f5ffd5b50565b5f81519050610b7881610b54565b92915050565b610b87816107c7565b8114610b91575f5ffd5b50565b5f81519050610ba281610b7e565b92915050565b610bb181610796565b8114610bbb575f5ffd5b50565b5f81519050610bcc81610ba8565b92915050565b5f5f5f5f5f60a08688031215610beb57610bea61073d565b5b5f610bf888828901610b6a565b9550506020610c0988828901610b94565b9450506040610c1a88828901610bbe565b9350506060610c2b88828901610bbe565b9250506080610c3c88828901610b6a565b9150509295509295909350565b5f610c5382610796565b9150610c5e83610796565b9250828202610c6c81610796565b91508282048414831517610c8357610c82610adf565b5b5092915050565b7f4e487b71000000000000000000000000000000000000000000000000000000005f52601260045260245ffd5b5f610cc182610796565b9150610ccc83610796565b925082610cdc57610cdb610c8a565b5b82820490509291505056fea2646970667358221220014c8ea73647fd25307089426f31d225469391b2ef736d170f64be1d46f055f764736f6c634300081e0033",
					"opcodes": "PUSH1 0x80 PUSH1 0x40 MSTORE CALLVALUE DUP1 ISZERO PUSH1 0xE JUMPI PUSH0 PUSH0 REVERT JUMPDEST POP PUSH20 0x694AA1769357215DE4FAC081BF1F309ADC325306 PUSH1 0x1 PUSH0 PUSH2 0x100 EXP DUP2 SLOAD DUP2 PUSH20 0xFFFFFFFFFFFFFFFFFFFFFFFFFFFFFFFFFFFFFFFF MUL NOT AND SWAP1 DUP4 PUSH20 0xFFFFFFFFFFFFFFFFFFFFFFFFFFFFFFFFFFFFFFFF AND MUL OR SWAP1 SSTORE POP CALLER PUSH1 0x2 PUSH0 PUSH2 0x100 EXP DUP2 SLOAD DUP2 PUSH20 0xFFFFFFFFFFFFFFFFFFFFFFFFFFFFFFFFFFFFFFFF MUL NOT AND SWAP1 DUP4 PUSH20 0xFFFFFFFFFFFFFFFFFFFFFFFFFFFFFFFFFFFFFFFF AND MUL OR SWAP1 SSTORE POP PUSH2 0xD1D DUP1 PUSH2 0xB0 PUSH0 CODECOPY PUSH0 RETURN INVALID PUSH1 0x80 PUSH1 0x40 MSTORE PUSH1 0x4 CALLDATASIZE LT PUSH2 0x6F JUMPI PUSH0 CALLDATALOAD PUSH1 0xE0 SHR DUP1 PUSH4 0x9F883A05 GT PUSH2 0x4D JUMPI DUP1 PUSH4 0x9F883A05 EQ PUSH2 0xC9 JUMPI DUP1 PUSH4 0xB60D4288 EQ PUSH2 0x105 JUMPI DUP1 PUSH4 0xBEA4DFB5 EQ PUSH2 0x10F JUMPI DUP1 PUSH4 0xF2FDE38B EQ PUSH2 0x139 JUMPI PUSH2 0x6F JUMP JUMPDEST DUP1 PUSH4 0x590E1AE3 EQ PUSH2 0x73 JUMPI DUP1 PUSH4 0x8DA5CB5B EQ PUSH2 0x89 JUMPI DUP1 PUSH4 0x8EDD6EB6 EQ PUSH2 0xB3 JUMPI JUMPDEST PUSH0 PUSH0 REVERT JUMPDEST CALLVALUE DUP1 ISZERO PUSH2 0x7E JUMPI PUSH0 PUSH0 REVERT JUMPDEST POP PUSH2 0x87 PUSH2 0x161 JUMP JUMPDEST STOP JUMPDEST CALLVALUE DUP1 ISZERO PUSH2 0x94 JUMPI PUSH0 PUSH0 REVERT JUMPDEST POP PUSH2 0x9D PUSH2 0x2DB JUMP JUMPDEST PUSH1 0x40 MLOAD PUSH2 0xAA SWAP2 SWAP1 PUSH2 0x724 JUMP JUMPDEST PUSH1 0x40 MLOAD DUP1 SWAP2 SUB SWAP1 RETURN JUMPDEST CALLVALUE DUP1 ISZERO PUSH2 0xBE JUMPI PUSH0 PUSH0 REVERT JUMPDEST POP PUSH2 0xC7 PUSH2 0x300 JUMP JUMPDEST STOP JUMPDEST CALLVALUE DUP1 ISZERO PUSH2 0xD4 JUMPI PUSH0 PUSH0 REVERT JUMPDEST POP PUSH2 0xEF PUSH1 0x4 DUP1 CALLDATASIZE SUB DUP2 ADD SWAP1 PUSH2 0xEA SWAP2 SWAP1 PUSH2 0x76B JUMP JUMPDEST PUSH2 0x48C JUMP JUMPDEST PUSH1 0x40 MLOAD PUSH2 0xFC SWAP2 SWAP1 PUSH2 0x7AE JUMP JUMPDEST PUSH1 0x40 MLOAD DUP1 SWAP2 SUB SWAP1 RETURN JUMPDEST PUSH2 0x10D PUSH2 0x4A0 JUMP JUMPDEST STOP JUMPDEST CALLVALUE DUP1 ISZERO PUSH2 0x11A JUMPI PUSH0 PUSH0 REVERT JUMPDEST POP PUSH2 0x123 PUSH2 0x547 JUMP JUMPDEST PUSH1 0x40 MLOAD PUSH2 0x130 SWAP2 SWAP1 PUSH2 0x7DF JUMP JUMPDEST PUSH1 0x40 MLOAD DUP1 SWAP2 SUB SWAP1 RETURN JUMPDEST CALLVALUE DUP1 ISZERO PUSH2 0x144 JUMPI PUSH0 PUSH0 REVERT JUMPDEST POP PUSH2 0x15F PUSH1 0x4 DUP1 CALLDATASIZE SUB DUP2 ADD SWAP1 PUSH2 0x15A SWAP2 SWAP1 PUSH2 0x76B JUMP JUMPDEST PUSH2 0x5E4 JUMP JUMPDEST STOP JUMPDEST PUSH5 0x2540BE400 PUSH2 0x170 SELFBALANCE PUSH2 0x6B6 JUMP JUMPDEST LT PUSH2 0x1B0 JUMPI PUSH1 0x40 MLOAD PUSH32 0x8C379A000000000000000000000000000000000000000000000000000000000 DUP2 MSTORE PUSH1 0x4 ADD PUSH2 0x1A7 SWAP1 PUSH2 0x852 JUMP JUMPDEST PUSH1 0x40 MLOAD DUP1 SWAP2 SUB SWAP1 REVERT JUMPDEST PUSH0 PUSH0 PUSH0 CALLER PUSH20 0xFFFFFFFFFFFFFFFFFFFFFFFFFFFFFFFFFFFFFFFF AND PUSH20 0xFFFFFFFFFFFFFFFFFFFFFFFFFFFFFFFFFFFFFFFF AND DUP2 MSTORE PUSH1 0x20 ADD SWAP1 DUP2 MSTORE PUSH1 0x20 ADD PUSH0 KECCAK256 SLOAD SUB PUSH2 0x22E JUMPI PUSH1 0x40 MLOAD PUSH32 0x8C379A000000000000000000000000000000000000000000000000000000000 DUP2 MSTORE PUSH1 0x4 ADD PUSH2 0x225 SWAP1 PUSH2 0x8BA JUMP JUMPDEST PUSH1 0x40 MLOAD DUP1 SWAP2 SUB SWAP1 REVERT JUMPDEST PUSH0 CALLER PUSH20 0xFFFFFFFFFFFFFFFFFFFFFFFFFFFFFFFFFFFFFFFF AND SELFBALANCE PUSH1 0x40 MLOAD PUSH2 0x253 SWAP1 PUSH2 0x905 JUMP JUMPDEST PUSH0 PUSH1 0x40 MLOAD DUP1 DUP4 SUB DUP2 DUP6 DUP8 GAS CALL SWAP3 POP POP POP RETURNDATASIZE DUP1 PUSH0 DUP2 EQ PUSH2 0x28D JUMPI PUSH1 0x40 MLOAD SWAP2 POP PUSH1 0x1F NOT PUSH1 0x3F RETURNDATASIZE ADD AND DUP3 ADD PUSH1 0x40 MSTORE RETURNDATASIZE DUP3 MSTORE RETURNDATASIZE PUSH0 PUSH1 0x20 DUP5 ADD RETURNDATACOPY PUSH2 0x292 JUMP JUMPDEST PUSH1 0x60 SWAP2 POP JUMPDEST POP POP DUP1 SWAP2 POP POP DUP1 PUSH2 0x2D8 JUMPI PUSH1 0x40 MLOAD PUSH32 0x8C379A000000000000000000000000000000000000000000000000000000000 DUP2 MSTORE PUSH1 0x4 ADD PUSH2 0x2CF SWAP1 PUSH2 0x963 JUMP JUMPDEST PUSH1 0x40 MLOAD DUP1 SWAP2 SUB SWAP1 REVERT JUMPDEST POP JUMP JUMPDEST PUSH1 0x2 PUSH0 SWAP1 SLOAD SWAP1 PUSH2 0x100 EXP SWAP1 DIV PUSH20 0xFFFFFFFFFFFFFFFFFFFFFFFFFFFFFFFFFFFFFFFF AND DUP2 JUMP JUMPDEST PUSH5 0x2540BE400 PUSH2 0x30F SELFBALANCE PUSH2 0x6B6 JUMP JUMPDEST LT ISZERO PUSH2 0x350 JUMPI PUSH1 0x40 MLOAD PUSH32 0x8C379A000000000000000000000000000000000000000000000000000000000 DUP2 MSTORE PUSH1 0x4 ADD PUSH2 0x347 SWAP1 PUSH2 0x9CB JUMP JUMPDEST PUSH1 0x40 MLOAD DUP1 SWAP2 SUB SWAP1 REVERT JUMPDEST PUSH1 0x2 PUSH0 SWAP1 SLOAD SWAP1 PUSH2 0x100 EXP SWAP1 DIV PUSH20 0xFFFFFFFFFFFFFFFFFFFFFFFFFFFFFFFFFFFFFFFF AND PUSH20 0xFFFFFFFFFFFFFFFFFFFFFFFFFFFFFFFFFFFFFFFF AND CALLER PUSH20 0xFFFFFFFFFFFFFFFFFFFFFFFFFFFFFFFFFFFFFFFF AND EQ PUSH2 0x3DF JUMPI PUSH1 0x40 MLOAD PUSH32 0x8C379A000000000000000000000000000000000000000000000000000000000 DUP2 MSTORE PUSH1 0x4 ADD PUSH2 0x3D6 SWAP1 PUSH2 0xA59 JUMP JUMPDEST PUSH1 0x40 MLOAD DUP1 SWAP2 SUB SWAP1 REVERT JUMPDEST PUSH0 CALLER PUSH20 0xFFFFFFFFFFFFFFFFFFFFFFFFFFFFFFFFFFFFFFFF AND SELFBALANCE PUSH1 0x40 MLOAD PUSH2 0x404 SWAP1 PUSH2 0x905 JUMP JUMPDEST PUSH0 PUSH1 0x40 MLOAD DUP1 DUP4 SUB DUP2 DUP6 DUP8 GAS CALL SWAP3 POP POP POP RETURNDATASIZE DUP1 PUSH0 DUP2 EQ PUSH2 0x43E JUMPI PUSH1 0x40 MLOAD SWAP2 POP PUSH1 0x1F NOT PUSH1 0x3F RETURNDATASIZE ADD AND DUP3 ADD PUSH1 0x40 MSTORE RETURNDATASIZE DUP3 MSTORE RETURNDATASIZE PUSH0 PUSH1 0x20 DUP5 ADD RETURNDATACOPY PUSH2 0x443 JUMP JUMPDEST PUSH1 0x60 SWAP2 POP JUMPDEST POP POP DUP1 SWAP2 POP POP DUP1 PUSH2 0x489 JUMPI PUSH1 0x40 MLOAD PUSH32 0x8C379A000000000000000000000000000000000000000000000000000000000 DUP2 MSTORE PUSH1 0x4 ADD PUSH2 0x480 SWAP1 PUSH2 0x963 JUMP JUMPDEST PUSH1 0x40 MLOAD DUP1 SWAP2 SUB SWAP1 REVERT JUMPDEST POP JUMP JUMPDEST PUSH0 PUSH1 0x20 MSTORE DUP1 PUSH0 MSTORE PUSH1 0x40 PUSH0 KECCAK256 PUSH0 SWAP2 POP SWAP1 POP SLOAD DUP2 JUMP JUMPDEST PUSH8 0x8AC7230489E80000 PUSH2 0x4B2 CALLVALUE PUSH2 0x6B6 JUMP JUMPDEST LT ISZERO PUSH2 0x4F3 JUMPI PUSH1 0x40 MLOAD PUSH32 0x8C379A000000000000000000000000000000000000000000000000000000000 DUP2 MSTORE PUSH1 0x4 ADD PUSH2 0x4EA SWAP1 PUSH2 0xAC1 JUMP JUMPDEST PUSH1 0x40 MLOAD DUP1 SWAP2 SUB SWAP1 REVERT JUMPDEST CALLVALUE PUSH0 PUSH0 CALLER PUSH20 0xFFFFFFFFFFFFFFFFFFFFFFFFFFFFFFFFFFFFFFFF AND PUSH20 0xFFFFFFFFFFFFFFFFFFFFFFFFFFFFFFFFFFFFFFFF AND DUP2 MSTORE PUSH1 0x20 ADD SWAP1 DUP2 MSTORE PUSH1 0x20 ADD PUSH0 KECCAK256 PUSH0 DUP3 DUP3 SLOAD PUSH2 0x53E SWAP2 SWAP1 PUSH2 0xB0C JUMP JUMPDEST SWAP3 POP POP DUP2 SWAP1 SSTORE POP JUMP JUMPDEST PUSH0 PUSH0 PUSH1 0x1 PUSH0 SWAP1 SLOAD SWAP1 PUSH2 0x100 EXP SWAP1 DIV PUSH20 0xFFFFFFFFFFFFFFFFFFFFFFFFFFFFFFFFFFFFFFFF AND PUSH20 0xFFFFFFFFFFFFFFFFFFFFFFFFFFFFFFFFFFFFFFFF AND PUSH4 0xFEAF968C PUSH1 0x40 MLOAD DUP2 PUSH4 0xFFFFFFFF AND PUSH1 0xE0 SHL DUP2 MSTORE PUSH1 0x4 ADD PUSH1 0xA0 PUSH1 0x40 MLOAD DUP1 DUP4 SUB DUP2 DUP7 GAS STATICCALL ISZERO DUP1 ISZERO PUSH2 0x5B3 JUMPI RETURNDATASIZE PUSH0 PUSH0 RETURNDATACOPY RETURNDATASIZE PUSH0 REVERT JUMPDEST POP POP POP POP PUSH1 0x40 MLOAD RETURNDATASIZE PUSH1 0x1F NOT PUSH1 0x1F DUP3 ADD AND DUP3 ADD DUP1 PUSH1 0x40 MSTORE POP DUP2 ADD SWAP1 PUSH2 0x5D7 SWAP2 SWAP1 PUSH2 0xBD2 JUMP JUMPDEST POP POP POP SWAP2 POP POP DUP1 SWAP2 POP POP SWAP1 JUMP JUMPDEST PUSH1 0x2 PUSH0 SWAP1 SLOAD SWAP1 PUSH2 0x100 EXP SWAP1 DIV PUSH20 0xFFFFFFFFFFFFFFFFFFFFFFFFFFFFFFFFFFFFFFFF AND PUSH20 0xFFFFFFFFFFFFFFFFFFFFFFFFFFFFFFFFFFFFFFFF AND CALLER PUSH20 0xFFFFFFFFFFFFFFFFFFFFFFFFFFFFFFFFFFFFFFFF AND EQ PUSH2 0x673 JUMPI PUSH1 0x40 MLOAD PUSH32 0x8C379A000000000000000000000000000000000000000000000000000000000 DUP2 MSTORE PUSH1 0x4 ADD PUSH2 0x66A SWAP1 PUSH2 0xA59 JUMP JUMPDEST PUSH1 0x40 MLOAD DUP1 SWAP2 SUB SWAP1 REVERT JUMPDEST DUP1 PUSH1 0x2 PUSH0 PUSH2 0x100 EXP DUP2 SLOAD DUP2 PUSH20 0xFFFFFFFFFFFFFFFFFFFFFFFFFFFFFFFFFFFFFFFF MUL NOT AND SWAP1 DUP4 PUSH20 0xFFFFFFFFFFFFFFFFFFFFFFFFFFFFFFFFFFFFFFFF AND MUL OR SWAP1 SSTORE POP POP JUMP JUMPDEST PUSH0 PUSH0 PUSH2 0x6C0 PUSH2 0x547 JUMP JUMPDEST SWAP1 POP PUSH4 0x5F5E100 DUP2 DUP5 PUSH2 0x6D3 SWAP2 SWAP1 PUSH2 0xC49 JUMP JUMPDEST PUSH2 0x6DD SWAP2 SWAP1 PUSH2 0xCB7 JUMP JUMPDEST SWAP2 POP POP SWAP2 SWAP1 POP JUMP JUMPDEST PUSH0 PUSH20 0xFFFFFFFFFFFFFFFFFFFFFFFFFFFFFFFFFFFFFFFF DUP3 AND SWAP1 POP SWAP2 SWAP1 POP JUMP JUMPDEST PUSH0 PUSH2 0x70E DUP3 PUSH2 0x6E5 JUMP JUMPDEST SWAP1 POP SWAP2 SWAP1 POP JUMP JUMPDEST PUSH2 0x71E DUP2 PUSH2 0x704 JUMP JUMPDEST DUP3 MSTORE POP POP JUMP JUMPDEST PUSH0 PUSH1 0x20 DUP3 ADD SWAP1 POP PUSH2 0x737 PUSH0 DUP4 ADD DUP5 PUSH2 0x715 JUMP JUMPDEST SWAP3 SWAP2 POP POP JUMP JUMPDEST PUSH0 PUSH0 REVERT JUMPDEST PUSH2 0x74A DUP2 PUSH2 0x704 JUMP JUMPDEST DUP2 EQ PUSH2 0x754 JUMPI PUSH0 PUSH0 REVERT JUMPDEST POP JUMP JUMPDEST PUSH0 DUP2 CALLDATALOAD SWAP1 POP PUSH2 0x765 DUP2 PUSH2 0x741 JUMP JUMPDEST SWAP3 SWAP2 POP POP JUMP JUMPDEST PUSH0 PUSH1 0x20 DUP3 DUP5 SUB SLT ISZERO PUSH2 0x780 JUMPI PUSH2 0x77F PUSH2 0x73D JUMP JUMPDEST JUMPDEST PUSH0 PUSH2 0x78D DUP5 DUP3 DUP6 ADD PUSH2 0x757 JUMP JUMPDEST SWAP2 POP POP SWAP3 SWAP2 POP POP JUMP JUMPDEST PUSH0 DUP2 SWAP1 POP SWAP2 SWAP1 POP JUMP JUMPDEST PUSH2 0x7A8 DUP2 PUSH2 0x796 JUMP JUMPDEST DUP3 MSTORE POP POP JUMP JUMPDEST PUSH0 PUSH1 0x20 DUP3 ADD SWAP1 POP PUSH2 0x7C1 PUSH0 DUP4 ADD DUP5 PUSH2 0x79F JUMP JUMPDEST SWAP3 SWAP2 POP POP JUMP JUMPDEST PUSH0 DUP2 SWAP1 POP SWAP2 SWAP1 POP JUMP JUMPDEST PUSH2 0x7D9 DUP2 PUSH2 0x7C7 JUMP JUMPDEST DUP3 MSTORE POP POP JUMP JUMPDEST PUSH0 PUSH1 0x20 DUP3 ADD SWAP1 POP PUSH2 0x7F2 PUSH0 DUP4 ADD DUP5 PUSH2 0x7D0 JUMP JUMPDEST SWAP3 SWAP2 POP POP JUMP JUMPDEST PUSH0 DUP3 DUP3 MSTORE PUSH1 0x20 DUP3 ADD SWAP1 POP SWAP3 SWAP2 POP POP JUMP JUMPDEST PUSH32 0x5461726765742069732072656163686564000000000000000000000000000000 PUSH0 DUP3 ADD MSTORE POP JUMP JUMPDEST PUSH0 PUSH2 0x83C PUSH1 0x11 DUP4 PUSH2 0x7F8 JUMP JUMPDEST SWAP2 POP PUSH2 0x847 DUP3 PUSH2 0x808 JUMP JUMPDEST PUSH1 0x20 DUP3 ADD SWAP1 POP SWAP2 SWAP1 POP JUMP JUMPDEST PUSH0 PUSH1 0x20 DUP3 ADD SWAP1 POP DUP2 DUP2 SUB PUSH0 DUP4 ADD MSTORE PUSH2 0x869 DUP2 PUSH2 0x830 JUMP JUMPDEST SWAP1 POP SWAP2 SWAP1 POP JUMP JUMPDEST PUSH32 0x596F752068617665206E6F742066756E642E0000000000000000000000000000 PUSH0 DUP3 ADD MSTORE POP JUMP JUMPDEST PUSH0 PUSH2 0x8A4 PUSH1 0x12 DUP4 PUSH2 0x7F8 JUMP JUMPDEST SWAP2 POP PUSH2 0x8AF DUP3 PUSH2 0x870 JUMP JUMPDEST PUSH1 0x20 DUP3 ADD SWAP1 POP SWAP2 SWAP1 POP JUMP JUMPDEST PUSH0 PUSH1 0x20 DUP3 ADD SWAP1 POP DUP2 DUP2 SUB PUSH0 DUP4 ADD MSTORE PUSH2 0x8D1 DUP2 PUSH2 0x898 JUMP JUMPDEST SWAP1 POP SWAP2 SWAP1 POP JUMP JUMPDEST PUSH0 DUP2 SWAP1 POP SWAP3 SWAP2 POP POP JUMP JUMPDEST POP JUMP JUMPDEST PUSH0 PUSH2 0x8F0 PUSH0 DUP4 PUSH2 0x8D8 JUMP JUMPDEST SWAP2 POP PUSH2 0x8FB DUP3 PUSH2 0x8E2 JUMP JUMPDEST PUSH0 DUP3 ADD SWAP1 POP SWAP2 SWAP1 POP JUMP JUMPDEST PUSH0 PUSH2 0x90F DUP3 PUSH2 0x8E5 JUMP JUMPDEST SWAP2 POP DUP2 SWAP1 POP SWAP2 SWAP1 POP JUMP JUMPDEST PUSH32 0x7472616E73666572207478206661696C65640000000000000000000000000000 PUSH0 DUP3 ADD MSTORE POP JUMP JUMPDEST PUSH0 PUSH2 0x94D PUSH1 0x12 DUP4 PUSH2 0x7F8 JUMP JUMPDEST SWAP2 POP PUSH2 0x958 DUP3 PUSH2 0x919 JUMP JUMPDEST PUSH1 0x20 DUP3 ADD SWAP1 POP SWAP2 SWAP1 POP JUMP JUMPDEST PUSH0 PUSH1 0x20 DUP3 ADD SWAP1 POP DUP2 DUP2 SUB PUSH0 DUP4 ADD MSTORE PUSH2 0x97A DUP2 PUSH2 0x941 JUMP JUMPDEST SWAP1 POP SWAP2 SWAP1 POP JUMP JUMPDEST PUSH32 0x546172676574206973206E6F7420726561636865640000000000000000000000 PUSH0 DUP3 ADD MSTORE POP JUMP JUMPDEST PUSH0 PUSH2 0x9B5 PUSH1 0x15 DUP4 PUSH2 0x7F8 JUMP JUMPDEST SWAP2 POP PUSH2 0x9C0 DUP3 PUSH2 0x981 JUMP JUMPDEST PUSH1 0x20 DUP3 ADD SWAP1 POP SWAP2 SWAP1 POP JUMP JUMPDEST PUSH0 PUSH1 0x20 DUP3 ADD SWAP1 POP DUP2 DUP2 SUB PUSH0 DUP4 ADD MSTORE PUSH2 0x9E2 DUP2 PUSH2 0x9A9 JUMP JUMPDEST SWAP1 POP SWAP2 SWAP1 POP JUMP JUMPDEST PUSH32 0x746869732066756E6374696F6E2063616E206F6E6C792062652063616C6C6564 PUSH0 DUP3 ADD MSTORE PUSH32 0x206279206F776E65720000000000000000000000000000000000000000000000 PUSH1 0x20 DUP3 ADD MSTORE POP JUMP JUMPDEST PUSH0 PUSH2 0xA43 PUSH1 0x29 DUP4 PUSH2 0x7F8 JUMP JUMPDEST SWAP2 POP PUSH2 0xA4E DUP3 PUSH2 0x9E9 JUMP JUMPDEST PUSH1 0x40 DUP3 ADD SWAP1 POP SWAP2 SWAP1 POP JUMP JUMPDEST PUSH0 PUSH1 0x20 DUP3 ADD SWAP1 POP DUP2 DUP2 SUB PUSH0 DUP4 ADD MSTORE PUSH2 0xA70 DUP2 PUSH2 0xA37 JUMP JUMPDEST SWAP1 POP SWAP2 SWAP1 POP JUMP JUMPDEST PUSH32 0x53656E64206D6F72652045544800000000000000000000000000000000000000 PUSH0 DUP3 ADD MSTORE POP JUMP JUMPDEST PUSH0 PUSH2 0xAAB PUSH1 0xD DUP4 PUSH2 0x7F8 JUMP JUMPDEST SWAP2 POP PUSH2 0xAB6 DUP3 PUSH2 0xA77 JUMP JUMPDEST PUSH1 0x20 DUP3 ADD SWAP1 POP SWAP2 SWAP1 POP JUMP JUMPDEST PUSH0 PUSH1 0x20 DUP3 ADD SWAP1 POP DUP2 DUP2 SUB PUSH0 DUP4 ADD MSTORE PUSH2 0xAD8 DUP2 PUSH2 0xA9F JUMP JUMPDEST SWAP1 POP SWAP2 SWAP1 POP JUMP JUMPDEST PUSH32 0x4E487B7100000000000000000000000000000000000000000000000000000000 PUSH0 MSTORE PUSH1 0x11 PUSH1 0x4 MSTORE PUSH1 0x24 PUSH0 REVERT JUMPDEST PUSH0 PUSH2 0xB16 DUP3 PUSH2 0x796 JUMP JUMPDEST SWAP2 POP PUSH2 0xB21 DUP4 PUSH2 0x796 JUMP JUMPDEST SWAP3 POP DUP3 DUP3 ADD SWAP1 POP DUP1 DUP3 GT ISZERO PUSH2 0xB39 JUMPI PUSH2 0xB38 PUSH2 0xADF JUMP JUMPDEST JUMPDEST SWAP3 SWAP2 POP POP JUMP JUMPDEST PUSH0 PUSH10 0xFFFFFFFFFFFFFFFFFFFF DUP3 AND SWAP1 POP SWAP2 SWAP1 POP JUMP JUMPDEST PUSH2 0xB5D DUP2 PUSH2 0xB3F JUMP JUMPDEST DUP2 EQ PUSH2 0xB67 JUMPI PUSH0 PUSH0 REVERT JUMPDEST POP JUMP JUMPDEST PUSH0 DUP2 MLOAD SWAP1 POP PUSH2 0xB78 DUP2 PUSH2 0xB54 JUMP JUMPDEST SWAP3 SWAP2 POP POP JUMP JUMPDEST PUSH2 0xB87 DUP2 PUSH2 0x7C7 JUMP JUMPDEST DUP2 EQ PUSH2 0xB91 JUMPI PUSH0 PUSH0 REVERT JUMPDEST POP JUMP JUMPDEST PUSH0 DUP2 MLOAD SWAP1 POP PUSH2 0xBA2 DUP2 PUSH2 0xB7E JUMP JUMPDEST SWAP3 SWAP2 POP POP JUMP JUMPDEST PUSH2 0xBB1 DUP2 PUSH2 0x796 JUMP JUMPDEST DUP2 EQ PUSH2 0xBBB JUMPI PUSH0 PUSH0 REVERT JUMPDEST POP JUMP JUMPDEST PUSH0 DUP2 MLOAD SWAP1 POP PUSH2 0xBCC DUP2 PUSH2 0xBA8 JUMP JUMPDEST SWAP3 SWAP2 POP POP JUMP JUMPDEST PUSH0 PUSH0 PUSH0 PUSH0 PUSH0 PUSH1 0xA0 DUP7 DUP9 SUB SLT ISZERO PUSH2 0xBEB JUMPI PUSH2 0xBEA PUSH2 0x73D JUMP JUMPDEST JUMPDEST PUSH0 PUSH2 0xBF8 DUP9 DUP3 DUP10 ADD PUSH2 0xB6A JUMP JUMPDEST SWAP6 POP POP PUSH1 0x20 PUSH2 0xC09 DUP9 DUP3 DUP10 ADD PUSH2 0xB94 JUMP JUMPDEST SWAP5 POP POP PUSH1 0x40 PUSH2 0xC1A DUP9 DUP3 DUP10 ADD PUSH2 0xBBE JUMP JUMPDEST SWAP4 POP POP PUSH1 0x60 PUSH2 0xC2B DUP9 DUP3 DUP10 ADD PUSH2 0xBBE JUMP JUMPDEST SWAP3 POP POP PUSH1 0x80 PUSH2 0xC3C DUP9 DUP3 DUP10 ADD PUSH2 0xB6A JUMP JUMPDEST SWAP2 POP POP SWAP3 SWAP6 POP SWAP3 SWAP6 SWAP1 SWAP4 POP JUMP JUMPDEST PUSH0 PUSH2 0xC53 DUP3 PUSH2 0x796 JUMP JUMPDEST SWAP2 POP PUSH2 0xC5E DUP4 PUSH2 0x796 JUMP JUMPDEST SWAP3 POP DUP3 DUP3 MUL PUSH2 0xC6C DUP2 PUSH2 0x796 JUMP JUMPDEST SWAP2 POP DUP3 DUP3 DIV DUP5 EQ DUP4 ISZERO OR PUSH2 0xC83 JUMPI PUSH2 0xC82 PUSH2 0xADF JUMP JUMPDEST JUMPDEST POP SWAP3 SWAP2 POP POP JUMP JUMPDEST PUSH32 0x4E487B7100000000000000000000000000000000000000000000000000000000 PUSH0 MSTORE PUSH1 0x12 PUSH1 0x4 MSTORE PUSH1 0x24 PUSH0 REVERT JUMPDEST PUSH0 PUSH2 0xCC1 DUP3 PUSH2 0x796 JUMP JUMPDEST SWAP2 POP PUSH2 0xCCC DUP4 PUSH2 0x796 JUMP JUMPDEST SWAP3 POP DUP3 PUSH2 0xCDC JUMPI PUSH2 0xCDB PUSH2 0xC8A JUMP JUMPDEST JUMPDEST DUP3 DUP3 DIV SWAP1 POP SWAP3 SWAP2 POP POP JUMP INVALID LOG2 PUSH5 0x6970667358 0x22 SLT KECCAK256 ADD 0x4C DUP15 0xA7 CALLDATASIZE SELFBALANCE REVERT 0x25 ADDRESS PUSH17 0x89426F31D225469391B2EF736D170F64BE SAR CHAINID CREATE SSTORE 0xF7 PUSH5 0x736F6C6343 STOP ADDMOD 0x1E STOP CALLER "
				},
				"gasEstimates": {
					"creation": {
						"codeDepositCost": "671400",
						"executionCost": "49231",
						"totalCost": "720631"
					},
					"external": {
						"fund()": "infinite",
						"fundersToAmount(address)": "2801",
						"getChainlinkDataFeedLatestAnswer()": "infinite",
						"getFund()": "infinite",
						"owner()": "2531",
						"refund()": "infinite",
						"transferOwnership(address)": "26950"
					},
					"internal": {
						"convertEthToUsd(uint256)": "infinite"
					}
				},
				"methodIdentifiers": {
					"fund()": "b60d4288",
					"fundersToAmount(address)": "9f883a05",
					"getChainlinkDataFeedLatestAnswer()": "bea4dfb5",
					"getFund()": "8edd6eb6",
					"owner()": "8da5cb5b",
					"refund()": "590e1ae3",
					"transferOwnership(address)": "f2fde38b"
				}
			},
			"storageLayout": {
				"storage": [
					{
						"astId": 53,
						"contract": "FoundMe.sol:FundMe",
						"label": "fundersToAmount",
						"offset": 0,
						"slot": "0",
						"type": "t_mapping(t_address,t_uint256)"
					},
					{
						"astId": 63,
						"contract": "FoundMe.sol:FundMe",
						"label": "dataFeed",
						"offset": 0,
						"slot": "1",
						"type": "t_contract(AggregatorV3Interface)45"
					},
					{
						"astId": 72,
						"contract": "FoundMe.sol:FundMe",
						"label": "owner",
						"offset": 0,
						"slot": "2",
						"type": "t_address"
					}
				],
				"types": {
					"t_address": {
						"encoding": "inplace",
						"label": "address",
						"numberOfBytes": "20"
					},
					"t_contract(AggregatorV3Interface)45": {
						"encoding": "inplace",
						"label": "contract AggregatorV3Interface",
						"numberOfBytes": "20"
					},
					"t_mapping(t_address,t_uint256)": {
						"encoding": "mapping",
						"key": "t_address",
						"label": "mapping(address => uint256)",
						"numberOfBytes": "32",
						"value": "t_uint256"
					},
					"t_uint256": {
						"encoding": "inplace",
						"label": "uint256",
						"numberOfBytes": "32"
					}
				}
			},
			"userdoc": {
				"kind": "user",
				"methods": {},
				"version": 1
			}
		}
	}
}