{
	"FundMe.sol": {
		"FundMe": {
			"abi": [
				{
					"inputs": [
						{
							"internalType": "uint256",
							"name": "_lockTime",
							"type": "uint256"
						}
					],
					"stateMutability": "nonpayable",
					"type": "constructor"
				},
				{
					"inputs": [],
					"name": "fund",
					"outputs": [],
					"stateMutability": "payable",
					"type": "function"
				},
				{
					"inputs": [
						{
							"internalType": "address",
							"name": "",
							"type": "address"
						}
					],
					"name": "fundersToAmount",
					"outputs": [
						{
							"internalType": "uint256",
							"name": "",
							"type": "uint256"
						}
					],
					"stateMutability": "view",
					"type": "function"
				},
				{
					"inputs": [],
					"name": "getChainlinkDataFeedLatestAnswer",
					"outputs": [
						{
							"internalType": "int256",
							"name": "",
							"type": "int256"
						}
					],
					"stateMutability": "view",
					"type": "function"
				},
				{
					"inputs": [],
					"name": "getFund",
					"outputs": [],
					"stateMutability": "nonpayable",
					"type": "function"
				},
				{
					"inputs": [],
					"name": "getFundSuccess",
					"outputs": [
						{
							"internalType": "bool",
							"name": "",
							"type": "bool"
						}
					],
					"stateMutability": "view",
					"type": "function"
				},
				{
					"inputs": [],
					"name": "owner",
					"outputs": [
						{
							"internalType": "address",
							"name": "",
							"type": "address"
						}
					],
					"stateMutability": "view",
					"type": "function"
				},
				{
					"inputs": [],
					"name": "refund",
					"outputs": [],
					"stateMutability": "nonpayable",
					"type": "function"
				},
				{
					"inputs": [
						{
							"internalType": "address",
							"name": "_erc20Addr",
							"type": "address"
						}
					],
					"name": "setErc20Addr",
					"outputs": [],
					"stateMutability": "nonpayable",
					"type": "function"
				},
				{
					"inputs": [
						{
							"internalType": "address",
							"name": "funder",
							"type": "address"
						},
						{
							"internalType": "uint256",
							"name": "amountToUpdate",
							"type": "uint256"
						}
					],
					"name": "setFundersToAmount",
					"outputs": [],
					"stateMutability": "nonpayable",
					"type": "function"
				},
				{
					"inputs": [
						{
							"internalType": "address",
							"name": "newOwner",
							"type": "address"
						}
					],
					"name": "transferOwnership",
					"outputs": [],
					"stateMutability": "nonpayable",
					"type": "function"
				}
			],
			"devdoc": {
				"kind": "dev",
				"methods": {},
				"version": 1
			},
			"evm": {
				"assembly": "    /* \"FundMe.sol\":388:3836  contract FundMe{... */\n  mstore(0x40, 0x80)\n    /* \"FundMe.sol\":773:778  false */\n  0x00\n    /* \"FundMe.sol\":744:778  bool public getFundSuccess = false */\n  0x05\n  exp(0x0100, 0x14)\n  dup2\n  sload\n  dup2\n  0xff\n  mul\n  not\n  and\n  swap1\n  dup4\n  iszero\n  iszero\n  mul\n  or\n  swap1\n  sstore\n  pop\n    /* \"FundMe.sol\":787:1058  constructor(uint256 _lockTime){... */\n  callvalue\n  dup1\n  iszero\n  tag_1\n  jumpi\n  revert(0x00, 0x00)\ntag_1:\n  pop\n  mload(0x40)\n  sub(codesize, bytecodeSize)\n  dup1\n  bytecodeSize\n  dup4\n  codecopy\n  dup2\n  dup2\n  add\n  0x40\n  mstore\n  dup2\n  add\n  swap1\n  tag_2\n  swap2\n  swap1\n  tag_3\n  jump\t// in\ntag_2:\n    /* \"FundMe.sol\":889:931  0x694AA1769357215DE4FAC081bf1f309aDC325306 */\n  0x694aa1769357215de4fac081bf1f309adc325306\n    /* \"FundMe.sol\":856:864  dataFeed */\n  0x01\n  0x00\n    /* \"FundMe.sol\":856:932  dataFeed = AggregatorV3Interface(0x694AA1769357215DE4FAC081bf1f309aDC325306) */\n  0x0100\n  exp\n  dup2\n  sload\n  dup2\n  0xffffffffffffffffffffffffffffffffffffffff\n  mul\n  not\n  and\n  swap1\n  dup4\n  0xffffffffffffffffffffffffffffffffffffffff\n  and\n  mul\n  or\n  swap1\n  sstore\n  pop\n    /* \"FundMe.sol\":951:961  msg.sender */\n  caller\n    /* \"FundMe.sol\":943:948  owner */\n  0x02\n  0x00\n    /* \"FundMe.sol\":943:961  owner = msg.sender */\n  0x0100\n  exp\n  dup2\n  sload\n  dup2\n  0xffffffffffffffffffffffffffffffffffffffff\n  mul\n  not\n  and\n  swap1\n  dup4\n  0xffffffffffffffffffffffffffffffffffffffff\n  and\n  mul\n  or\n  swap1\n  sstore\n  pop\n    /* \"FundMe.sol\":994:1009  block.timestamp */\n  timestamp\n    /* \"FundMe.sol\":972:991  deploymentTimestamp */\n  0x03\n    /* \"FundMe.sol\":972:1009  deploymentTimestamp = block.timestamp */\n  dup2\n  swap1\n  sstore\n  pop\n    /* \"FundMe.sol\":1031:1040  _lockTime */\n  dup1\n    /* \"FundMe.sol\":1020:1028  lockTime */\n  0x04\n    /* \"FundMe.sol\":1020:1040  lockTime = _lockTime */\n  dup2\n  swap1\n  sstore\n  pop\n    /* \"FundMe.sol\":787:1058  constructor(uint256 _lockTime){... */\n  pop\n    /* \"FundMe.sol\":388:3836  contract FundMe{... */\n  jump(tag_6)\n    /* \"#utility.yul\":88:205   */\ntag_8:\n    /* \"#utility.yul\":197:198   */\n  0x00\n    /* \"#utility.yul\":194:195   */\n  0x00\n    /* \"#utility.yul\":187:199   */\n  revert\n    /* \"#utility.yul\":334:411   */\ntag_10:\n    /* \"#utility.yul\":371:378   */\n  0x00\n    /* \"#utility.yul\":400:405   */\n  dup2\n    /* \"#utility.yul\":389:405   */\n  swap1\n  pop\n    /* \"#utility.yul\":334:411   */\n  swap2\n  swap1\n  pop\n  jump\t// out\n    /* \"#utility.yul\":417:539   */\ntag_11:\n    /* \"#utility.yul\":490:514   */\n  tag_19\n    /* \"#utility.yul\":508:513   */\n  dup2\n    /* \"#utility.yul\":490:514   */\n  tag_10\n  jump\t// in\ntag_19:\n    /* \"#utility.yul\":483:488   */\n  dup2\n    /* \"#utility.yul\":480:515   */\n  eq\n    /* \"#utility.yul\":470:533   */\n  tag_20\n  jumpi\n    /* \"#utility.yul\":529:530   */\n  0x00\n    /* \"#utility.yul\":526:527   */\n  0x00\n    /* \"#utility.yul\":519:531   */\n  revert\n    /* \"#utility.yul\":470:533   */\ntag_20:\n    /* \"#utility.yul\":417:539   */\n  pop\n  jump\t// out\n    /* \"#utility.yul\":545:688   */\ntag_12:\n    /* \"#utility.yul\":602:607   */\n  0x00\n    /* \"#utility.yul\":633:639   */\n  dup2\n    /* \"#utility.yul\":627:640   */\n  mload\n    /* \"#utility.yul\":618:640   */\n  swap1\n  pop\n    /* \"#utility.yul\":649:682   */\n  tag_22\n    /* \"#utility.yul\":676:681   */\n  dup2\n    /* \"#utility.yul\":649:682   */\n  tag_11\n  jump\t// in\ntag_22:\n    /* \"#utility.yul\":545:688   */\n  swap3\n  swap2\n  pop\n  pop\n  jump\t// out\n    /* \"#utility.yul\":694:1045   */\ntag_3:\n    /* \"#utility.yul\":764:770   */\n  0x00\n    /* \"#utility.yul\":813:815   */\n  0x20\n    /* \"#utility.yul\":801:810   */\n  dup3\n    /* \"#utility.yul\":792:799   */\n  dup5\n    /* \"#utility.yul\":788:811   */\n  sub\n    /* \"#utility.yul\":784:816   */\n  slt\n    /* \"#utility.yul\":781:900   */\n  iszero\n  tag_24\n  jumpi\n    /* \"#utility.yul\":819:898   */\n  tag_25\n  tag_8\n  jump\t// in\ntag_25:\n    /* \"#utility.yul\":781:900   */\ntag_24:\n    /* \"#utility.yul\":939:940   */\n  0x00\n    /* \"#utility.yul\":964:1028   */\n  tag_26\n    /* \"#utility.yul\":1020:1027   */\n  dup5\n    /* \"#utility.yul\":1011:1017   */\n  dup3\n    /* \"#utility.yul\":1000:1009   */\n  dup6\n    /* \"#utility.yul\":996:1018   */\n  add\n    /* \"#utility.yul\":964:1028   */\n  tag_12\n  jump\t// in\ntag_26:\n    /* \"#utility.yul\":954:1028   */\n  swap2\n  pop\n    /* \"#utility.yul\":910:1038   */\n  pop\n    /* \"#utility.yul\":694:1045   */\n  swap3\n  swap2\n  pop\n  pop\n  jump\t// out\n    /* \"FundMe.sol\":388:3836  contract FundMe{... */\ntag_6:\n  dataSize(sub_0)\n  dup1\n  dataOffset(sub_0)\n  0x00\n  codecopy\n  0x00\n  return\nstop\n\nsub_0: assembly {\n        /* \"FundMe.sol\":388:3836  contract FundMe{... */\n      mstore(0x40, 0x80)\n      jumpi(tag_1, lt(calldatasize, 0x04))\n      shr(0xe0, calldataload(0x00))\n      dup1\n      0xb23c30f6\n      gt\n      tag_12\n      jumpi\n      dup1\n      0xb23c30f6\n      eq\n      tag_7\n      jumpi\n      dup1\n      0xb60d4288\n      eq\n      tag_8\n      jumpi\n      dup1\n      0xbea4dfb5\n      eq\n      tag_9\n      jumpi\n      dup1\n      0xda4658e0\n      eq\n      tag_10\n      jumpi\n      dup1\n      0xf2fde38b\n      eq\n      tag_11\n      jumpi\n      jump(tag_1)\n    tag_12:\n      dup1\n      0x13ffff01\n      eq\n      tag_2\n      jumpi\n      dup1\n      0x590e1ae3\n      eq\n      tag_3\n      jumpi\n      dup1\n      0x8da5cb5b\n      eq\n      tag_4\n      jumpi\n      dup1\n      0x8edd6eb6\n      eq\n      tag_5\n      jumpi\n      dup1\n      0x9f883a05\n      eq\n      tag_6\n      jumpi\n    tag_1:\n      revert(0x00, 0x00)\n        /* \"FundMe.sol\":3456:3555  function setErc20Addr(address _erc20Addr) public onlyOwner{... */\n    tag_2:\n      callvalue\n      dup1\n      iszero\n      tag_13\n      jumpi\n      revert(0x00, 0x00)\n    tag_13:\n      pop\n      tag_14\n      0x04\n      dup1\n      calldatasize\n      sub\n      dup2\n      add\n      swap1\n      tag_15\n      swap2\n      swap1\n      tag_16\n      jump\t// in\n    tag_15:\n      tag_17\n      jump\t// in\n    tag_14:\n      stop\n        /* \"FundMe.sol\":2793:3208  function refund() external timer{... */\n    tag_3:\n      callvalue\n      dup1\n      iszero\n      tag_18\n      jumpi\n      revert(0x00, 0x00)\n    tag_18:\n      pop\n      tag_19\n      tag_20\n      jump\t// in\n    tag_19:\n      stop\n        /* \"FundMe.sol\":630:650  address public owner */\n    tag_4:\n      callvalue\n      dup1\n      iszero\n      tag_21\n      jumpi\n      revert(0x00, 0x00)\n    tag_21:\n      pop\n      tag_22\n      tag_23\n      jump\t// in\n    tag_22:\n      mload(0x40)\n      tag_24\n      swap2\n      swap1\n      tag_25\n      jump\t// in\n    tag_24:\n      mload(0x40)\n      dup1\n      swap2\n      sub\n      swap1\n      return\n        /* \"FundMe.sol\":2009:2785  function getFund() external onlyOwner timer{... */\n    tag_5:\n      callvalue\n      dup1\n      iszero\n      tag_26\n      jumpi\n      revert(0x00, 0x00)\n    tag_26:\n      pop\n      tag_27\n      tag_28\n      jump\t// in\n    tag_27:\n      stop\n        /* \"FundMe.sol\":410:461  mapping (address => uint256) public fundersToAmount */\n    tag_6:\n      callvalue\n      dup1\n      iszero\n      tag_29\n      jumpi\n      revert(0x00, 0x00)\n    tag_29:\n      pop\n      tag_30\n      0x04\n      dup1\n      calldatasize\n      sub\n      dup2\n      add\n      swap1\n      tag_31\n      swap2\n      swap1\n      tag_16\n      jump\t// in\n    tag_31:\n      tag_32\n      jump\t// in\n    tag_30:\n      mload(0x40)\n      tag_33\n      swap2\n      swap1\n      tag_34\n      jump\t// in\n    tag_33:\n      mload(0x40)\n      dup1\n      swap2\n      sub\n      swap1\n      return\n        /* \"FundMe.sol\":3216:3448  function setFundersToAmount(address funder, uint256 amountToUpdate) external {... */\n    tag_7:\n      callvalue\n      dup1\n      iszero\n      tag_35\n      jumpi\n      revert(0x00, 0x00)\n    tag_35:\n      pop\n      tag_36\n      0x04\n      dup1\n      calldatasize\n      sub\n      dup2\n      add\n      swap1\n      tag_37\n      swap2\n      swap1\n      tag_38\n      jump\t// in\n    tag_37:\n      tag_39\n      jump\t// in\n    tag_36:\n      stop\n        /* \"FundMe.sol\":1068:1319  function fund() external payable {... */\n    tag_8:\n      tag_40\n      tag_41\n      jump\t// in\n    tag_40:\n      stop\n        /* \"FundMe.sol\":1327:1684  function getChainlinkDataFeedLatestAnswer() public view returns (int) {... */\n    tag_9:\n      callvalue\n      dup1\n      iszero\n      tag_42\n      jumpi\n      revert(0x00, 0x00)\n    tag_42:\n      pop\n      tag_43\n      tag_44\n      jump\t// in\n    tag_43:\n      mload(0x40)\n      tag_45\n      swap2\n      swap1\n      tag_46\n      jump\t// in\n    tag_45:\n      mload(0x40)\n      dup1\n      swap2\n      sub\n      swap1\n      return\n        /* \"FundMe.sol\":744:778  bool public getFundSuccess = false */\n    tag_10:\n      callvalue\n      dup1\n      iszero\n      tag_47\n      jumpi\n      revert(0x00, 0x00)\n    tag_47:\n      pop\n      tag_48\n      tag_49\n      jump\t// in\n    tag_48:\n      mload(0x40)\n      tag_50\n      swap2\n      swap1\n      tag_51\n      jump\t// in\n    tag_50:\n      mload(0x40)\n      dup1\n      swap2\n      sub\n      swap1\n      return\n        /* \"FundMe.sol\":1905:2001  function transferOwnership(address newOwner) public onlyOwner{... */\n    tag_11:\n      callvalue\n      dup1\n      iszero\n      tag_52\n      jumpi\n      revert(0x00, 0x00)\n    tag_52:\n      pop\n      tag_53\n      0x04\n      dup1\n      calldatasize\n      sub\n      dup2\n      add\n      swap1\n      tag_54\n      swap2\n      swap1\n      tag_16\n      jump\t// in\n    tag_54:\n      tag_55\n      jump\t// in\n    tag_53:\n      stop\n        /* \"FundMe.sol\":3456:3555  function setErc20Addr(address _erc20Addr) public onlyOwner{... */\n    tag_17:\n        /* \"FundMe.sol\":3617:3622  owner */\n      0x02\n      0x00\n      swap1\n      sload\n      swap1\n      0x0100\n      exp\n      swap1\n      div\n      0xffffffffffffffffffffffffffffffffffffffff\n      and\n        /* \"FundMe.sol\":3603:3622  msg.sender == owner */\n      0xffffffffffffffffffffffffffffffffffffffff\n      and\n        /* \"FundMe.sol\":3603:3613  msg.sender */\n      caller\n        /* \"FundMe.sol\":3603:3622  msg.sender == owner */\n      0xffffffffffffffffffffffffffffffffffffffff\n      and\n      eq\n        /* \"FundMe.sol\":3595:3668  require(msg.sender == owner, \"this function can only be called by owner\") */\n      tag_57\n      jumpi\n      mload(0x40)\n      0x08c379a000000000000000000000000000000000000000000000000000000000\n      dup2\n      mstore\n      0x04\n      add\n      tag_58\n      swap1\n      tag_59\n      jump\t// in\n    tag_58:\n      mload(0x40)\n      dup1\n      swap2\n      sub\n      swap1\n      revert\n    tag_57:\n        /* \"FundMe.sol\":3537:3547  _erc20Addr */\n      dup1\n        /* \"FundMe.sol\":3525:3534  erc20Addr */\n      0x05\n      0x00\n        /* \"FundMe.sol\":3525:3547  erc20Addr = _erc20Addr */\n      0x0100\n      exp\n      dup2\n      sload\n      dup2\n      0xffffffffffffffffffffffffffffffffffffffff\n      mul\n      not\n      and\n      swap1\n      dup4\n      0xffffffffffffffffffffffffffffffffffffffff\n      and\n      mul\n      or\n      swap1\n      sstore\n      pop\n        /* \"FundMe.sol\":3456:3555  function setErc20Addr(address _erc20Addr) public onlyOwner{... */\n      pop\n      jump\t// out\n        /* \"FundMe.sol\":2793:3208  function refund() external timer{... */\n    tag_20:\n        /* \"FundMe.sol\":3773:3781  lockTime */\n      sload(0x04)\n        /* \"FundMe.sol\":3751:3770  deploymentTimestamp */\n      sload(0x03)\n        /* \"FundMe.sol\":3751:3781  deploymentTimestamp + lockTime */\n      tag_62\n      swap2\n      swap1\n      tag_63\n      jump\t// in\n    tag_62:\n        /* \"FundMe.sol\":3732:3747  block.timestamp */\n      timestamp\n        /* \"FundMe.sol\":3732:3781  block.timestamp >= deploymentTimestamp + lockTime */\n      lt\n      iszero\n        /* \"FundMe.sol\":3724:3799  require(block.timestamp >= deploymentTimestamp + lockTime, \"Wait a minute\") */\n      tag_64\n      jumpi\n      mload(0x40)\n      0x08c379a000000000000000000000000000000000000000000000000000000000\n      dup2\n      mstore\n      0x04\n      add\n      tag_65\n      swap1\n      tag_66\n      jump\t// in\n    tag_65:\n      mload(0x40)\n      dup1\n      swap2\n      sub\n      swap1\n      revert\n    tag_64:\n        /* \"FundMe.sol\":607:621  1000 * 10 ** 8 */\n      0x174876e800\n        /* \"FundMe.sol\":2844:2882  convertEthToUsd(address(this).balance) */\n      tag_68\n        /* \"FundMe.sol\":2860:2881  address(this).balance */\n      selfbalance\n        /* \"FundMe.sol\":2844:2859  convertEthToUsd */\n      tag_69\n        /* \"FundMe.sol\":2844:2882  convertEthToUsd(address(this).balance) */\n      jump\t// in\n    tag_68:\n        /* \"FundMe.sol\":2844:2891  convertEthToUsd(address(this).balance) < TARGET */\n      lt\n        /* \"FundMe.sol\":2836:2913  require(convertEthToUsd(address(this).balance) < TARGET, \"Target is reached\") */\n      tag_70\n      jumpi\n      mload(0x40)\n      0x08c379a000000000000000000000000000000000000000000000000000000000\n      dup2\n      mstore\n      0x04\n      add\n      tag_71\n      swap1\n      tag_72\n      jump\t// in\n    tag_71:\n      mload(0x40)\n      dup1\n      swap2\n      sub\n      swap1\n      revert\n    tag_70:\n        /* \"FundMe.sol\":2963:2964  0 */\n      0x00\n        /* \"FundMe.sol\":2932:2947  fundersToAmount */\n      0x00\n        /* \"FundMe.sol\":2932:2959  fundersToAmount[msg.sender] */\n      0x00\n        /* \"FundMe.sol\":2948:2958  msg.sender */\n      caller\n        /* \"FundMe.sol\":2932:2959  fundersToAmount[msg.sender] */\n      0xffffffffffffffffffffffffffffffffffffffff\n      and\n      0xffffffffffffffffffffffffffffffffffffffff\n      and\n      dup2\n      mstore\n      0x20\n      add\n      swap1\n      dup2\n      mstore\n      0x20\n      add\n      0x00\n      keccak256\n      sload\n        /* \"FundMe.sol\":2932:2964  fundersToAmount[msg.sender] != 0 */\n      sub\n        /* \"FundMe.sol\":2924:2987  require(fundersToAmount[msg.sender] != 0, \"You have not fund.\") */\n      tag_73\n      jumpi\n      mload(0x40)\n      0x08c379a000000000000000000000000000000000000000000000000000000000\n      dup2\n      mstore\n      0x04\n      add\n      tag_74\n      swap1\n      tag_75\n      jump\t// in\n    tag_74:\n      mload(0x40)\n      dup1\n      swap2\n      sub\n      swap1\n      revert\n    tag_73:\n        /* \"FundMe.sol\":2998:3010  bool success */\n      0x00\n        /* \"FundMe.sol\":3043:3053  msg.sender */\n      caller\n        /* \"FundMe.sol\":3035:3059  payable(msg.sender).call */\n      0xffffffffffffffffffffffffffffffffffffffff\n      and\n        /* \"FundMe.sol\":3067:3082  fundersToAmount */\n      0x00\n        /* \"FundMe.sol\":3067:3094  fundersToAmount[msg.sender] */\n      0x00\n        /* \"FundMe.sol\":3083:3093  msg.sender */\n      caller\n        /* \"FundMe.sol\":3067:3094  fundersToAmount[msg.sender] */\n      0xffffffffffffffffffffffffffffffffffffffff\n      and\n      0xffffffffffffffffffffffffffffffffffffffff\n      and\n      dup2\n      mstore\n      0x20\n      add\n      swap1\n      dup2\n      mstore\n      0x20\n      add\n      0x00\n      keccak256\n      sload\n        /* \"FundMe.sol\":3035:3099  payable(msg.sender).call{value: fundersToAmount[msg.sender]}(\"\") */\n      mload(0x40)\n      tag_76\n      swap1\n      tag_77\n      jump\t// in\n    tag_76:\n      0x00\n      mload(0x40)\n      dup1\n      dup4\n      sub\n      dup2\n      dup6\n      dup8\n      gas\n      call\n      swap3\n      pop\n      pop\n      pop\n      returndatasize\n      dup1\n      0x00\n      dup2\n      eq\n      tag_80\n      jumpi\n      mload(0x40)\n      swap2\n      pop\n      and(add(returndatasize, 0x3f), not(0x1f))\n      dup3\n      add\n      0x40\n      mstore\n      returndatasize\n      dup3\n      mstore\n      returndatasize\n      0x00\n      0x20\n      dup5\n      add\n      returndatacopy\n      jump(tag_79)\n    tag_80:\n      0x60\n      swap2\n      pop\n    tag_79:\n      pop\n        /* \"FundMe.sol\":3021:3099  (success, ) = payable(msg.sender).call{value: fundersToAmount[msg.sender]}(\"\") */\n      pop\n      dup1\n      swap2\n      pop\n      pop\n        /* \"FundMe.sol\":3128:3135  success */\n      dup1\n        /* \"FundMe.sol\":3120:3158  require(success, \"transfer tx failed\") */\n      tag_81\n      jumpi\n      mload(0x40)\n      0x08c379a000000000000000000000000000000000000000000000000000000000\n      dup2\n      mstore\n      0x04\n      add\n      tag_82\n      swap1\n      tag_83\n      jump\t// in\n    tag_82:\n      mload(0x40)\n      dup1\n      swap2\n      sub\n      swap1\n      revert\n    tag_81:\n        /* \"FundMe.sol\":3199:3200  0 */\n      0x00\n        /* \"FundMe.sol\":3169:3184  fundersToAmount */\n      0x00\n        /* \"FundMe.sol\":3169:3196  fundersToAmount[msg.sender] */\n      0x00\n        /* \"FundMe.sol\":3185:3195  msg.sender */\n      caller\n        /* \"FundMe.sol\":3169:3196  fundersToAmount[msg.sender] */\n      0xffffffffffffffffffffffffffffffffffffffff\n      and\n      0xffffffffffffffffffffffffffffffffffffffff\n      and\n      dup2\n      mstore\n      0x20\n      add\n      swap1\n      dup2\n      mstore\n      0x20\n      add\n      0x00\n      keccak256\n        /* \"FundMe.sol\":3169:3200  fundersToAmount[msg.sender] = 0 */\n      dup2\n      swap1\n      sstore\n      pop\n        /* \"FundMe.sol\":2825:3208  {... */\n      pop\n        /* \"FundMe.sol\":2793:3208  function refund() external timer{... */\n      jump\t// out\n        /* \"FundMe.sol\":630:650  address public owner */\n    tag_23:\n      0x02\n      0x00\n      swap1\n      sload\n      swap1\n      0x0100\n      exp\n      swap1\n      div\n      0xffffffffffffffffffffffffffffffffffffffff\n      and\n      dup2\n      jump\t// out\n        /* \"FundMe.sol\":2009:2785  function getFund() external onlyOwner timer{... */\n    tag_28:\n        /* \"FundMe.sol\":3617:3622  owner */\n      0x02\n      0x00\n      swap1\n      sload\n      swap1\n      0x0100\n      exp\n      swap1\n      div\n      0xffffffffffffffffffffffffffffffffffffffff\n      and\n        /* \"FundMe.sol\":3603:3622  msg.sender == owner */\n      0xffffffffffffffffffffffffffffffffffffffff\n      and\n        /* \"FundMe.sol\":3603:3613  msg.sender */\n      caller\n        /* \"FundMe.sol\":3603:3622  msg.sender == owner */\n      0xffffffffffffffffffffffffffffffffffffffff\n      and\n      eq\n        /* \"FundMe.sol\":3595:3668  require(msg.sender == owner, \"this function can only be called by owner\") */\n      tag_85\n      jumpi\n      mload(0x40)\n      0x08c379a000000000000000000000000000000000000000000000000000000000\n      dup2\n      mstore\n      0x04\n      add\n      tag_86\n      swap1\n      tag_59\n      jump\t// in\n    tag_86:\n      mload(0x40)\n      dup1\n      swap2\n      sub\n      swap1\n      revert\n    tag_85:\n        /* \"FundMe.sol\":3773:3781  lockTime */\n      sload(0x04)\n        /* \"FundMe.sol\":3751:3770  deploymentTimestamp */\n      sload(0x03)\n        /* \"FundMe.sol\":3751:3781  deploymentTimestamp + lockTime */\n      tag_88\n      swap2\n      swap1\n      tag_63\n      jump\t// in\n    tag_88:\n        /* \"FundMe.sol\":3732:3747  block.timestamp */\n      timestamp\n        /* \"FundMe.sol\":3732:3781  block.timestamp >= deploymentTimestamp + lockTime */\n      lt\n      iszero\n        /* \"FundMe.sol\":3724:3799  require(block.timestamp >= deploymentTimestamp + lockTime, \"Wait a minute\") */\n      tag_89\n      jumpi\n      mload(0x40)\n      0x08c379a000000000000000000000000000000000000000000000000000000000\n      dup2\n      mstore\n      0x04\n      add\n      tag_90\n      swap1\n      tag_66\n      jump\t// in\n    tag_90:\n      mload(0x40)\n      dup1\n      swap2\n      sub\n      swap1\n      revert\n    tag_89:\n        /* \"FundMe.sol\":607:621  1000 * 10 ** 8 */\n      0x174876e800\n        /* \"FundMe.sol\":2071:2109  convertEthToUsd(address(this).balance) */\n      tag_92\n        /* \"FundMe.sol\":2087:2108  address(this).balance */\n      selfbalance\n        /* \"FundMe.sol\":2071:2086  convertEthToUsd */\n      tag_69\n        /* \"FundMe.sol\":2071:2109  convertEthToUsd(address(this).balance) */\n      jump\t// in\n    tag_92:\n        /* \"FundMe.sol\":2071:2119  convertEthToUsd(address(this).balance) >= TARGET */\n      lt\n      iszero\n        /* \"FundMe.sol\":2063:2145  require(convertEthToUsd(address(this).balance) >= TARGET, \"Target is not reached\") */\n      tag_93\n      jumpi\n      mload(0x40)\n      0x08c379a000000000000000000000000000000000000000000000000000000000\n      dup2\n      mstore\n      0x04\n      add\n      tag_94\n      swap1\n      tag_95\n      jump\t// in\n    tag_94:\n      mload(0x40)\n      dup1\n      swap2\n      sub\n      swap1\n      revert\n    tag_93:\n        /* \"FundMe.sol\":2552:2564  bool success */\n      0x00\n        /* \"FundMe.sol\":2597:2607  msg.sender */\n      caller\n        /* \"FundMe.sol\":2589:2613  payable(msg.sender).call */\n      0xffffffffffffffffffffffffffffffffffffffff\n      and\n        /* \"FundMe.sol\":2621:2642  address(this).balance */\n      selfbalance\n        /* \"FundMe.sol\":2589:2647  payable(msg.sender).call{value: address(this).balance}(\"\") */\n      mload(0x40)\n      tag_96\n      swap1\n      tag_77\n      jump\t// in\n    tag_96:\n      0x00\n      mload(0x40)\n      dup1\n      dup4\n      sub\n      dup2\n      dup6\n      dup8\n      gas\n      call\n      swap3\n      pop\n      pop\n      pop\n      returndatasize\n      dup1\n      0x00\n      dup2\n      eq\n      tag_99\n      jumpi\n      mload(0x40)\n      swap2\n      pop\n      and(add(returndatasize, 0x3f), not(0x1f))\n      dup3\n      add\n      0x40\n      mstore\n      returndatasize\n      dup3\n      mstore\n      returndatasize\n      0x00\n      0x20\n      dup5\n      add\n      returndatacopy\n      jump(tag_98)\n    tag_99:\n      0x60\n      swap2\n      pop\n    tag_98:\n      pop\n        /* \"FundMe.sol\":2575:2647  (success, ) = payable(msg.sender).call{value: address(this).balance}(\"\") */\n      pop\n      dup1\n      swap2\n      pop\n      pop\n        /* \"FundMe.sol\":2666:2673  success */\n      dup1\n        /* \"FundMe.sol\":2658:2696  require(success, \"transfer tx failed\") */\n      tag_100\n      jumpi\n      mload(0x40)\n      0x08c379a000000000000000000000000000000000000000000000000000000000\n      dup2\n      mstore\n      0x04\n      add\n      tag_101\n      swap1\n      tag_83\n      jump\t// in\n    tag_101:\n      mload(0x40)\n      dup1\n      swap2\n      sub\n      swap1\n      revert\n    tag_100:\n        /* \"FundMe.sol\":2737:2738  0 */\n      0x00\n        /* \"FundMe.sol\":2707:2722  fundersToAmount */\n      0x00\n        /* \"FundMe.sol\":2707:2734  fundersToAmount[msg.sender] */\n      0x00\n        /* \"FundMe.sol\":2723:2733  msg.sender */\n      caller\n        /* \"FundMe.sol\":2707:2734  fundersToAmount[msg.sender] */\n      0xffffffffffffffffffffffffffffffffffffffff\n      and\n      0xffffffffffffffffffffffffffffffffffffffff\n      and\n      dup2\n      mstore\n      0x20\n      add\n      swap1\n      dup2\n      mstore\n      0x20\n      add\n      0x00\n      keccak256\n        /* \"FundMe.sol\":2707:2738  fundersToAmount[msg.sender] = 0 */\n      dup2\n      swap1\n      sstore\n      pop\n        /* \"FundMe.sol\":2766:2770  true */\n      0x01\n        /* \"FundMe.sol\":2749:2763  getFundSuccess */\n      0x05\n      0x14\n        /* \"FundMe.sol\":2749:2770  getFundSuccess = true */\n      0x0100\n      exp\n      dup2\n      sload\n      dup2\n      0xff\n      mul\n      not\n      and\n      swap1\n      dup4\n      iszero\n      iszero\n      mul\n      or\n      swap1\n      sstore\n      pop\n        /* \"FundMe.sol\":2052:2785  {... */\n      pop\n        /* \"FundMe.sol\":2009:2785  function getFund() external onlyOwner timer{... */\n      jump\t// out\n        /* \"FundMe.sol\":410:461  mapping (address => uint256) public fundersToAmount */\n    tag_32:\n      mstore(0x20, 0x00)\n      dup1\n      0x00\n      mstore\n      keccak256(0x00, 0x40)\n      0x00\n      swap2\n      pop\n      swap1\n      pop\n      sload\n      dup2\n      jump\t// out\n        /* \"FundMe.sol\":3216:3448  function setFundersToAmount(address funder, uint256 amountToUpdate) external {... */\n    tag_39:\n        /* \"FundMe.sol\":3326:3335  erc20Addr */\n      0x05\n      0x00\n      swap1\n      sload\n      swap1\n      0x0100\n      exp\n      swap1\n      div\n      0xffffffffffffffffffffffffffffffffffffffff\n      and\n        /* \"FundMe.sol\":3312:3335  msg.sender == erc20Addr */\n      0xffffffffffffffffffffffffffffffffffffffff\n      and\n        /* \"FundMe.sol\":3312:3322  msg.sender */\n      caller\n        /* \"FundMe.sol\":3312:3335  msg.sender == erc20Addr */\n      0xffffffffffffffffffffffffffffffffffffffff\n      and\n      eq\n        /* \"FundMe.sol\":3304:3388  require(msg.sender == erc20Addr, \"you do not have permission to call this function\") */\n      tag_103\n      jumpi\n      mload(0x40)\n      0x08c379a000000000000000000000000000000000000000000000000000000000\n      dup2\n      mstore\n      0x04\n      add\n      tag_104\n      swap1\n      tag_105\n      jump\t// in\n    tag_104:\n      mload(0x40)\n      dup1\n      swap2\n      sub\n      swap1\n      revert\n    tag_103:\n        /* \"FundMe.sol\":3426:3440  amountToUpdate */\n      dup1\n        /* \"FundMe.sol\":3399:3414  fundersToAmount */\n      0x00\n        /* \"FundMe.sol\":3399:3422  fundersToAmount[funder] */\n      0x00\n        /* \"FundMe.sol\":3415:3421  funder */\n      dup5\n        /* \"FundMe.sol\":3399:3422  fundersToAmount[funder] */\n      0xffffffffffffffffffffffffffffffffffffffff\n      and\n      0xffffffffffffffffffffffffffffffffffffffff\n      and\n      dup2\n      mstore\n      0x20\n      add\n      swap1\n      dup2\n      mstore\n      0x20\n      add\n      0x00\n      keccak256\n      0x00\n        /* \"FundMe.sol\":3399:3440  fundersToAmount[funder] -= amountToUpdate */\n      dup3\n      dup3\n      sload\n      tag_106\n      swap2\n      swap1\n      tag_107\n      jump\t// in\n    tag_106:\n      swap3\n      pop\n      pop\n      dup2\n      swap1\n      sstore\n      pop\n        /* \"FundMe.sol\":3216:3448  function setFundersToAmount(address funder, uint256 amountToUpdate) external {... */\n      pop\n      pop\n      jump\t// out\n        /* \"FundMe.sol\":1068:1319  function fund() external payable {... */\n    tag_41:\n        /* \"FundMe.sol\":1160:1168  lockTime */\n      sload(0x04)\n        /* \"FundMe.sol\":1138:1157  deploymentTimestamp */\n      sload(0x03)\n        /* \"FundMe.sol\":1138:1168  deploymentTimestamp + lockTime */\n      tag_109\n      swap2\n      swap1\n      tag_63\n      jump\t// in\n    tag_109:\n        /* \"FundMe.sol\":1120:1135  block.timestamp */\n      timestamp\n        /* \"FundMe.sol\":1120:1168  block.timestamp < deploymentTimestamp + lockTime */\n      lt\n        /* \"FundMe.sol\":1112:1180  require(block.timestamp < deploymentTimestamp + lockTime, \"Time up\") */\n      tag_110\n      jumpi\n      mload(0x40)\n      0x08c379a000000000000000000000000000000000000000000000000000000000\n      dup2\n      mstore\n      0x04\n      add\n      tag_111\n      swap1\n      tag_112\n      jump\t// in\n    tag_111:\n      mload(0x40)\n      dup1\n      swap2\n      sub\n      swap1\n      revert\n    tag_110:\n        /* \"FundMe.sol\":504:518  100 * 10 ** 18 */\n      0x056bc75e2d63100000\n        /* \"FundMe.sol\":1199:1225  convertEthToUsd(msg.value) */\n      tag_113\n        /* \"FundMe.sol\":1215:1224  msg.value */\n      callvalue\n        /* \"FundMe.sol\":1199:1214  convertEthToUsd */\n      tag_69\n        /* \"FundMe.sol\":1199:1225  convertEthToUsd(msg.value) */\n      jump\t// in\n    tag_113:\n        /* \"FundMe.sol\":1199:1242  convertEthToUsd(msg.value) >= MINIMUN_VALUE */\n      lt\n      iszero\n        /* \"FundMe.sol\":1191:1260  require(convertEthToUsd(msg.value) >= MINIMUN_VALUE, \"Send more ETH\") */\n      tag_114\n      jumpi\n      mload(0x40)\n      0x08c379a000000000000000000000000000000000000000000000000000000000\n      dup2\n      mstore\n      0x04\n      add\n      tag_115\n      swap1\n      tag_116\n      jump\t// in\n    tag_115:\n      mload(0x40)\n      dup1\n      swap2\n      sub\n      swap1\n      revert\n    tag_114:\n        /* \"FundMe.sol\":1302:1311  msg.value */\n      callvalue\n        /* \"FundMe.sol\":1271:1286  fundersToAmount */\n      0x00\n        /* \"FundMe.sol\":1271:1298  fundersToAmount[msg.sender] */\n      0x00\n        /* \"FundMe.sol\":1287:1297  msg.sender */\n      caller\n        /* \"FundMe.sol\":1271:1298  fundersToAmount[msg.sender] */\n      0xffffffffffffffffffffffffffffffffffffffff\n      and\n      0xffffffffffffffffffffffffffffffffffffffff\n      and\n      dup2\n      mstore\n      0x20\n      add\n      swap1\n      dup2\n      mstore\n      0x20\n      add\n      0x00\n      keccak256\n      0x00\n        /* \"FundMe.sol\":1271:1311  fundersToAmount[msg.sender] += msg.value */\n      dup3\n      dup3\n      sload\n      tag_117\n      swap2\n      swap1\n      tag_63\n      jump\t// in\n    tag_117:\n      swap3\n      pop\n      pop\n      dup2\n      swap1\n      sstore\n      pop\n        /* \"FundMe.sol\":1068:1319  function fund() external payable {... */\n      jump\t// out\n        /* \"FundMe.sol\":1327:1684  function getChainlinkDataFeedLatestAnswer() public view returns (int) {... */\n    tag_44:\n        /* \"FundMe.sol\":1392:1395  int */\n      0x00\n        /* \"FundMe.sol\":1486:1499  int256 answer */\n      0x00\n        /* \"FundMe.sol\":1626:1634  dataFeed */\n      0x01\n      0x00\n      swap1\n      sload\n      swap1\n      0x0100\n      exp\n      swap1\n      div\n      0xffffffffffffffffffffffffffffffffffffffff\n      and\n        /* \"FundMe.sol\":1626:1650  dataFeed.latestRoundData */\n      0xffffffffffffffffffffffffffffffffffffffff\n      and\n      0xfeaf968c\n        /* \"FundMe.sol\":1626:1652  dataFeed.latestRoundData() */\n      mload(0x40)\n      dup2\n      0xffffffff\n      and\n      0xe0\n      shl\n      dup2\n      mstore\n      0x04\n      add\n      0xa0\n      mload(0x40)\n      dup1\n      dup4\n      sub\n      dup2\n      dup7\n      gas\n      staticcall\n      iszero\n      dup1\n      iszero\n      tag_120\n      jumpi\n      returndatacopy(0x00, 0x00, returndatasize)\n      revert(0x00, returndatasize)\n    tag_120:\n      pop\n      pop\n      pop\n      pop\n      mload(0x40)\n      returndatasize\n      not(0x1f)\n      0x1f\n      dup3\n      add\n      and\n      dup3\n      add\n      dup1\n      0x40\n      mstore\n      pop\n      dup2\n      add\n      swap1\n      tag_121\n      swap2\n      swap1\n      tag_122\n      jump\t// in\n    tag_121:\n        /* \"FundMe.sol\":1436:1652  (... */\n      pop\n      pop\n      pop\n      swap2\n      pop\n      pop\n        /* \"FundMe.sol\":1670:1676  answer */\n      dup1\n        /* \"FundMe.sol\":1663:1676  return answer */\n      swap2\n      pop\n      pop\n        /* \"FundMe.sol\":1327:1684  function getChainlinkDataFeedLatestAnswer() public view returns (int) {... */\n      swap1\n      jump\t// out\n        /* \"FundMe.sol\":744:778  bool public getFundSuccess = false */\n    tag_49:\n      0x05\n      0x14\n      swap1\n      sload\n      swap1\n      0x0100\n      exp\n      swap1\n      div\n      0xff\n      and\n      dup2\n      jump\t// out\n        /* \"FundMe.sol\":1905:2001  function transferOwnership(address newOwner) public onlyOwner{... */\n    tag_55:\n        /* \"FundMe.sol\":3617:3622  owner */\n      0x02\n      0x00\n      swap1\n      sload\n      swap1\n      0x0100\n      exp\n      swap1\n      div\n      0xffffffffffffffffffffffffffffffffffffffff\n      and\n        /* \"FundMe.sol\":3603:3622  msg.sender == owner */\n      0xffffffffffffffffffffffffffffffffffffffff\n      and\n        /* \"FundMe.sol\":3603:3613  msg.sender */\n      caller\n        /* \"FundMe.sol\":3603:3622  msg.sender == owner */\n      0xffffffffffffffffffffffffffffffffffffffff\n      and\n      eq\n        /* \"FundMe.sol\":3595:3668  require(msg.sender == owner, \"this function can only be called by owner\") */\n      tag_124\n      jumpi\n      mload(0x40)\n      0x08c379a000000000000000000000000000000000000000000000000000000000\n      dup2\n      mstore\n      0x04\n      add\n      tag_125\n      swap1\n      tag_59\n      jump\t// in\n    tag_125:\n      mload(0x40)\n      dup1\n      swap2\n      sub\n      swap1\n      revert\n    tag_124:\n        /* \"FundMe.sol\":1985:1993  newOwner */\n      dup1\n        /* \"FundMe.sol\":1977:1982  owner */\n      0x02\n      0x00\n        /* \"FundMe.sol\":1977:1993  owner = newOwner */\n      0x0100\n      exp\n      dup2\n      sload\n      dup2\n      0xffffffffffffffffffffffffffffffffffffffff\n      mul\n      not\n      and\n      swap1\n      dup4\n      0xffffffffffffffffffffffffffffffffffffffff\n      and\n      mul\n      or\n      swap1\n      sstore\n      pop\n        /* \"FundMe.sol\":1905:2001  function transferOwnership(address newOwner) public onlyOwner{... */\n      pop\n      jump\t// out\n        /* \"FundMe.sol\":1692:1897  function convertEthToUsd(uint256 ethAmount) view internal returns(uint256){... */\n    tag_69:\n        /* \"FundMe.sol\":1758:1765  uint256 */\n      0x00\n        /* \"FundMe.sol\":1777:1793  uint256 ethPrice */\n      0x00\n        /* \"FundMe.sol\":1804:1838  getChainlinkDataFeedLatestAnswer() */\n      tag_128\n        /* \"FundMe.sol\":1804:1836  getChainlinkDataFeedLatestAnswer */\n      tag_44\n        /* \"FundMe.sol\":1804:1838  getChainlinkDataFeedLatestAnswer() */\n      jump\t// in\n    tag_128:\n        /* \"FundMe.sol\":1777:1839  uint256 ethPrice = uint256(getChainlinkDataFeedLatestAnswer()) */\n      swap1\n      pop\n        /* \"FundMe.sol\":1881:1888  10 ** 8 */\n      0x05f5e100\n        /* \"FundMe.sol\":1869:1877  ethPrice */\n      dup2\n        /* \"FundMe.sol\":1857:1866  ethAmount */\n      dup5\n        /* \"FundMe.sol\":1857:1877  ethAmount * ethPrice */\n      tag_129\n      swap2\n      swap1\n      tag_130\n      jump\t// in\n    tag_129:\n        /* \"FundMe.sol\":1857:1889  ethAmount * ethPrice / (10 ** 8) */\n      tag_131\n      swap2\n      swap1\n      tag_132\n      jump\t// in\n    tag_131:\n        /* \"FundMe.sol\":1850:1889  return ethAmount * ethPrice / (10 ** 8) */\n      swap2\n      pop\n      pop\n        /* \"FundMe.sol\":1692:1897  function convertEthToUsd(uint256 ethAmount) view internal returns(uint256){... */\n      swap2\n      swap1\n      pop\n      jump\t// out\n        /* \"#utility.yul\":88:205   */\n    tag_134:\n        /* \"#utility.yul\":197:198   */\n      0x00\n        /* \"#utility.yul\":194:195   */\n      0x00\n        /* \"#utility.yul\":187:199   */\n      revert\n        /* \"#utility.yul\":334:460   */\n    tag_136:\n        /* \"#utility.yul\":371:378   */\n      0x00\n        /* \"#utility.yul\":411:453   */\n      0xffffffffffffffffffffffffffffffffffffffff\n        /* \"#utility.yul\":404:409   */\n      dup3\n        /* \"#utility.yul\":400:454   */\n      and\n        /* \"#utility.yul\":389:454   */\n      swap1\n      pop\n        /* \"#utility.yul\":334:460   */\n      swap2\n      swap1\n      pop\n      jump\t// out\n        /* \"#utility.yul\":466:562   */\n    tag_137:\n        /* \"#utility.yul\":503:510   */\n      0x00\n        /* \"#utility.yul\":532:556   */\n      tag_185\n        /* \"#utility.yul\":550:555   */\n      dup3\n        /* \"#utility.yul\":532:556   */\n      tag_136\n      jump\t// in\n    tag_185:\n        /* \"#utility.yul\":521:556   */\n      swap1\n      pop\n        /* \"#utility.yul\":466:562   */\n      swap2\n      swap1\n      pop\n      jump\t// out\n        /* \"#utility.yul\":568:690   */\n    tag_138:\n        /* \"#utility.yul\":641:665   */\n      tag_187\n        /* \"#utility.yul\":659:664   */\n      dup2\n        /* \"#utility.yul\":641:665   */\n      tag_137\n      jump\t// in\n    tag_187:\n        /* \"#utility.yul\":634:639   */\n      dup2\n        /* \"#utility.yul\":631:666   */\n      eq\n        /* \"#utility.yul\":621:684   */\n      tag_188\n      jumpi\n        /* \"#utility.yul\":680:681   */\n      0x00\n        /* \"#utility.yul\":677:678   */\n      0x00\n        /* \"#utility.yul\":670:682   */\n      revert\n        /* \"#utility.yul\":621:684   */\n    tag_188:\n        /* \"#utility.yul\":568:690   */\n      pop\n      jump\t// out\n        /* \"#utility.yul\":696:835   */\n    tag_139:\n        /* \"#utility.yul\":742:747   */\n      0x00\n        /* \"#utility.yul\":780:786   */\n      dup2\n        /* \"#utility.yul\":767:787   */\n      calldataload\n        /* \"#utility.yul\":758:787   */\n      swap1\n      pop\n        /* \"#utility.yul\":796:829   */\n      tag_190\n        /* \"#utility.yul\":823:828   */\n      dup2\n        /* \"#utility.yul\":796:829   */\n      tag_138\n      jump\t// in\n    tag_190:\n        /* \"#utility.yul\":696:835   */\n      swap3\n      swap2\n      pop\n      pop\n      jump\t// out\n        /* \"#utility.yul\":841:1170   */\n    tag_16:\n        /* \"#utility.yul\":900:906   */\n      0x00\n        /* \"#utility.yul\":949:951   */\n      0x20\n        /* \"#utility.yul\":937:946   */\n      dup3\n        /* \"#utility.yul\":928:935   */\n      dup5\n        /* \"#utility.yul\":924:947   */\n      sub\n        /* \"#utility.yul\":920:952   */\n      slt\n        /* \"#utility.yul\":917:1036   */\n      iszero\n      tag_192\n      jumpi\n        /* \"#utility.yul\":955:1034   */\n      tag_193\n      tag_134\n      jump\t// in\n    tag_193:\n        /* \"#utility.yul\":917:1036   */\n    tag_192:\n        /* \"#utility.yul\":1075:1076   */\n      0x00\n        /* \"#utility.yul\":1100:1153   */\n      tag_194\n        /* \"#utility.yul\":1145:1152   */\n      dup5\n        /* \"#utility.yul\":1136:1142   */\n      dup3\n        /* \"#utility.yul\":1125:1134   */\n      dup6\n        /* \"#utility.yul\":1121:1143   */\n      add\n        /* \"#utility.yul\":1100:1153   */\n      tag_139\n      jump\t// in\n    tag_194:\n        /* \"#utility.yul\":1090:1153   */\n      swap2\n      pop\n        /* \"#utility.yul\":1046:1163   */\n      pop\n        /* \"#utility.yul\":841:1170   */\n      swap3\n      swap2\n      pop\n      pop\n      jump\t// out\n        /* \"#utility.yul\":1176:1294   */\n    tag_140:\n        /* \"#utility.yul\":1263:1287   */\n      tag_196\n        /* \"#utility.yul\":1281:1286   */\n      dup2\n        /* \"#utility.yul\":1263:1287   */\n      tag_137\n      jump\t// in\n    tag_196:\n        /* \"#utility.yul\":1258:1261   */\n      dup3\n        /* \"#utility.yul\":1251:1288   */\n      mstore\n        /* \"#utility.yul\":1176:1294   */\n      pop\n      pop\n      jump\t// out\n        /* \"#utility.yul\":1300:1522   */\n    tag_25:\n        /* \"#utility.yul\":1393:1397   */\n      0x00\n        /* \"#utility.yul\":1431:1433   */\n      0x20\n        /* \"#utility.yul\":1420:1429   */\n      dup3\n        /* \"#utility.yul\":1416:1434   */\n      add\n        /* \"#utility.yul\":1408:1434   */\n      swap1\n      pop\n        /* \"#utility.yul\":1444:1515   */\n      tag_198\n        /* \"#utility.yul\":1512:1513   */\n      0x00\n        /* \"#utility.yul\":1501:1510   */\n      dup4\n        /* \"#utility.yul\":1497:1514   */\n      add\n        /* \"#utility.yul\":1488:1494   */\n      dup5\n        /* \"#utility.yul\":1444:1515   */\n      tag_140\n      jump\t// in\n    tag_198:\n        /* \"#utility.yul\":1300:1522   */\n      swap3\n      swap2\n      pop\n      pop\n      jump\t// out\n        /* \"#utility.yul\":1528:1605   */\n    tag_141:\n        /* \"#utility.yul\":1565:1572   */\n      0x00\n        /* \"#utility.yul\":1594:1599   */\n      dup2\n        /* \"#utility.yul\":1583:1599   */\n      swap1\n      pop\n        /* \"#utility.yul\":1528:1605   */\n      swap2\n      swap1\n      pop\n      jump\t// out\n        /* \"#utility.yul\":1611:1729   */\n    tag_142:\n        /* \"#utility.yul\":1698:1722   */\n      tag_201\n        /* \"#utility.yul\":1716:1721   */\n      dup2\n        /* \"#utility.yul\":1698:1722   */\n      tag_141\n      jump\t// in\n    tag_201:\n        /* \"#utility.yul\":1693:1696   */\n      dup3\n        /* \"#utility.yul\":1686:1723   */\n      mstore\n        /* \"#utility.yul\":1611:1729   */\n      pop\n      pop\n      jump\t// out\n        /* \"#utility.yul\":1735:1957   */\n    tag_34:\n        /* \"#utility.yul\":1828:1832   */\n      0x00\n        /* \"#utility.yul\":1866:1868   */\n      0x20\n        /* \"#utility.yul\":1855:1864   */\n      dup3\n        /* \"#utility.yul\":1851:1869   */\n      add\n        /* \"#utility.yul\":1843:1869   */\n      swap1\n      pop\n        /* \"#utility.yul\":1879:1950   */\n      tag_203\n        /* \"#utility.yul\":1947:1948   */\n      0x00\n        /* \"#utility.yul\":1936:1945   */\n      dup4\n        /* \"#utility.yul\":1932:1949   */\n      add\n        /* \"#utility.yul\":1923:1929   */\n      dup5\n        /* \"#utility.yul\":1879:1950   */\n      tag_142\n      jump\t// in\n    tag_203:\n        /* \"#utility.yul\":1735:1957   */\n      swap3\n      swap2\n      pop\n      pop\n      jump\t// out\n        /* \"#utility.yul\":1963:2085   */\n    tag_143:\n        /* \"#utility.yul\":2036:2060   */\n      tag_205\n        /* \"#utility.yul\":2054:2059   */\n      dup2\n        /* \"#utility.yul\":2036:2060   */\n      tag_141\n      jump\t// in\n    tag_205:\n        /* \"#utility.yul\":2029:2034   */\n      dup2\n        /* \"#utility.yul\":2026:2061   */\n      eq\n        /* \"#utility.yul\":2016:2079   */\n      tag_206\n      jumpi\n        /* \"#utility.yul\":2075:2076   */\n      0x00\n        /* \"#utility.yul\":2072:2073   */\n      0x00\n        /* \"#utility.yul\":2065:2077   */\n      revert\n        /* \"#utility.yul\":2016:2079   */\n    tag_206:\n        /* \"#utility.yul\":1963:2085   */\n      pop\n      jump\t// out\n        /* \"#utility.yul\":2091:2230   */\n    tag_144:\n        /* \"#utility.yul\":2137:2142   */\n      0x00\n        /* \"#utility.yul\":2175:2181   */\n      dup2\n        /* \"#utility.yul\":2162:2182   */\n      calldataload\n        /* \"#utility.yul\":2153:2182   */\n      swap1\n      pop\n        /* \"#utility.yul\":2191:2224   */\n      tag_208\n        /* \"#utility.yul\":2218:2223   */\n      dup2\n        /* \"#utility.yul\":2191:2224   */\n      tag_143\n      jump\t// in\n    tag_208:\n        /* \"#utility.yul\":2091:2230   */\n      swap3\n      swap2\n      pop\n      pop\n      jump\t// out\n        /* \"#utility.yul\":2236:2710   */\n    tag_38:\n        /* \"#utility.yul\":2304:2310   */\n      0x00\n        /* \"#utility.yul\":2312:2318   */\n      0x00\n        /* \"#utility.yul\":2361:2363   */\n      0x40\n        /* \"#utility.yul\":2349:2358   */\n      dup4\n        /* \"#utility.yul\":2340:2347   */\n      dup6\n        /* \"#utility.yul\":2336:2359   */\n      sub\n        /* \"#utility.yul\":2332:2364   */\n      slt\n        /* \"#utility.yul\":2329:2448   */\n      iszero\n      tag_210\n      jumpi\n        /* \"#utility.yul\":2367:2446   */\n      tag_211\n      tag_134\n      jump\t// in\n    tag_211:\n        /* \"#utility.yul\":2329:2448   */\n    tag_210:\n        /* \"#utility.yul\":2487:2488   */\n      0x00\n        /* \"#utility.yul\":2512:2565   */\n      tag_212\n        /* \"#utility.yul\":2557:2564   */\n      dup6\n        /* \"#utility.yul\":2548:2554   */\n      dup3\n        /* \"#utility.yul\":2537:2546   */\n      dup7\n        /* \"#utility.yul\":2533:2555   */\n      add\n        /* \"#utility.yul\":2512:2565   */\n      tag_139\n      jump\t// in\n    tag_212:\n        /* \"#utility.yul\":2502:2565   */\n      swap3\n      pop\n        /* \"#utility.yul\":2458:2575   */\n      pop\n        /* \"#utility.yul\":2614:2616   */\n      0x20\n        /* \"#utility.yul\":2640:2693   */\n      tag_213\n        /* \"#utility.yul\":2685:2692   */\n      dup6\n        /* \"#utility.yul\":2676:2682   */\n      dup3\n        /* \"#utility.yul\":2665:2674   */\n      dup7\n        /* \"#utility.yul\":2661:2683   */\n      add\n        /* \"#utility.yul\":2640:2693   */\n      tag_144\n      jump\t// in\n    tag_213:\n        /* \"#utility.yul\":2630:2693   */\n      swap2\n      pop\n        /* \"#utility.yul\":2585:2703   */\n      pop\n        /* \"#utility.yul\":2236:2710   */\n      swap3\n      pop\n      swap3\n      swap1\n      pop\n      jump\t// out\n        /* \"#utility.yul\":2716:2792   */\n    tag_145:\n        /* \"#utility.yul\":2752:2759   */\n      0x00\n        /* \"#utility.yul\":2781:2786   */\n      dup2\n        /* \"#utility.yul\":2770:2786   */\n      swap1\n      pop\n        /* \"#utility.yul\":2716:2792   */\n      swap2\n      swap1\n      pop\n      jump\t// out\n        /* \"#utility.yul\":2798:2913   */\n    tag_146:\n        /* \"#utility.yul\":2883:2906   */\n      tag_216\n        /* \"#utility.yul\":2900:2905   */\n      dup2\n        /* \"#utility.yul\":2883:2906   */\n      tag_145\n      jump\t// in\n    tag_216:\n        /* \"#utility.yul\":2878:2881   */\n      dup3\n        /* \"#utility.yul\":2871:2907   */\n      mstore\n        /* \"#utility.yul\":2798:2913   */\n      pop\n      pop\n      jump\t// out\n        /* \"#utility.yul\":2919:3137   */\n    tag_46:\n        /* \"#utility.yul\":3010:3014   */\n      0x00\n        /* \"#utility.yul\":3048:3050   */\n      0x20\n        /* \"#utility.yul\":3037:3046   */\n      dup3\n        /* \"#utility.yul\":3033:3051   */\n      add\n        /* \"#utility.yul\":3025:3051   */\n      swap1\n      pop\n        /* \"#utility.yul\":3061:3130   */\n      tag_218\n        /* \"#utility.yul\":3127:3128   */\n      0x00\n        /* \"#utility.yul\":3116:3125   */\n      dup4\n        /* \"#utility.yul\":3112:3129   */\n      add\n        /* \"#utility.yul\":3103:3109   */\n      dup5\n        /* \"#utility.yul\":3061:3130   */\n      tag_146\n      jump\t// in\n    tag_218:\n        /* \"#utility.yul\":2919:3137   */\n      swap3\n      swap2\n      pop\n      pop\n      jump\t// out\n        /* \"#utility.yul\":3143:3233   */\n    tag_147:\n        /* \"#utility.yul\":3177:3184   */\n      0x00\n        /* \"#utility.yul\":3220:3225   */\n      dup2\n        /* \"#utility.yul\":3213:3226   */\n      iszero\n        /* \"#utility.yul\":3206:3227   */\n      iszero\n        /* \"#utility.yul\":3195:3227   */\n      swap1\n      pop\n        /* \"#utility.yul\":3143:3233   */\n      swap2\n      swap1\n      pop\n      jump\t// out\n        /* \"#utility.yul\":3239:3348   */\n    tag_148:\n        /* \"#utility.yul\":3320:3341   */\n      tag_221\n        /* \"#utility.yul\":3335:3340   */\n      dup2\n        /* \"#utility.yul\":3320:3341   */\n      tag_147\n      jump\t// in\n    tag_221:\n        /* \"#utility.yul\":3315:3318   */\n      dup3\n        /* \"#utility.yul\":3308:3342   */\n      mstore\n        /* \"#utility.yul\":3239:3348   */\n      pop\n      pop\n      jump\t// out\n        /* \"#utility.yul\":3354:3564   */\n    tag_51:\n        /* \"#utility.yul\":3441:3445   */\n      0x00\n        /* \"#utility.yul\":3479:3481   */\n      0x20\n        /* \"#utility.yul\":3468:3477   */\n      dup3\n        /* \"#utility.yul\":3464:3482   */\n      add\n        /* \"#utility.yul\":3456:3482   */\n      swap1\n      pop\n        /* \"#utility.yul\":3492:3557   */\n      tag_223\n        /* \"#utility.yul\":3554:3555   */\n      0x00\n        /* \"#utility.yul\":3543:3552   */\n      dup4\n        /* \"#utility.yul\":3539:3556   */\n      add\n        /* \"#utility.yul\":3530:3536   */\n      dup5\n        /* \"#utility.yul\":3492:3557   */\n      tag_148\n      jump\t// in\n    tag_223:\n        /* \"#utility.yul\":3354:3564   */\n      swap3\n      swap2\n      pop\n      pop\n      jump\t// out\n        /* \"#utility.yul\":3570:3739   */\n    tag_149:\n        /* \"#utility.yul\":3654:3665   */\n      0x00\n        /* \"#utility.yul\":3688:3694   */\n      dup3\n        /* \"#utility.yul\":3683:3686   */\n      dup3\n        /* \"#utility.yul\":3676:3695   */\n      mstore\n        /* \"#utility.yul\":3728:3732   */\n      0x20\n        /* \"#utility.yul\":3723:3726   */\n      dup3\n        /* \"#utility.yul\":3719:3733   */\n      add\n        /* \"#utility.yul\":3704:3733   */\n      swap1\n      pop\n        /* \"#utility.yul\":3570:3739   */\n      swap3\n      swap2\n      pop\n      pop\n      jump\t// out\n        /* \"#utility.yul\":3745:3973   */\n    tag_150:\n        /* \"#utility.yul\":3885:3919   */\n      0x746869732066756e6374696f6e2063616e206f6e6c792062652063616c6c6564\n        /* \"#utility.yul\":3881:3882   */\n      0x00\n        /* \"#utility.yul\":3873:3879   */\n      dup3\n        /* \"#utility.yul\":3869:3883   */\n      add\n        /* \"#utility.yul\":3862:3920   */\n      mstore\n        /* \"#utility.yul\":3954:3965   */\n      0x206279206f776e65720000000000000000000000000000000000000000000000\n        /* \"#utility.yul\":3949:3951   */\n      0x20\n        /* \"#utility.yul\":3941:3947   */\n      dup3\n        /* \"#utility.yul\":3937:3952   */\n      add\n        /* \"#utility.yul\":3930:3966   */\n      mstore\n        /* \"#utility.yul\":3745:3973   */\n      pop\n      jump\t// out\n        /* \"#utility.yul\":3979:4345   */\n    tag_151:\n        /* \"#utility.yul\":4121:4124   */\n      0x00\n        /* \"#utility.yul\":4142:4209   */\n      tag_227\n        /* \"#utility.yul\":4206:4208   */\n      0x29\n        /* \"#utility.yul\":4201:4204   */\n      dup4\n        /* \"#utility.yul\":4142:4209   */\n      tag_149\n      jump\t// in\n    tag_227:\n        /* \"#utility.yul\":4135:4209   */\n      swap2\n      pop\n        /* \"#utility.yul\":4218:4311   */\n      tag_228\n        /* \"#utility.yul\":4307:4310   */\n      dup3\n        /* \"#utility.yul\":4218:4311   */\n      tag_150\n      jump\t// in\n    tag_228:\n        /* \"#utility.yul\":4336:4338   */\n      0x40\n        /* \"#utility.yul\":4331:4334   */\n      dup3\n        /* \"#utility.yul\":4327:4339   */\n      add\n        /* \"#utility.yul\":4320:4339   */\n      swap1\n      pop\n        /* \"#utility.yul\":3979:4345   */\n      swap2\n      swap1\n      pop\n      jump\t// out\n        /* \"#utility.yul\":4351:4770   */\n    tag_59:\n        /* \"#utility.yul\":4517:4521   */\n      0x00\n        /* \"#utility.yul\":4555:4557   */\n      0x20\n        /* \"#utility.yul\":4544:4553   */\n      dup3\n        /* \"#utility.yul\":4540:4558   */\n      add\n        /* \"#utility.yul\":4532:4558   */\n      swap1\n      pop\n        /* \"#utility.yul\":4604:4613   */\n      dup2\n        /* \"#utility.yul\":4598:4602   */\n      dup2\n        /* \"#utility.yul\":4594:4614   */\n      sub\n        /* \"#utility.yul\":4590:4591   */\n      0x00\n        /* \"#utility.yul\":4579:4588   */\n      dup4\n        /* \"#utility.yul\":4575:4592   */\n      add\n        /* \"#utility.yul\":4568:4615   */\n      mstore\n        /* \"#utility.yul\":4632:4763   */\n      tag_230\n        /* \"#utility.yul\":4758:4762   */\n      dup2\n        /* \"#utility.yul\":4632:4763   */\n      tag_151\n      jump\t// in\n    tag_230:\n        /* \"#utility.yul\":4624:4763   */\n      swap1\n      pop\n        /* \"#utility.yul\":4351:4770   */\n      swap2\n      swap1\n      pop\n      jump\t// out\n        /* \"#utility.yul\":4776:4956   */\n    tag_152:\n        /* \"#utility.yul\":4824:4901   */\n      0x4e487b7100000000000000000000000000000000000000000000000000000000\n        /* \"#utility.yul\":4821:4822   */\n      0x00\n        /* \"#utility.yul\":4814:4902   */\n      mstore\n        /* \"#utility.yul\":4921:4925   */\n      0x11\n        /* \"#utility.yul\":4918:4919   */\n      0x04\n        /* \"#utility.yul\":4911:4926   */\n      mstore\n        /* \"#utility.yul\":4945:4949   */\n      0x24\n        /* \"#utility.yul\":4942:4943   */\n      0x00\n        /* \"#utility.yul\":4935:4950   */\n      revert\n        /* \"#utility.yul\":4962:5153   */\n    tag_63:\n        /* \"#utility.yul\":5002:5005   */\n      0x00\n        /* \"#utility.yul\":5021:5041   */\n      tag_233\n        /* \"#utility.yul\":5039:5040   */\n      dup3\n        /* \"#utility.yul\":5021:5041   */\n      tag_141\n      jump\t// in\n    tag_233:\n        /* \"#utility.yul\":5016:5041   */\n      swap2\n      pop\n        /* \"#utility.yul\":5055:5075   */\n      tag_234\n        /* \"#utility.yul\":5073:5074   */\n      dup4\n        /* \"#utility.yul\":5055:5075   */\n      tag_141\n      jump\t// in\n    tag_234:\n        /* \"#utility.yul\":5050:5075   */\n      swap3\n      pop\n        /* \"#utility.yul\":5098:5099   */\n      dup3\n        /* \"#utility.yul\":5095:5096   */\n      dup3\n        /* \"#utility.yul\":5091:5100   */\n      add\n        /* \"#utility.yul\":5084:5100   */\n      swap1\n      pop\n        /* \"#utility.yul\":5119:5122   */\n      dup1\n        /* \"#utility.yul\":5116:5117   */\n      dup3\n        /* \"#utility.yul\":5113:5123   */\n      gt\n        /* \"#utility.yul\":5110:5146   */\n      iszero\n      tag_235\n      jumpi\n        /* \"#utility.yul\":5126:5144   */\n      tag_236\n      tag_152\n      jump\t// in\n    tag_236:\n        /* \"#utility.yul\":5110:5146   */\n    tag_235:\n        /* \"#utility.yul\":4962:5153   */\n      swap3\n      swap2\n      pop\n      pop\n      jump\t// out\n        /* \"#utility.yul\":5159:5322   */\n    tag_153:\n        /* \"#utility.yul\":5299:5314   */\n      0x576169742061206d696e75746500000000000000000000000000000000000000\n        /* \"#utility.yul\":5295:5296   */\n      0x00\n        /* \"#utility.yul\":5287:5293   */\n      dup3\n        /* \"#utility.yul\":5283:5297   */\n      add\n        /* \"#utility.yul\":5276:5315   */\n      mstore\n        /* \"#utility.yul\":5159:5322   */\n      pop\n      jump\t// out\n        /* \"#utility.yul\":5328:5694   */\n    tag_154:\n        /* \"#utility.yul\":5470:5473   */\n      0x00\n        /* \"#utility.yul\":5491:5558   */\n      tag_239\n        /* \"#utility.yul\":5555:5557   */\n      0x0d\n        /* \"#utility.yul\":5550:5553   */\n      dup4\n        /* \"#utility.yul\":5491:5558   */\n      tag_149\n      jump\t// in\n    tag_239:\n        /* \"#utility.yul\":5484:5558   */\n      swap2\n      pop\n        /* \"#utility.yul\":5567:5660   */\n      tag_240\n        /* \"#utility.yul\":5656:5659   */\n      dup3\n        /* \"#utility.yul\":5567:5660   */\n      tag_153\n      jump\t// in\n    tag_240:\n        /* \"#utility.yul\":5685:5687   */\n      0x20\n        /* \"#utility.yul\":5680:5683   */\n      dup3\n        /* \"#utility.yul\":5676:5688   */\n      add\n        /* \"#utility.yul\":5669:5688   */\n      swap1\n      pop\n        /* \"#utility.yul\":5328:5694   */\n      swap2\n      swap1\n      pop\n      jump\t// out\n        /* \"#utility.yul\":5700:6119   */\n    tag_66:\n        /* \"#utility.yul\":5866:5870   */\n      0x00\n        /* \"#utility.yul\":5904:5906   */\n      0x20\n        /* \"#utility.yul\":5893:5902   */\n      dup3\n        /* \"#utility.yul\":5889:5907   */\n      add\n        /* \"#utility.yul\":5881:5907   */\n      swap1\n      pop\n        /* \"#utility.yul\":5953:5962   */\n      dup2\n        /* \"#utility.yul\":5947:5951   */\n      dup2\n        /* \"#utility.yul\":5943:5963   */\n      sub\n        /* \"#utility.yul\":5939:5940   */\n      0x00\n        /* \"#utility.yul\":5928:5937   */\n      dup4\n        /* \"#utility.yul\":5924:5941   */\n      add\n        /* \"#utility.yul\":5917:5964   */\n      mstore\n        /* \"#utility.yul\":5981:6112   */\n      tag_242\n        /* \"#utility.yul\":6107:6111   */\n      dup2\n        /* \"#utility.yul\":5981:6112   */\n      tag_154\n      jump\t// in\n    tag_242:\n        /* \"#utility.yul\":5973:6112   */\n      swap1\n      pop\n        /* \"#utility.yul\":5700:6119   */\n      swap2\n      swap1\n      pop\n      jump\t// out\n        /* \"#utility.yul\":6125:6292   */\n    tag_155:\n        /* \"#utility.yul\":6265:6284   */\n      0x5461726765742069732072656163686564000000000000000000000000000000\n        /* \"#utility.yul\":6261:6262   */\n      0x00\n        /* \"#utility.yul\":6253:6259   */\n      dup3\n        /* \"#utility.yul\":6249:6263   */\n      add\n        /* \"#utility.yul\":6242:6285   */\n      mstore\n        /* \"#utility.yul\":6125:6292   */\n      pop\n      jump\t// out\n        /* \"#utility.yul\":6298:6664   */\n    tag_156:\n        /* \"#utility.yul\":6440:6443   */\n      0x00\n        /* \"#utility.yul\":6461:6528   */\n      tag_245\n        /* \"#utility.yul\":6525:6527   */\n      0x11\n        /* \"#utility.yul\":6520:6523   */\n      dup4\n        /* \"#utility.yul\":6461:6528   */\n      tag_149\n      jump\t// in\n    tag_245:\n        /* \"#utility.yul\":6454:6528   */\n      swap2\n      pop\n        /* \"#utility.yul\":6537:6630   */\n      tag_246\n        /* \"#utility.yul\":6626:6629   */\n      dup3\n        /* \"#utility.yul\":6537:6630   */\n      tag_155\n      jump\t// in\n    tag_246:\n        /* \"#utility.yul\":6655:6657   */\n      0x20\n        /* \"#utility.yul\":6650:6653   */\n      dup3\n        /* \"#utility.yul\":6646:6658   */\n      add\n        /* \"#utility.yul\":6639:6658   */\n      swap1\n      pop\n        /* \"#utility.yul\":6298:6664   */\n      swap2\n      swap1\n      pop\n      jump\t// out\n        /* \"#utility.yul\":6670:7089   */\n    tag_72:\n        /* \"#utility.yul\":6836:6840   */\n      0x00\n        /* \"#utility.yul\":6874:6876   */\n      0x20\n        /* \"#utility.yul\":6863:6872   */\n      dup3\n        /* \"#utility.yul\":6859:6877   */\n      add\n        /* \"#utility.yul\":6851:6877   */\n      swap1\n      pop\n        /* \"#utility.yul\":6923:6932   */\n      dup2\n        /* \"#utility.yul\":6917:6921   */\n      dup2\n        /* \"#utility.yul\":6913:6933   */\n      sub\n        /* \"#utility.yul\":6909:6910   */\n      0x00\n        /* \"#utility.yul\":6898:6907   */\n      dup4\n        /* \"#utility.yul\":6894:6911   */\n      add\n        /* \"#utility.yul\":6887:6934   */\n      mstore\n        /* \"#utility.yul\":6951:7082   */\n      tag_248\n        /* \"#utility.yul\":7077:7081   */\n      dup2\n        /* \"#utility.yul\":6951:7082   */\n      tag_156\n      jump\t// in\n    tag_248:\n        /* \"#utility.yul\":6943:7082   */\n      swap1\n      pop\n        /* \"#utility.yul\":6670:7089   */\n      swap2\n      swap1\n      pop\n      jump\t// out\n        /* \"#utility.yul\":7095:7263   */\n    tag_157:\n        /* \"#utility.yul\":7235:7255   */\n      0x596f752068617665206e6f742066756e642e0000000000000000000000000000\n        /* \"#utility.yul\":7231:7232   */\n      0x00\n        /* \"#utility.yul\":7223:7229   */\n      dup3\n        /* \"#utility.yul\":7219:7233   */\n      add\n        /* \"#utility.yul\":7212:7256   */\n      mstore\n        /* \"#utility.yul\":7095:7263   */\n      pop\n      jump\t// out\n        /* \"#utility.yul\":7269:7635   */\n    tag_158:\n        /* \"#utility.yul\":7411:7414   */\n      0x00\n        /* \"#utility.yul\":7432:7499   */\n      tag_251\n        /* \"#utility.yul\":7496:7498   */\n      0x12\n        /* \"#utility.yul\":7491:7494   */\n      dup4\n        /* \"#utility.yul\":7432:7499   */\n      tag_149\n      jump\t// in\n    tag_251:\n        /* \"#utility.yul\":7425:7499   */\n      swap2\n      pop\n        /* \"#utility.yul\":7508:7601   */\n      tag_252\n        /* \"#utility.yul\":7597:7600   */\n      dup3\n        /* \"#utility.yul\":7508:7601   */\n      tag_157\n      jump\t// in\n    tag_252:\n        /* \"#utility.yul\":7626:7628   */\n      0x20\n        /* \"#utility.yul\":7621:7624   */\n      dup3\n        /* \"#utility.yul\":7617:7629   */\n      add\n        /* \"#utility.yul\":7610:7629   */\n      swap1\n      pop\n        /* \"#utility.yul\":7269:7635   */\n      swap2\n      swap1\n      pop\n      jump\t// out\n        /* \"#utility.yul\":7641:8060   */\n    tag_75:\n        /* \"#utility.yul\":7807:7811   */\n      0x00\n        /* \"#utility.yul\":7845:7847   */\n      0x20\n        /* \"#utility.yul\":7834:7843   */\n      dup3\n        /* \"#utility.yul\":7830:7848   */\n      add\n        /* \"#utility.yul\":7822:7848   */\n      swap1\n      pop\n        /* \"#utility.yul\":7894:7903   */\n      dup2\n        /* \"#utility.yul\":7888:7892   */\n      dup2\n        /* \"#utility.yul\":7884:7904   */\n      sub\n        /* \"#utility.yul\":7880:7881   */\n      0x00\n        /* \"#utility.yul\":7869:7878   */\n      dup4\n        /* \"#utility.yul\":7865:7882   */\n      add\n        /* \"#utility.yul\":7858:7905   */\n      mstore\n        /* \"#utility.yul\":7922:8053   */\n      tag_254\n        /* \"#utility.yul\":8048:8052   */\n      dup2\n        /* \"#utility.yul\":7922:8053   */\n      tag_158\n      jump\t// in\n    tag_254:\n        /* \"#utility.yul\":7914:8053   */\n      swap1\n      pop\n        /* \"#utility.yul\":7641:8060   */\n      swap2\n      swap1\n      pop\n      jump\t// out\n        /* \"#utility.yul\":8066:8213   */\n    tag_159:\n        /* \"#utility.yul\":8167:8178   */\n      0x00\n        /* \"#utility.yul\":8204:8207   */\n      dup2\n        /* \"#utility.yul\":8189:8207   */\n      swap1\n      pop\n        /* \"#utility.yul\":8066:8213   */\n      swap3\n      swap2\n      pop\n      pop\n      jump\t// out\n        /* \"#utility.yul\":8219:8333   */\n    tag_160:\n      pop\n      jump\t// out\n        /* \"#utility.yul\":8339:8737   */\n    tag_161:\n        /* \"#utility.yul\":8498:8501   */\n      0x00\n        /* \"#utility.yul\":8519:8602   */\n      tag_258\n        /* \"#utility.yul\":8600:8601   */\n      0x00\n        /* \"#utility.yul\":8595:8598   */\n      dup4\n        /* \"#utility.yul\":8519:8602   */\n      tag_159\n      jump\t// in\n    tag_258:\n        /* \"#utility.yul\":8512:8602   */\n      swap2\n      pop\n        /* \"#utility.yul\":8611:8704   */\n      tag_259\n        /* \"#utility.yul\":8700:8703   */\n      dup3\n        /* \"#utility.yul\":8611:8704   */\n      tag_160\n      jump\t// in\n    tag_259:\n        /* \"#utility.yul\":8729:8730   */\n      0x00\n        /* \"#utility.yul\":8724:8727   */\n      dup3\n        /* \"#utility.yul\":8720:8731   */\n      add\n        /* \"#utility.yul\":8713:8731   */\n      swap1\n      pop\n        /* \"#utility.yul\":8339:8737   */\n      swap2\n      swap1\n      pop\n      jump\t// out\n        /* \"#utility.yul\":8743:9122   */\n    tag_77:\n        /* \"#utility.yul\":8927:8930   */\n      0x00\n        /* \"#utility.yul\":8949:9096   */\n      tag_261\n        /* \"#utility.yul\":9092:9095   */\n      dup3\n        /* \"#utility.yul\":8949:9096   */\n      tag_161\n      jump\t// in\n    tag_261:\n        /* \"#utility.yul\":8942:9096   */\n      swap2\n      pop\n        /* \"#utility.yul\":9113:9116   */\n      dup2\n        /* \"#utility.yul\":9106:9116   */\n      swap1\n      pop\n        /* \"#utility.yul\":8743:9122   */\n      swap2\n      swap1\n      pop\n      jump\t// out\n        /* \"#utility.yul\":9128:9296   */\n    tag_162:\n        /* \"#utility.yul\":9268:9288   */\n      0x7472616e73666572207478206661696c65640000000000000000000000000000\n        /* \"#utility.yul\":9264:9265   */\n      0x00\n        /* \"#utility.yul\":9256:9262   */\n      dup3\n        /* \"#utility.yul\":9252:9266   */\n      add\n        /* \"#utility.yul\":9245:9289   */\n      mstore\n        /* \"#utility.yul\":9128:9296   */\n      pop\n      jump\t// out\n        /* \"#utility.yul\":9302:9668   */\n    tag_163:\n        /* \"#utility.yul\":9444:9447   */\n      0x00\n        /* \"#utility.yul\":9465:9532   */\n      tag_264\n        /* \"#utility.yul\":9529:9531   */\n      0x12\n        /* \"#utility.yul\":9524:9527   */\n      dup4\n        /* \"#utility.yul\":9465:9532   */\n      tag_149\n      jump\t// in\n    tag_264:\n        /* \"#utility.yul\":9458:9532   */\n      swap2\n      pop\n        /* \"#utility.yul\":9541:9634   */\n      tag_265\n        /* \"#utility.yul\":9630:9633   */\n      dup3\n        /* \"#utility.yul\":9541:9634   */\n      tag_162\n      jump\t// in\n    tag_265:\n        /* \"#utility.yul\":9659:9661   */\n      0x20\n        /* \"#utility.yul\":9654:9657   */\n      dup3\n        /* \"#utility.yul\":9650:9662   */\n      add\n        /* \"#utility.yul\":9643:9662   */\n      swap1\n      pop\n        /* \"#utility.yul\":9302:9668   */\n      swap2\n      swap1\n      pop\n      jump\t// out\n        /* \"#utility.yul\":9674:10093   */\n    tag_83:\n        /* \"#utility.yul\":9840:9844   */\n      0x00\n        /* \"#utility.yul\":9878:9880   */\n      0x20\n        /* \"#utility.yul\":9867:9876   */\n      dup3\n        /* \"#utility.yul\":9863:9881   */\n      add\n        /* \"#utility.yul\":9855:9881   */\n      swap1\n      pop\n        /* \"#utility.yul\":9927:9936   */\n      dup2\n        /* \"#utility.yul\":9921:9925   */\n      dup2\n        /* \"#utility.yul\":9917:9937   */\n      sub\n        /* \"#utility.yul\":9913:9914   */\n      0x00\n        /* \"#utility.yul\":9902:9911   */\n      dup4\n        /* \"#utility.yul\":9898:9915   */\n      add\n        /* \"#utility.yul\":9891:9938   */\n      mstore\n        /* \"#utility.yul\":9955:10086   */\n      tag_267\n        /* \"#utility.yul\":10081:10085   */\n      dup2\n        /* \"#utility.yul\":9955:10086   */\n      tag_163\n      jump\t// in\n    tag_267:\n        /* \"#utility.yul\":9947:10086   */\n      swap1\n      pop\n        /* \"#utility.yul\":9674:10093   */\n      swap2\n      swap1\n      pop\n      jump\t// out\n        /* \"#utility.yul\":10099:10270   */\n    tag_164:\n        /* \"#utility.yul\":10239:10262   */\n      0x546172676574206973206e6f7420726561636865640000000000000000000000\n        /* \"#utility.yul\":10235:10236   */\n      0x00\n        /* \"#utility.yul\":10227:10233   */\n      dup3\n        /* \"#utility.yul\":10223:10237   */\n      add\n        /* \"#utility.yul\":10216:10263   */\n      mstore\n        /* \"#utility.yul\":10099:10270   */\n      pop\n      jump\t// out\n        /* \"#utility.yul\":10276:10642   */\n    tag_165:\n        /* \"#utility.yul\":10418:10421   */\n      0x00\n        /* \"#utility.yul\":10439:10506   */\n      tag_270\n        /* \"#utility.yul\":10503:10505   */\n      0x15\n        /* \"#utility.yul\":10498:10501   */\n      dup4\n        /* \"#utility.yul\":10439:10506   */\n      tag_149\n      jump\t// in\n    tag_270:\n        /* \"#utility.yul\":10432:10506   */\n      swap2\n      pop\n        /* \"#utility.yul\":10515:10608   */\n      tag_271\n        /* \"#utility.yul\":10604:10607   */\n      dup3\n        /* \"#utility.yul\":10515:10608   */\n      tag_164\n      jump\t// in\n    tag_271:\n        /* \"#utility.yul\":10633:10635   */\n      0x20\n        /* \"#utility.yul\":10628:10631   */\n      dup3\n        /* \"#utility.yul\":10624:10636   */\n      add\n        /* \"#utility.yul\":10617:10636   */\n      swap1\n      pop\n        /* \"#utility.yul\":10276:10642   */\n      swap2\n      swap1\n      pop\n      jump\t// out\n        /* \"#utility.yul\":10648:11067   */\n    tag_95:\n        /* \"#utility.yul\":10814:10818   */\n      0x00\n        /* \"#utility.yul\":10852:10854   */\n      0x20\n        /* \"#utility.yul\":10841:10850   */\n      dup3\n        /* \"#utility.yul\":10837:10855   */\n      add\n        /* \"#utility.yul\":10829:10855   */\n      swap1\n      pop\n        /* \"#utility.yul\":10901:10910   */\n      dup2\n        /* \"#utility.yul\":10895:10899   */\n      dup2\n        /* \"#utility.yul\":10891:10911   */\n      sub\n        /* \"#utility.yul\":10887:10888   */\n      0x00\n        /* \"#utility.yul\":10876:10885   */\n      dup4\n        /* \"#utility.yul\":10872:10889   */\n      add\n        /* \"#utility.yul\":10865:10912   */\n      mstore\n        /* \"#utility.yul\":10929:11060   */\n      tag_273\n        /* \"#utility.yul\":11055:11059   */\n      dup2\n        /* \"#utility.yul\":10929:11060   */\n      tag_165\n      jump\t// in\n    tag_273:\n        /* \"#utility.yul\":10921:11060   */\n      swap1\n      pop\n        /* \"#utility.yul\":10648:11067   */\n      swap2\n      swap1\n      pop\n      jump\t// out\n        /* \"#utility.yul\":11073:11308   */\n    tag_166:\n        /* \"#utility.yul\":11213:11247   */\n      0x796f7520646f206e6f742068617665207065726d697373696f6e20746f206361\n        /* \"#utility.yul\":11209:11210   */\n      0x00\n        /* \"#utility.yul\":11201:11207   */\n      dup3\n        /* \"#utility.yul\":11197:11211   */\n      add\n        /* \"#utility.yul\":11190:11248   */\n      mstore\n        /* \"#utility.yul\":11282:11300   */\n      0x6c6c20746869732066756e6374696f6e00000000000000000000000000000000\n        /* \"#utility.yul\":11277:11279   */\n      0x20\n        /* \"#utility.yul\":11269:11275   */\n      dup3\n        /* \"#utility.yul\":11265:11280   */\n      add\n        /* \"#utility.yul\":11258:11301   */\n      mstore\n        /* \"#utility.yul\":11073:11308   */\n      pop\n      jump\t// out\n        /* \"#utility.yul\":11314:11680   */\n    tag_167:\n        /* \"#utility.yul\":11456:11459   */\n      0x00\n        /* \"#utility.yul\":11477:11544   */\n      tag_276\n        /* \"#utility.yul\":11541:11543   */\n      0x30\n        /* \"#utility.yul\":11536:11539   */\n      dup4\n        /* \"#utility.yul\":11477:11544   */\n      tag_149\n      jump\t// in\n    tag_276:\n        /* \"#utility.yul\":11470:11544   */\n      swap2\n      pop\n        /* \"#utility.yul\":11553:11646   */\n      tag_277\n        /* \"#utility.yul\":11642:11645   */\n      dup3\n        /* \"#utility.yul\":11553:11646   */\n      tag_166\n      jump\t// in\n    tag_277:\n        /* \"#utility.yul\":11671:11673   */\n      0x40\n        /* \"#utility.yul\":11666:11669   */\n      dup3\n        /* \"#utility.yul\":11662:11674   */\n      add\n        /* \"#utility.yul\":11655:11674   */\n      swap1\n      pop\n        /* \"#utility.yul\":11314:11680   */\n      swap2\n      swap1\n      pop\n      jump\t// out\n        /* \"#utility.yul\":11686:12105   */\n    tag_105:\n        /* \"#utility.yul\":11852:11856   */\n      0x00\n        /* \"#utility.yul\":11890:11892   */\n      0x20\n        /* \"#utility.yul\":11879:11888   */\n      dup3\n        /* \"#utility.yul\":11875:11893   */\n      add\n        /* \"#utility.yul\":11867:11893   */\n      swap1\n      pop\n        /* \"#utility.yul\":11939:11948   */\n      dup2\n        /* \"#utility.yul\":11933:11937   */\n      dup2\n        /* \"#utility.yul\":11929:11949   */\n      sub\n        /* \"#utility.yul\":11925:11926   */\n      0x00\n        /* \"#utility.yul\":11914:11923   */\n      dup4\n        /* \"#utility.yul\":11910:11927   */\n      add\n        /* \"#utility.yul\":11903:11950   */\n      mstore\n        /* \"#utility.yul\":11967:12098   */\n      tag_279\n        /* \"#utility.yul\":12093:12097   */\n      dup2\n        /* \"#utility.yul\":11967:12098   */\n      tag_167\n      jump\t// in\n    tag_279:\n        /* \"#utility.yul\":11959:12098   */\n      swap1\n      pop\n        /* \"#utility.yul\":11686:12105   */\n      swap2\n      swap1\n      pop\n      jump\t// out\n        /* \"#utility.yul\":12111:12305   */\n    tag_107:\n        /* \"#utility.yul\":12151:12155   */\n      0x00\n        /* \"#utility.yul\":12171:12191   */\n      tag_281\n        /* \"#utility.yul\":12189:12190   */\n      dup3\n        /* \"#utility.yul\":12171:12191   */\n      tag_141\n      jump\t// in\n    tag_281:\n        /* \"#utility.yul\":12166:12191   */\n      swap2\n      pop\n        /* \"#utility.yul\":12205:12225   */\n      tag_282\n        /* \"#utility.yul\":12223:12224   */\n      dup4\n        /* \"#utility.yul\":12205:12225   */\n      tag_141\n      jump\t// in\n    tag_282:\n        /* \"#utility.yul\":12200:12225   */\n      swap3\n      pop\n        /* \"#utility.yul\":12249:12250   */\n      dup3\n        /* \"#utility.yul\":12246:12247   */\n      dup3\n        /* \"#utility.yul\":12242:12251   */\n      sub\n        /* \"#utility.yul\":12234:12251   */\n      swap1\n      pop\n        /* \"#utility.yul\":12273:12274   */\n      dup2\n        /* \"#utility.yul\":12267:12271   */\n      dup2\n        /* \"#utility.yul\":12264:12275   */\n      gt\n        /* \"#utility.yul\":12261:12298   */\n      iszero\n      tag_283\n      jumpi\n        /* \"#utility.yul\":12278:12296   */\n      tag_284\n      tag_152\n      jump\t// in\n    tag_284:\n        /* \"#utility.yul\":12261:12298   */\n    tag_283:\n        /* \"#utility.yul\":12111:12305   */\n      swap3\n      swap2\n      pop\n      pop\n      jump\t// out\n        /* \"#utility.yul\":12311:12468   */\n    tag_168:\n        /* \"#utility.yul\":12451:12460   */\n      0x54696d6520757000000000000000000000000000000000000000000000000000\n        /* \"#utility.yul\":12447:12448   */\n      0x00\n        /* \"#utility.yul\":12439:12445   */\n      dup3\n        /* \"#utility.yul\":12435:12449   */\n      add\n        /* \"#utility.yul\":12428:12461   */\n      mstore\n        /* \"#utility.yul\":12311:12468   */\n      pop\n      jump\t// out\n        /* \"#utility.yul\":12474:12839   */\n    tag_169:\n        /* \"#utility.yul\":12616:12619   */\n      0x00\n        /* \"#utility.yul\":12637:12703   */\n      tag_287\n        /* \"#utility.yul\":12701:12702   */\n      0x07\n        /* \"#utility.yul\":12696:12699   */\n      dup4\n        /* \"#utility.yul\":12637:12703   */\n      tag_149\n      jump\t// in\n    tag_287:\n        /* \"#utility.yul\":12630:12703   */\n      swap2\n      pop\n        /* \"#utility.yul\":12712:12805   */\n      tag_288\n        /* \"#utility.yul\":12801:12804   */\n      dup3\n        /* \"#utility.yul\":12712:12805   */\n      tag_168\n      jump\t// in\n    tag_288:\n        /* \"#utility.yul\":12830:12832   */\n      0x20\n        /* \"#utility.yul\":12825:12828   */\n      dup3\n        /* \"#utility.yul\":12821:12833   */\n      add\n        /* \"#utility.yul\":12814:12833   */\n      swap1\n      pop\n        /* \"#utility.yul\":12474:12839   */\n      swap2\n      swap1\n      pop\n      jump\t// out\n        /* \"#utility.yul\":12845:13264   */\n    tag_112:\n        /* \"#utility.yul\":13011:13015   */\n      0x00\n        /* \"#utility.yul\":13049:13051   */\n      0x20\n        /* \"#utility.yul\":13038:13047   */\n      dup3\n        /* \"#utility.yul\":13034:13052   */\n      add\n        /* \"#utility.yul\":13026:13052   */\n      swap1\n      pop\n        /* \"#utility.yul\":13098:13107   */\n      dup2\n        /* \"#utility.yul\":13092:13096   */\n      dup2\n        /* \"#utility.yul\":13088:13108   */\n      sub\n        /* \"#utility.yul\":13084:13085   */\n      0x00\n        /* \"#utility.yul\":13073:13082   */\n      dup4\n        /* \"#utility.yul\":13069:13086   */\n      add\n        /* \"#utility.yul\":13062:13109   */\n      mstore\n        /* \"#utility.yul\":13126:13257   */\n      tag_290\n        /* \"#utility.yul\":13252:13256   */\n      dup2\n        /* \"#utility.yul\":13126:13257   */\n      tag_169\n      jump\t// in\n    tag_290:\n        /* \"#utility.yul\":13118:13257   */\n      swap1\n      pop\n        /* \"#utility.yul\":12845:13264   */\n      swap2\n      swap1\n      pop\n      jump\t// out\n        /* \"#utility.yul\":13270:13433   */\n    tag_170:\n        /* \"#utility.yul\":13410:13425   */\n      0x53656e64206d6f72652045544800000000000000000000000000000000000000\n        /* \"#utility.yul\":13406:13407   */\n      0x00\n        /* \"#utility.yul\":13398:13404   */\n      dup3\n        /* \"#utility.yul\":13394:13408   */\n      add\n        /* \"#utility.yul\":13387:13426   */\n      mstore\n        /* \"#utility.yul\":13270:13433   */\n      pop\n      jump\t// out\n        /* \"#utility.yul\":13439:13805   */\n    tag_171:\n        /* \"#utility.yul\":13581:13584   */\n      0x00\n        /* \"#utility.yul\":13602:13669   */\n      tag_293\n        /* \"#utility.yul\":13666:13668   */\n      0x0d\n        /* \"#utility.yul\":13661:13664   */\n      dup4\n        /* \"#utility.yul\":13602:13669   */\n      tag_149\n      jump\t// in\n    tag_293:\n        /* \"#utility.yul\":13595:13669   */\n      swap2\n      pop\n        /* \"#utility.yul\":13678:13771   */\n      tag_294\n        /* \"#utility.yul\":13767:13770   */\n      dup3\n        /* \"#utility.yul\":13678:13771   */\n      tag_170\n      jump\t// in\n    tag_294:\n        /* \"#utility.yul\":13796:13798   */\n      0x20\n        /* \"#utility.yul\":13791:13794   */\n      dup3\n        /* \"#utility.yul\":13787:13799   */\n      add\n        /* \"#utility.yul\":13780:13799   */\n      swap1\n      pop\n        /* \"#utility.yul\":13439:13805   */\n      swap2\n      swap1\n      pop\n      jump\t// out\n        /* \"#utility.yul\":13811:14230   */\n    tag_116:\n        /* \"#utility.yul\":13977:13981   */\n      0x00\n        /* \"#utility.yul\":14015:14017   */\n      0x20\n        /* \"#utility.yul\":14004:14013   */\n      dup3\n        /* \"#utility.yul\":14000:14018   */\n      add\n        /* \"#utility.yul\":13992:14018   */\n      swap1\n      pop\n        /* \"#utility.yul\":14064:14073   */\n      dup2\n        /* \"#utility.yul\":14058:14062   */\n      dup2\n        /* \"#utility.yul\":14054:14074   */\n      sub\n        /* \"#utility.yul\":14050:14051   */\n      0x00\n        /* \"#utility.yul\":14039:14048   */\n      dup4\n        /* \"#utility.yul\":14035:14052   */\n      add\n        /* \"#utility.yul\":14028:14075   */\n      mstore\n        /* \"#utility.yul\":14092:14223   */\n      tag_296\n        /* \"#utility.yul\":14218:14222   */\n      dup2\n        /* \"#utility.yul\":14092:14223   */\n      tag_171\n      jump\t// in\n    tag_296:\n        /* \"#utility.yul\":14084:14223   */\n      swap1\n      pop\n        /* \"#utility.yul\":13811:14230   */\n      swap2\n      swap1\n      pop\n      jump\t// out\n        /* \"#utility.yul\":14236:14341   */\n    tag_172:\n        /* \"#utility.yul\":14272:14279   */\n      0x00\n        /* \"#utility.yul\":14312:14334   */\n      0xffffffffffffffffffff\n        /* \"#utility.yul\":14305:14310   */\n      dup3\n        /* \"#utility.yul\":14301:14335   */\n      and\n        /* \"#utility.yul\":14290:14335   */\n      swap1\n      pop\n        /* \"#utility.yul\":14236:14341   */\n      swap2\n      swap1\n      pop\n      jump\t// out\n        /* \"#utility.yul\":14347:14467   */\n    tag_173:\n        /* \"#utility.yul\":14419:14442   */\n      tag_299\n        /* \"#utility.yul\":14436:14441   */\n      dup2\n        /* \"#utility.yul\":14419:14442   */\n      tag_172\n      jump\t// in\n    tag_299:\n        /* \"#utility.yul\":14412:14417   */\n      dup2\n        /* \"#utility.yul\":14409:14443   */\n      eq\n        /* \"#utility.yul\":14399:14461   */\n      tag_300\n      jumpi\n        /* \"#utility.yul\":14457:14458   */\n      0x00\n        /* \"#utility.yul\":14454:14455   */\n      0x00\n        /* \"#utility.yul\":14447:14459   */\n      revert\n        /* \"#utility.yul\":14399:14461   */\n    tag_300:\n        /* \"#utility.yul\":14347:14467   */\n      pop\n      jump\t// out\n        /* \"#utility.yul\":14473:14614   */\n    tag_174:\n        /* \"#utility.yul\":14529:14534   */\n      0x00\n        /* \"#utility.yul\":14560:14566   */\n      dup2\n        /* \"#utility.yul\":14554:14567   */\n      mload\n        /* \"#utility.yul\":14545:14567   */\n      swap1\n      pop\n        /* \"#utility.yul\":14576:14608   */\n      tag_302\n        /* \"#utility.yul\":14602:14607   */\n      dup2\n        /* \"#utility.yul\":14576:14608   */\n      tag_173\n      jump\t// in\n    tag_302:\n        /* \"#utility.yul\":14473:14614   */\n      swap3\n      swap2\n      pop\n      pop\n      jump\t// out\n        /* \"#utility.yul\":14620:14740   */\n    tag_175:\n        /* \"#utility.yul\":14692:14715   */\n      tag_304\n        /* \"#utility.yul\":14709:14714   */\n      dup2\n        /* \"#utility.yul\":14692:14715   */\n      tag_145\n      jump\t// in\n    tag_304:\n        /* \"#utility.yul\":14685:14690   */\n      dup2\n        /* \"#utility.yul\":14682:14716   */\n      eq\n        /* \"#utility.yul\":14672:14734   */\n      tag_305\n      jumpi\n        /* \"#utility.yul\":14730:14731   */\n      0x00\n        /* \"#utility.yul\":14727:14728   */\n      0x00\n        /* \"#utility.yul\":14720:14732   */\n      revert\n        /* \"#utility.yul\":14672:14734   */\n    tag_305:\n        /* \"#utility.yul\":14620:14740   */\n      pop\n      jump\t// out\n        /* \"#utility.yul\":14746:14887   */\n    tag_176:\n        /* \"#utility.yul\":14802:14807   */\n      0x00\n        /* \"#utility.yul\":14833:14839   */\n      dup2\n        /* \"#utility.yul\":14827:14840   */\n      mload\n        /* \"#utility.yul\":14818:14840   */\n      swap1\n      pop\n        /* \"#utility.yul\":14849:14881   */\n      tag_307\n        /* \"#utility.yul\":14875:14880   */\n      dup2\n        /* \"#utility.yul\":14849:14881   */\n      tag_175\n      jump\t// in\n    tag_307:\n        /* \"#utility.yul\":14746:14887   */\n      swap3\n      swap2\n      pop\n      pop\n      jump\t// out\n        /* \"#utility.yul\":14893:15036   */\n    tag_177:\n        /* \"#utility.yul\":14950:14955   */\n      0x00\n        /* \"#utility.yul\":14981:14987   */\n      dup2\n        /* \"#utility.yul\":14975:14988   */\n      mload\n        /* \"#utility.yul\":14966:14988   */\n      swap1\n      pop\n        /* \"#utility.yul\":14997:15030   */\n      tag_309\n        /* \"#utility.yul\":15024:15029   */\n      dup2\n        /* \"#utility.yul\":14997:15030   */\n      tag_143\n      jump\t// in\n    tag_309:\n        /* \"#utility.yul\":14893:15036   */\n      swap3\n      swap2\n      pop\n      pop\n      jump\t// out\n        /* \"#utility.yul\":15042:16013   */\n    tag_122:\n        /* \"#utility.yul\":15145:15151   */\n      0x00\n        /* \"#utility.yul\":15153:15159   */\n      0x00\n        /* \"#utility.yul\":15161:15167   */\n      0x00\n        /* \"#utility.yul\":15169:15175   */\n      0x00\n        /* \"#utility.yul\":15177:15183   */\n      0x00\n        /* \"#utility.yul\":15226:15229   */\n      0xa0\n        /* \"#utility.yul\":15214:15223   */\n      dup7\n        /* \"#utility.yul\":15205:15212   */\n      dup9\n        /* \"#utility.yul\":15201:15224   */\n      sub\n        /* \"#utility.yul\":15197:15230   */\n      slt\n        /* \"#utility.yul\":15194:15314   */\n      iszero\n      tag_311\n      jumpi\n        /* \"#utility.yul\":15233:15312   */\n      tag_312\n      tag_134\n      jump\t// in\n    tag_312:\n        /* \"#utility.yul\":15194:15314   */\n    tag_311:\n        /* \"#utility.yul\":15353:15354   */\n      0x00\n        /* \"#utility.yul\":15378:15441   */\n      tag_313\n        /* \"#utility.yul\":15433:15440   */\n      dup9\n        /* \"#utility.yul\":15424:15430   */\n      dup3\n        /* \"#utility.yul\":15413:15422   */\n      dup10\n        /* \"#utility.yul\":15409:15431   */\n      add\n        /* \"#utility.yul\":15378:15441   */\n      tag_174\n      jump\t// in\n    tag_313:\n        /* \"#utility.yul\":15368:15441   */\n      swap6\n      pop\n        /* \"#utility.yul\":15324:15451   */\n      pop\n        /* \"#utility.yul\":15490:15492   */\n      0x20\n        /* \"#utility.yul\":15516:15579   */\n      tag_314\n        /* \"#utility.yul\":15571:15578   */\n      dup9\n        /* \"#utility.yul\":15562:15568   */\n      dup3\n        /* \"#utility.yul\":15551:15560   */\n      dup10\n        /* \"#utility.yul\":15547:15569   */\n      add\n        /* \"#utility.yul\":15516:15579   */\n      tag_176\n      jump\t// in\n    tag_314:\n        /* \"#utility.yul\":15506:15579   */\n      swap5\n      pop\n        /* \"#utility.yul\":15461:15589   */\n      pop\n        /* \"#utility.yul\":15628:15630   */\n      0x40\n        /* \"#utility.yul\":15654:15718   */\n      tag_315\n        /* \"#utility.yul\":15710:15717   */\n      dup9\n        /* \"#utility.yul\":15701:15707   */\n      dup3\n        /* \"#utility.yul\":15690:15699   */\n      dup10\n        /* \"#utility.yul\":15686:15708   */\n      add\n        /* \"#utility.yul\":15654:15718   */\n      tag_177\n      jump\t// in\n    tag_315:\n        /* \"#utility.yul\":15644:15718   */\n      swap4\n      pop\n        /* \"#utility.yul\":15599:15728   */\n      pop\n        /* \"#utility.yul\":15767:15769   */\n      0x60\n        /* \"#utility.yul\":15793:15857   */\n      tag_316\n        /* \"#utility.yul\":15849:15856   */\n      dup9\n        /* \"#utility.yul\":15840:15846   */\n      dup3\n        /* \"#utility.yul\":15829:15838   */\n      dup10\n        /* \"#utility.yul\":15825:15847   */\n      add\n        /* \"#utility.yul\":15793:15857   */\n      tag_177\n      jump\t// in\n    tag_316:\n        /* \"#utility.yul\":15783:15857   */\n      swap3\n      pop\n        /* \"#utility.yul\":15738:15867   */\n      pop\n        /* \"#utility.yul\":15906:15909   */\n      0x80\n        /* \"#utility.yul\":15933:15996   */\n      tag_317\n        /* \"#utility.yul\":15988:15995   */\n      dup9\n        /* \"#utility.yul\":15979:15985   */\n      dup3\n        /* \"#utility.yul\":15968:15977   */\n      dup10\n        /* \"#utility.yul\":15964:15986   */\n      add\n        /* \"#utility.yul\":15933:15996   */\n      tag_174\n      jump\t// in\n    tag_317:\n        /* \"#utility.yul\":15923:15996   */\n      swap2\n      pop\n        /* \"#utility.yul\":15877:16006   */\n      pop\n        /* \"#utility.yul\":15042:16013   */\n      swap3\n      swap6\n      pop\n      swap3\n      swap6\n      swap1\n      swap4\n      pop\n      jump\t// out\n        /* \"#utility.yul\":16019:16429   */\n    tag_130:\n        /* \"#utility.yul\":16059:16066   */\n      0x00\n        /* \"#utility.yul\":16082:16102   */\n      tag_319\n        /* \"#utility.yul\":16100:16101   */\n      dup3\n        /* \"#utility.yul\":16082:16102   */\n      tag_141\n      jump\t// in\n    tag_319:\n        /* \"#utility.yul\":16077:16102   */\n      swap2\n      pop\n        /* \"#utility.yul\":16116:16136   */\n      tag_320\n        /* \"#utility.yul\":16134:16135   */\n      dup4\n        /* \"#utility.yul\":16116:16136   */\n      tag_141\n      jump\t// in\n    tag_320:\n        /* \"#utility.yul\":16111:16136   */\n      swap3\n      pop\n        /* \"#utility.yul\":16171:16172   */\n      dup3\n        /* \"#utility.yul\":16168:16169   */\n      dup3\n        /* \"#utility.yul\":16164:16173   */\n      mul\n        /* \"#utility.yul\":16193:16223   */\n      tag_321\n        /* \"#utility.yul\":16211:16222   */\n      dup2\n        /* \"#utility.yul\":16193:16223   */\n      tag_141\n      jump\t// in\n    tag_321:\n        /* \"#utility.yul\":16182:16223   */\n      swap2\n      pop\n        /* \"#utility.yul\":16372:16373   */\n      dup3\n        /* \"#utility.yul\":16363:16370   */\n      dup3\n        /* \"#utility.yul\":16359:16374   */\n      div\n        /* \"#utility.yul\":16356:16357   */\n      dup5\n        /* \"#utility.yul\":16353:16375   */\n      eq\n        /* \"#utility.yul\":16333:16334   */\n      dup4\n        /* \"#utility.yul\":16326:16335   */\n      iszero\n        /* \"#utility.yul\":16306:16389   */\n      or\n        /* \"#utility.yul\":16283:16422   */\n      tag_322\n      jumpi\n        /* \"#utility.yul\":16402:16420   */\n      tag_323\n      tag_152\n      jump\t// in\n    tag_323:\n        /* \"#utility.yul\":16283:16422   */\n    tag_322:\n        /* \"#utility.yul\":16067:16429   */\n      pop\n        /* \"#utility.yul\":16019:16429   */\n      swap3\n      swap2\n      pop\n      pop\n      jump\t// out\n        /* \"#utility.yul\":16435:16615   */\n    tag_178:\n        /* \"#utility.yul\":16483:16560   */\n      0x4e487b7100000000000000000000000000000000000000000000000000000000\n        /* \"#utility.yul\":16480:16481   */\n      0x00\n        /* \"#utility.yul\":16473:16561   */\n      mstore\n        /* \"#utility.yul\":16580:16584   */\n      0x12\n        /* \"#utility.yul\":16577:16578   */\n      0x04\n        /* \"#utility.yul\":16570:16585   */\n      mstore\n        /* \"#utility.yul\":16604:16608   */\n      0x24\n        /* \"#utility.yul\":16601:16602   */\n      0x00\n        /* \"#utility.yul\":16594:16609   */\n      revert\n        /* \"#utility.yul\":16621:16806   */\n    tag_132:\n        /* \"#utility.yul\":16661:16662   */\n      0x00\n        /* \"#utility.yul\":16678:16698   */\n      tag_326\n        /* \"#utility.yul\":16696:16697   */\n      dup3\n        /* \"#utility.yul\":16678:16698   */\n      tag_141\n      jump\t// in\n    tag_326:\n        /* \"#utility.yul\":16673:16698   */\n      swap2\n      pop\n        /* \"#utility.yul\":16712:16732   */\n      tag_327\n        /* \"#utility.yul\":16730:16731   */\n      dup4\n        /* \"#utility.yul\":16712:16732   */\n      tag_141\n      jump\t// in\n    tag_327:\n        /* \"#utility.yul\":16707:16732   */\n      swap3\n      pop\n        /* \"#utility.yul\":16751:16752   */\n      dup3\n        /* \"#utility.yul\":16741:16776   */\n      tag_328\n      jumpi\n        /* \"#utility.yul\":16756:16774   */\n      tag_329\n      tag_178\n      jump\t// in\n    tag_329:\n        /* \"#utility.yul\":16741:16776   */\n    tag_328:\n        /* \"#utility.yul\":16798:16799   */\n      dup3\n        /* \"#utility.yul\":16795:16796   */\n      dup3\n        /* \"#utility.yul\":16791:16800   */\n      div\n        /* \"#utility.yul\":16786:16800   */\n      swap1\n      pop\n        /* \"#utility.yul\":16621:16806   */\n      swap3\n      swap2\n      pop\n      pop\n      jump\t// out\n\n    auxdata: 0xa2646970667358221220e55b9866798d6d16bd38a2ab83d3be6126bde4fa74fb73f7194282e28fd15db264736f6c634300081e0033\n}\n",
				"bytecode": {
					"linkReferences": {},
					"object": "60806040525f600560146101000a81548160ff021916908315150217905550348015610029575f5ffd5b506040516114c93803806114c9833981810160405281019061004b919061012a565b73694aa1769357215de4fac081bf1f309adc32530660015f6101000a81548173ffffffffffffffffffffffffffffffffffffffff021916908373ffffffffffffffffffffffffffffffffffffffff1602179055503360025f6101000a81548173ffffffffffffffffffffffffffffffffffffffff021916908373ffffffffffffffffffffffffffffffffffffffff160217905550426003819055508060048190555050610155565b5f5ffd5b5f819050919050565b610109816100f7565b8114610113575f5ffd5b50565b5f8151905061012481610100565b92915050565b5f6020828403121561013f5761013e6100f3565b5b5f61014c84828501610116565b91505092915050565b611367806101625f395ff3fe608060405260043610610090575f3560e01c8063b23c30f611610058578063b23c30f61461014e578063b60d428814610176578063bea4dfb514610180578063da4658e0146101aa578063f2fde38b146101d457610090565b806313ffff0114610094578063590e1ae3146100bc5780638da5cb5b146100d25780638edd6eb6146100fc5780639f883a0514610112575b5f5ffd5b34801561009f575f5ffd5b506100ba60048036038101906100b59190610b77565b6101fc565b005b3480156100c7575f5ffd5b506100d06102ce565b005b3480156100dd575f5ffd5b506100e6610517565b6040516100f39190610bb1565b60405180910390f35b348015610107575f5ffd5b5061011061053c565b005b34801561011d575f5ffd5b5061013860048036038101906101339190610b77565b610776565b6040516101459190610be2565b60405180910390f35b348015610159575f5ffd5b50610174600480360381019061016f9190610c25565b61078a565b005b61017e61086f565b005b34801561018b575f5ffd5b50610194610968565b6040516101a19190610c7b565b60405180910390f35b3480156101b5575f5ffd5b506101be610a05565b6040516101cb9190610cae565b60405180910390f35b3480156101df575f5ffd5b506101fa60048036038101906101f59190610b77565b610a18565b005b60025f9054906101000a900473ffffffffffffffffffffffffffffffffffffffff1673ffffffffffffffffffffffffffffffffffffffff163373ffffffffffffffffffffffffffffffffffffffff161461028b576040517f08c379a000000000000000000000000000000000000000000000000000000000815260040161028290610d47565b60405180910390fd5b8060055f6101000a81548173ffffffffffffffffffffffffffffffffffffffff021916908373ffffffffffffffffffffffffffffffffffffffff16021790555050565b6004546003546102de9190610d92565b421015610320576040517f08c379a000000000000000000000000000000000000000000000000000000000815260040161031790610e0f565b60405180910390fd5b64174876e80061032f47610aea565b1061036f576040517f08c379a000000000000000000000000000000000000000000000000000000000815260040161036690610e77565b60405180910390fd5b5f5f5f3373ffffffffffffffffffffffffffffffffffffffff1673ffffffffffffffffffffffffffffffffffffffff1681526020019081526020015f2054036103ed576040517f08c379a00000000000000000000000000000000000000000000000000000000081526004016103e490610edf565b60405180910390fd5b5f3373ffffffffffffffffffffffffffffffffffffffff165f5f3373ffffffffffffffffffffffffffffffffffffffff1673ffffffffffffffffffffffffffffffffffffffff1681526020019081526020015f205460405161044e90610f2a565b5f6040518083038185875af1925050503d805f8114610488576040519150601f19603f3d011682016040523d82523d5f602084013e61048d565b606091505b505080915050806104d3576040517f08c379a00000000000000000000000000000000000000000000000000000000081526004016104ca90610f88565b60405180910390fd5b5f5f5f3373ffffffffffffffffffffffffffffffffffffffff1673ffffffffffffffffffffffffffffffffffffffff1681526020019081526020015f208190555050565b60025f9054906101000a900473ffffffffffffffffffffffffffffffffffffffff1681565b60025f9054906101000a900473ffffffffffffffffffffffffffffffffffffffff1673ffffffffffffffffffffffffffffffffffffffff163373ffffffffffffffffffffffffffffffffffffffff16146105cb576040517f08c379a00000000000000000000000000000000000000000000000000000000081526004016105c290610d47565b60405180910390fd5b6004546003546105db9190610d92565b42101561061d576040517f08c379a000000000000000000000000000000000000000000000000000000000815260040161061490610e0f565b60405180910390fd5b64174876e80061062c47610aea565b101561066d576040517f08c379a000000000000000000000000000000000000000000000000000000000815260040161066490610ff0565b60405180910390fd5b5f3373ffffffffffffffffffffffffffffffffffffffff164760405161069290610f2a565b5f6040518083038185875af1925050503d805f81146106cc576040519150601f19603f3d011682016040523d82523d5f602084013e6106d1565b606091505b50508091505080610717576040517f08c379a000000000000000000000000000000000000000000000000000000000815260040161070e90610f88565b60405180910390fd5b5f5f5f3373ffffffffffffffffffffffffffffffffffffffff1673ffffffffffffffffffffffffffffffffffffffff1681526020019081526020015f20819055506001600560146101000a81548160ff02191690831515021790555050565b5f602052805f5260405f205f915090505481565b60055f9054906101000a900473ffffffffffffffffffffffffffffffffffffffff1673ffffffffffffffffffffffffffffffffffffffff163373ffffffffffffffffffffffffffffffffffffffff1614610819576040517f08c379a00000000000000000000000000000000000000000000000000000000081526004016108109061107e565b60405180910390fd5b805f5f8473ffffffffffffffffffffffffffffffffffffffff1673ffffffffffffffffffffffffffffffffffffffff1681526020019081526020015f205f828254610864919061109c565b925050819055505050565b60045460035461087f9190610d92565b42106108c0576040517f08c379a00000000000000000000000000000000000000000000000000000000081526004016108b790611119565b60405180910390fd5b68056bc75e2d631000006108d334610aea565b1015610914576040517f08c379a000000000000000000000000000000000000000000000000000000000815260040161090b90611181565b60405180910390fd5b345f5f3373ffffffffffffffffffffffffffffffffffffffff1673ffffffffffffffffffffffffffffffffffffffff1681526020019081526020015f205f82825461095f9190610d92565b92505081905550565b5f5f60015f9054906101000a900473ffffffffffffffffffffffffffffffffffffffff1673ffffffffffffffffffffffffffffffffffffffff1663feaf968c6040518163ffffffff1660e01b815260040160a060405180830381865afa1580156109d4573d5f5f3e3d5ffd5b505050506040513d601f19601f820116820180604052508101906109f8919061121c565b5050509150508091505090565b600560149054906101000a900460ff1681565b60025f9054906101000a900473ffffffffffffffffffffffffffffffffffffffff1673ffffffffffffffffffffffffffffffffffffffff163373ffffffffffffffffffffffffffffffffffffffff1614610aa7576040517f08c379a0000000000000000000000000000000000000000000000000000000008152600401610a9e90610d47565b60405180910390fd5b8060025f6101000a81548173ffffffffffffffffffffffffffffffffffffffff021916908373ffffffffffffffffffffffffffffffffffffffff16021790555050565b5f5f610af4610968565b90506305f5e1008184610b079190611293565b610b119190611301565b915050919050565b5f5ffd5b5f73ffffffffffffffffffffffffffffffffffffffff82169050919050565b5f610b4682610b1d565b9050919050565b610b5681610b3c565b8114610b60575f5ffd5b50565b5f81359050610b7181610b4d565b92915050565b5f60208284031215610b8c57610b8b610b19565b5b5f610b9984828501610b63565b91505092915050565b610bab81610b3c565b82525050565b5f602082019050610bc45f830184610ba2565b92915050565b5f819050919050565b610bdc81610bca565b82525050565b5f602082019050610bf55f830184610bd3565b92915050565b610c0481610bca565b8114610c0e575f5ffd5b50565b5f81359050610c1f81610bfb565b92915050565b5f5f60408385031215610c3b57610c3a610b19565b5b5f610c4885828601610b63565b9250506020610c5985828601610c11565b9150509250929050565b5f819050919050565b610c7581610c63565b82525050565b5f602082019050610c8e5f830184610c6c565b92915050565b5f8115159050919050565b610ca881610c94565b82525050565b5f602082019050610cc15f830184610c9f565b92915050565b5f82825260208201905092915050565b7f746869732066756e6374696f6e2063616e206f6e6c792062652063616c6c65645f8201527f206279206f776e65720000000000000000000000000000000000000000000000602082015250565b5f610d31602983610cc7565b9150610d3c82610cd7565b604082019050919050565b5f6020820190508181035f830152610d5e81610d25565b9050919050565b7f4e487b71000000000000000000000000000000000000000000000000000000005f52601160045260245ffd5b5f610d9c82610bca565b9150610da783610bca565b9250828201905080821115610dbf57610dbe610d65565b5b92915050565b7f576169742061206d696e757465000000000000000000000000000000000000005f82015250565b5f610df9600d83610cc7565b9150610e0482610dc5565b602082019050919050565b5f6020820190508181035f830152610e2681610ded565b9050919050565b7f54617267657420697320726561636865640000000000000000000000000000005f82015250565b5f610e61601183610cc7565b9150610e6c82610e2d565b602082019050919050565b5f6020820190508181035f830152610e8e81610e55565b9050919050565b7f596f752068617665206e6f742066756e642e00000000000000000000000000005f82015250565b5f610ec9601283610cc7565b9150610ed482610e95565b602082019050919050565b5f6020820190508181035f830152610ef681610ebd565b9050919050565b5f81905092915050565b50565b5f610f155f83610efd565b9150610f2082610f07565b5f82019050919050565b5f610f3482610f0a565b9150819050919050565b7f7472616e73666572207478206661696c656400000000000000000000000000005f82015250565b5f610f72601283610cc7565b9150610f7d82610f3e565b602082019050919050565b5f6020820190508181035f830152610f9f81610f66565b9050919050565b7f546172676574206973206e6f74207265616368656400000000000000000000005f82015250565b5f610fda601583610cc7565b9150610fe582610fa6565b602082019050919050565b5f6020820190508181035f83015261100781610fce565b9050919050565b7f796f7520646f206e6f742068617665207065726d697373696f6e20746f2063615f8201527f6c6c20746869732066756e6374696f6e00000000000000000000000000000000602082015250565b5f611068603083610cc7565b91506110738261100e565b604082019050919050565b5f6020820190508181035f8301526110958161105c565b9050919050565b5f6110a682610bca565b91506110b183610bca565b92508282039050818111156110c9576110c8610d65565b5b92915050565b7f54696d65207570000000000000000000000000000000000000000000000000005f82015250565b5f611103600783610cc7565b915061110e826110cf565b602082019050919050565b5f6020820190508181035f830152611130816110f7565b9050919050565b7f53656e64206d6f726520455448000000000000000000000000000000000000005f82015250565b5f61116b600d83610cc7565b915061117682611137565b602082019050919050565b5f6020820190508181035f8301526111988161115f565b9050919050565b5f69ffffffffffffffffffff82169050919050565b6111bd8161119f565b81146111c7575f5ffd5b50565b5f815190506111d8816111b4565b92915050565b6111e781610c63565b81146111f1575f5ffd5b50565b5f81519050611202816111de565b92915050565b5f8151905061121681610bfb565b92915050565b5f5f5f5f5f60a0868803121561123557611234610b19565b5b5f611242888289016111ca565b9550506020611253888289016111f4565b945050604061126488828901611208565b935050606061127588828901611208565b9250506080611286888289016111ca565b9150509295509295909350565b5f61129d82610bca565b91506112a883610bca565b92508282026112b681610bca565b915082820484148315176112cd576112cc610d65565b5b5092915050565b7f4e487b71000000000000000000000000000000000000000000000000000000005f52601260045260245ffd5b5f61130b82610bca565b915061131683610bca565b925082611326576113256112d4565b5b82820490509291505056fea2646970667358221220e55b9866798d6d16bd38a2ab83d3be6126bde4fa74fb73f7194282e28fd15db264736f6c634300081e0033",
					"opcodes": "PUSH1 0x80 PUSH1 0x40 MSTORE PUSH0 PUSH1 0x5 PUSH1 0x14 PUSH2 0x100 EXP DUP2 SLOAD DUP2 PUSH1 0xFF MUL NOT AND SWAP1 DUP4 ISZERO ISZERO MUL OR SWAP1 SSTORE POP CALLVALUE DUP1 ISZERO PUSH2 0x29 JUMPI PUSH0 PUSH0 REVERT JUMPDEST POP PUSH1 0x40 MLOAD PUSH2 0x14C9 CODESIZE SUB DUP1 PUSH2 0x14C9 DUP4 CODECOPY DUP2 DUP2 ADD PUSH1 0x40 MSTORE DUP2 ADD SWAP1 PUSH2 0x4B SWAP2 SWAP1 PUSH2 0x12A JUMP JUMPDEST PUSH20 0x694AA1769357215DE4FAC081BF1F309ADC325306 PUSH1 0x1 PUSH0 PUSH2 0x100 EXP DUP2 SLOAD DUP2 PUSH20 0xFFFFFFFFFFFFFFFFFFFFFFFFFFFFFFFFFFFFFFFF MUL NOT AND SWAP1 DUP4 PUSH20 0xFFFFFFFFFFFFFFFFFFFFFFFFFFFFFFFFFFFFFFFF AND MUL OR SWAP1 SSTORE POP CALLER PUSH1 0x2 PUSH0 PUSH2 0x100 EXP DUP2 SLOAD DUP2 PUSH20 0xFFFFFFFFFFFFFFFFFFFFFFFFFFFFFFFFFFFFFFFF MUL NOT AND SWAP1 DUP4 PUSH20 0xFFFFFFFFFFFFFFFFFFFFFFFFFFFFFFFFFFFFFFFF AND MUL OR SWAP1 SSTORE POP TIMESTAMP PUSH1 0x3 DUP2 SWAP1 SSTORE POP DUP1 PUSH1 0x4 DUP2 SWAP1 SSTORE POP POP PUSH2 0x155 JUMP JUMPDEST PUSH0 PUSH0 REVERT JUMPDEST PUSH0 DUP2 SWAP1 POP SWAP2 SWAP1 POP JUMP JUMPDEST PUSH2 0x109 DUP2 PUSH2 0xF7 JUMP JUMPDEST DUP2 EQ PUSH2 0x113 JUMPI PUSH0 PUSH0 REVERT JUMPDEST POP JUMP JUMPDEST PUSH0 DUP2 MLOAD SWAP1 POP PUSH2 0x124 DUP2 PUSH2 0x100 JUMP JUMPDEST SWAP3 SWAP2 POP POP JUMP JUMPDEST PUSH0 PUSH1 0x20 DUP3 DUP5 SUB SLT ISZERO PUSH2 0x13F JUMPI PUSH2 0x13E PUSH2 0xF3 JUMP JUMPDEST JUMPDEST PUSH0 PUSH2 0x14C DUP5 DUP3 DUP6 ADD PUSH2 0x116 JUMP JUMPDEST SWAP2 POP POP SWAP3 SWAP2 POP POP JUMP JUMPDEST PUSH2 0x1367 DUP1 PUSH2 0x162 PUSH0 CODECOPY PUSH0 RETURN INVALID PUSH1 0x80 PUSH1 0x40 MSTORE PUSH1 0x4 CALLDATASIZE LT PUSH2 0x90 JUMPI PUSH0 CALLDATALOAD PUSH1 0xE0 SHR DUP1 PUSH4 0xB23C30F6 GT PUSH2 0x58 JUMPI DUP1 PUSH4 0xB23C30F6 EQ PUSH2 0x14E JUMPI DUP1 PUSH4 0xB60D4288 EQ PUSH2 0x176 JUMPI DUP1 PUSH4 0xBEA4DFB5 EQ PUSH2 0x180 JUMPI DUP1 PUSH4 0xDA4658E0 EQ PUSH2 0x1AA JUMPI DUP1 PUSH4 0xF2FDE38B EQ PUSH2 0x1D4 JUMPI PUSH2 0x90 JUMP JUMPDEST DUP1 PUSH4 0x13FFFF01 EQ PUSH2 0x94 JUMPI DUP1 PUSH4 0x590E1AE3 EQ PUSH2 0xBC JUMPI DUP1 PUSH4 0x8DA5CB5B EQ PUSH2 0xD2 JUMPI DUP1 PUSH4 0x8EDD6EB6 EQ PUSH2 0xFC JUMPI DUP1 PUSH4 0x9F883A05 EQ PUSH2 0x112 JUMPI JUMPDEST PUSH0 PUSH0 REVERT JUMPDEST CALLVALUE DUP1 ISZERO PUSH2 0x9F JUMPI PUSH0 PUSH0 REVERT JUMPDEST POP PUSH2 0xBA PUSH1 0x4 DUP1 CALLDATASIZE SUB DUP2 ADD SWAP1 PUSH2 0xB5 SWAP2 SWAP1 PUSH2 0xB77 JUMP JUMPDEST PUSH2 0x1FC JUMP JUMPDEST STOP JUMPDEST CALLVALUE DUP1 ISZERO PUSH2 0xC7 JUMPI PUSH0 PUSH0 REVERT JUMPDEST POP PUSH2 0xD0 PUSH2 0x2CE JUMP JUMPDEST STOP JUMPDEST CALLVALUE DUP1 ISZERO PUSH2 0xDD JUMPI PUSH0 PUSH0 REVERT JUMPDEST POP PUSH2 0xE6 PUSH2 0x517 JUMP JUMPDEST PUSH1 0x40 MLOAD PUSH2 0xF3 SWAP2 SWAP1 PUSH2 0xBB1 JUMP JUMPDEST PUSH1 0x40 MLOAD DUP1 SWAP2 SUB SWAP1 RETURN JUMPDEST CALLVALUE DUP1 ISZERO PUSH2 0x107 JUMPI PUSH0 PUSH0 REVERT JUMPDEST POP PUSH2 0x110 PUSH2 0x53C JUMP JUMPDEST STOP JUMPDEST CALLVALUE DUP1 ISZERO PUSH2 0x11D JUMPI PUSH0 PUSH0 REVERT JUMPDEST POP PUSH2 0x138 PUSH1 0x4 DUP1 CALLDATASIZE SUB DUP2 ADD SWAP1 PUSH2 0x133 SWAP2 SWAP1 PUSH2 0xB77 JUMP JUMPDEST PUSH2 0x776 JUMP JUMPDEST PUSH1 0x40 MLOAD PUSH2 0x145 SWAP2 SWAP1 PUSH2 0xBE2 JUMP JUMPDEST PUSH1 0x40 MLOAD DUP1 SWAP2 SUB SWAP1 RETURN JUMPDEST CALLVALUE DUP1 ISZERO PUSH2 0x159 JUMPI PUSH0 PUSH0 REVERT JUMPDEST POP PUSH2 0x174 PUSH1 0x4 DUP1 CALLDATASIZE SUB DUP2 ADD SWAP1 PUSH2 0x16F SWAP2 SWAP1 PUSH2 0xC25 JUMP JUMPDEST PUSH2 0x78A JUMP JUMPDEST STOP JUMPDEST PUSH2 0x17E PUSH2 0x86F JUMP JUMPDEST STOP JUMPDEST CALLVALUE DUP1 ISZERO PUSH2 0x18B JUMPI PUSH0 PUSH0 REVERT JUMPDEST POP PUSH2 0x194 PUSH2 0x968 JUMP JUMPDEST PUSH1 0x40 MLOAD PUSH2 0x1A1 SWAP2 SWAP1 PUSH2 0xC7B JUMP JUMPDEST PUSH1 0x40 MLOAD DUP1 SWAP2 SUB SWAP1 RETURN JUMPDEST CALLVALUE DUP1 ISZERO PUSH2 0x1B5 JUMPI PUSH0 PUSH0 REVERT JUMPDEST POP PUSH2 0x1BE PUSH2 0xA05 JUMP JUMPDEST PUSH1 0x40 MLOAD PUSH2 0x1CB SWAP2 SWAP1 PUSH2 0xCAE JUMP JUMPDEST PUSH1 0x40 MLOAD DUP1 SWAP2 SUB SWAP1 RETURN JUMPDEST CALLVALUE DUP1 ISZERO PUSH2 0x1DF JUMPI PUSH0 PUSH0 REVERT JUMPDEST POP PUSH2 0x1FA PUSH1 0x4 DUP1 CALLDATASIZE SUB DUP2 ADD SWAP1 PUSH2 0x1F5 SWAP2 SWAP1 PUSH2 0xB77 JUMP JUMPDEST PUSH2 0xA18 JUMP JUMPDEST STOP JUMPDEST PUSH1 0x2 PUSH0 SWAP1 SLOAD SWAP1 PUSH2 0x100 EXP SWAP1 DIV PUSH20 0xFFFFFFFFFFFFFFFFFFFFFFFFFFFFFFFFFFFFFFFF AND PUSH20 0xFFFFFFFFFFFFFFFFFFFFFFFFFFFFFFFFFFFFFFFF AND CALLER PUSH20 0xFFFFFFFFFFFFFFFFFFFFFFFFFFFFFFFFFFFFFFFF AND EQ PUSH2 0x28B JUMPI PUSH1 0x40 MLOAD PUSH32 0x8C379A000000000000000000000000000000000000000000000000000000000 DUP2 MSTORE PUSH1 0x4 ADD PUSH2 0x282 SWAP1 PUSH2 0xD47 JUMP JUMPDEST PUSH1 0x40 MLOAD DUP1 SWAP2 SUB SWAP1 REVERT JUMPDEST DUP1 PUSH1 0x5 PUSH0 PUSH2 0x100 EXP DUP2 SLOAD DUP2 PUSH20 0xFFFFFFFFFFFFFFFFFFFFFFFFFFFFFFFFFFFFFFFF MUL NOT AND SWAP1 DUP4 PUSH20 0xFFFFFFFFFFFFFFFFFFFFFFFFFFFFFFFFFFFFFFFF AND MUL OR SWAP1 SSTORE POP POP JUMP JUMPDEST PUSH1 0x4 SLOAD PUSH1 0x3 SLOAD PUSH2 0x2DE SWAP2 SWAP1 PUSH2 0xD92 JUMP JUMPDEST TIMESTAMP LT ISZERO PUSH2 0x320 JUMPI PUSH1 0x40 MLOAD PUSH32 0x8C379A000000000000000000000000000000000000000000000000000000000 DUP2 MSTORE PUSH1 0x4 ADD PUSH2 0x317 SWAP1 PUSH2 0xE0F JUMP JUMPDEST PUSH1 0x40 MLOAD DUP1 SWAP2 SUB SWAP1 REVERT JUMPDEST PUSH5 0x174876E800 PUSH2 0x32F SELFBALANCE PUSH2 0xAEA JUMP JUMPDEST LT PUSH2 0x36F JUMPI PUSH1 0x40 MLOAD PUSH32 0x8C379A000000000000000000000000000000000000000000000000000000000 DUP2 MSTORE PUSH1 0x4 ADD PUSH2 0x366 SWAP1 PUSH2 0xE77 JUMP JUMPDEST PUSH1 0x40 MLOAD DUP1 SWAP2 SUB SWAP1 REVERT JUMPDEST PUSH0 PUSH0 PUSH0 CALLER PUSH20 0xFFFFFFFFFFFFFFFFFFFFFFFFFFFFFFFFFFFFFFFF AND PUSH20 0xFFFFFFFFFFFFFFFFFFFFFFFFFFFFFFFFFFFFFFFF AND DUP2 MSTORE PUSH1 0x20 ADD SWAP1 DUP2 MSTORE PUSH1 0x20 ADD PUSH0 KECCAK256 SLOAD SUB PUSH2 0x3ED JUMPI PUSH1 0x40 MLOAD PUSH32 0x8C379A000000000000000000000000000000000000000000000000000000000 DUP2 MSTORE PUSH1 0x4 ADD PUSH2 0x3E4 SWAP1 PUSH2 0xEDF JUMP JUMPDEST PUSH1 0x40 MLOAD DUP1 SWAP2 SUB SWAP1 REVERT JUMPDEST PUSH0 CALLER PUSH20 0xFFFFFFFFFFFFFFFFFFFFFFFFFFFFFFFFFFFFFFFF AND PUSH0 PUSH0 CALLER PUSH20 0xFFFFFFFFFFFFFFFFFFFFFFFFFFFFFFFFFFFFFFFF AND PUSH20 0xFFFFFFFFFFFFFFFFFFFFFFFFFFFFFFFFFFFFFFFF AND DUP2 MSTORE PUSH1 0x20 ADD SWAP1 DUP2 MSTORE PUSH1 0x20 ADD PUSH0 KECCAK256 SLOAD PUSH1 0x40 MLOAD PUSH2 0x44E SWAP1 PUSH2 0xF2A JUMP JUMPDEST PUSH0 PUSH1 0x40 MLOAD DUP1 DUP4 SUB DUP2 DUP6 DUP8 GAS CALL SWAP3 POP POP POP RETURNDATASIZE DUP1 PUSH0 DUP2 EQ PUSH2 0x488 JUMPI PUSH1 0x40 MLOAD SWAP2 POP PUSH1 0x1F NOT PUSH1 0x3F RETURNDATASIZE ADD AND DUP3 ADD PUSH1 0x40 MSTORE RETURNDATASIZE DUP3 MSTORE RETURNDATASIZE PUSH0 PUSH1 0x20 DUP5 ADD RETURNDATACOPY PUSH2 0x48D JUMP JUMPDEST PUSH1 0x60 SWAP2 POP JUMPDEST POP POP DUP1 SWAP2 POP POP DUP1 PUSH2 0x4D3 JUMPI PUSH1 0x40 MLOAD PUSH32 0x8C379A000000000000000000000000000000000000000000000000000000000 DUP2 MSTORE PUSH1 0x4 ADD PUSH2 0x4CA SWAP1 PUSH2 0xF88 JUMP JUMPDEST PUSH1 0x40 MLOAD DUP1 SWAP2 SUB SWAP1 REVERT JUMPDEST PUSH0 PUSH0 PUSH0 CALLER PUSH20 0xFFFFFFFFFFFFFFFFFFFFFFFFFFFFFFFFFFFFFFFF AND PUSH20 0xFFFFFFFFFFFFFFFFFFFFFFFFFFFFFFFFFFFFFFFF AND DUP2 MSTORE PUSH1 0x20 ADD SWAP1 DUP2 MSTORE PUSH1 0x20 ADD PUSH0 KECCAK256 DUP2 SWAP1 SSTORE POP POP JUMP JUMPDEST PUSH1 0x2 PUSH0 SWAP1 SLOAD SWAP1 PUSH2 0x100 EXP SWAP1 DIV PUSH20 0xFFFFFFFFFFFFFFFFFFFFFFFFFFFFFFFFFFFFFFFF AND DUP2 JUMP JUMPDEST PUSH1 0x2 PUSH0 SWAP1 SLOAD SWAP1 PUSH2 0x100 EXP SWAP1 DIV PUSH20 0xFFFFFFFFFFFFFFFFFFFFFFFFFFFFFFFFFFFFFFFF AND PUSH20 0xFFFFFFFFFFFFFFFFFFFFFFFFFFFFFFFFFFFFFFFF AND CALLER PUSH20 0xFFFFFFFFFFFFFFFFFFFFFFFFFFFFFFFFFFFFFFFF AND EQ PUSH2 0x5CB JUMPI PUSH1 0x40 MLOAD PUSH32 0x8C379A000000000000000000000000000000000000000000000000000000000 DUP2 MSTORE PUSH1 0x4 ADD PUSH2 0x5C2 SWAP1 PUSH2 0xD47 JUMP JUMPDEST PUSH1 0x40 MLOAD DUP1 SWAP2 SUB SWAP1 REVERT JUMPDEST PUSH1 0x4 SLOAD PUSH1 0x3 SLOAD PUSH2 0x5DB SWAP2 SWAP1 PUSH2 0xD92 JUMP JUMPDEST TIMESTAMP LT ISZERO PUSH2 0x61D JUMPI PUSH1 0x40 MLOAD PUSH32 0x8C379A000000000000000000000000000000000000000000000000000000000 DUP2 MSTORE PUSH1 0x4 ADD PUSH2 0x614 SWAP1 PUSH2 0xE0F JUMP JUMPDEST PUSH1 0x40 MLOAD DUP1 SWAP2 SUB SWAP1 REVERT JUMPDEST PUSH5 0x174876E800 PUSH2 0x62C SELFBALANCE PUSH2 0xAEA JUMP JUMPDEST LT ISZERO PUSH2 0x66D JUMPI PUSH1 0x40 MLOAD PUSH32 0x8C379A000000000000000000000000000000000000000000000000000000000 DUP2 MSTORE PUSH1 0x4 ADD PUSH2 0x664 SWAP1 PUSH2 0xFF0 JUMP JUMPDEST PUSH1 0x40 MLOAD DUP1 SWAP2 SUB SWAP1 REVERT JUMPDEST PUSH0 CALLER PUSH20 0xFFFFFFFFFFFFFFFFFFFFFFFFFFFFFFFFFFFFFFFF AND SELFBALANCE PUSH1 0x40 MLOAD PUSH2 0x692 SWAP1 PUSH2 0xF2A JUMP JUMPDEST PUSH0 PUSH1 0x40 MLOAD DUP1 DUP4 SUB DUP2 DUP6 DUP8 GAS CALL SWAP3 POP POP POP RETURNDATASIZE DUP1 PUSH0 DUP2 EQ PUSH2 0x6CC JUMPI PUSH1 0x40 MLOAD SWAP2 POP PUSH1 0x1F NOT PUSH1 0x3F RETURNDATASIZE ADD AND DUP3 ADD PUSH1 0x40 MSTORE RETURNDATASIZE DUP3 MSTORE RETURNDATASIZE PUSH0 PUSH1 0x20 DUP5 ADD RETURNDATACOPY PUSH2 0x6D1 JUMP JUMPDEST PUSH1 0x60 SWAP2 POP JUMPDEST POP POP DUP1 SWAP2 POP POP DUP1 PUSH2 0x717 JUMPI PUSH1 0x40 MLOAD PUSH32 0x8C379A000000000000000000000000000000000000000000000000000000000 DUP2 MSTORE PUSH1 0x4 ADD PUSH2 0x70E SWAP1 PUSH2 0xF88 JUMP JUMPDEST PUSH1 0x40 MLOAD DUP1 SWAP2 SUB SWAP1 REVERT JUMPDEST PUSH0 PUSH0 PUSH0 CALLER PUSH20 0xFFFFFFFFFFFFFFFFFFFFFFFFFFFFFFFFFFFFFFFF AND PUSH20 0xFFFFFFFFFFFFFFFFFFFFFFFFFFFFFFFFFFFFFFFF AND DUP2 MSTORE PUSH1 0x20 ADD SWAP1 DUP2 MSTORE PUSH1 0x20 ADD PUSH0 KECCAK256 DUP2 SWAP1 SSTORE POP PUSH1 0x1 PUSH1 0x5 PUSH1 0x14 PUSH2 0x100 EXP DUP2 SLOAD DUP2 PUSH1 0xFF MUL NOT AND SWAP1 DUP4 ISZERO ISZERO MUL OR SWAP1 SSTORE POP POP JUMP JUMPDEST PUSH0 PUSH1 0x20 MSTORE DUP1 PUSH0 MSTORE PUSH1 0x40 PUSH0 KECCAK256 PUSH0 SWAP2 POP SWAP1 POP SLOAD DUP2 JUMP JUMPDEST PUSH1 0x5 PUSH0 SWAP1 SLOAD SWAP1 PUSH2 0x100 EXP SWAP1 DIV PUSH20 0xFFFFFFFFFFFFFFFFFFFFFFFFFFFFFFFFFFFFFFFF AND PUSH20 0xFFFFFFFFFFFFFFFFFFFFFFFFFFFFFFFFFFFFFFFF AND CALLER PUSH20 0xFFFFFFFFFFFFFFFFFFFFFFFFFFFFFFFFFFFFFFFF AND EQ PUSH2 0x819 JUMPI PUSH1 0x40 MLOAD PUSH32 0x8C379A000000000000000000000000000000000000000000000000000000000 DUP2 MSTORE PUSH1 0x4 ADD PUSH2 0x810 SWAP1 PUSH2 0x107E JUMP JUMPDEST PUSH1 0x40 MLOAD DUP1 SWAP2 SUB SWAP1 REVERT JUMPDEST DUP1 PUSH0 PUSH0 DUP5 PUSH20 0xFFFFFFFFFFFFFFFFFFFFFFFFFFFFFFFFFFFFFFFF AND PUSH20 0xFFFFFFFFFFFFFFFFFFFFFFFFFFFFFFFFFFFFFFFF AND DUP2 MSTORE PUSH1 0x20 ADD SWAP1 DUP2 MSTORE PUSH1 0x20 ADD PUSH0 KECCAK256 PUSH0 DUP3 DUP3 SLOAD PUSH2 0x864 SWAP2 SWAP1 PUSH2 0x109C JUMP JUMPDEST SWAP3 POP POP DUP2 SWAP1 SSTORE POP POP POP JUMP JUMPDEST PUSH1 0x4 SLOAD PUSH1 0x3 SLOAD PUSH2 0x87F SWAP2 SWAP1 PUSH2 0xD92 JUMP JUMPDEST TIMESTAMP LT PUSH2 0x8C0 JUMPI PUSH1 0x40 MLOAD PUSH32 0x8C379A000000000000000000000000000000000000000000000000000000000 DUP2 MSTORE PUSH1 0x4 ADD PUSH2 0x8B7 SWAP1 PUSH2 0x1119 JUMP JUMPDEST PUSH1 0x40 MLOAD DUP1 SWAP2 SUB SWAP1 REVERT JUMPDEST PUSH9 0x56BC75E2D63100000 PUSH2 0x8D3 CALLVALUE PUSH2 0xAEA JUMP JUMPDEST LT ISZERO PUSH2 0x914 JUMPI PUSH1 0x40 MLOAD PUSH32 0x8C379A000000000000000000000000000000000000000000000000000000000 DUP2 MSTORE PUSH1 0x4 ADD PUSH2 0x90B SWAP1 PUSH2 0x1181 JUMP JUMPDEST PUSH1 0x40 MLOAD DUP1 SWAP2 SUB SWAP1 REVERT JUMPDEST CALLVALUE PUSH0 PUSH0 CALLER PUSH20 0xFFFFFFFFFFFFFFFFFFFFFFFFFFFFFFFFFFFFFFFF AND PUSH20 0xFFFFFFFFFFFFFFFFFFFFFFFFFFFFFFFFFFFFFFFF AND DUP2 MSTORE PUSH1 0x20 ADD SWAP1 DUP2 MSTORE PUSH1 0x20 ADD PUSH0 KECCAK256 PUSH0 DUP3 DUP3 SLOAD PUSH2 0x95F SWAP2 SWAP1 PUSH2 0xD92 JUMP JUMPDEST SWAP3 POP POP DUP2 SWAP1 SSTORE POP JUMP JUMPDEST PUSH0 PUSH0 PUSH1 0x1 PUSH0 SWAP1 SLOAD SWAP1 PUSH2 0x100 EXP SWAP1 DIV PUSH20 0xFFFFFFFFFFFFFFFFFFFFFFFFFFFFFFFFFFFFFFFF AND PUSH20 0xFFFFFFFFFFFFFFFFFFFFFFFFFFFFFFFFFFFFFFFF AND PUSH4 0xFEAF968C PUSH1 0x40 MLOAD DUP2 PUSH4 0xFFFFFFFF AND PUSH1 0xE0 SHL DUP2 MSTORE PUSH1 0x4 ADD PUSH1 0xA0 PUSH1 0x40 MLOAD DUP1 DUP4 SUB DUP2 DUP7 GAS STATICCALL ISZERO DUP1 ISZERO PUSH2 0x9D4 JUMPI RETURNDATASIZE PUSH0 PUSH0 RETURNDATACOPY RETURNDATASIZE PUSH0 REVERT JUMPDEST POP POP POP POP PUSH1 0x40 MLOAD RETURNDATASIZE PUSH1 0x1F NOT PUSH1 0x1F DUP3 ADD AND DUP3 ADD DUP1 PUSH1 0x40 MSTORE POP DUP2 ADD SWAP1 PUSH2 0x9F8 SWAP2 SWAP1 PUSH2 0x121C JUMP JUMPDEST POP POP POP SWAP2 POP POP DUP1 SWAP2 POP POP SWAP1 JUMP JUMPDEST PUSH1 0x5 PUSH1 0x14 SWAP1 SLOAD SWAP1 PUSH2 0x100 EXP SWAP1 DIV PUSH1 0xFF AND DUP2 JUMP JUMPDEST PUSH1 0x2 PUSH0 SWAP1 SLOAD SWAP1 PUSH2 0x100 EXP SWAP1 DIV PUSH20 0xFFFFFFFFFFFFFFFFFFFFFFFFFFFFFFFFFFFFFFFF AND PUSH20 0xFFFFFFFFFFFFFFFFFFFFFFFFFFFFFFFFFFFFFFFF AND CALLER PUSH20 0xFFFFFFFFFFFFFFFFFFFFFFFFFFFFFFFFFFFFFFFF AND EQ PUSH2 0xAA7 JUMPI PUSH1 0x40 MLOAD PUSH32 0x8C379A000000000000000000000000000000000000000000000000000000000 DUP2 MSTORE PUSH1 0x4 ADD PUSH2 0xA9E SWAP1 PUSH2 0xD47 JUMP JUMPDEST PUSH1 0x40 MLOAD DUP1 SWAP2 SUB SWAP1 REVERT JUMPDEST DUP1 PUSH1 0x2 PUSH0 PUSH2 0x100 EXP DUP2 SLOAD DUP2 PUSH20 0xFFFFFFFFFFFFFFFFFFFFFFFFFFFFFFFFFFFFFFFF MUL NOT AND SWAP1 DUP4 PUSH20 0xFFFFFFFFFFFFFFFFFFFFFFFFFFFFFFFFFFFFFFFF AND MUL OR SWAP1 SSTORE POP POP JUMP JUMPDEST PUSH0 PUSH0 PUSH2 0xAF4 PUSH2 0x968 JUMP JUMPDEST SWAP1 POP PUSH4 0x5F5E100 DUP2 DUP5 PUSH2 0xB07 SWAP2 SWAP1 PUSH2 0x1293 JUMP JUMPDEST PUSH2 0xB11 SWAP2 SWAP1 PUSH2 0x1301 JUMP JUMPDEST SWAP2 POP POP SWAP2 SWAP1 POP JUMP JUMPDEST PUSH0 PUSH0 REVERT JUMPDEST PUSH0 PUSH20 0xFFFFFFFFFFFFFFFFFFFFFFFFFFFFFFFFFFFFFFFF DUP3 AND SWAP1 POP SWAP2 SWAP1 POP JUMP JUMPDEST PUSH0 PUSH2 0xB46 DUP3 PUSH2 0xB1D JUMP JUMPDEST SWAP1 POP SWAP2 SWAP1 POP JUMP JUMPDEST PUSH2 0xB56 DUP2 PUSH2 0xB3C JUMP JUMPDEST DUP2 EQ PUSH2 0xB60 JUMPI PUSH0 PUSH0 REVERT JUMPDEST POP JUMP JUMPDEST PUSH0 DUP2 CALLDATALOAD SWAP1 POP PUSH2 0xB71 DUP2 PUSH2 0xB4D JUMP JUMPDEST SWAP3 SWAP2 POP POP JUMP JUMPDEST PUSH0 PUSH1 0x20 DUP3 DUP5 SUB SLT ISZERO PUSH2 0xB8C JUMPI PUSH2 0xB8B PUSH2 0xB19 JUMP JUMPDEST JUMPDEST PUSH0 PUSH2 0xB99 DUP5 DUP3 DUP6 ADD PUSH2 0xB63 JUMP JUMPDEST SWAP2 POP POP SWAP3 SWAP2 POP POP JUMP JUMPDEST PUSH2 0xBAB DUP2 PUSH2 0xB3C JUMP JUMPDEST DUP3 MSTORE POP POP JUMP JUMPDEST PUSH0 PUSH1 0x20 DUP3 ADD SWAP1 POP PUSH2 0xBC4 PUSH0 DUP4 ADD DUP5 PUSH2 0xBA2 JUMP JUMPDEST SWAP3 SWAP2 POP POP JUMP JUMPDEST PUSH0 DUP2 SWAP1 POP SWAP2 SWAP1 POP JUMP JUMPDEST PUSH2 0xBDC DUP2 PUSH2 0xBCA JUMP JUMPDEST DUP3 MSTORE POP POP JUMP JUMPDEST PUSH0 PUSH1 0x20 DUP3 ADD SWAP1 POP PUSH2 0xBF5 PUSH0 DUP4 ADD DUP5 PUSH2 0xBD3 JUMP JUMPDEST SWAP3 SWAP2 POP POP JUMP JUMPDEST PUSH2 0xC04 DUP2 PUSH2 0xBCA JUMP JUMPDEST DUP2 EQ PUSH2 0xC0E JUMPI PUSH0 PUSH0 REVERT JUMPDEST POP JUMP JUMPDEST PUSH0 DUP2 CALLDATALOAD SWAP1 POP PUSH2 0xC1F DUP2 PUSH2 0xBFB JUMP JUMPDEST SWAP3 SWAP2 POP POP JUMP JUMPDEST PUSH0 PUSH0 PUSH1 0x40 DUP4 DUP6 SUB SLT ISZERO PUSH2 0xC3B JUMPI PUSH2 0xC3A PUSH2 0xB19 JUMP JUMPDEST JUMPDEST PUSH0 PUSH2 0xC48 DUP6 DUP3 DUP7 ADD PUSH2 0xB63 JUMP JUMPDEST SWAP3 POP POP PUSH1 0x20 PUSH2 0xC59 DUP6 DUP3 DUP7 ADD PUSH2 0xC11 JUMP JUMPDEST SWAP2 POP POP SWAP3 POP SWAP3 SWAP1 POP JUMP JUMPDEST PUSH0 DUP2 SWAP1 POP SWAP2 SWAP1 POP JUMP JUMPDEST PUSH2 0xC75 DUP2 PUSH2 0xC63 JUMP JUMPDEST DUP3 MSTORE POP POP JUMP JUMPDEST PUSH0 PUSH1 0x20 DUP3 ADD SWAP1 POP PUSH2 0xC8E PUSH0 DUP4 ADD DUP5 PUSH2 0xC6C JUMP JUMPDEST SWAP3 SWAP2 POP POP JUMP JUMPDEST PUSH0 DUP2 ISZERO ISZERO SWAP1 POP SWAP2 SWAP1 POP JUMP JUMPDEST PUSH2 0xCA8 DUP2 PUSH2 0xC94 JUMP JUMPDEST DUP3 MSTORE POP POP JUMP JUMPDEST PUSH0 PUSH1 0x20 DUP3 ADD SWAP1 POP PUSH2 0xCC1 PUSH0 DUP4 ADD DUP5 PUSH2 0xC9F JUMP JUMPDEST SWAP3 SWAP2 POP POP JUMP JUMPDEST PUSH0 DUP3 DUP3 MSTORE PUSH1 0x20 DUP3 ADD SWAP1 POP SWAP3 SWAP2 POP POP JUMP JUMPDEST PUSH32 0x746869732066756E6374696F6E2063616E206F6E6C792062652063616C6C6564 PUSH0 DUP3 ADD MSTORE PUSH32 0x206279206F776E65720000000000000000000000000000000000000000000000 PUSH1 0x20 DUP3 ADD MSTORE POP JUMP JUMPDEST PUSH0 PUSH2 0xD31 PUSH1 0x29 DUP4 PUSH2 0xCC7 JUMP JUMPDEST SWAP2 POP PUSH2 0xD3C DUP3 PUSH2 0xCD7 JUMP JUMPDEST PUSH1 0x40 DUP3 ADD SWAP1 POP SWAP2 SWAP1 POP JUMP JUMPDEST PUSH0 PUSH1 0x20 DUP3 ADD SWAP1 POP DUP2 DUP2 SUB PUSH0 DUP4 ADD MSTORE PUSH2 0xD5E DUP2 PUSH2 0xD25 JUMP JUMPDEST SWAP1 POP SWAP2 SWAP1 POP JUMP JUMPDEST PUSH32 0x4E487B7100000000000000000000000000000000000000000000000000000000 PUSH0 MSTORE PUSH1 0x11 PUSH1 0x4 MSTORE PUSH1 0x24 PUSH0 REVERT JUMPDEST PUSH0 PUSH2 0xD9C DUP3 PUSH2 0xBCA JUMP JUMPDEST SWAP2 POP PUSH2 0xDA7 DUP4 PUSH2 0xBCA JUMP JUMPDEST SWAP3 POP DUP3 DUP3 ADD SWAP1 POP DUP1 DUP3 GT ISZERO PUSH2 0xDBF JUMPI PUSH2 0xDBE PUSH2 0xD65 JUMP JUMPDEST JUMPDEST SWAP3 SWAP2 POP POP JUMP JUMPDEST PUSH32 0x576169742061206D696E75746500000000000000000000000000000000000000 PUSH0 DUP3 ADD MSTORE POP JUMP JUMPDEST PUSH0 PUSH2 0xDF9 PUSH1 0xD DUP4 PUSH2 0xCC7 JUMP JUMPDEST SWAP2 POP PUSH2 0xE04 DUP3 PUSH2 0xDC5 JUMP JUMPDEST PUSH1 0x20 DUP3 ADD SWAP1 POP SWAP2 SWAP1 POP JUMP JUMPDEST PUSH0 PUSH1 0x20 DUP3 ADD SWAP1 POP DUP2 DUP2 SUB PUSH0 DUP4 ADD MSTORE PUSH2 0xE26 DUP2 PUSH2 0xDED JUMP JUMPDEST SWAP1 POP SWAP2 SWAP1 POP JUMP JUMPDEST PUSH32 0x5461726765742069732072656163686564000000000000000000000000000000 PUSH0 DUP3 ADD MSTORE POP JUMP JUMPDEST PUSH0 PUSH2 0xE61 PUSH1 0x11 DUP4 PUSH2 0xCC7 JUMP JUMPDEST SWAP2 POP PUSH2 0xE6C DUP3 PUSH2 0xE2D JUMP JUMPDEST PUSH1 0x20 DUP3 ADD SWAP1 POP SWAP2 SWAP1 POP JUMP JUMPDEST PUSH0 PUSH1 0x20 DUP3 ADD SWAP1 POP DUP2 DUP2 SUB PUSH0 DUP4 ADD MSTORE PUSH2 0xE8E DUP2 PUSH2 0xE55 JUMP JUMPDEST SWAP1 POP SWAP2 SWAP1 POP JUMP JUMPDEST PUSH32 0x596F752068617665206E6F742066756E642E0000000000000000000000000000 PUSH0 DUP3 ADD MSTORE POP JUMP JUMPDEST PUSH0 PUSH2 0xEC9 PUSH1 0x12 DUP4 PUSH2 0xCC7 JUMP JUMPDEST SWAP2 POP PUSH2 0xED4 DUP3 PUSH2 0xE95 JUMP JUMPDEST PUSH1 0x20 DUP3 ADD SWAP1 POP SWAP2 SWAP1 POP JUMP JUMPDEST PUSH0 PUSH1 0x20 DUP3 ADD SWAP1 POP DUP2 DUP2 SUB PUSH0 DUP4 ADD MSTORE PUSH2 0xEF6 DUP2 PUSH2 0xEBD JUMP JUMPDEST SWAP1 POP SWAP2 SWAP1 POP JUMP JUMPDEST PUSH0 DUP2 SWAP1 POP SWAP3 SWAP2 POP POP JUMP JUMPDEST POP JUMP JUMPDEST PUSH0 PUSH2 0xF15 PUSH0 DUP4 PUSH2 0xEFD JUMP JUMPDEST SWAP2 POP PUSH2 0xF20 DUP3 PUSH2 0xF07 JUMP JUMPDEST PUSH0 DUP3 ADD SWAP1 POP SWAP2 SWAP1 POP JUMP JUMPDEST PUSH0 PUSH2 0xF34 DUP3 PUSH2 0xF0A JUMP JUMPDEST SWAP2 POP DUP2 SWAP1 POP SWAP2 SWAP1 POP JUMP JUMPDEST PUSH32 0x7472616E73666572207478206661696C65640000000000000000000000000000 PUSH0 DUP3 ADD MSTORE POP JUMP JUMPDEST PUSH0 PUSH2 0xF72 PUSH1 0x12 DUP4 PUSH2 0xCC7 JUMP JUMPDEST SWAP2 POP PUSH2 0xF7D DUP3 PUSH2 0xF3E JUMP JUMPDEST PUSH1 0x20 DUP3 ADD SWAP1 POP SWAP2 SWAP1 POP JUMP JUMPDEST PUSH0 PUSH1 0x20 DUP3 ADD SWAP1 POP DUP2 DUP2 SUB PUSH0 DUP4 ADD MSTORE PUSH2 0xF9F DUP2 PUSH2 0xF66 JUMP JUMPDEST SWAP1 POP SWAP2 SWAP1 POP JUMP JUMPDEST PUSH32 0x546172676574206973206E6F7420726561636865640000000000000000000000 PUSH0 DUP3 ADD MSTORE POP JUMP JUMPDEST PUSH0 PUSH2 0xFDA PUSH1 0x15 DUP4 PUSH2 0xCC7 JUMP JUMPDEST SWAP2 POP PUSH2 0xFE5 DUP3 PUSH2 0xFA6 JUMP JUMPDEST PUSH1 0x20 DUP3 ADD SWAP1 POP SWAP2 SWAP1 POP JUMP JUMPDEST PUSH0 PUSH1 0x20 DUP3 ADD SWAP1 POP DUP2 DUP2 SUB PUSH0 DUP4 ADD MSTORE PUSH2 0x1007 DUP2 PUSH2 0xFCE JUMP JUMPDEST SWAP1 POP SWAP2 SWAP1 POP JUMP JUMPDEST PUSH32 0x796F7520646F206E6F742068617665207065726D697373696F6E20746F206361 PUSH0 DUP3 ADD MSTORE PUSH32 0x6C6C20746869732066756E6374696F6E00000000000000000000000000000000 PUSH1 0x20 DUP3 ADD MSTORE POP JUMP JUMPDEST PUSH0 PUSH2 0x1068 PUSH1 0x30 DUP4 PUSH2 0xCC7 JUMP JUMPDEST SWAP2 POP PUSH2 0x1073 DUP3 PUSH2 0x100E JUMP JUMPDEST PUSH1 0x40 DUP3 ADD SWAP1 POP SWAP2 SWAP1 POP JUMP JUMPDEST PUSH0 PUSH1 0x20 DUP3 ADD SWAP1 POP DUP2 DUP2 SUB PUSH0 DUP4 ADD MSTORE PUSH2 0x1095 DUP2 PUSH2 0x105C JUMP JUMPDEST SWAP1 POP SWAP2 SWAP1 POP JUMP JUMPDEST PUSH0 PUSH2 0x10A6 DUP3 PUSH2 0xBCA JUMP JUMPDEST SWAP2 POP PUSH2 0x10B1 DUP4 PUSH2 0xBCA JUMP JUMPDEST SWAP3 POP DUP3 DUP3 SUB SWAP1 POP DUP2 DUP2 GT ISZERO PUSH2 0x10C9 JUMPI PUSH2 0x10C8 PUSH2 0xD65 JUMP JUMPDEST JUMPDEST SWAP3 SWAP2 POP POP JUMP JUMPDEST PUSH32 0x54696D6520757000000000000000000000000000000000000000000000000000 PUSH0 DUP3 ADD MSTORE POP JUMP JUMPDEST PUSH0 PUSH2 0x1103 PUSH1 0x7 DUP4 PUSH2 0xCC7 JUMP JUMPDEST SWAP2 POP PUSH2 0x110E DUP3 PUSH2 0x10CF JUMP JUMPDEST PUSH1 0x20 DUP3 ADD SWAP1 POP SWAP2 SWAP1 POP JUMP JUMPDEST PUSH0 PUSH1 0x20 DUP3 ADD SWAP1 POP DUP2 DUP2 SUB PUSH0 DUP4 ADD MSTORE PUSH2 0x1130 DUP2 PUSH2 0x10F7 JUMP JUMPDEST SWAP1 POP SWAP2 SWAP1 POP JUMP JUMPDEST PUSH32 0x53656E64206D6F72652045544800000000000000000000000000000000000000 PUSH0 DUP3 ADD MSTORE POP JUMP JUMPDEST PUSH0 PUSH2 0x116B PUSH1 0xD DUP4 PUSH2 0xCC7 JUMP JUMPDEST SWAP2 POP PUSH2 0x1176 DUP3 PUSH2 0x1137 JUMP JUMPDEST PUSH1 0x20 DUP3 ADD SWAP1 POP SWAP2 SWAP1 POP JUMP JUMPDEST PUSH0 PUSH1 0x20 DUP3 ADD SWAP1 POP DUP2 DUP2 SUB PUSH0 DUP4 ADD MSTORE PUSH2 0x1198 DUP2 PUSH2 0x115F JUMP JUMPDEST SWAP1 POP SWAP2 SWAP1 POP JUMP JUMPDEST PUSH0 PUSH10 0xFFFFFFFFFFFFFFFFFFFF DUP3 AND SWAP1 POP SWAP2 SWAP1 POP JUMP JUMPDEST PUSH2 0x11BD DUP2 PUSH2 0x119F JUMP JUMPDEST DUP2 EQ PUSH2 0x11C7 JUMPI PUSH0 PUSH0 REVERT JUMPDEST POP JUMP JUMPDEST PUSH0 DUP2 MLOAD SWAP1 POP PUSH2 0x11D8 DUP2 PUSH2 0x11B4 JUMP JUMPDEST SWAP3 SWAP2 POP POP JUMP JUMPDEST PUSH2 0x11E7 DUP2 PUSH2 0xC63 JUMP JUMPDEST DUP2 EQ PUSH2 0x11F1 JUMPI PUSH0 PUSH0 REVERT JUMPDEST POP JUMP JUMPDEST PUSH0 DUP2 MLOAD SWAP1 POP PUSH2 0x1202 DUP2 PUSH2 0x11DE JUMP JUMPDEST SWAP3 SWAP2 POP POP JUMP JUMPDEST PUSH0 DUP2 MLOAD SWAP1 POP PUSH2 0x1216 DUP2 PUSH2 0xBFB JUMP JUMPDEST SWAP3 SWAP2 POP POP JUMP JUMPDEST PUSH0 PUSH0 PUSH0 PUSH0 PUSH0 PUSH1 0xA0 DUP7 DUP9 SUB SLT ISZERO PUSH2 0x1235 JUMPI PUSH2 0x1234 PUSH2 0xB19 JUMP JUMPDEST JUMPDEST PUSH0 PUSH2 0x1242 DUP9 DUP3 DUP10 ADD PUSH2 0x11CA JUMP JUMPDEST SWAP6 POP POP PUSH1 0x20 PUSH2 0x1253 DUP9 DUP3 DUP10 ADD PUSH2 0x11F4 JUMP JUMPDEST SWAP5 POP POP PUSH1 0x40 PUSH2 0x1264 DUP9 DUP3 DUP10 ADD PUSH2 0x1208 JUMP JUMPDEST SWAP4 POP POP PUSH1 0x60 PUSH2 0x1275 DUP9 DUP3 DUP10 ADD PUSH2 0x1208 JUMP JUMPDEST SWAP3 POP POP PUSH1 0x80 PUSH2 0x1286 DUP9 DUP3 DUP10 ADD PUSH2 0x11CA JUMP JUMPDEST SWAP2 POP POP SWAP3 SWAP6 POP SWAP3 SWAP6 SWAP1 SWAP4 POP JUMP JUMPDEST PUSH0 PUSH2 0x129D DUP3 PUSH2 0xBCA JUMP JUMPDEST SWAP2 POP PUSH2 0x12A8 DUP4 PUSH2 0xBCA JUMP JUMPDEST SWAP3 POP DUP3 DUP3 MUL PUSH2 0x12B6 DUP2 PUSH2 0xBCA JUMP JUMPDEST SWAP2 POP DUP3 DUP3 DIV DUP5 EQ DUP4 ISZERO OR PUSH2 0x12CD JUMPI PUSH2 0x12CC PUSH2 0xD65 JUMP JUMPDEST JUMPDEST POP SWAP3 SWAP2 POP POP JUMP JUMPDEST PUSH32 0x4E487B7100000000000000000000000000000000000000000000000000000000 PUSH0 MSTORE PUSH1 0x12 PUSH1 0x4 MSTORE PUSH1 0x24 PUSH0 REVERT JUMPDEST PUSH0 PUSH2 0x130B DUP3 PUSH2 0xBCA JUMP JUMPDEST SWAP2 POP PUSH2 0x1316 DUP4 PUSH2 0xBCA JUMP JUMPDEST SWAP3 POP DUP3 PUSH2 0x1326 JUMPI PUSH2 0x1325 PUSH2 0x12D4 JUMP JUMPDEST JUMPDEST DUP3 DUP3 DIV SWAP1 POP SWAP3 SWAP2 POP POP JUMP INVALID LOG2 PUSH5 0x6970667358 0x22 SLT KECCAK256 JUMPF 0x5B98 PUSH7 0x798D6D16BD38A2 0xAB DUP4 0xD3 0xBE PUSH2 0x26BD RETF STATICCALL PUSH21 0xFB73F7194282E28FD15DB264736F6C634300081E00 CALLER "
				},
				"gasEstimates": {
					"creation": {
						"codeDepositCost": "993400",
						"executionCost": "infinite",
						"totalCost": "infinite"
					},
					"external": {
						"fund()": "infinite",
						"fundersToAmount(address)": "2890",
						"getChainlinkDataFeedLatestAnswer()": "infinite",
						"getFund()": "infinite",
						"getFundSuccess()": "2583",
						"owner()": "2553",
						"refund()": "infinite",
						"setErc20Addr(address)": "26885",
						"setFundersToAmount(address,uint256)": "infinite",
						"transferOwnership(address)": "26972"
					},
					"internal": {
						"convertEthToUsd(uint256)": "infinite"
					}
				},
				"methodIdentifiers": {
					"fund()": "b60d4288",
					"fundersToAmount(address)": "9f883a05",
					"getChainlinkDataFeedLatestAnswer()": "bea4dfb5",
					"getFund()": "8edd6eb6",
					"getFundSuccess()": "da4658e0",
					"owner()": "8da5cb5b",
					"refund()": "590e1ae3",
					"setErc20Addr(address)": "13ffff01",
					"setFundersToAmount(address,uint256)": "b23c30f6",
					"transferOwnership(address)": "f2fde38b"
				}
			},
			"storageLayout": {
				"storage": [
					{
						"astId": 53,
						"contract": "FundMe.sol:FundMe",
						"label": "fundersToAmount",
						"offset": 0,
						"slot": "0",
						"type": "t_mapping(t_address,t_uint256)"
					},
					{
						"astId": 63,
						"contract": "FundMe.sol:FundMe",
						"label": "dataFeed",
						"offset": 0,
						"slot": "1",
						"type": "t_contract(AggregatorV3Interface)45"
					},
					{
						"astId": 72,
						"contract": "FundMe.sol:FundMe",
						"label": "owner",
						"offset": 0,
						"slot": "2",
						"type": "t_address"
					},
					{
						"astId": 74,
						"contract": "FundMe.sol:FundMe",
						"label": "deploymentTimestamp",
						"offset": 0,
						"slot": "3",
						"type": "t_uint256"
					},
					{
						"astId": 76,
						"contract": "FundMe.sol:FundMe",
						"label": "lockTime",
						"offset": 0,
						"slot": "4",
						"type": "t_uint256"
					},
					{
						"astId": 78,
						"contract": "FundMe.sol:FundMe",
						"label": "erc20Addr",
						"offset": 0,
						"slot": "5",
						"type": "t_address"
					},
					{
						"astId": 81,
						"contract": "FundMe.sol:FundMe",
						"label": "getFundSuccess",
						"offset": 20,
						"slot": "5",
						"type": "t_bool"
					}
				],
				"types": {
					"t_address": {
						"encoding": "inplace",
						"label": "address",
						"numberOfBytes": "20"
					},
					"t_bool": {
						"encoding": "inplace",
						"label": "bool",
						"numberOfBytes": "1"
					},
					"t_contract(AggregatorV3Interface)45": {
						"encoding": "inplace",
						"label": "contract AggregatorV3Interface",
						"numberOfBytes": "20"
					},
					"t_mapping(t_address,t_uint256)": {
						"encoding": "mapping",
						"key": "t_address",
						"label": "mapping(address => uint256)",
						"numberOfBytes": "32",
						"value": "t_uint256"
					},
					"t_uint256": {
						"encoding": "inplace",
						"label": "uint256",
						"numberOfBytes": "32"
					}
				}
			},
			"userdoc": {
				"kind": "user",
				"methods": {},
				"version": 1
			}
		}
	}
}